:020000040800F2
:10C8000038C10020E1CA0008A55A0108553B0108BB
:10C8100035510108E1F90008DDC4010800000000FD
:10C82000000000000000000000000000F775010893
:10C83000B11B010800000000F95B0108CD8301086D
:10C84000FBCA0008FBCA0008FBCA0008FBCA0008B4
:10C85000FBCA0008FBCA0008FBCA000899210108AE
:10C86000FBCA0008FBCA000839220108E5090108D3
:10C87000FBCA0008FBCA0008FBCA0008FBCA000884
:10C88000FBCA0008FBCA0008FBCA0008FBCA000874
:10C89000FBCA0008FBCA0008FBCA0008D92201082D
:10C8A000FBCA0008FBCA0008FBCA0008FBCA000854
:10C8B00061840108FBCA000899840108FBCA0008CA
:10C8C000FBCA0008FBCA0008FBCA0008FBCA000834
:10C8D000FBCA0008FBCA00087D880108D58801084A
:10C8E000F5200108FBCA0008FBCA00080000000090
:10C8F0000000000000000000000000000000000038
:10C900000000000000000000C1840108FBCA00080C
:10C910001D880108FBCA0008E98401081185010887
:10C92000FBCA0008990A0108FBCA0008FBCA0008F4
:10C93000FBCA0008FBCA0008FBCA0008FBCA0008C3
:10C94000FBCA0008FBCA0008FBCA00082D5B0108EF
:10C9500000F002F800F0B4F80AA090E8000C82445D
:10C960008344AAF10107DA4501D100F0A9F8AFF23A
:10C97000090EBAE80F0013F0010F18BFFB1A43F0BD
:10C980000103184740470200604702000A444FF085
:10C99000000C10F8013B13F0070408BF10F8014B1E
:10C9A0001D1108BF10F8015B641E05D010F8016B63
:10C9B000641E01F8016BF9D113F0080F1EBF10F8C7
:10C9C000014BAD1C0C1B09D16D1E58BF01F801CBEA
:10C9D000FAD505E014F8016B01F8016B6D1EF9D56D
:10C9E0009142D6D370470000002300240025002682
:10C9F000103A28BF78C1FBD8520728BF30C148BFC2
:10CA00000B6070476E2900F09484702900F0FB875A
:10CA1000662915F0E786652915F0E486672915F083
:10CA2000E186612915F0E08603681B0A28BF41F002
:10CA30008001692900F01C81642900F019817529A1
:10CA400000F016816F2900F08887782900F0C787E9
:10CA5000E92900F02387E42900F02087F52900F078
:10CA60001D87EF2900F08587F82900F0C687036845
:10CA7000DB0928BF41F08001632900F0A4867329F7
:10CA800000F0A986E32901F09382F32901F098824E
:10CA9000002070471FB59DE8030000F077FB01F010
:10CAA00053F804000020002114F084FC401C606056
:10CAB0000020002114F068FCE0601FBD10B510BD1F
:10CAC00001F08CFB1146FFF7E5FF13F0A5F901F02B
:10CAD00035FE03B4FFF7F2FF03BC01F065FE000072
:10CAE0000948804709480047FEE7FEE7FEE7FEE702
:10CAF000FEE7FEE7FEE7FEE7FEE7FEE7044805493E
:10CB0000054A064B70470000F583010851C900082B
:10CB100038B7002038C1002038B9002038B90020CB
:10CB200070B5064600F012FB056806F10B0020F018
:10CB30000704B4429CBF002070BD2B466A68BAB19E
:10CB40001068A04210D304F1080188423CBF50682D
:10CB5000586007D35168101941601168091B0160C2
:10CB600058601460101D70BD13465268002AE7D14A
:10CB70002146284600F0F6FA0028DED170BD70B5D7
:10CB80000446051F00F0E2FA0068002C14BF446858
:10CB900070BD002C18BFAC423CBF20466468F8D37F
:10CBA00001680A18AA4218BF456003D12A680546E1
:10CBB0001144016028684119A1421CBF6C6070BD1E
:10CBC0006168696021680844286070BD1CB50C4626
:10CBD000064B7B4469460090204600F0D2FD044697
:10CBE0000020694600F0E0FD20461CBDD30B00008C
:10CBF0000FB41CB5084B06AA7B4469460090059803
:10CC000000F0BFFD04460020694600F0CDFD20463F
:10CC10001CBC5DF814FB0000AD0B000070B50C46A9
:10CC20000546012A05D02878800600D5EA69002348
:10CC300002E0012305E05B1C934202D2E05C002885
:10CC4000F9D1A869E618C01AA861286A18442862B0
:10CC5000284600F0DCFA04E0D5E9012114F8010BC4
:10CC60009047B442F8D3284600F0E7FA70BD0000C0
:10CC70002DE9F0410646002410687529314616A5B5
:10CC800010D000F0EBFA002802DA404213A507E0CA
:10CC900031688A0701D512A502E0490704D511A51C
:10CCA000012401E000F0E3FA00210A2206F1240742
:10CCB00009E0B0FBF2FCB0FBF2F302FB1C003030E9
:10CCC00078541846491C0028F3D123462A4630469A
:10CCD000BDE8F04100F0D4BA000000002D000000D3
:10CCE0002B000000200000002DE9F05F894604467B
:10CCF0004FF0000ADFF874B1FB44C0F820A02046D2
:10CD0000E1688847002874D0252806D0D4E901219D
:10CD10009047206A401C2062F1E700265F462046CB
:10CD2000E16888472028054607DB312D05D27819B0
:10CD300010F8200C08B10643F1E7B00701D526F042
:10CD40000406C4F81CA00027C4F818A02A2D09D096
:10CD500028460FF07AFF38B304EB8708303DC8F857
:10CD6000185019E059F8041B204604EB8702916122
:10CD7000E1688847012F054618D1E069002820DACC
:10CD800026F020061DE0D8F8180000EB800005EB27
:10CD900040003038C8F818002046E168884705464A
:10CDA0000FF053FF0028EED1012F0AD02E2D08D10D
:10CDB0002046E16888477F1C0546022F46F0200682
:10CDC000C4DBA069002803DA404246F00106A061F6
:10CDD000F00701D026F010066C2D0BD0682D09D07D
:10CDE0004C2D39D06A2D35D0742D35D07A2D33D0D5
:10CDF00016E038E0E1682F4620468847B8420546ED
:10CE000009D16C2F26D04FF48060E168064320469C
:10CE10008847054604E06C2F1AD04FF48070064313
:10CE20000DB3A5F14100192802D8203546F400665B
:10CE30004A462946204626604E46FFF7E3FD80B16C
:10CE400001280BD0F61D26F0070000F1080956E76F
:10CE50004020E4E78020D8E70020D6E706F1040967
:10CE60004DE7284652E7206ABDE8F09FDC3A020011
:10CE700070B5064600F06EF90468054630460A2291
:10CE8000002100F01DFE2C6070BD30B505460B463C
:10CE90002A4613F8014B12F8010B08B1A042F8D052
:10CEA0001CB1002802D06D1CF1E7284630BD40EAD5
:10CEB000010310B59B070FD1042A0DD310C808C970
:10CEC000121F9C42F8D020BA19BA884201D9012019
:10CED00010BD4FF0FF3010BD1AB1D30703D0521C64
:10CEE00007E0002010BD10F8013B11F8014B1B1B9F
:10CEF00007D110F8013B11F8014B1B1B01D1921E09
:10CF0000F1D1184610BD10B5431C02E010F8011B0A
:10CF100071B18107FAD14FF0013202C88C1A8C43EB
:10CF200014EAC211F9D0C01A0A0603D0C01E10BDFF
:10CF3000C01A10BD0A0401D0801E10BD0902FCD029
:10CF4000401E10BD032A40F2308010F0030C00F0A8
:10CF5000158011F8013BBCF1020F624498BF11F833
:10CF600001CB00F8013B38BF11F8013BA2F10402EC
:10CF700098BF00F801CB38BF00F8013B11F0030364
:10CF800000F02580083AC0F0088051F8043B083AC8
:10CF900051F804CBA0E80810F5E7121D5CBF51F86A
:10CFA000043B40F8043BAFF30080D20724BF11F8E4
:10CFB000013B11F801CB48BF11F8012B24BF00F849
:10CFC000013B00F801CB48BF00F8012B704710B5BA
:10CFD000203AC0F00B80B1E81850203AA0E8185071
:10CFE000B1E81850A0E81850BFF4F5AF5FEA027C32
:10CFF00024BFB1E81850A0E8185044BF18C918C0A1
:10D00000BDE810405FEA827C24BF51F8043B40F841
:10D01000043B08BF7047D20728BF31F8023B48BF26
:10D0200011F8012B28BF20F8023B48BF00F8012B64
:10D0300070474FF000020429C0F0128010F0030C7A
:10D0400000F01B80CCF1040CBCF1020F18BF00F8FB
:10D05000012BA8BF20F8022BA1EB0C0100F00DB8AA
:10D060005FEAC17C24BF00F8012B00F8012B48BF08
:10D0700000F8012B70474FF0000200B513469446AC
:10D080009646203922BFA0E80C50A0E80C50B1F120
:10D090002001BFF4F7AF090728BFA0E80C5048BF34
:10D0A0000CC05DF804EB890028BF40F8042B08BFD2
:10D0B000704748BF20F8022B11F0804F18BF00F8CE
:10D0C000012B70474FF0013C50F8042B51F8043B02
:10D0D0009A4221D1A2EB0C03934313EACC1317D14C
:10D0E00050F8042B51F8043B9A4215D1A2EB0C03E3
:10D0F000934313EACC130BD150F8042B51F8043BA3
:10D100009A4209D1A2EB0C03934313EACC13DBD070
:10D110004FF00000704700BFD01A01BAB1FA81F198
:10D1200001F0180122FA01F0CB40C1F12001DBB27D
:10D13000C0B2C01A2CFA01F3D11A914311EAC311FB
:10D14000E6D170477047704770470000004870474D
:10D15000E0B6002000487047D8B6002070477047FE
:10D160007047704738B504460A4600206946AFF359
:10D170000080002808BF38BD02460099204600F014
:10D18000E7FC012038BD012001F020B8F8B5AFF36D
:10D190000080054600200C46102000BF0646A81956
:10D1A000A0420DD9324669460020AFF30080070047
:10D1B00008BF01F00BF80098A04218BF0546C4193B
:10D1C000FFF7C4FF05600746F01D20F00700461971
:10D1D000284600F00AF8B44208BFF8BDA21B314649
:10D1E0003868BDE8F84000F0B3BC00210160C0E938
:10D1F000011070471020704710B5FFF7ABFF0068B3
:10D2000010BD10B50446FFF7A5FF046010BD70B552
:10D21000044685690068C10601D5302600E0202655
:10D22000C00707D070BDD4E9012130469047206A7D
:10D23000401C20626D1EF6D570BD70B50446856930
:10D240000078C00707D170BDD4E9012120209047A4
:10D25000206A401C20626D1EF6D570BD09684A0523
:10D2600001D540B27047C905FCD500B270470968C6
:10D270004A0501D5C0B27047C905FCD580B27047D8
:10D280002DE9F0470D4699469246044600F12408E0
:10D290000168880604D5E06921F01001216000E0F2
:10D2A0000120A84201DD471B00E00027A1697A198F
:10D2B00002EB0900081AA0612078C00602D42046BB
:10D2C000FFF7A5FF002608E0D4E901211AF80600BF
:10D2D0009047206A401C761C20624E45F4DB207883
:10D2E000C0060AD52046FFF792FF06E0D4E90121E7
:10D2F00030209047206A401C2062381EA7F10107A9
:10D30000F4DC07E0D4E9012118F805009047206A11
:10D31000401C2062281EA5F10105F3DC2046FFF722
:10D320008CFF2078000602D50220BDE8F08701209E
:10D33000FBE711680268006A530501D508700AE02E
:10D34000D30501D5088006E0130603D5C217C1E94D
:10D35000000200E008600120704770472DE9FF4F90
:10D360000C461E464FF0FF378BB0D2E90001DDF8C6
:10D3700060800A908A46C1F30A5505B93D460021EE
:10D3800008464FF00000BAF1000F00F4400005DA43
:10D3900000EB80004FF4400101EA50004FEA905941
:10D3A000B9F1010F00DDB9460A9850EA4A000ED0E3
:10D3B00044F61050A5F2FF3545432F14B8F1000F85
:10D3C0001ED07542291E1EDDC9F100021CE0B8F115
:10D3D000010F4FF0000001D0302103E0F24305E0DF
:10D3E0002154401CB042FBDB304600220021215476
:10D3F0000B99C1F80880C1E900200FB0BDE8F08F9B
:10D40000BD1B6D1CDEE74A4600DA694206A800F043
:10D410004BFE06AB93E8070003AB83E807005046DA
:10D420000A9901F024FC8DE80700A0F500501F3890
:10D4300000900398002D0ADD42F21F014A4608447D
:10D44000002303A90390684601F0D0FE09E0A0F58F
:10D4500000504A461F38002303A90390684601F094
:10D46000EFFE8DE807000004000C03D04FF0FF3002
:10D47000410800E01046B8F1000F03D000220092EE
:10D4800015461EE0751E05D400F07CFB3032625557
:10D490006D1EF9D5B3460122084302D000227F1C3D
:10D4A00004E02078302801D100227F1E002A09974D
:10D4B00084D01DE0112D07DA00F064FB3032625594
:10D4C0006D1C50EA0102F5D1084302D00098C8B1A2
:10D4D0000EE00021681E05E0235C625C6354225468
:10D4E000401E491C8142F7DBAB46A81B401E099039
:10D4F000002004F80B000B98099AC0F80880C0E9D6
:10D50000002B7AE711264FF0000857E72DE9F04F7E
:10D5100088460446D21D22F0070191B0D1E90001EE
:10D52000CDE90A010EF0DCFF02460B98C00F01D0D6
:10D530002D2007E02068810701D52B2002E0202163
:10D5400001EAC000032A099001D0072A05DB03463F
:10D550004146204600F0E2FC0BE12078800601D530
:10D56000E06900E00620B8F1650F814606D0B8F109
:10D57000660F18D0B8F1670F70D131E00020B9F113
:10D58000110F009001DB112301E009F101030AAA48
:10D5900001A90CA8FFF7E2FEDDE90C70002609F1F5
:10D5A0000105834647E001204B4600904FF00047BD
:10D5B0000AAA01A90CA8FFF7D1FEDDE90DB00C996C
:10D5C0005D46002610B909F101000D18B9EB050000
:10D5D00003D4C0F1FF3609F10105A5EB09002BE0EA
:10D5E000B9F1010F01DA4FF001090020B9F1110F73
:10D5F0000090484601DD112300E003460AAA01A974
:10D600000CA8FFF7ABFEDDE90C704D460026834603
:10D61000207800070AD4AB4500DA5D4601A8012D49
:10D6200004DD411911F8011C302907D04F4502DAF9
:10D6300017F1040F04DA012082460FE06D1EEEE7B9
:10D64000002F02DCED1B3E4403E0781CA84200DD05
:10D650007D1CB81B00F1010A4FF00047207800073D
:10D6600003D4AA4501DB4FF0FF3A0021B7F1004F88
:10D670000DF143088DF8431024D002202B23002FF6
:10D6800001DA7F422D230A21021EA0F1010000DCF5
:10D690005FB197FBF1FC97FBF1F201FB1C7C174695
:10D6A0000CF1300C08F801CDEEE7A8F10100037091
:10D6B0002188090501D5452100E06521A0F1010877
:10D6C00000F8011C09980FA9A1EB0807FF1D00B184
:10D6D0000120411901EBEA70A1693844081A401E83
:10D6E000A0612078C00602D42046FFF790FD09987B
:10D6F00028B1D4E901219047206A401C206220789B
:10D70000C00622D52046FFF782FD1EE0002E04DB76
:10D71000B34502DD01A8805D00E03020D4E901219D
:10D720009047206A401C2062761CAAF101005FEA43
:10D73000000A0AD100F008FAC0680168405CD4E928
:10D7400001219047206A401C2062281EA5F1010596
:10D75000DCDC07E0D4E9012118F8010B9047206ACE
:10D76000401C2062381EA7F10107F3DC2046FFF7BA
:10D7700064FD032011B041E601694A1C026108788A
:10D78000704700B58FB0CDE9013100210591054901
:10D790007944CDE9031011466846FFF7A5FA0FB0AA
:10D7A00000BD0000E5FFFFFF0A6802F8010B0A60F8
:10D7B000704710B5436913B1AFF3008001E0FFF784
:10D7C0002DFA012010BD127800F124010A70002208
:10D7D0004A700122EDE711684FF0FF32E9E70000DF
:10D7E0002DE9FF5F15468A460446DFF8AC80F84411
:10D7F0000027D8E900103E46CDE9001010E03AF8C5
:10D8000016106A4602A800F0C1FC411C07D021781E
:10D81000890603D5E269391891420DD80744761C70
:10D820002078800602D5E069B84205DDAE42E6DB2D
:10D830003AF816000028E2D1A069C01BA06120467A
:10D84000FFF7E5FCD8E90010CDE90010002017E053
:10D850003AF818106A4602A800F098FCB0F1FF3FB1
:10D8600081460BD000250DF1080B05E0D4E901211C
:10D870001BF8050090476D1C4D45F7D308F10100DA
:10D88000B0428046E4DB206A384420622046FFF73D
:10D89000D4FCBDE8FF9F0000BE3002002DE9F0413E
:10D8A0008046D21D22F007020025D2E90002F529A8
:10D8B00015A614D0011E72F1000106DA0023D0EB88
:10D8C000030063EB020211A608E0D8F800108B07F2
:10D8D00001D50FA602E0490701D50EA60125114684
:10D8E000002408F1240704E000F04CF930323A55E6
:10D8F000641C50EA0102F7D12B46324621464046CD
:10D90000BDE8F041FFF7BCBC000000002D000000A6
:10D910002B0000002000000030B4002100F124049E
:10D9200008E002F00705D208303542EA4372DB080E
:10D930006554491C52EA0305F3D10468002310A280
:10D94000250707D5A40600D421B1C46901230DA27F
:10D95000641EC46130BCFFF793BC10B50446214679
:10D960001068FFF784FC02462046BDE81040002303
:10D97000D2E7D21D22F00701D1E90023CCE7000055
:10D980000000000030000000F0B40D4601880905D9
:10D9900002D5214C7C4402E01F4C7C440E34002113
:10D9A00000F1240608E002F00F071209E75D42EAE1
:10D9B00003721B097754491C52EA0307F3D102781A
:10D9C0000023120704D5702D06D009B102231134AB
:10D9D0002246F0BCFFF754BC01231034F8E770B5C1
:10D9E00004460D4621461068FFF741FC02462946D1
:10D9F0002046BDE870400023C6E7D21D22F0070391
:10DA0000D3E90023C0E70368126843F020030360F2
:10DA10000823C3610023B7E7202F02000FB40023BF
:10DA200000B589B00CA900910B99CB60214B7B44C8
:10DA30000693214B7B44079304236FF00042CDE90A
:10DA400001321E4A7A446B4608920246002014F0C6
:10DA50002DFF09B05DF814FB70B506464FF0FF309E
:10DA600015460C46324686B00091CDE90101694663
:10DA70000020049004A8FFF7D1FF02460498211863
:10DA800025B108B1084600E0204628600498002827
:10DA90000DD0002A02DD0098884208D03246081BCB
:10DAA00069460094CDE9010404A8FFF7B7FF06B06A
:10DAB00070BD000097050000AF050000C701000021
:10DAC0002DE9F04791460F4680460446002614F89B
:10DAD000015B2DB100F030F80068405DC007F6D161
:10DAE0002B2D02D02D2D18D0641E4A4639462046D3
:10DAF00000F08AFA27B13968A14201D1C7F8008045
:10DB00004FF0020471050BD54042002803DDFFF7FA
:10DB100021FB0460A007BDE8F08746F48066E4E7D7
:10DB20000028F8DAFFF716FB04606FF00040F2E718
:10DB300000487047D8B6002010B500F005F8001D69
:10DB400010BD00BF7138010000487047F8B60020D2
:10DB5000034640688C46002818BF88423CBF0346F5
:10DB60004068F8D318681844884207D00CF10300C5
:10DB700020F00700001D411A521A0146081D0A60D4
:10DB8000FEF7FDBF30B5B0F10A024FEA900E71F119
:10DB900000034EEA817EB0EB0E0061EB91014FEA8B
:10DBA000101E4EEA017E10EB0E0041EB11114FEA00
:10DBB000102E4EEA016E10EB0E0041EB11214FEAE0
:10DBC000104E4EEA014E10EB0E0041EB1141401891
:10DBD00041F100014FEAD00040EA41704FEAD10123
:10DBE00010EB80054FEA810444EA907444EB010491
:10DBF0006D1944EB0404521BA3414FF0000348BFCE
:10DC00000A3200D530BD401C41F1000130BD10B5D5
:10DC10000446FFF791FF0068005D00F0010010BDB1
:10DC20002DE9F04F04460D46D21D22F0070089B0C1
:10DC3000D0E90097484639460EF052FC0246F80FEC
:10DC400001D02D2307E02068810701D52B2302E0B6
:10DC5000202101EAC0038DF820300BB1012000E043
:10DC60000020032A824601D0072A04DB29462046E9
:10DC700000F054F93FE12078800601D40D2500E042
:10DC8000E569C7F30A560D2D49DA00214FEA175B03
:10DC900008464FF00000002F00F4400007DA00EBC8
:10DCA00080004FF4400100EBD07001EA6000811564
:10DCB000012901DD4FF0FF3100224FEA850CBCF154
:10DCC000180F06D31346ACF118004FF08052C24033
:10DCD00003E04FF4801323FA0CF30CF10C0CBCF1AD
:10DCE000200F04D3ACF1200C09FA0CF001E007FA84
:10DCF0000CF000294FF0004801DD18B90FE00ED1FB
:10DD000040450CD319EB02095F4121B9404502D1CE
:10DD10009F4329EA0209BBEB175F00D0761C2088DD
:10DD2000000502D57B48784402E07A4878441938E7
:10DD300008AA302302F80A30037C0AF10101002E00
:10DD40000AF1020A53546A4602DC4FF0300101E046
:10DD50004FF031014FF001088DF8001002D0A6F20B
:10DD6000FF3603E059EA470100D06B4E002D02DC7C
:10DD70002178090704D54FF002082E218DF80110F3
:10DD8000C44600210BE0C7F303433F01C35C491CB9
:10DD90006D1E02F80830052908F1010801DA002D8E
:10DDA000F1DC00210CE000EB1973491C1B786D1E9F
:10DDB000082902F808304FEA091908F1010801DAC8
:10DDC000002DF0DC21688B0602D516E0A8F10108D1
:10DDD000E04505DD02EB080313F8013C302BF5D0DC
:10DDE000B8F1000F09DD02EB080313F8013C2E2BFC
:10DDF00003D1090701D4A8F10108002D05DD3E215A
:10DE000002F808106D1E08F10108407C002E02F88F
:10DE1000080008F1010804DA2D20764202F8080013
:10DE200002E02B2002F808000A214FF47A708642A3
:10DE300008F101080BDB96FBF0F3303302F80830F1
:10DE400096FBF0F308F1010800FB136601E0642E75
:10DE50000CDB642096FBF0F3303302F8083096FBBD
:10DE6000F0F308F1010800FB136601E00A2E06DB5F
:10DE700096FBF1F0303002F8080008F1010896FB3B
:10DE8000F1F001FB1060303002F80800A16908F1E0
:10DE9000010808EB050202EB0A00081AA0612078CD
:10DEA000C00602D42046FFF7B2F9216A08AE01EBA2
:10DEB0000A00206204E0D4E9012116F8010B904722
:10DEC000BAF1010AF7D22078C00602D52046FFF742
:10DED0009EF96E4609E016F8010B3E280FD0D4E9F2
:10DEE00001219047206A401C2062B8F10108F2D25B
:10DEF0002046FFF7A2F909B00320BDE8F08F206AA1
:10DF00002844206203E0D4E90121302090476D1EAF
:10DF1000EBD3F8E7F12C020002FCFFFF2DE9F04102
:10DF20001F46044603260168072A01F4006004DB4B
:10DF300008B116A505E016A503E008B115A500E097
:10DF400015A521F010002060A069C01EA0610FB1CE
:10DF5000401EA0612046FFF75AF94FB1D4E90121D4
:10DF600038469047206A401C2062C01C206206E0B0
:10DF7000206AFAE7D4E9012115F8010B9047761ED3
:10DF8000F8D22046FFF759F9BDE8F0814E414E0026
:10DF90006E616E00494E4600696E660010B54369B9
:10DFA00013B1AFF3008001E0FFF71AFC012010BDB0
:10DFB000128800F1240182840022C2840122EDE74C
:10DFC00011684FF0FF32E9E7426842B1016811F889
:10DFD000013B23B1521EC0E90012184670470121CF
:10DFE000C160881E704742685AB1C368016843B96E
:10DFF00083688B4205D0491E521CC0E900120020E4
:10E0000070474FF0FF3070472DE9F05F82461546AC
:10E010008B4600270AF10104B9460078302801D068
:10E020009DB113E014F8010B0127782803D058287C
:10E0300001D045B10AE00DB1102D07D1002714F829
:10E04000010B102502E0082500E00A250026B04655
:10E050000EE005FB080005FB06F101271FFA80F81A
:10E0600001EB1046B6F5803F00D3B94614F8010B1A
:10E07000294600F0D8F80028EBDABBF1000F05D0F4
:10E080000FB1641E00E05446CBF80040B9F1000F18
:10E0900006D0FFF75FF802210160C81EBDE8F09FBF
:10E0A00048EA0640FAE700002DE9F04781461646A7
:10E0B0008AB0354878440DC88DE80D003248784460
:10E0C000801C03AC0DC884E80D0041F69B30084469
:10E0D000372190FBF1F290FBF1F5A5F1800501FBF2
:10E0E00012041B3C02D56442012000E00020DFF84E
:10E0F00098A080460027FA44AAF1BE0A0EE0E00785
:10E100000AD03246684607EB470101230AEB81013A
:10E1100001F096F88DE8070064107F1C002CEED10A
:10E12000194F7F44AE3F19E0E80715D007EB041004
:10E130000DF1180A90E80E008AE80E00C068F0425F
:10E1400001D1981908903246012306A903A801F0CD
:10E1500077F803AB83E807006D10641C002DE3D152
:10E160004FF0010332466946B8F1000F03A802D010
:10E1700001F03CF801E001F063F8C9E90001C9F8D9
:10E1800008200AB0BDE8F087F429020070B51646F1
:10E190000C460546FFF7D0FC036893F801010128FF
:10E1A00006D0FF2C0FD8185D68B101202C7070BD0F
:10E1B000D3F807013246214603F2071303442846E9
:10E1C000BDE8704018474FF0FF3070BD10B500F04B
:10E1D000C3FABDE8104000F0BABA70477546FFF7C1
:10E1E000A7FCAE4605006946534620F00700854669
:10E1F00018B020B5FEF782FCBDE820404FF00006C5
:10E200004FF000074FF000084FF0000B21F007011E
:10E21000AC46ACE8C009ACE8C009ACE8C009ACE861
:10E22000C0098D4670473A2800D2303820F02002CD
:10E23000412A01D3A2F13700884201D34FF0FF30C9
:10E24000704700002DE9FF4F06468BB00878FF2885
:10E2500006D0491C2D2805D000244FF0000908E005
:10E2600000200CE00124F8E709EB8903491C00EBCE
:10E2700043090878FF28F7D114B1C9F1000081469D
:10E28000107800252C46AA4629462D2801D02B2897
:10E2900004D1521C2D2813D0002082468B461078C2
:10E2A000FF280FD04FF0000C0A21521CA5FB01786B
:10E2B00004FB018105FB0C11C5194BEB0104EEE7D2
:10E2C0000120EAE7002108464FF00000BAF1000FF4
:10E2D00002D000EB80004008C0F38157012F01DD20
:10E2E0004FF0FF370E9955EA040009EB01080BD0F7
:10E2F0004FF0020918F5FA7F16DA4FEACA70002FBC
:10E30000706008DD012007E04FEACA70C6E900B07E
:10E310000FB0BDE8F08F00203060FEF71BFFC0F8A3
:10E3200000901821084616E0B8F5FA7F18DD002F96
:10E3300002DAF748784401E0F6487844D0E9001062
:10E34000C6E9001040EACA707060FEF703FFC0F82B
:10E350000090142108460FB0BDE8F04F14F03FBA0A
:10E36000002108464FF00000B8F10001099002DAE0
:10E37000C7F1000200E03A4601DAC8F1000106A840
:10E38000FFF792FE06AB93E8070003AB83E80700B4
:10E3900044F23E005BEA04010090584604D144F286
:10E3A0001E012C465D460091210C0904014306D153
:10E3B0000099240444EA15442D041039009104F016
:10E3C0007F41014306D10099240244EA15642D02DD
:10E3D0000839009104F07041014306D100992401ED
:10E3E00044EA15742D01091F009104F040410143D6
:10E3F00006D10099A40044EA9574AD00891E0091ED
:10E4000004F00041084304D100986D196441401E96
:10E4100000904FF001033A466846B8F1000FCDE98D
:10E42000014503A902DD00F020FF01E000F0F3FE4A
:10E43000BAF1000F04460D4601D084F000440021DB
:10E4400008464FF00000099940F2FF77484010F06D
:10E450000C0F07D124F00040284303D0C4F30A5026
:10E46000B84212D1FEF776FEC0F80090C4F30A500D
:10E47000B8420AD1A8487844D0E90010C6E9001093
:10E4800004F000410843706042E7C6E900543FE7EA
:10E490002DE9FF4F1F464FF0000A4FF0FF38454669
:10E4A00091B0D7E90146CDF83CA0FFF74DFBC0681D
:10E4B0000168405C1090B96912986D1C8847396AF0
:10E4C000814688470028F6D1B9F1FF3F0AD0002ED7
:10E4D00024F4D06411DDB9F12B0F08D0B9F12D0F60
:10E4E0000BD102E0404615B013E744F48064B969EB
:10E4F00012986D1C8847761E8146600504A901D5D7
:10E500002D2000E02B20002E01F1010B0DF1300831
:10E510008DF810003FDDB9F1690F08D0B9F1490F4E
:10E5200005D0B9F16E0F02D0B9F14E0F1CD13B46A8
:10E5300001A8009580E85002DDE912126FF0020098
:10E5400014F0B8F9C11CCED10EE0B96912986D1C57
:10E55000884781461398761E44F4007405600F982E
:10E56000401C002E0F9016DDB9F1300FEDD0B9F13F
:10E57000780F02D0B9F1580F0DD10F9801280AD1A8
:10E580003B46CDE90054DDE91212001F029614F05B
:10E590008FF9C11CA7D1109989453ED144F0800460
:10E5A00006E01399681CAAF1010A44F4007408609B
:10E5B000B9696D1C1298761E884730288146F0D0C4
:10E5C0002BE01099894505D1200603D4761E44F02E
:10E5D000800418E048460EF038FB08B3761E0DF1B3
:10E5E00023018B4544F4007408D2A9F130000BF8E4
:10E5F000010B200607D5AAF1010003E0200602D492
:10E600000AF101008246A00502D51399681C086032
:10E61000B96912986D1C88478146002ED1DC53E001
:10E62000002E51DDB9F1650F02D0B9F1450F4BD184
:10E63000A00549D5B9696D1C1298761E24F4407462
:10E640008847002E81460CDD2B2804D0B9F12D0F10
:10E6500007D144F48074B96912986D1C8847761EFE
:10E660008146E00501D52D2100E02B2108F8011B92
:10E67000CDF8008021E0761E0DF13901884544F483
:10E6800000740CD2A9F1300010F0FF0088F80000EF
:10E6900002D10099884509D908F1010806E0E00592
:10E6A00001D51E4801E042F20F708246B969129806
:10E6B0006D1C8847814613980560002E04DD48468E
:10E6C0000EF0C3FA0028D6D1F96912988847FF20C6
:10E6D00053468BF8000088F8000000200A900B9049
:10E6E00004AA0CA90AA8FFF7ADFDA00502D46FF09B
:10E6F0000100F8E614F0240F12D0E0071CD13868AE
:10E70000DDE90A12031D3B600068C0E9001213E056
:10E71000B42D0200A62D02006A2C0200F1D8FFFFE2
:10E720000AA968460EF020FAE00705D13868009A79
:10E73000011D3960006802602846D4E610B5044621
:10E74000AFF300802046BDE81040FEF7C2B90028B4
:10E7500001D000F029B8704710B5012805D000217C
:10E7600003A000F027F8012010BD09A1F8E7000080
:10E7700053494752544D454D3A204F7574206F66AA
:10E780002068656170206D656D6F72790000000012
:10E790003A2048656170206D656D6F727920636FF6
:10E7A000727275707465640001491820ABBEFEE793
:10E7B0002600020070B505460C460A2000E06D1CDC
:10E7C00000F011F835B128780028F8D102E0641C77
:10E7D00000F009F814B120780028F8D1BDE87040A5
:10E7E0000A20AFF3008008B569468DF800000320C9
:10E7F000ABBE08BD2DE9FF4F1F464FF03C0987B067
:10E800004FF00042DDE9141001F10108DDF858A0D5
:10E8100002EA4050039000200590834605460446D6
:10E820000490B969461E08988847AAF1010A029027
:10E83000BAF1000F3BDD02982E2815D01021FFF70A
:10E84000F2FC00282EDB4FF0010B0599014317D095
:10E85000B9F1000F0BDB4A46C11700F0F5F905438B
:10E860000C43A9F1040905E0012004900BE008B174
:10E8700045F0010501200590049820B9361D02E0FD
:10E88000049800B1361FB969089808F10108884753
:10E89000BBF1000FAAF1010A0290C9D00999C1F891
:10E8A0000080C5E70298702808D0502806D0F96982
:10E8B00008988847BBF1000F14D04FE00020029069
:10E8C0000120BBF1000F049009D0B969089808F144
:10E8D00001088847AAF10109B9F1000F07DCF969BD
:10E8E000089888476FF001000BB0BDE8F08F2B2827
:10E8F00004D02D280CD14FF0FF300490B96908984E
:10E9000008F101088847A9F10109B9F1000FE6DD16
:10E91000411CE4D00A21FFF786FC0028DFDB0299C6
:10E9200008F1010801EB810100EB41000290B96997
:10E93000089888470A21FFF776FC099AA9F101098E
:10E94000B9F1000FC2F8008001DD0028E7DAF969AB
:10E95000089888470499029800FB016655EA04006C
:10E9600004D004F04041090002D006E0039898E08A
:10E97000A40044EA9574AD00B61E04F000410800FE
:10E9800002D16D196441761E159810F0240F03D042
:10E990004FF00B095C4803E04FF028096FF07D0051
:10E9A0008246564507DAAAEB06018944B9F1410FC0
:10E9B00001DD4FF0410901200021A9F1010200F021
:10E9C00043F9024628400B462140084301D001216B
:10E9D00000E00021501E029143F1FF312840214008
:10E9E000084301D0012000E000200299834651EA4B
:10E9F0000B014FD0002108464FF00000039900F4AE
:10EA0000400039B100EB80004FF4400100EBD070C2
:10EA100001EA60008015012802DD4FF0FF3000E0C0
:10EA200013D0401C36D0029860B3BBF1000F0CD15C
:10EA30004A460120002100F007F928402140084300
:10EA400001D0012000E00020E0B101204A46002171
:10EA500000F0FAF8034640190A4661412D1A8C412C
:10EA600011D3B9F1400F09DD159810F0240F02D031
:10EA7000AAF1340603E0AAF1170600E0761C00258F
:10EA80004FF0004406E05B1E42F1FF3220EA03052E
:10EA900021EA0204CAF10100B04206DA1B490398D8
:10EAA00008430190002000900EE0039AC4F3D321A4
:10EAB000E80A0A43164940EA44500A433146CDE980
:10EAC000000268460EF0B6F8159810F0240F0BD02F
:10EAD0001598C00715D13868DDE90012031D3B60A9
:10EAE0000068C0E900120CE002A869460EF03CF88C
:10EAF0001598C00705D13868029A011D3960006871
:10EB000002604046F0E6000002FCFFFF0000F07FDC
:10EB10000000F03F2DE9FF4F92461D4685B04FF0B3
:10EB20000041DDE9124BDDE914727F1E01EA4B5012
:10EB3000414940F0FF4940EA0108002122F020004D
:10EB40004928049102D04E2828D04CE03BA0012651
:10EB500007C88DE80700A9690698641C88477F1ECE
:10EB6000014606D41DF8060018B121F020018142AB
:10EB70000BD0E96906988847032E34D0082E32D08E
:10EB80006FF0010009B0BDE8F08F761C032E01D0B4
:10EB9000082EE0D1601CCAF80000DCE7A9690698DD
:10EBA000641C88477F1E2AD420F02000412826D1EB
:10EBB000A9690698641C88477F1E20D420F0200095
:10EBC0004E281CD1A9690698641C88477F1E48F40A
:10EBD000002849F48009CAF8004001D4282806D04A
:10EBE000E969069888475FEACB7012D022E0A969EC
:10EBF0000698641C88477F1E01D4002803DAE9695F
:10EC000006988847BCE72928F1D1641CCAF800405F
:10EC1000E9E71BF0240F07D028680499031D2B6037
:10EC20000068C0E9001805E02868021D2A60006835
:10EC3000C0F800902046A5E70000F07F494E464905
:10EC40004E49545900000000B2F120030AD5C2F128
:10EC5000200301FA02F120FA03F300FA02F041EA7C
:10EC60000301704700FA03F14FF0000070475FEABC
:10EC7000400C08BF91F0000F4FEA8C234FEAC122ED
:10EC800043EA51514FEA1C5018BF00F5F0404FEADB
:10EC9000300018BF41F000415FEA6C5C00F0298051
:10ECA000BCF1FF3F08BF40F080407047130C06BF27
:10ECB00012044FF0100C4FF0000C130E04BF1202A0
:10ECC0000CF1080C130F04BF12010CF1040C930F8C
:10ECD00004BF92000CF1020CD30F04BF52000CF1E0
:10ECE000010C11464FF00002A0F11F00A0EB0C0038
:10ECF000704711F0004F08BF704731F000413FF4FA
:10ED0000D5AF0B0C06BF09044FF0100C4FF0000CF0
:10ED10000B0E04BF09020CF1080C0B0F04BF090114
:10ED20000CF1040C8B0F04BF89000CF1020CCB0F0B
:10ED300004BF49000CF1010CCCF12003A0EB0C0046
:10ED400022FA03F302FA0CF241EA030100F1010096
:10ED5000704720F07F4C80EA030023F07F47ACEB44
:10ED6000070303F57C5300F0004003F1FF032DE996
:10ED700080494FEA154B09B44FEA144325EA0B4E7C
:10ED800024EA03480FF2042606EB132749083E78CD
:10ED90005FEA320203FB0667C7F5000707FB06F6CA
:10EDA0004FEA54374FEAD64606F1020607FB066CD7
:10EDB000CCF1005C4FEA1C472CEA074C07FB06F439
:10EDC0000CFB06F504EB15464FEA961634BF0020FF
:10EDD0004FF000404FEAD13706FB07FC4FEA1C4CCE
:10EDE0000CFB0BF7D21B03FB0CF761EB07010CFBD1
:10EDF0000EF7B0EB074072EB17420CFB08F734BF7D
:10EE0000A2EB0742B2EB074261EB17414FEA0C4419
:10EE10004FEA910706FB07FC4FEA1C4C0CFB0BF773
:10EE2000B0EBC74072EB573203FB0CF734BFA2EBD9
:10EE3000C742B2EBC74261EB57310CFB0EF7B0EBA8
:10EE4000C70072EB57720CFB08F734BFA2EBC70286
:10EE5000B2EBC70261EB5771039F4FEA816141EA50
:10EE6000921104EBCC044FEAD1374FEA826206FBE1
:10EE700007FC42EA90124FEA80604FEA1C4C0CFB00
:10EE80000BF7D21B03FB0CF761EB07010CFB0EF732
:10EE9000B0EB074072EB17420CFB08F734BFA2EB54
:10EEA0000742B2EB074261EB17414FEA8C554FEA3C
:10EEB000910704EB9C2406FB07FC4FEA1C4C0CFB5F
:10EEC0000BF7B0EBC74072EB573203FB0CF734BFC4
:10EED000A2EBC742B2EBC74261EB57310CFB0EF716
:10EEE000B0EBC70072EB57720CFB08F734BFA2EB14
:10EEF000C702B2EBC70261EB577115EB4C254FEA25
:10EF0000816141EA92114FEA82624FEAD13742EAC7
:10EF1000901206FB07FC44F100044FEA80604FEAC0
:10EF20001C4C0CFB0BF7D21B03FB0CF761EB07012E
:10EF30000CFB0EF7B0EB074072EB17420CFB08F727
:10EF400034BFA2EB0742B2EB074261EB174115EB6E
:10EF50001C154FEA813141EA92414FEA823242EA7E
:10EF600090424FEA80304FEA0C7644F1000448EAC0
:10EF700003434EEA0B484FF0000EB2EB080C71EB66
:10EF8000030724BF624639464EEB0E0E4FF0000BCE
:10EF90000018524149414BEB0B0BB2EB080C71EBE3
:10EFA00003077BF1000B24BF624639464EEB0E0E81
:10EFB0004FF0000B0018524149414BEB0B0BB2EBE9
:10EFC000080C71EB03077BF1000B24BF6246394646
:10EFD0004EEB0E0E51EA020718BF46F0010616EB83
:10EFE0000E7655F1000254F1000103D5BDE8890108
:10EFF000BDE80088BDE88901BDE80048B619524166
:10F0000041EB0101A3F10103704780807F7E7D7C8D
:10F010007B7A7978777676757473727171706F6EAA
:10F020006E6D6C6C6B6A6A69686867666665646455
:10F03000636362616160605F5F5E5E5D5D5C5C5BDF
:10F040005B5A5A595958585757565655555554544E
:10F05000535352525251515050504F4F4F4E4E4DAC
:10F060004D4D4C4C4C4B4B4B4A4A4A4949494848F8
:10F070004847474747464646454545444444444338
:10F0800043434342424242414141000046EA064670
:10F09000A3F570534FEA164646EA42564FEAD2228B
:10F0A00042EA415210B54FEAD121A3F1010300F029
:10F0B0002FF820F0004000F1020C00F0004701EBB7
:10F0C00000501146BCF5006F40EA070000D210BDA9
:10F0D000BAF1000F0AD01CB503B44FF004004FF092
:10F0E00004014FF000000FBCBDE810404FF00001DC
:10F0F000BBF1010FB9BF04484FF0FF3103480021B5
:10F1000040EA070010BD00BFFFFFEF7F0000F07F67
:10F11000002B9C4630D477002BD01CB54FEA370724
:10F1200003B44FF010004FF01001BAF1000F06D0F9
:10F13000BCF1000FDCBF40F0080040F008014FF0C8
:10F1400000000FBCBDE810400BF1010BBBF1010F3B
:10F1500008BF5FEA170722BF12F1010211F1010196
:10F160004FF0004143F1000300F0004043EA00008B
:10F170007047F9D35708D0E746EA064613F1400F27
:10F180004FEA16461FDD13F1200FDFBF16430A4674
:10F19000002120335B42BED0C3F1200746EA064679
:10F1A00002FA07F74FEA164646EA0706C3F12007B8
:10F1B00022FA03F201FA07F721FA03F14FF00003F4
:10F1C00042EA0702A7E746EA020646EA06464FEA8F
:10F1D000164646EA0106BCBF46EA0646360C4FF024
:10F1E00000034FF000024FF0000194E72DE9804C3E
:10F1F0009A46934670B491E8380007C831EA400C4B
:10F2000048BF34EA430C03D5FFF7A3FDFFF780FFA7
:10F21000F0BCBDE8008C2DE9804C9A46934670B452
:10F2200091E8380007C831EA400C48BF34EA430C83
:10F2300003D5FFF78EFDFFF729FFF0BCBDE8008C7A
:10F240002DE9804C9A46934670B491E8380007C87F
:10F2500010F0804F08BF13F0804F03D100F01AF870
:10F26000FFF756FFF0BCBDE8008C2DE9804C9A46B4
:10F27000934670B491E8380007C810F0804F08BF7B
:10F2800013F0804F03D100F005F8FFF7FFFEF0BC4C
:10F29000BDE8008C20F07F4780EA030023F07F4C1C
:10F2A00007EB0C03A3F57C5300F00040A3F1FE0331
:10F2B00092F0000F00F0B38095F0000F00F077801F
:10F2C0002DE901494FEA11404FEA144621EA00486E
:10F2D00000FB06FC24EA064708FB06F607FB08F8D5
:10F2E00000FB07F718EB06484CEB164C4FEA124BA5
:10F2F00018EB07484FEA15464CEB174022EA0B4E35
:10F300000BFB06FC25EA06470EFB06F607FB0EFE86
:10F310000BFB07F71EEB064E4CEB164C4FF00006AE
:10F320001EEB074E4CEB174B18EB0B0840F100009F
:10F3300018EB0E0B58EB000840F100008F1A4FF04D
:10F3400000013CBFC943661B14BFB5EB040C002190
:10F350003CBFC943F61B4FEA17444EEA8E0E27EA1C
:10F3600004454FEA1C4704FB07622CEA074C05FBE7
:10F3700007F70CFB05F604FB0CFC16EB074642EB0B
:10F38000174216EB0C4642EB1C421BEB060658EBF1
:10F390000202414146EA9E0601D5BDE80189B6193F
:10F3A000524141EB0101A3F10103BDE801894FEA9C
:10F3B00014454FEA114724EA054621EA074C05FBAC
:10F3C00007F406FB07F70CFB06F105FB0CFC11EB41
:10F3D000074144EB17444FEA124711EB0C4144EB51
:10F3E0001C4422EA074C05FB07F206FB07F70CFB5F
:10F3F00006F605FB0CFC16EB074642EB174216EB34
:10F400000C4642EB1C456A1854F1000148BF704796
:10F41000B619524141EB0101A3F10103704795F088
:10F42000000F37D04FEA11424FEA144721EA024653
:10F4300024EA074C02FB07F106FB07F70CFB06F476
:10F4400002FB0CFC14EB074441EB17414FEA154754
:10F4500014EB0C4441EB1C4125EA074C02FB07F579
:10F4600006FB07F70CFB06F602FB0CFC16EB074647
:10F4700045EB174516EB0C4645EB1C42121951F1B2
:10F48000000148BF7047B619524141EB0101A3F199
:10F49000010370474FEA14454FEA114724EA054635
:10F4A00021EA074C05FB07F106FB07F70CFB06F208
:10F4B0004FF0000605FB0CFC12EB074241EB174135
:10F4C00012EB0C4251EB1C4148BF7047921841EBC4
:10F4D0000101A3F10103704700B587B00121480283
:10F4E00007F014F80121084606F0E0FF4FF4004051
:10F4F00006F0D0FF364800F089F81020ADF818006B
:10F5000000208DF81B0002208DF81A0006A9314852
:10F5100003F07EFC0020019001208DF808008DF89A
:10F5200009004FF4602003900020049001208DF822
:10F53000140001A9264800F0ABF80723012204219A
:10F54000234800F0CDF80121214800F054F80121B2
:10F550001F4800F045F81E4800F01EF900BF1C4887
:10F5600000F08CF80028FAD1194800F025F900BF06
:10F57000174800F079F80028FAD10B208DF8000028
:10F5800003208DF8010002208DF8020001208DF883
:10F590000300684606F088FA0D484C300E490861B1
:10F5A0000E4848614FF4AD5088606420C86008463A
:10F5B000806840F0010088600846806840F00200E2
:10F5C00088600121024800F0ECF807B000BD00009F
:10F5D0000024014000080140000002404C9E002031
:10F5E00021B1826842F00102826003E0826822F069
:10F5F00001028260704721B1826842F480728260A9
:10F6000003E0826822F480728260704710B504467D
:10F610001248844208D10121401506F087FF0021DD
:10F62000601506F083FF17E00D48844208D10121E0
:10F63000001506F07BFF0021201506F077FF0BE098
:10F640000848844208D10121C80306F06FFF002159
:10F650004FF4004006F06AFF10BD00000024014096
:10F6600000280140003C0140014600208A6802F069
:10F6700004020AB1012000E000207047014600208A
:10F680008A6802F008020AB1012000E000207047F9
:10F6900030B502460020002350680F4C20400D7901
:10F6A0000C6844EA05242043506090680B4C2040CD
:10F6B000D1E902542C434D7944EA4504204390603B
:10F6C000D06A20F470000C7C641EE4B2234340EA4C
:10F6D0000350D06230BD0000FFFEF0FFFDF7F1FFE8
:10F6E000F0B504460D4600200021092D11DDE0682B
:10F6F000A5F10A0606EB4607072606FA07F1884336
:10F70000A5F10A0606EB460603FA06F10843E06097
:10F710000CE0206905EB4507072606FA07F1884348
:10F7200005EB450603FA06F108432061072A0FDAC4
:10F73000606B561E06EB86071F2606FA07F1884304
:10F74000561E06EB860605FA06F10843606322E0C2
:10F750000D2A0FDA206BD61F06EB86071F2606FA46
:10F7600007F18843D61F06EB860605FA06F1084323
:10F77000206310E0E06AA2F10D0606EB86071F2663
:10F7800006FA07F18843A2F10D0606EB860605FA94
:10F7900006F10843E062F0BD816841F00801816034
:10F7A000704721B1826842F4A002826003E082685F
:10F7B00022F4A00282607047816841F004018160F8
:10F7C00070472DE9F04104460D4616461F46641C5D
:10F7D000AD1C761CBF1C2A2005F006F8C4F30720D8
:10F7E00004F0EAFFE0B204F0E7FFC6F3072004F0FC
:10F7F000E3FFF0B204F0E0FF2B2004F0F5FFC5F3C7
:10F80000072004F0D9FFE8B204F0D6FFC7F30720C1
:10F8100004F0D2FFF8B204F0CFFF2C2004F0E4FF94
:10F82000BDE8F0817047000010B5002404E000201E
:10F83000054921F81400641C052CF8DB024900205E
:10F8400001F02CFD10BD000064A1002070B504463D
:10F850000D4600222946204605F06CF970BD0000D7
:10F8600070B505460C4608480560204600F00EF8C5
:10F8700000BF054800680028FBD100214FF0804000
:10F8800008F065FE70BD0000B40900203EB50446D6
:10F8900000214FF0804008F05AFE00220121880725
:10F8A00008F072FE022C03D10B20ADF8040005E035
:10F8B000012C03D142F6DF60ADF804000520ADF85D
:10F8C00000000020ADF80600ADF8020069464FF0D8
:10F8D000804008F063FE0121880708F035FE012111
:10F8E000880708F025FE01221146900708F04CFE1B
:10F8F0000121880708F02BFE3EBD0000F0B5ADB039
:10F900000446012701A82B9064202C9021461CA8B6
:10F910000FF01BFA0546002D52D100BF25A91CA8E7
:10F920000FF032FB05462B9E9DF89D002E2800D13E
:10F93000F4E715B92B98007828B99DF89D0000B917
:10F9400039E00DF19D069DF89C0000F0100000B11B
:10F95000E4E7304602F08CF91AA002F089F91AA106
:10F960003046FDF7AFFB28BB012231461A480FF0A5
:10F9700023F90546042118480FF027F81AAB042292
:10F980001BA915480FF017FA1B9800F07F40B0F143
:10F99000006F00D0C2E700210F480FF016F80027D3
:10F9A0000D480FF007F801210C4880F83610384652
:10F9B0002DB0F0BDB2E700BF0221084880F8361034
:10F9C0003846F5E70D0A000066696C6D676561727F
:10F9D0003030312E62696E0060990020240B0020C7
:10F9E00000BFFEE72DE9F04389B00646022500225C
:10F9F000774803C806F0A4F9002423E0A64210D1FA
:10FA000047F6EF300090734800EBC40001680391A3
:10FA1000406803460A4604906D4803C806F0A1F901
:10FA20000FE04EF65B7000906A4800EBC40001687E
:10FA30000391406803460A460490654803C806F0EF
:10FA400090F9641C032CD9DB4EF65B706249088088
:10FA50000020624908806248D0F85002C0EBC00024
:10FA6000604911F820105E4880F8481290F858025A
:10FA700050B15B4890F84802642100FB01F25AA1A2
:10FA800005A8FDF7B5F809E0554890F8480264214B
:10FA900000FB01F256A105A8FDF7AAF8012005A96F
:10FAA00010220192CDE9022104906420009049487F
:10FAB0004088284483B247480088103082B24448C6
:10FAC00003C806F0A7FA002005900690079008905A
:10FAD000434890F8580238B1414848A1D0F8442230
:10FAE00005A8FDF785F806E03D4846A1D0F8442278
:10FAF00005A8FDF77DF8012005A910220192CDE9A6
:10FB0000022104906420009032484089284483B246
:10FB100030480089103082B22D4803C806F07AFAC6
:10FB2000002005900690079008902D4890F8580204
:10FB300080B12B49D1F84C02344912F0D3FC8146F4
:10FB400012F0A4FA07463A460B4631A105A8FDF784
:10FB50004FF81FE02249D1F84C0212F097FA0746FD
:10FB600000222E4B11F046FF10D21D49D1F84C0255
:10FB7000264912F0B7FC814612F088FA07463A4649
:10FB80000B4627A105A8FDF733F803E028A105A837
:10FB9000FDF72EF8012005A910220192CDE90221DE
:10FBA0000490642000900B48408A284483B209489E
:10FBB000008A103082B2064803C806F02BFA0448C7
:10FBC00014210CC80A2004F0B1FD09B0BDE8F0838F
:10FBD0006C080020CC1300208A0800208808002030
:10FBE000240B0020385902084B766E3A25644B00EE
:10FBF000C9ABCEC23A25644B0000000047726E3A92
:10FC000025640000C2CCC6AB3A2564000000C8429F
:10FC100044696D3A25302E31662525000000F03FFD
:10FC2000C1C1B6C83A25302E316625250000000036
:10FC3000C1C1B6C83A3130302525000010B516488C
:10FC400090F8580218B115A003F086FF02E016A044
:10FC500003F082FF104BD3F84C22D3F8441293F8F0
:10FC60005002002304F08EFF1148007838B110488C
:10FC700000781049087000200D49087002E000204B
:10FC80000C4908700B480078FFF7ACFE00210248D1
:10FC900080F83C1210BD0000240B00204343542088
:10FCA0004D4F444500000000434354C4A3CABD0067
:10FCB000FC0A0020FD0A00202DE9FF5F8D488068C6
:10FCC000002871D08C48007820B1012820D002286B
:10FCD0006BD177E08948D0F8501286488068091ABD
:10FCE0008648C0F85012D0F85012D0F85402814221
:10FCF00004DD8248D0F85412C0F850127F48D0F882
:10FD00005002002803DA00217C48C0F85012CAE0F3
:10FD10007B497C48006812F0B1FC2FD27A48007809
:10FD2000401C794908707748006812F0AFF9CDE9B6
:10FD300000017049886811F032FE8046734A744BA6
:10FD400011F094FE0646DDE9002311F08FFE044613
:10FD50000D466A49D1F8440211F021FE22462B4695
:10FD6000CDE9020112F0A8F8824611F0BBFD63490B
:10FD7000C1F844020020644908700BE05F48D0F8E5
:10FD800044025C498968411A5C48C0F8441200206A
:10FD90005D4908705948D0F84402642806DD6421A2
:10FDA0005648C0F844120CE08FE07BE05348D0F88E
:10FDB000440210F1640F04DA6FF063014F48C0F899
:10FDC000441270E053494F48006812F057FC30D29B
:10FDD0004D480078401C4C49087000200870494884
:10FDE000006812F053F906460F464249886811F040
:10FDF000D6FD8046484A494B11F038FE32463B4614
:10FE0000CDE9000111F032FE04460D463B49D1F820
:10FE10004C0212F03BF9824622462B4612F04CF877
:10FE2000CDE9020111F0DCFA01463448C0F84C1269
:10FE30001EE00020344908702E49886811F0AFFD9B
:10FE40008046354A364B11F011FE04460D462B49CB
:10FE5000D1F84C0212F01AF9064622462B4612F04F
:10FE60002BF8824611F0BCFA01462448C0F84C1227
:10FE70002249D1F84C024FF07E5112F0FFFB05D21F
:10FE80004FF07E511D48C0F84C120AE01B49D1F8D2
:10FE90004C02002112F0F2FA03D200211748C0F8F8
:10FEA0004C1200E000BF00BF144BD3F84C22D3F833
:10FEB000441293F85002002304F064FE0E480078C8
:10FEC000FFF790FD00200B4988601648006808285D
:10FED0000ED109480078401C074908700846007890
:10FEE000032801DB05F0A4FB03480078FFF77AFD47
:10FEF000BDE8FF9F18A10020FD0A0020240B002070
:10FF00000000F041DC090020FE0A00209A9999992E
:10FF10009999A93F0000C841FCA9F1D24D62403F28
:10FF20004D62503F500200202DE9F04F8DB08246C7
:10FF30000C469146BAF14C0F04D2642C02DC14F149
:10FF4000640F03DA01200DB0BDE8F08FCAEBCA00E0
:10FF50005D4901EB8001D1E90301CDE90801CAEB5C
:10FF6000CA00594901EB8001D1E90101CDE906013F
:10FF70004FF08040069912F0B5FA0546089912F044
:10FF8000B9FB0A904FF08040079912F0ABFA054692
:10FF9000099912F0AFFB0B90002C48DD069812F087
:10FFA00075F8CDE90401204612F03CFA019006995B
:10FFB000089812F09FFB0090019912F093FA834683
:10FFC00012F064F80022414BCDE9020111F0F6FA7B
:10FFD0000546DDE9042311F035FA074611F000FA71
:10FFE000C9F80000079812F051F8CDE90401204645
:10FFF00012F018FA01900799099812F07BFB009013
:020000040801F1
:10000000019912F06FFA834612F040F800222F4B4C
:10001000CDE9020111F0D2FA0746DDE9042311F01F
:1000200011FA054611F0DCF9C9F804004AE064420F
:10003000069812F02BF807468846204612F0F2F98F
:10004000019006990A9812F055FB0090019912F060
:1000500049FA834612F01AF800221D4BCDE902013D
:1000600011F0ACFA3A464346CDE9040111F0EAF941
:10007000054611F0B5F9C9F80000079812F006F826
:1000800007468846204612F0CDF9019007990B9853
:1000900012F030FB0090019912F024FA834611F01F
:1000A000F5FF00220A4BCDE9020111F087FA3A462A
:1000B0004346CDE9040111F0C5F9054611F090F968
:1000C000C9F8040000203EE73859020800005940F2
:1000D00000C05C402DE9F04F89B00446E08811F083
:1000E00075FC07460022414B11F068FA054611F0F5
:1000F00077F98246218940F2671201FB02F011F084
:100100004EFC05460022394B11F058FA074611F013
:1001100019FC80B2ADF81800608911F057FC054653
:100120000022324B11F04AFA074611F059F90790B4
:10013000208811F04BFC074600222C4B11F03EFAB0
:10014000054611F04DF908902948D0F8540261880D
:1001500048434FF6FF7190FBF1F909F1030000F0FD
:10016000FF092348D0F85402484502DA204890F8A5
:100170005492A0880FF089FB834602AA594648464C
:10018000FFF7D2FE694606A803F0DEFB51464FF0AA
:100190007E5012F0AFFA0746029912F0A3F9054615
:1001A0005046009912F09EF90646294611F09AFF32
:1001B000049051464FF07E5012F09CFA0746039986
:1001C00012F090F905465046019912F08BF9064657
:1001D000294611F087FF0590002204A8089900F035
:1001E00021FB002009B0BDE8F08F0000E0FFEF40E8
:1001F000240B00202DE9F04F89B00446E07811F07F
:10020000E5FB07460022404B11F0D8F9054611F0F6
:10021000E7F88246217940F2671201FB02F011F003
:10022000BEFB05460022384B11F0C8F9074611F015
:1002300089FB80B2ADF81800607911F0C7FB054664
:100240000022314B11F0BAF9074611F0C9F80790B6
:10025000207811F0BBFB074600222B4B11F0AEF9C2
:10026000054611F0BDF808902848D0F8540261788E
:100270004843FF2190FBF1F909F1030000F0FF0969
:100280002248D0F85402484502DA204890F85492A7
:10029000A0780FF047FB834602AA59464846FFF76D
:1002A00043FE694606A803F04FFB51464FF07E50CF
:1002B00012F020FA0746029912F014F9054650464A
:1002C000009912F00FF90646294611F00BFF049031
:1002D00051464FF07E5012F00DFA0746039912F086
:1002E00001F905465046019912F0FCF806462946E8
:1002F00011F0F8FE0590002204A8089900F092FA87
:10030000002009B0BDE8F08F00E06F40240B002012
:100310002DE9F04F8DB00446E08811F057FB82467E
:1003200000223D4B11F04AF9074611F059F8814679
:100330003A48D0F85402618848434FF6FF7190FB69
:10034000F1F0C6B2F01CC6B23448D0F85402B04244
:1003500002DA324890F85462A0880FF096FA0190C1
:10036000002511E004F1080131F8150011F02EFB11
:1003700007460022284B11F021F9824611F030F88F
:1003800008A941F825006D1C052DEBDB06AA08A97C
:10039000234804F071FA04AA30460199FFF7C4FD1E
:1003A00049464FF07E5012F0A5F98246049912F0AA
:1003B00099F807464846069912F094F8804639465F
:1003C00011F090FE029049464FF07E5012F092F9E3
:1003D0008246059912F086F807464846079912F0BA
:1003E00081F88046394611F07DFE0390208811F097
:1003F000EDFA07460022084B11F0E0F8824610F0B3
:10040000EFFF00220146009002A800F00BFA002046
:100410000DB0BDE8F08F0000E0FFEF40240B00209E
:10042000D40A00202DE9F04F8DB00446E07811F099
:10043000CDFA824600223B4B11F0C0F8074610F07F
:10044000CFFF81463848D0F8540261784843FF21F5
:1004500090FBF1F0C6B2F01CC6B23348D0F854029B
:10046000B04202DA304890F85462A0780FF05AFA9D
:10047000019000250FE0211D485D11F0A7FA074605
:100480000022284B11F09AF8824610F0A9FF08A923
:1004900041F825006D1C052DEDDB06AA08A92348AF
:1004A00004F0EAF904AA30460199FFF73DFD4946F8
:1004B0004FF07E5012F01EF98246049912F012F8A5
:1004C00007464846069912F00DF88046394611F065
:1004D00009FE029049464FF07E5012F00BF9824619
:1004E000059911F0FFFF07464846079911F0FAFFFA
:1004F0008046394611F0F6FD0390207811F066FA37
:1005000007460022074B11F059F8824610F068FFA9
:1005100000220146009002A800F084F900200DB0EE
:10052000BDE8F08F00E06F40240B0020D40A0020CB
:100530002DE9F05F04461848D0F85402618848431A
:100540004FF6FF7190FBF1F000F0FF0909F1030095
:1005500000F0FF091048D0F85402484502DA0E486E
:1005600090F85492A0880FF090F98346208811F0FB
:100570002DFA07460022094B11F020F8054610F02D
:100580002FFF8246002352465946484604F0FAFAA5
:100590000020BDE8F09F0000240B0020E0FFEF40AA
:1005A0002DE9F05F04461748D0F8540261784843BB
:1005B000FF2190FBF1F000F0FF0909F1030000F0CA
:1005C000FF091048D0F85402484502DA0D4890F867
:1005D0005492A0780FF0A6F98346207811F0F6F92E
:1005E00007460022084B10F0E9FF054610F0F8FE20
:1005F0008246002352465946484604F0C3FA00207A
:10060000BDE8F09F240B002000E06F400146302938
:1006100004DB392902DCA1F130007047412904DBF9
:10062000462902DCA1F13700F7E7612904DB6629DE
:1006300002DCA1F15700F0E74FF0FF30EDE70000DA
:1006400004200149087070476808002010B5002197
:10065000024880F8581206F0CFFF10BD240B00208E
:1006600000200149088070472408004010B5044666
:100670002246024803C805F063FB10BD6C08002049
:100680002DE9FF478EB09A4644490EA803F05CF965
:1006900028B143A001F0ECFA12B0BDE8F087524651
:1006A0003E48109900F0BEF800B1F5E70CA81422FE
:1006B000414905906846FCF78AFC3F4810380FC84E
:1006C00006F00AF93BA001F0D3FA109811F0DEFC15
:1006D00004460D460F9811F0D9FC06460B46CDE9AD
:1006E0000045BDF83810324634A001F0C1FA2B495C
:1006F000486811F0CBFC04460D462849086811F003
:10070000C5FC064632460B4631A0CDE9004501F056
:10071000AFFA0D9811F0BAFC04460D460C9811F092
:10072000B5FC064632460B462FA0CDE9004501F048
:100730009FFA21491039486811F0A8FC04460D467B
:100740001D491039886811F0A1FC06460F461A4968
:100750001039086911F09AFC80468946164910390B
:10076000C86811F093FCCDE90A01134910390868F3
:1007700011F08CFCCDE90289CDE90467CDE906458D
:10078000CDE90801DDE90A01CDE900011CA0DDE9A0
:10079000082301F06DFA00BF7EE700000009002089
:1007A000B1A5BACDB6C8D7AABBBBBAF3C8CEC8BB31
:1007B000C3BBD3D00D0A0000B89B00204853492882
:1007C00025642C252E32662C252E3266290D0A0032
:1007D000BCC6CBE3C9ABD7F8B1EA28252E34662CCA
:1007E000252E3466290D0A00B7B4C0A1C9ABD7F8CD
:1007F000B1EA28252E34662C252E3466290D0A00F0
:100800005247425757435728252E34662C252E34FD
:10081000662C252E34662C252E34662C252E346627
:10082000290D0A002DE9F04F8BB004460E461546FF
:100830004FF00109304611F029FC0746334A344B8A
:1008400011F0D8F805D8FEF7EFFF00200BB0BDE897
:10085000F08F304611F01AFC07464FF066322D4BF0
:1008600011F004F982462C4A2C4B10F0EBFDCDE937
:10087000000110F0B5FD0646304611F007FC0746B2
:100880000022274B0FF07AFC824610F0A9FD0646A5
:10089000244890F83C0298B1224890F83C02052880
:1008A00015D1204890F86802022809D01D4890F818
:1008B0006802072804D01B4890F868020C2806D16B
:1008C000194AD4E900010CF03FFC814605E0164AC4
:1008D000D4E900010CF0C6FC8146B9F1000F01D04B
:1008E0004846B3E72422104902A8FCF770FB25B95B
:1008F000314602A8FEF7AAFF05E0681EC2B23146E3
:1009000002A804F00DF90020A0E7000092CB7F4878
:10091000BF7D4D3F6666EE3F9A9999999999A93F97
:100920000000F83F240B0020A89B002010B51D20DC
:1009300026490870264827490860002441E004EB56
:10094000840101EBC401224A02EB810001F022FF85
:1009500004EB840101EBC4011D4A02EB8101086232
:1009600004EB840101EBC40102EB810001F072FE93
:1009700004EB840101EBC401154A02EB81014862DA
:1009800004EB840101EBC40102EB810001F0A4FE41
:1009900004EB840101EBC4010D4A02EB8101C86242
:1009A00004EB840101EBC40102EB810001F026FF9E
:1009B00004EB840101EBC401054A02EB810188626A
:1009C000641C024800788442B9DB10BD6402002038
:1009D0006C02002068020020014908607047000096
:1009E000640800202DE9FC5F4FF0000921480068F1
:1009F00000F0020000283AD0002404E01E4830F83D
:100A000014008144641C642CF8DB6420B9FBF0F012
:100A10001A4908600846006810F0D8FF0746184ACF
:100A2000184B11F023F805460E461748006810F0E1
:100A3000CDFF0746154A164B11F018F882462A4694
:100A4000334610F0FFFCCDE9000110F07BFF0B49AD
:100A50000860084600680C49086002F001FC0D4976
:100A600008630448406840F0020002494860BDE85D
:100A7000FC9F0000000002404C9E0020B8090020AE
:100A8000AE47E17A14AEEF3FBC0900207B14AE47BD
:100A9000E17A843F240B00200848006800F0200021
:100AA00050B10020064908700448001D006840F05D
:100AB00020000249091D0860704700000004024040
:100AC000F20900202DE9F04104460E46671C04E0BF
:100AD0006D1CC82D01DDBDE8F0811348006A0028B7
:100AE000F6D10120114908601148006820F4400047
:100AF0000F49086000200F49C1F89401BE200DF095
:100B0000BDFA01200949091D08600C200DF0B6FA54
:100B10000748006840F40000054908603146204657
:100B200010F07AFA00BFD6E700000240908122421E
:100B300000140140008022422DE9F04F87B0FE48AA
:100B400090F8680210287CD2DFE800F07B080C10D7
:100B500014345496B8FFFDFCFBFAF9F8F748FFF798
:100B600061FC90E3F548FFF71BFD8CE3F348FFF7CA
:100B700041FB88E3F1480078C0EB0040FF2190FB87
:100B8000F1F080B2ADF8080000240DE0EB48401C05
:100B9000005DC0EB0040FF2190FBF1F081B20DF150
:100BA0000A0020F81410641C052CEFDB02A803F0E7
:100BB00031FE68E3E1480078C0EB0040FF2190FB84
:100BC000F1F080B2ADF80800DC484078C0EB00409E
:100BD00090FBF1F080B2ADF80A00D8488078C0EB05
:100BE000004090FBF1F080B2ADF80C0002A802F0DA
:100BF000C9FE48E3D14800880012D049097840EA8C
:100C0000012080B2ADF80800CC4840880012CB49E2
:100C1000897840EA012080B2ADF80A00C748808890
:100C20000012C649097940EA012080B2ADF80C00F3
:100C3000C248C0880012C149897940EA012080B2C7
:100C400000E01FE3ADF80E0000240FE0BB480830C1
:100C500030F814000112B948083010F8140041EAC5
:100C6000002081B204A820F81410641C052CEDDBD0
:100C700002A8FFF74DFB06E3B04800880012AF4919
:100C8000097840EA012080B2ADF80800AB488088BE
:100C90000012AA49097940EA012080B2ADF80C009F
:100CA000A64840880012A549897840EA012080B210
:100CB000ADF80A0002A8FFF73BFCE4E29F48008879
:100CC00000129E49097840EA012080B2ADF8080080
:100CD0009A48408800129949897840EA012080B2F8
:100CE000ADF80A009548808800129449097940EAD5
:100CF000012080B2ADF80C009048C08800128F49E6
:100D0000897940EA012080B2ADF80E008B48008955
:100D100000128A49097A40EA012080B2ADF8100039
:100D20008648408900128549897A40EA012080B2CC
:100D3000ADF8120002A8FFF7CDF9A4E223E2C0E16A
:100D400023E1CAE046E023E0FFE77C480088001288
:100D50007A49097840EA012080B2ADF80800002401
:100D600010E07648801C30F8140001127348801C93
:100D700010F8140041EA002081B20DF10A0020F8B9
:100D80001410641C052CECDB02A803F043FD7AE28E
:100D90006A48008800126949097840EA012080B257
:100DA000ADF808006548408800126449897840EA37
:100DB000012080B2ADF80A006048808800125F49C7
:100DC000097940EA012080B2ADF80C0002A802F0D7
:100DD000D9FD58E25949487810F0F8FD584A594B66
:100DE000CDE9000110F042FE0746884653490878D5
:100DF00010F0ECFD82463A46434610F023FB0546D0
:100E000010F0A0FDC0B28DF808009DF808004B4915
:100E10000978884202DAFF208DF808004749C8782F
:100E200010F0D4FD0746464A464B10F01FFE05461B
:100E30000E464249887810F0C9FD2A463346CDE96E
:100E4000000110F0FFFA824610F07CFDC0B28DF870
:100E500009009DF8090039498978884202DAFF20A3
:100E60008DF80900354800798DF80A00334840793B
:100E70008DF80B0000242AE03049891D01EB440164
:100E8000487810F0A3FD07462D4A2E4B10F0EEFDDA
:100E900005460E462949891D11F8140010F096FDEB
:100EA00082462A46334610F0CDFACDE9000110F013
:100EB00049FDC1B203A80155015D2048801D10F80D
:100EC0001400814202DAFF2103A80155641C052C9D
:100ED000D2DB02A8FFF7A6FAD5E11849487810F04E
:100EE00075FD0746164A174B10F0C0FDCDE900010D
:100EF0001249087810F06AFD0546DDE9002310F07C
:100F0000A1FA824610F01EFDC0B28DF808009DF8CF
:100F100008000A490978884202DAFF208DF80800A3
:100F20000649C87810F052FD8246054A054B10F07C
:100F30009DFD0746884607E0240B0020009700200F
:100F40009A9999999999B93FD149887810F03EFDBD
:100F500005463A46434610F075FACDE9000110F017
:100F6000F1FCC0B28DF809009DF80900C8498978E4
:100F7000884202DAFF208DF80900C54800798DF813
:100F80000A0002A8FFF70CFB7DE1C149487810F088
:100F90001DFD0746BF4AC04B10F068FD05460E46D2
:100FA000BB49087810F012FD2A463346CDE900010E
:100FB00010F048FA824610F0C5FCC0B28DF8080067
:100FC0009DF80800B2490978884202DAFF208DF8BE
:100FD0000800AF49C87810F0F9FC0746AD4AAE4B9F
:100FE00010F044FD05460E46A949887810F0EEFC45
:100FF00082462A46334610F025FACDE9000110F06A
:10100000A1FCC0B28DF809009DF80900A0498978BB
:10101000884202DAFF208DF809009D4800798DF89A
:101020000A009B4840798DF80B009949C87910F067
:10103000CDFC8246974A984B10F018FD05460E46A7
:101040009349887910F0C2FC07462A46334610F0CF
:10105000F9F9CDE9000110F075FCC0B28DF80C0073
:101060009DF80C008A498979884202DAFF208DF8C0
:101070000C008749487A10F0A9FC0746854A864B40
:1010800010F0F4FC05460E468149087A10F09EFCEB
:101090002A463346CDE9000110F0D4F9824610F01B
:1010A00051FCC0B28DF80D009DF80D007849097A09
:1010B000884202DAFF208DF80D0002A8FFF79AF8A7
:1010C000E1E07349497801EB012010F068FC714AB6
:1010D000714BCDE9000110F0C9FC05460E466C4984
:1010E000097801EB012010F05AFC07462A463346E6
:1010F00010F0A8F9824610F025FC8146B9F5803F32
:1011000004D34FF6FF70ADF8080003E01FFA89F032
:10111000ADF80800002430E05D49891C01EB440172
:10112000497801EB012010F03AFC0546594A5A4B28
:1011300010F09CFC074688465549891C11F814108C
:1011400001EB012010F02BFC82463A46434610F09A
:1011500079F9CDE9000110F0F5FB8146B9F5803F42
:1011600006D34FF6FF710DF10A0020F8141003E0CA
:101170000DF10A0020F81490641C052CCCDB02A8A9
:1011800003F048FB7FE04249497801EB012010F071
:1011900006FC07463F4A404B10F068FC82468B46EF
:1011A0003B49097801EB012010F0F9FB0546524656
:1011B0005B4610F047F9CDE9000110F0C3FB814612
:1011C000B9F5803F04D34FF6FF70ADF8080003E097
:1011D0001FFA89F0ADF808002D49C97801EB01200C
:1011E00010F0DDFB07462B4A2B4B10F03FFC054669
:1011F0000E462749897801EB012010F0D0FB82468A
:101200002A46334610F01EF9CDE9000110F09AFB92
:101210008146B9F5803F04D34FF6FF70ADF80A0060
:1012200003E01FFA89F0ADF80A001949497901EB8A
:10123000012010F0B4FB0546164A174B10F016FCBF
:10124000074688461249097901EB012010F0A7FBF7
:1012500082463A46434610F0F5F8CDE9000110F019
:1012600071FB8146B9F5803F04D34FF6FF70ADF8AE
:101270000C0003E01FFA89F0ADF80C0002A802F0A0
:1012800081FB00E000BF00BF07B0BDE8F08F0000A9
:10129000009700209A9999999999B93F7EB504468B
:1012A00000230025194E3570721CF1B1CD88ADF8C0
:1012B00000508D88ADF802500D89ADF804504D886E
:1012C000ADF806500D88ADF8085000200BE03DF851
:1012D00010502D1202F810501DF81050012606EB88
:1012E00040069555401C0528F1DB094D2D882D122F
:1012F0009572074D2D78D572002003E0155C1D44D2
:10130000EBB2401C1028F9DB13547EBD6EA90020FF
:10131000F009002010B5234890F8260000B110BD58
:10132000204890F8290040B100201E4981F829008A
:10133000FFF702FCC8201C4908701B4800780028F1
:1013400004DD19480078401E1749087016480078D7
:10135000A8B1144890F82A0008BB0120114981F86F
:101360002A0081F82B00084690F83C0281F82C00F6
:1013700000F0FCFB05210B4880F83C120FE0094807
:1013800090F82A0001280AD10020064981F82A0095
:10139000084690F82C1080F83C1201F0C3FE00BF04
:1013A000BDE70000240B0020AC08002070B592B00F
:1013B0000446022600224D4803C804F0C1FC002563
:1013C00010E04EF65B700090494800EBC5000168E4
:1013D0000391406803460A460490444803C804F059
:1013E000C0FC6D1C022DECDB4EF65B7041490880A1
:1013F000002041490880414890F8580200283AD01E
:101400003F4802783FA105A8FBF7F2FB002005A9A1
:1014100010220192CDE9022104906420009034480A
:101420004088304483B232480088103082B22F485E
:1014300003C804F0EFFD324800782044431E3048D2
:10144000027832A105A8FBF7D3FB002005A91022E2
:101450000192CDE902210490642000902448408943
:10146000304483B222480089103082B21F4803C83A
:1014700004F0D0FD35E02248027827A105A8FBF74B
:10148000B7FB002005A910220192CDE902210490AA
:101490006420009016484088304483B21448008885
:1014A000103082B2114803C804F0B4FD144800782B
:1014B0002044431E1248027819A105A8FBF798FBA7
:1014C00005A810210122CDE9002102900848816879
:1014D0000391C06803460A460490044803C804F018
:1014E00021FE01F0E3F912B070BD00006C0800208D
:1014F000CC1300208A08002088080020240B00203C
:10150000160B0020414444523A25640043483A25D2
:10151000642D256400000000B5D8D6B73A256400D4
:10152000CDA8B5C03A25642D256400002DE9F0470B
:1015300086B04E4890F86802102836D2DFE800F0F6
:1015400035080B0E1114171A1D202326292C2F32B3
:101550004FF00C0A2AE04FF0070A27E04FF00A0A82
:1015600024E04FF0090A21E04FF0070A1EE04FF097
:10157000120A1BE04FF00A0A18E04FF0100A15E0BB
:101580004FF00E0A12E04FF00A0A0FE04FF0120A75
:101590000CE04FF0090A09E04FF00E0A06E04FF0A8
:1015A0000E0A03E04FF00A0A00E000BF00BF304817
:1015B000806800284CD02F492F48006811F05EF851
:1015C00027D22D48006810F061FD06460F462849D5
:1015D000886810F0E4F98046284A294B10F046FA52
:1015E00032463B46CDE9000110F040FA04460D4674
:1015F0002448007810F0EAF922462B46CDE9020192
:1016000010F05AFCCDE9040110F09CF91D49087056
:1016100006E01748007A1B490978081A194908702A
:1016200018480078FF2804D1CAF100001549087055
:1016300008E0CAF5807013490978884202DA002070
:10164000104908705046FFF7B1FE00200849886035
:101650000D480068082806D10A480178034880F838
:10166000661203F0E5FF06B0BDE8F087240B00200A
:1016700018A1002000002042DC0900209A999999C5
:101680009999A93F160B00205002002010B524485C
:1016900090F86802102827D2DFE800F026080A0C2C
:1016A0000E10121416181A1C1E2022240C241CE0E2
:1016B00007241AE00A2418E0092416E0072414E09D
:1016C000122412E00A2410E010240EE00E240CE094
:1016D0000A240AE0122408E0092406E00E2404E0AB
:1016E0000E2402E00A2400E000BF00BF0C4890F87E
:1016F000580218B10BA002F02FFA02E00DA002F080
:101700002BFA00BF0E4800780028FBD1044890F85F
:1017100066020C4908702046FFF748FE10BD000025
:10172000240B002053455420444D5820414444523A
:1017300000000000C9E8D6C3444D58B5D8D6B7005C
:10174000F2090020160B00202DE9F04192B0054669
:101750000E4617464FF002080022354803C804F031
:10176000EFFA002410E04EF65B700090314800EB79
:10177000C40001680391406803460A4604902C485F
:1017800003C804F0EEFA641C032CECDB4CF2186086
:10179000294908800020294908802A4628A105A84F
:1017A000FBF726FA1E202749087005A801211023FF
:1017B000244ACDE900101F491D4804F001FD3246BE
:1017C0001FA105A8FBF714FA05A810210122CDE9F5
:1017D00000210290174881680391C06803460A46B9
:1017E0000490134803C804F09DFC174890F8660263
:1017F0003844431E144890F8662214A105A8FBF74C
:10180000F7F905A810210122CDE90021029009482D
:1018100001690391406903460A460490044803C8DD
:1018200004F080FC01F042F812B0BDE8F081000045
:101830006C080020CC1300208A08002088080020B3
:10184000257300001E0B0020240B002043483A257E
:10185000642D25640000000010B586488068F8B14A
:1018600084488068002805DD83480078401E82494E
:10187000087004E080480078401C7F4908707E486A
:1018800000780F2802DD0F207B4908707A48007825
:10189000012802DA01207849087000207549886023
:1018A0000022764803C804F04BFA754890F85802B5
:1018B000002869D070480078102863D2DFE800F073
:1018C00062080E141A20262C32383E444A50565CC8
:1018D0000C226CA16DA0FFF737FF54E0072269A12D
:1018E0006EA0FFF731FF4EE00A2266A16DA0FFF760
:1018F0002BFF48E0092263A16DA0FFF725FF42E01E
:10190000072260A16DA0FFF71FFF3CE012226DA12E
:101910006EA0FFF719FF36E00A226AA16FA0FFF759
:1019200013FF30E0102267A16EA0FFF70DFF2AE041
:101930000E2264A16EA0FFF707FF24E00A2261A136
:101940006EA0FFF701FF1EE012226EA170A0FFF74C
:10195000FBFE18E009226BA171A0FFF7F5FE12E073
:101960000E2268A170A0FFF7EFFE0CE00E2265A129
:1019700070A0FFF7E9FE06E00A2262A170A0FFF75F
:10198000E3FE00E000BF69E03B480078102863D226
:10199000DFE800F062080E141A20262C32383E448C
:1019A0004A50565C0C2268A138A0FFF7CDFE54E0E7
:1019B000072265A139A0FFF7C7FE4EE00A2262A107
:1019C00038A0FFF7C1FE48E009225FA138A0FFF769
:1019D000BBFE42E007225CA138A0FFF7B5FE3CE069
:1019E00012225AA139A0FFF7AFFE36E00A2257A112
:1019F0003AA0FFF7A9FE30E0102254A139A0FFF76A
:101A0000A3FE2AE00E2253A139A0FFF79DFE24E099
:101A10000A224EA139A0FFF797FE1EE012224FA125
:101A20003BA0FFF791FE18E009224CA13CA0FFF774
:101A30008BFE12E00E2249A13BA0FFF785FE0CE0D1
:101A40000E2246A13BA0FFF77FFE06E00A2243A13B
:101A50003BA0FFF779FE00E000BF00BF42480068EE
:101A6000082806D104480178054880F8681203F078
:101A7000DFFD10BD18A10020150B00206C08002010
:101A8000240B002038424954530000004D313A43A2
:101A900043542652414C4742000000004D323A4325
:101AA000435400004D333A43435426485349000001
:101AB0004D343A52414C4742000000004D353A48FF
:101AC0005349000031364249545300004D363A43E1
:101AD00043542652414C4742000000004D373A43E0
:101AE000435400004D383A434354264853490000BC
:101AF0004D393A52414C4742000000004D31303AD6
:101B000048534900436F6172652F46696E65000056
:101B10004D31313A4343542652414C474200000074
:101B20004D31323A434354004D31333A4343542606
:101B3000485349004D31343A52414C47420000006D
:101B40004D31353A4853490038CEBB003136CEBB13
:101B500000000000313642CEBB000000B4D6B5F71D
:101B60002FCFB8B5F70000005002002010B509488B
:101B700090F8580218B108A001F0EEFF02E009A0A9
:101B800001F0EAFF034890F8680208490870FFF77F
:101B900063FE10BD240B0020444D58204D4F44459A
:101BA00000000000444D58C4A3CABD00150B00201E
:101BB0007047000000B587B00121C80404F086FC1E
:101BC0004FF48060ADF8180003208DF81A0018203B
:101BD0008DF81B0006A9244801F01AF94FF40060A3
:101BE000ADF8180004208DF81B0006A91E4801F06E
:101BF0000FF90121C80404F079FC00214FF4002002
:101C000004F074FC4FF4E13002900020ADF80C00B9
:101C10004FF40050ADF80E000020ADF81000ADF804
:101C200014000C20ADF8120002A9104806F008FFBD
:101C300034208DF8040000208DF8050003208DF875
:101C4000060001208DF8070001A803F02DFF0122F6
:101C500040F22551054806F0CEFE0121034806F06A
:101C600087FE07B000BD000000100140004C00409E
:101C70000FB438B53220FAF753FF044614B938BC14
:101C80005DF814FB05A800902046009A0499FAF725
:101C90009DFF00200090254628460CF0CFF92046F5
:101CA000FAF76DFF00BFEAE710B5094890F858024F
:101CB00018B108A001F050FF02E008A001F04CFFAD
:101CC0004EF65B70FEF7D2FC00F0F0FD10BD000098
:101CD000240B002044454641554C5400B3F6B3A7AD
:101CE000C9E8D6C30000000008B54EF65B70FEF7E9
:101CF000BDFC4EF65B700E49088000200D4908803F
:101D00000DA01023002219460090164803F075FF1D
:101D100015480068082805D14FF40E72134914487D
:101D2000FBF755F90EF0FEF900F0C0FD08BD00000C
:101D30008A0800208808002041726520796F75208C
:101D40007375726520746F20726573746F7265208D
:101D500064656661756C7420706172616D6574652F
:101D600072733F006C080020500200200000002029
:101D7000640B002070B501F059FA064610F06AFBBA
:101D800005460C4910F01CFA04460B4881692046B0
:101D900010F0B0FC0849C8610DF0ECFD01F046FA06
:101DA000054610F057FB0446024910F009FA0249B3
:101DB000886170BD002474495481002070B501F021
:101DC00035FA064610F046FB05460E4910F0F8F9C4
:101DD00004460D480168204610F08CFC0A49486012
:101DE0000A490B4808F054FB01F00CFF01F01EFA01
:101DF000054610F02FFB0446024910F0E1F90249B4
:101E0000086070BD002474495481002048130020EC
:101E10009C0D002070B515480068401C13490860EF
:101E2000084600680A2800DA70BD00200F490860E3
:101E300001F0FCF9064610F00DFB05460C4910F0C8
:101E4000BFF904460B48016A204610F053FC0949CB
:101E5000486201F0EBF9054610F0FCFA044604492B
:101E600010F0AEF90349086200BFDDE77C080020EE
:101E7000002474495481002070B501F0D7F906465A
:101E800010F0E8FA05460D4910F09AF904460C489E
:101E90008168204610F02EFC0949C8600FF090F9C7
:101EA000FFF738FA01F0C2F9054610F0D3FA0446FC
:101EB000024910F085F90249886070BD0024744918
:101EC0005481002070B58AB02422194901A8FBF77B
:101ED0007EF802F01DFE01F0A9F9054610F0BAFAED
:101EE0000446144910F06CF91349886203F025F98F
:101EF000124850B11249086002F014F900BF1148AD
:101F000000780028FBD103F017F901F08FF906469D
:101F100010F0A0FA0546074910F052F904460648A9
:101F2000816A204610F0E6FB0349C8620AB070BD22
:101F3000848100200024744954810020E41300208F
:101F40006C080020F209002070B501F06FF9064618
:101F500010F080FA05460B4910F032F904460A48A1
:101F60000169204610F0C6FB0749486101F05EF99F
:101F7000054610F06FFA0446024910F021F90249B3
:101F8000086170BD002474495481002010B51E48BA
:101F90000078012836D1FFF711FF1B48B0F9040083
:101FA000022804DB002018498880FFF765FF1648E7
:101FB000B0F90600052804DB00201349C880FFF7AC
:101FC000C3FF1148B0F908000A2804DB00200E49BD
:101FD0000881FFF7CFFE0C48B0F90A00142804DB93
:101FE000002009494881FFF715FF0748B0F90C00A8
:101FF000322804DB002004498881FFF763FF0020BA
:102000000149087010BD0000448100202DE9F04F07
:10201000ABB007468B46164600202A900024CDF828
:10202000A0D064202990394619A80CF08EFE804675
:10203000B8F1000F53D100BF22A919A80CF0A4FFDA
:102040008046DDF8A0909DF891002E2800D1F3E79E
:10205000B8F1000F02D12898007828B99DF89100B6
:1020600000B938E00DF191094846FFF701FE1EA0C6
:10207000FFF7FEFD9DF8900000F0100000B1DBE7D7
:1020800059464846FAF701FF20B918A14846FAF721
:10209000FCFEF8B104EB840106EB81001421FAF791
:1020A000C8FF4846FAF72FFF0546142D02DDA5F1BB
:1020B000140A01E04FF0000AA5EB0A0209EB0A013D
:1020C00004EB840306EB8300FAF73CFF641C0A2C44
:1020D00000DB00E0B0E700BF0CB904202A902A988A
:1020E0002BB0BDE8F08F00000D0A00002E435356C0
:1020F0000000000010B52248806800F4005058B37A
:102100001F48806800F4804088B11E48007802288B
:102110001ED11D484068401E1B49486001201B49D4
:1021200008701B484068401C1949486010E0154879
:10213000007801280CD114484068401C12494860BE
:1021400001201249087012484068401C104948603C
:1021500000200C4908700DE00EF0BCFD08488068B6
:1021600000F4804018B101200649087002E0022006
:10217000044908704FF400500649086010BD000083
:1021800000100140EE09002018A10020D409002011
:1021900024A100201404014010B52148006800F07B
:1021A000020058B31E48006800F0040088B11D48C2
:1021B000007802281ED11C480068401E1A49086099
:1021C00001201A4908701A480068401C1849086024
:1021D00010E01448007801280CD113480068401C16
:1021E0001149086001201149087011480068401C1D
:1021F0000F49086000200B4908700DE00EF06AFDE1
:102200000748006800F0040018B101200549087073
:1022100002E002200349087002200649086010BD50
:1022200008180140EC09002018A10020D409002062
:1022300024A100201404014010B52148006800F0DA
:10224000100058B31E48006800F0200088B11D48F7
:10225000007802281ED11C488068401E1A498860F8
:1022600001201A4908701A488068401C1849886083
:1022700010E01448007801280CD113488068401CF5
:102280001149886001201149087011488068401C7C
:102290000F49886000200B4908700DE00EF01AFD10
:1022A0000748006800F0200018B1012005490870B7
:1022B00002E002200349087010200649086010BDA2
:1022C00008180140ED09002018A10020D4090020C1
