:020000040800F2
:10C8000098D70020E1CA0008F9390108F12401088D
:10C810009134010891EF00083196010800000000F2
:10C82000000000000000000000000000F3530108B9
:10C83000050D010800000000913A0108F5570108B4
:10C84000FBCA0008FBCA0008FBCA0008FBCA0008B4
:10C85000FBCA0008FBCA0008FBCA00083110010827
:10C86000FBCA0008FBCA0008D110010845FF0008F8
:10C87000FBCA0008FBCA0008FBCA0008FBCA000884
:10C88000FBCA0008FBCA0008FBCA0008FBCA000874
:10C89000FBCA0008FBCA0008FBCA000871110108A6
:10C8A000FBCA0008FBCA0008FBCA0008FBCA000854
:10C8B00089580108FBCA0008FBCA0008FBCA000827
:10C8C000FBCA0008FBCA0008FBCA0008FBCA000834
:10C8D000FBCA0008FBCA0008415A0108BD5A0108FA
:10C8E0008D0F0108FBCA0008FBCA00080000000009
:10C8F0000000000000000000000000000000000038
:10C900000000000000000000C1580108FBCA000838
:10C91000FBCA0008FBCA0008E958010811590108C0
:10C92000FBCA0008F9FF0008FBCA0008FBCA0008A0
:10C93000FBCA0008FBCA0008FBCA0008FBCA0008C3
:10C94000FBCA0008FBCA0008FBCA0008813A0108BC
:10C9500000F002F800F0B4F80AA090E8000C82445D
:10C960008344AAF10107DA4501D100F0A9F8AFF23A
:10C97000090EBAE80F0013F0010F18BFFB1A43F0BD
:10C980000103184718060200380602000A444FF057
:10C99000000C10F8013B13F0070408BF10F8014B1E
:10C9A0001D1108BF10F8015B641E05D010F8016B63
:10C9B000641E01F8016BF9D113F0080F1EBF10F8C7
:10C9C000014BAD1C0C1B09D16D1E58BF01F801CBEA
:10C9D000FAD505E014F8016B01F8016B6D1EF9D56D
:10C9E0009142D6D370470000002300240025002682
:10C9F000103A28BF78C1FBD8520728BF30C148BFC2
:10CA00000B6070476E2900F09484702900F0FB875A
:10CA1000662912F0FC82652912F0F982672912F06A
:10CA2000F682612912F0F58203681B0A28BF41F0E3
:10CA30008001692900F01C81642900F019817529A1
:10CA400000F016816F2900F08887782900F0C787E9
:10CA5000E92900F02387E42900F02087F52900F078
:10CA60001D87EF2900F08587F82900F0C687036845
:10CA7000DB0928BF41F08001632900F0A4867329F7
:10CA800000F0A986E32901F03982F32901F03E8202
:10CA9000002070471FB59DE8030000F077FB01F010
:10CAA00001F804000020002111F0A6F8401C60608D
:10CAB0000020002111F08AF8E0601FBD10B510BD04
:10CAC00001F012FB1146FFF7E5FF0FF0F7FD01F053
:10CAD0003EFB03B4FFF7F2FF03BC01F06FFB000065
:10CAE0000948804709480047FEE7FEE7FEE7FEE702
:10CAF000FEE7FEE7FEE7FEE7FEE7FEE7044805493E
:10CB0000054A064B704700001D58010851C900082E
:10CB100098CD002098D7002098CF002098CF0020F3
:10CB200070B5064600F012FB056806F10B0020F018
:10CB30000704B4429CBF002070BD2B466A68BAB19E
:10CB40001068A04210D304F1080188423CBF50682D
:10CB5000586007D35168101941601168091B0160C2
:10CB600058601460101D70BD13465268002AE7D14A
:10CB70002146284600F0F6FA0028DED170BD70B5D7
:10CB80000446051F00F0E2FA0068002C14BF446858
:10CB900070BD002C18BFAC423CBF20466468F8D37F
:10CBA00001680A18AA4218BF456003D12A680546E1
:10CBB0001144016028684119A1421CBF6C6070BD1E
:10CBC0006168696021680844286070BD1CB50C4626
:10CBD000064B7B4469460090204600F0D2FD044697
:10CBE0000020694600F0E0FD20461CBDD30B00008C
:10CBF0000FB41CB5084B06AA7B4469460090059803
:10CC000000F0BFFD04460020694600F0CDFD20463F
:10CC10001CBC5DF814FB0000AD0B000070B50C46A9
:10CC20000546012A05D02878800600D5EA69002348
:10CC300002E0012305E05B1C934202D2E05C002885
:10CC4000F9D1A869E618C01AA861286A18442862B0
:10CC5000284600F0DCFA04E0D5E9012114F8010BC4
:10CC60009047B442F8D3284600F0E7FA70BD0000C0
:10CC70002DE9F0410646002410687529314616A5B5
:10CC800010D000F0EBFA002802DA404213A507E0CA
:10CC900031688A0701D512A502E0490704D511A51C
:10CCA000012401E000F0E3FA00210A2206F1240742
:10CCB00009E0B0FBF2FCB0FBF2F302FB1C003030E9
:10CCC00078541846491C0028F3D123462A4630469A
:10CCD000BDE8F04100F0D4BA000000002D000000D3
:10CCE0002B000000200000002DE9F05F894604467B
:10CCF0004FF0000ADFF874B1FB44C0F820A02046D2
:10CD0000E1688847002874D0252806D0D4E901219D
:10CD10009047206A401C2062F1E700265F462046CB
:10CD2000E16888472028054607DB312D05D27819B0
:10CD300010F8200C08B10643F1E7B00701D526F042
:10CD40000406C4F81CA00027C4F818A02A2D09D096
:10CD500028460CF0B3FF38B304EB8708303DC8F821
:10CD6000185019E059F8041B204604EB8702916122
:10CD7000E1688847012F054618D1E069002820DACC
:10CD800026F020061DE0D8F8180000EB800005EB27
:10CD900040003038C8F818002046E168884705464A
:10CDA0000CF08CFF0028EED1012F0AD02E2D08D1D7
:10CDB0002046E16888477F1C0546022F46F0200682
:10CDC000C4DBA069002803DA404246F00106A061F6
:10CDD000F00701D026F010066C2D0BD0682D09D07D
:10CDE0004C2D39D06A2D35D0742D35D07A2D33D0D5
:10CDF00016E038E0E1682F4620468847B8420546ED
:10CE000009D16C2F26D04FF48060E168064320469C
:10CE10008847054604E06C2F1AD04FF48070064313
:10CE20000DB3A5F14100192802D8203546F400665B
:10CE30004A462946204626604E46FFF7E3FD80B16C
:10CE400001280BD0F61D26F0070000F1080956E76F
:10CE50004020E4E78020D8E70020D6E706F1040967
:10CE60004DE7284652E7206ABDE8F09FCEFA010060
:10CE700070B5064600F06EF90468054630460A2291
:10CE8000002100F0CBFD2C6070BD30B505460B468F
:10CE90002A4613F8014B12F8010B08B1A042F8D052
:10CEA0001CB1002802D06D1CF1E7284630BD40EAD5
:10CEB000010310B59B070FD1042A0DD310C808C970
:10CEC000121F9C42F8D020BA19BA884201D9012019
:10CED00010BD4FF0FF3010BD1AB1D30703D0521C64
:10CEE00007E0002010BD10F8013B11F8014B1B1B9F
:10CEF00007D110F8013B11F8014B1B1B01D1921E09
:10CF0000F1D1184610BD10B5431C02E010F8011B0A
:10CF100071B18107FAD14FF0013202C88C1A8C43EB
:10CF200014EAC211F9D0C01A0A0603D0C01E10BDFF
:10CF3000C01A10BD0A0401D0801E10BD0902FCD029
:10CF4000401E10BD032A40F2308010F0030C00F0A8
:10CF5000158011F8013BBCF1020F624498BF11F833
:10CF600001CB00F8013B38BF11F8013BA2F10402EC
:10CF700098BF00F801CB38BF00F8013B11F0030364
:10CF800000F02580083AC0F0088051F8043B083AC8
:10CF900051F804CBA0E80810F5E7121D5CBF51F86A
:10CFA000043B40F8043BAFF30080D20724BF11F8E4
:10CFB000013B11F801CB48BF11F8012B24BF00F849
:10CFC000013B00F801CB48BF00F8012B704710B5BA
:10CFD000203AC0F00B80B1E81850203AA0E8185071
:10CFE000B1E81850A0E81850BFF4F5AF5FEA027C32
:10CFF00024BFB1E81850A0E8185044BF18C918C0A1
:10D00000BDE810405FEA827C24BF51F8043B40F841
:10D01000043B08BF7047D20728BF31F8023B48BF26
:10D0200011F8012B28BF20F8023B48BF00F8012B64
:10D0300070474FF000020429C0F0128010F0030C7A
:10D0400000F01B80CCF1040CBCF1020F18BF00F8FB
:10D05000012BA8BF20F8022BA1EB0C0100F00DB8AA
:10D060005FEAC17C24BF00F8012B00F8012B48BF08
:10D0700000F8012B70474FF0000200B513469446AC
:10D080009646203922BFA0E80C50A0E80C50B1F120
:10D090002001BFF4F7AF090728BFA0E80C5048BF34
:10D0A0000CC05DF804EB890028BF40F8042B08BFD2
:10D0B000704748BF20F8022B11F0804F18BF00F8CE
:10D0C000012B70474FF0013C50F8042B51F8043B02
:10D0D0009A4221D1A2EB0C03934313EACC1317D14C
:10D0E00050F8042B51F8043B9A4215D1A2EB0C03E3
:10D0F000934313EACC130BD150F8042B51F8043BA3
:10D100009A4209D1A2EB0C03934313EACC13DBD070
:10D110004FF00000704700BFD01A01BAB1FA81F198
:10D1200001F0180122FA01F0CB40C1F12001DBB27D
:10D13000C0B2C01A2CFA01F3D11A914311EAC311FB
:10D14000E6D170477047704770470000004870474D
:10D1500040CD00200048704738CD00207047704710
:10D160007047704738B504460A4600206946AFF359
:10D170000080002808BF38BD02460099204600F014
:10D1800095FC012038BD012000F0A6BFF8B5AFF333
:10D190000080054600200C46102000BF0646A81956
:10D1A000A0420DD9324669460020AFF30080070047
:10D1B00008BF00F091FF0098A04218BF0546C419AF
:10D1C000FFF7C4FF05600746F01D20F00700461971
:10D1D000284600F00AF8B44208BFF8BDA21B314649
:10D1E0003868BDE8F84000F061BC00210160C0E98A
:10D1F000011070471020704710B5FFF7ABFF0068B3
:10D2000010BD10B50446FFF7A5FF046010BD70B552
:10D21000044685690068C10601D5302600E0202655
:10D22000C00707D070BDD4E9012130469047206A7D
:10D23000401C20626D1EF6D570BD70B50446856930
:10D240000078C00707D170BDD4E9012120209047A4
:10D25000206A401C20626D1EF6D570BD09684A0523
:10D2600001D540B27047C905FCD500B270470968C6
:10D270004A0501D5C0B27047C905FCD580B27047D8
:10D280002DE9F0470D4699469246044600F12408E0
:10D290000168880604D5E06921F01001216000E0F2
:10D2A0000120A84201DD471B00E00027A1697A198F
:10D2B00002EB0900081AA0612078C00602D42046BB
:10D2C000FFF7A5FF002608E0D4E901211AF80600BF
:10D2D0009047206A401C761C20624E45F4DB207883
:10D2E000C0060AD52046FFF792FF06E0D4E90121E7
:10D2F00030209047206A401C2062381EA7F10107A9
:10D30000F4DC07E0D4E9012118F805009047206A11
:10D31000401C2062281EA5F10105F3DC2046FFF722
:10D320008CFF2078000602D50220BDE8F08701209E
:10D33000FBE711680268006A530501D508700AE02E
:10D34000D30501D5088006E0130603D5C217C1E94D
:10D35000000200E008600120704770472DE9FF4F90
:10D360000C461E464FF0FF378BB0D2E90001DDF8C6
:10D3700060800A908A46C1F30A5505B93D460021EE
:10D3800008464FF00000BAF1000F00F4400005DA43
:10D3900000EB80004FF4400101EA50004FEA905941
:10D3A000B9F1010F00DDB9460A9850EA4A000ED0E3
:10D3B00044F61050A5F2FF3545432F14B8F1000F85
:10D3C0001ED07542291E1EDDC9F100021CE0B8F115
:10D3D000010F4FF0000001D0302103E0F24305E0DF
:10D3E0002154401CB042FBDB304600220021215476
:10D3F0000B99C1F80880C1E900200FB0BDE8F08F9B
:10D40000BD1B6D1CDEE74A4600DA694206A800F043
:10D41000D1FD06AB93E8070003AB83E80700504655
:10D420000A9900F0F1FE8DE80700A0F500501F38C2
:10D4300000900398002D0ADD42F21F014A4608447D
:10D44000002303A90390684601F05AF909E0A0F50A
:10D4500000504A461F38002303A90390684601F094
:10D4600064F98DE807000004000C03D04FF0FF3092
:10D47000410800E01046B8F1000F03D000220092EE
:10D4800015461EE0751E05D400F02AFB30326255A9
:10D490006D1EF9D5B3460122084302D000227F1C3D
:10D4A00004E02078302801D100227F1E002A09974D
:10D4B00084D01DE0112D07DA00F012FB30326255E6
:10D4C0006D1C50EA0102F5D1084302D00098C8B1A2
:10D4D0000EE00021681E05E0235C625C6354225468
:10D4E000401E491C8142F7DBAB46A81B401E099039
:10D4F000002004F80B000B98099AC0F80880C0E9D6
:10D50000002B7AE711264FF0000857E72DE9F04F7E
:10D5100088460446D21D22F0070191B0D1E90001EE
:10D52000CDE90A010CF086F802460B98C00F01D035
:10D530002D2007E02068810701D52B2002E0202163
:10D5400001EAC000032A099001D0072A05DB03463F
:10D550004146204600F088FC0BE12078800601D58A
:10D56000E06900E00620B8F1650F814606D0B8F109
:10D57000660F18D0B8F1670F70D131E00020B9F113
:10D58000110F009001DB112301E009F101030AAA48
:10D5900001A90CA8FFF7E2FEDDE90C70002609F1F5
:10D5A0000105834647E001204B4600904FF00047BD
:10D5B0000AAA01A90CA8FFF7D1FEDDE90DB00C996C
:10D5C0005D46002610B909F101000D18B9EB050000
:10D5D00003D4C0F1FF3609F10105A5EB09002BE0EA
:10D5E000B9F1010F01DA4FF001090020B9F1110F73
:10D5F0000090484601DD112300E003460AAA01A974
:10D600000CA8FFF7ABFEDDE90C704D460026834603
:10D61000207800070AD4AB4500DA5D4601A8012D49
:10D6200004DD411911F8011C302907D04F4502DAF9
:10D6300017F1040F04DA012082460FE06D1EEEE7B9
:10D64000002F02DCED1B3E4403E0781CA84200DD05
:10D650007D1CB81B00F1010A4FF00047207800073D
:10D6600003D4AA4501DB4FF0FF3A0021B7F1004F88
:10D670000DF143088DF8431024D002202B23002FF6
:10D6800001DA7F422D230A21021EA0F1010000DCF5
:10D690005FB197FBF1FC97FBF1F201FB1C7C174695
:10D6A0000CF1300C08F801CDEEE7A8F10100037091
:10D6B0002188090501D5452100E06521A0F1010877
:10D6C00000F8011C09980FA9A1EB0807FF1D00B184
:10D6D0000120411901EBEA70A1693844081A401E83
:10D6E000A0612078C00602D42046FFF790FD09987B
:10D6F00028B1D4E901219047206A401C206220789B
:10D70000C00622D52046FFF782FD1EE0002E04DB76
:10D71000B34502DD01A8805D00E03020D4E901219D
:10D720009047206A401C2062761CAAF101005FEA43
:10D73000000A0AD100F0B6F9C0680168405CD4E97B
:10D7400001219047206A401C2062281EA5F1010596
:10D75000DCDC07E0D4E9012118F8010B9047206ACE
:10D76000401C2062381EA7F10107F3DC2046FFF7BA
:10D7700064FD032011B041E601694A1C026108788A
:10D78000704700B58FB0CDE9013100210591054901
:10D790007944CDE9031011466846FFF7A5FA0FB0AA
:10D7A00000BD0000E5FFFFFF0A6802F8010B0A60F8
:10D7B000704710B5436913B1AFF3008001E0FFF784
:10D7C0002DFA012010BD127800F124010A70002208
:10D7D0004A700122EDE711684FF0FF32E9E70000DF
:10D7E0002DE9FF5F15468A460446DFF8AC80F84411
:10D7F0000027D8E900103E46CDE9001010E03AF8C5
:10D8000016106A4602A800F047FC411C07D0217898
:10D81000890603D5E269391891420DD80744761C70
:10D820002078800602D5E069B84205DDAE42E6DB2D
:10D830003AF816000028E2D1A069C01BA06120467A
:10D84000FFF7E5FCD8E90010CDE90010002017E053
:10D850003AF818106A4602A800F01EFCB0F1FF3F2B
:10D8600081460BD000250DF1080B05E0D4E901211C
:10D870001BF8050090476D1C4D45F7D308F10100DA
:10D88000B0428046E4DB206A384420622046FFF73D
:10D89000D4FCBDE8FF9F0000AEF001002DE9F0418F
:10D8A0008046D21D22F007020025D2E90002F529A8
:10D8B00015A614D0011E72F1000106DA0023D0EB88
:10D8C000030063EB020211A608E0D8F800108B07F2
:10D8D00001D50FA602E0490701D50EA60125114684
:10D8E000002408F1240704E000F0FAF830323A5539
:10D8F000641C50EA0102F7D12B46324621464046CD
:10D90000BDE8F041FFF7BCBC000000002D000000A6
:10D910002B0000002000000030B4002100F124049E
:10D9200008E002F00705D208303542EA4372DB080E
:10D930006554491C52EA0305F3D10468002310A280
:10D94000250707D5A40600D421B1C46901230DA27F
:10D95000641EC46130BCFFF793BC10B50446214679
:10D960001068FFF784FC02462046BDE81040002303
:10D97000D2E7D21D22F00701D1E90023CCE7000055
:10D980000000000030000000F0B40D4601880905D9
:10D9900002D5214C7C4402E01F4C7C440E34002113
:10D9A00000F1240608E002F00F071209E75D42EAE1
:10D9B00003721B097754491C52EA0307F3D102781A
:10D9C0000023120704D5702D06D009B102231134AB
:10D9D0002246F0BCFFF754BC01231034F8E770B5C1
:10D9E00004460D4621461068FFF741FC02462946D1
:10D9F0002046BDE870400023C6E7D21D22F0070391
:10DA0000D3E90023C0E70368126843F020030360F2
:10DA10000823C3610023B7E710EF01002DE9F047A9
:10DA200091460F4680460446002614F8015B2DB14E
:10DA300000F030F80068405DC007F6D12B2D02D011
:10DA40002D2D18D0641E4A463946204600F062FA51
:10DA500027B13968A14201D1C7F800804FF0020414
:10DA600071050BD54042002803DDFFF773FB04600E
:10DA7000A007BDE8F08746F48066E4E70028F8DAFE
:10DA8000FFF768FB04606FF00040F2E70048704762
:10DA900038CD002010B500F005F8001D10BD00BF06
:10DAA000590101000048704758CD002003464068E6
:10DAB0008C46002818BF88423CBF03464068F8D314
:10DAC00018681844884207D00CF1030020F00700C2
:10DAD000001D411A521A0146081D0A60FFF74FB88F
:10DAE00030B5B0F10A024FEA900E71F100034EEA30
:10DAF000817EB0EB0E0061EB91014FEA101E4EEA01
:10DB0000017E10EB0E0041EB11114FEA102E4EEA90
:10DB1000016E10EB0E0041EB11214FEA104E4EEA60
:10DB2000014E10EB0E0041EB1141401841F1000194
:10DB30004FEAD00040EA41704FEAD10110EB800576
:10DB40004FEA810444EA907444EB01046D1944EBFC
:10DB50000404521BA3414FF0000348BF0A3200D512
:10DB600030BD401C41F1000130BD00002DE9F04FF7
:10DB700004460D46D21D22F0070089B0D0E9009777
:10DB8000484639460BF056FD0246F80F01D02D23CA
:10DB900007E02068810701D52B2302E0202101EA5C
:10DBA000C0038DF820300BB1012000E00020032AD3
:10DBB000824601D0072A04DB2946204600F054F9AA
:10DBC0003FE12078800601D40D2500E0E569C7F328
:10DBD0000A560D2D49DA00214FEA175B08464FF02F
:10DBE0000000002F00F4400007DA00EB80004FF443
:10DBF000400100EBD07001EA60008115012901DDD0
:10DC00004FF0FF3100224FEA850CBCF1180F06D30C
:10DC10001346ACF118004FF08052C24003E04FF4BD
:10DC2000801323FA0CF30CF10C0CBCF1200F04D37D
:10DC3000ACF1200C09FA0CF001E007FA0CF0002915
:10DC40004FF0004801DD18B90FE00ED140450CD36C
:10DC500019EB02095F4121B9404502D19F4329EAEE
:10DC60000209BBEB175F00D0761C2088000502D5A7
:10DC70007B48784402E07A487844193808AA30236F
:10DC800002F80A30037C0AF10101002E0AF1020AAF
:10DC900053546A4602DC4FF0300101E04FF031018D
:10DCA0004FF001088DF8001002D0A6F2FF3603E015
:10DCB00059EA470100D06B4E002D02DC217809079C
:10DCC00004D54FF002082E218DF80110C446002122
:10DCD0000BE0C7F303433F01C35C491C6D1E02F810
:10DCE0000830052908F1010801DA002DF1DC0021D6
:10DCF0000CE000EB1973491C1B786D1E082902F813
:10DD000008304FEA091908F1010801DA002DF0DCAA
:10DD100021688B0602D516E0A8F10108E04505DD73
:10DD200002EB080313F8013C302BF5D0B8F1000FDB
:10DD300009DD02EB080313F8013C2E2B03D1090780
:10DD400001D4A8F10108002D05DD3E2102F80810DC
:10DD50006D1E08F10108407C002E02F8080008F151
:10DD6000010804DA2D20764202F8080002E02B2098
:10DD700002F808000A214FF47A70864208F101087F
:10DD80000BDB96FBF0F3303302F8083096FBF0F330
:10DD900008F1010800FB136601E0642E0CDB64202F
:10DDA00096FBF0F3303302F8083096FBF0F308F1FD
:10DDB000010800FB136601E00A2E06DB96FBF1F07A
:10DDC000303002F8080008F1010896FBF1F001FB81
:10DDD0001060303002F80800A16908F1010808EB72
:10DDE000050202EB0A00081AA0612078C00602D4DE
:10DDF0002046FFF70CFA216A08AE01EB0A00206208
:10DE000004E0D4E9012116F8010B9047BAF1010AA8
:10DE1000F7D22078C00602D52046FFF7F8F96E4603
:10DE200009E016F8010B3E280FD0D4E901219047F4
:10DE3000206A401C2062B8F10108F2D22046FFF7A8
:10DE4000FCF909B00320BDE8F08F206A2844206265
:10DE500003E0D4E90121302090476D1EEBD3F8E7B1
:10DE600095ED010002FCFFFF2DE9F0411F4604463D
:10DE700003260168072A01F4006004DB08B116A537
:10DE800005E016A503E008B115A500E015A521F0F1
:10DE900010002060A069C01EA0610FB1401EA061EB
:10DEA0002046FFF7B4F94FB1D4E901213846904735
:10DEB000206A401C2062C01C206206E0206AFAE74B
:10DEC000D4E9012115F8010B9047761EF8D22046BF
:10DED000FFF7B3F9BDE8F0814E414E006E616E0070
:10DEE000494E4600696E660010B5436913B1AFF341
:10DEF000008001E0FFF774FC012010BD128800F1E2
:10DF0000240182840022C2840122EDE711684FF0CF
:10DF1000FF32E9E72DE9F05F824615468B46002780
:10DF20000AF10104B9460078302801D09DB113E010
:10DF300014F8010B0127782803D0582801D045B1E7
:10DF40000AE00DB1102D07D1002714F8010B1025A0
:10DF500002E0082500E00A250026B0460EE005FB99
:10DF6000080005FB06F101271FFA80F801EB1046B7
:10DF7000B6F5803F00D3B94614F8010B294600F0EE
:10DF8000D8F80028EBDABBF1000F05D00FB1641E02
:10DF900000E05446CBF80040B9F1000F06D0FFF77F
:10DFA000D9F802210160C81EBDE8F09F48EA06408A
:10DFB000FAE700002DE9F047814616468AB0354859
:10DFC00078440DC88DE80D0032487844801C03ACBD
:10DFD0000DC884E80D0041F69B300844372190FBC2
:10DFE000F1F290FBF1F5A5F1800501FB12041B3C59
:10DFF00002D56442012000E00020DFF898A08046AE
:10E000000027FA44AAF1BE0A0EE0E0070AD0324621
:10E01000684607EB470101230AEB810100F085FB0D
:10E020008DE8070064107F1C002CEED1194F7F444F
:10E03000AE3F19E0E80715D007EB04100DF1180A00
:10E0400090E80E008AE80E00C068F04201D19819ED
:10E0500008903246012306A903A800F066FB03AB33
:10E0600083E807006D10641C002DE3D14FF001031D
:10E0700032466946B8F1000F03A802D000F040FB19
:10E0800001E000F052FBC9E90001C9F808200AB01C
:10E09000BDE8F087D8EA010070B516460C46054683
:10E0A000FFF7F8FC036893F80101012806D0FF2C64
:10E0B0000FD8185D68B101202C7070BDD3F807012E
:10E0C0003246214603F2071303442846BDE8704058
:10E0D00018474FF0FF3070BD10B500F047F8BDE8AD
:10E0E000104000F03DB870477546FFF7CFFCAE46D4
:10E0F00005006946534620F00700854618B020B554
:10E10000FEF7FCFCBDE820404FF000064FF0000792
:10E110004FF000084FF0000B21F00701AC46ACE8CF
:10E12000C009ACE8C009ACE8C009ACE8C0098D463C
:10E1300070473A2800D2303820F02002412A01D31B
:10E14000A2F13700884201D34FF0FF30704710B57D
:10E150000446AFF300802046BDE81040FEF7B9BC8E
:10E16000002801D000F02AB87047000010B501283F
:10E1700005D0002103A000F027F8012010BD09A15F
:10E18000F8E7000053494752544D454D3A204F752A
:10E1900074206F662068656170206D656D6F72799F
:10E1A000000000003A2048656170206D656D6F7257
:10E1B0007920636F7272757074656400014918206C
:10E1C000ABBEFEE72600020070B505460C460A20ED
:10E1D00000E06D1C00F011F835B128780028F8D166
:10E1E00002E0641C00F009F814B120780028F8D18E
:10E1F000BDE870400A20AFF3008008B569468DF88D
:10E2000000000320ABBE08BD5FEA400C08BF91F0E0
:10E21000000F4FEA8C234FEAC12243EA51514FEAE3
:10E220001C5018BF00F5F0404FEA300018BF41F015
:10E2300000415FEA6C5C00F02980BCF1FF3F08BF41
:10E2400040F080407047130C06BF12044FF0100CD2
:10E250004FF0000C130E04BF12020CF1080C130F48
:10E2600004BF12010CF1040C930F04BF92000CF1D7
:10E27000020CD30F04BF52000CF1010C11464FF0F9
:10E280000002A0F11F00A0EB0C00704711F0004F3E
:10E2900008BF704731F000413FF4D5AF0B0C06BF0B
:10E2A00009044FF0100C4FF0000C0B0E04BF0902D4
:10E2B0000CF1080C0B0F04BF09010CF1040C8B0FBF
:10E2C00004BF89000CF1020CCB0F04BF49000CF114
:10E2D000010CCCF12003A0EB0C0022FA03F302FAAC
:10E2E0000CF241EA030100F10100704720F07F4C7D
:10E2F00080EA030023F07F47ACEB070303F57C5370
:10E3000000F0004003F1FF032DE980494FEA154B6F
:10E3100009B44FEA144325EA0B4E24EA03480FF2EE
:10E32000042606EB132749083E785FEA320203FB16
:10E330000667C7F5000707FB06F64FEA54374FEAB2
:10E34000D64606F1020607FB066CCCF1005C4FEAEC
:10E350001C472CEA074C07FB06F40CFB06F504EB04
:10E3600015464FEA961634BF00204FF000404FEAA2
:10E37000D13706FB07FC4FEA1C4C0CFB0BF7D21BFA
:10E3800003FB0CF761EB07010CFB0EF7B0EB07404A
:10E3900072EB17420CFB08F734BFA2EB0742B2EB5B
:10E3A000074261EB17414FEA0C444FEA910706FB25
:10E3B00007FC4FEA1C4C0CFB0BF7B0EBC74072EBB1
:10E3C000573203FB0CF734BFA2EBC742B2EBC74294
:10E3D00061EB57310CFB0EF7B0EBC70072EB5772D5
:10E3E0000CFB08F734BFA2EBC702B2EBC70261EB2C
:10E3F0005771039F4FEA816141EA921104EBCC040B
:10E400004FEAD1374FEA826206FB07FC42EA9012DC
:10E410004FEA80604FEA1C4C0CFB0BF7D21B03FB4E
:10E420000CF761EB07010CFB0EF7B0EB074072EB4A
:10E4300017420CFB08F734BFA2EB0742B2EB0742CE
:10E4400061EB17414FEA8C554FEA910704EB9C248E
:10E4500006FB07FC4FEA1C4C0CFB0BF7B0EBC7406C
:10E4600072EB573203FB0CF734BFA2EBC742B2EB9F
:10E47000C74261EB57310CFB0EF7B0EBC70072EBF4
:10E4800057720CFB08F734BFA2EBC702B2EBC7020E
:10E4900061EB577115EB4C254FEA816141EA92110E
:10E4A0004FEA82624FEAD13742EA901206FB07FC3C
:10E4B00044F100044FEA80604FEA1C4C0CFB0BF760
:10E4C000D21B03FB0CF761EB07010CFB0EF7B0EB63
:10E4D000074072EB17420CFB08F734BFA2EB074270
:10E4E000B2EB074261EB174115EB1C154FEA813186
:10E4F00041EA92414FEA823242EA90424FEA80304A
:10E500004FEA0C7644F1000448EA03434EEA0B4814
:10E510004FF0000EB2EB080C71EB030724BF62460C
:10E5200039464EEB0E0E4FF0000B00185241494198
:10E530004BEB0B0BB2EB080C71EB03077BF1000B01
:10E5400024BF624639464EEB0E0E4FF0000B00180A
:10E55000524149414BEB0B0BB2EB080C71EB03073B
:10E560007BF1000B24BF624639464EEB0E0E51EA9A
:10E57000020718BF46F0010616EB0E7655F10002B1
:10E5800054F1000103D5BDE88901BDE80088BDE86C
:10E590008901BDE80048B619524141EB0101A3F1E0
:10E5A0000103704780807F7E7D7C7B7A79787776E7
:10E5B00076757473727171706F6E6E6D6C6C6B6A60
:10E5C0006A696868676666656464636362616160FE
:10E5D000605F5F5E5E5D5D5C5C5B5B5A5A5959587B
:10E5E00058575756565555555454535352525251E5
:10E5F000515050504F4F4F4E4E4D4D4D4C4C4C4B3B
:10E600004B4B4A4A4A494949484848474747474681
:10E6100046464545454444444443434343424242BD
:10E6200042414141002B9C4630D477002BD01CB591
:10E630004FEA370703B44FF010004FF01001BAF162
:10E64000000F06D0BCF1000FDCBF40F0080040F026
:10E6500008014FF000000FBCBDE810400BF1010BAA
:10E66000BBF1010F08BF5FEA170722BF12F10102D9
:10E6700011F101014FF0004143F1000300F00040AF
:10E6800043EA00007047F9D35708D0E746EA064648
:10E6900013F1400F4FEA16461FDD13F1200FDFBFC5
:10E6A00016430A46002120335B42BED0C3F1200747
:10E6B00046EA064602FA07F74FEA164646EA070612
:10E6C000C3F1200722FA03F201FA07F721FA03F156
:10E6D0004FF0000342EA0702A7E746EA020646EACD
:10E6E00006464FEA164646EA0106BCBF46EA06461B
:10E6F000360C4FF000034FF000024FF0000194E79A
:10E700002DE9804C9A46934670B491E8380007C8CA
:10E7100031EA400C48BF34EA430C03D5FFF7E6FD6D
:10E72000FFF780FFF0BCBDE8008C2DE9804C9A46D5
:10E73000934670B491E8380007C810F0804F08BFC6
:10E7400013F0804F03D100F005F8FFF76BFFF0BC2A
:10E75000BDE8008C20F07F4780EA030023F07F4C67
:10E7600007EB0C03A3F57C5300F00040A3F1FE037C
:10E7700092F0000F00F0B38095F0000F00F077806A
:10E780002DE901494FEA11404FEA144621EA0048B9
:10E7900000FB06FC24EA064708FB06F607FB08F820
:10E7A00000FB07F718EB06484CEB164C4FEA124BF0
:10E7B00018EB07484FEA15464CEB174022EA0B4E80
:10E7C0000BFB06FC25EA06470EFB06F607FB0EFED2
:10E7D0000BFB07F71EEB064E4CEB164C4FF00006FA
:10E7E0001EEB074E4CEB174B18EB0B0840F10000EB
:10E7F00018EB0E0B58EB000840F100008F1A4FF099
:10E8000000013CBFC943661B14BFB5EB040C0021DB
:10E810003CBFC943F61B4FEA17444EEA8E0E27EA67
:10E8200004454FEA1C4704FB07622CEA074C05FB32
:10E8300007F70CFB05F604FB0CFC16EB074642EB56
:10E84000174216EB0C4642EB1C421BEB060658EB3C
:10E850000202414146EA9E0601D5BDE80189B6198A
:10E86000524141EB0101A3F10103BDE801894FEAE7
:10E8700014454FEA114724EA054621EA074C05FBF7
:10E8800007F406FB07F70CFB06F105FB0CFC11EB8C
:10E89000074144EB17444FEA124711EB0C4144EB9C
:10E8A0001C4422EA074C05FB07F206FB07F70CFBAA
:10E8B00006F605FB0CFC16EB074642EB174216EB7F
:10E8C0000C4642EB1C456A1854F1000148BF7047E2
:10E8D000B619524141EB0101A3F10103704795F0D4
:10E8E000000F37D04FEA11424FEA144721EA02469F
:10E8F00024EA074C02FB07F106FB07F70CFB06F4C2
:10E9000002FB0CFC14EB074441EB17414FEA15479F
:10E9100014EB0C4441EB1C4125EA074C02FB07F5C4
:10E9200006FB07F70CFB06F602FB0CFC16EB074692
:10E9300045EB174516EB0C4645EB1C42121951F1FD
:10E94000000148BF7047B619524141EB0101A3F1E4
:10E95000010370474FEA14454FEA114724EA054680
:10E9600021EA074C05FB07F106FB07F70CFB06F253
:10E970004FF0000605FB0CFC12EB074241EB174180
:10E9800012EB0C4251EB1C4148BF7047921841EB0F
:10E990000101A3F10103704700B587B001214802CE
:10E9A00005F0E4FB0121084605F0B0FB4FF4004000
:10E9B00005F0A0FB364800F089F81020ADF81800EB
:10E9C00000208DF81B0002208DF81A0006A931489E
:10E9D00002F0E0FE0020019001208DF808008DF883
:10E9E00009004FF4602003900020049001208DF86E
:10E9F000140001A9264800F0ABF8072301220421E6
:10EA0000234800F0CDF80121214800F054F80121FD
:10EA10001F4800F045F81E4800F01EF900BF1C48D2
:10EA200000F08CF80028FAD1194800F025F900BF51
:10EA3000174800F079F80028FAD10B208DF8000073
:10EA400003208DF8010002208DF8020001208DF8CE
:10EA50000300684604F0D2FF0D484C300E490861AF
:10EA60000E4848614FF4AD5088606420C860084685
:10EA7000806840F0010088600846806840F002002D
:10EA800088600121024800F0ECF807B000BD0000EA
:10EA900000240140000801400000024030B800207E
:10EAA00021B1826842F00102826003E0826822F0B4
:10EAB00001028260704721B1826842F480728260F4
:10EAC00003E0826822F480728260704710B50446C9
:10EAD0001248844208D10121401505F057FB00215E
:10EAE000601505F053FB17E00D48844208D1012161
:10EAF000001505F04BFB0021201505F047FB0BE04E
:10EB00000848844208D10121C80305F03FFB0021D9
:10EB10004FF4004005F03AFB10BD00000024014016
:10EB200000280140003C0140014600208A6802F0B4
:10EB300004020AB1012000E00020704701460020D5
:10EB40008A6802F008020AB1012000E00020704744
:10EB500030B502460020002350680F4C20400D794C
:10EB60000C6844EA05242043506090680B4C204018
:10EB7000D1E902542C434D7944EA45042043906086
:10EB8000D06A20F470000C7C641EE4B2234340EA97
:10EB90000350D06230BD0000FFFEF0FFFDF7F1FF33
:10EBA000F0B504460D4600200021092D11DDE06876
:10EBB000A5F10A0606EB4607072606FA07F1884381
:10EBC000A5F10A0606EB460603FA06F10843E060E3
:10EBD0000CE0206905EB4507072606FA07F1884394
:10EBE00005EB450603FA06F108432061072A0FDA10
:10EBF000606B561E06EB86071F2606FA07F1884350
:10EC0000561E06EB860605FA06F10843606322E00D
:10EC10000D2A0FDA206BD61F06EB86071F2606FA91
:10EC200007F18843D61F06EB860605FA06F108436E
:10EC3000206310E0E06AA2F10D0606EB86071F26AE
:10EC400006FA07F18843A2F10D0606EB860605FADF
:10EC500006F10843E062F0BD816841F0080181607F
:10EC6000704721B1826842F4A002826003E08268AA
:10EC700022F4A00282607047816841F00401816043
:10EC800070472DE9F04104460D4616461F46641CA8
:10EC9000AD1C761CBF1C2A2004F0C2F9C4F3072067
:10ECA00004F0A6F9E0B204F0A3F9C6F3072004F0DB
:10ECB0009FF9F0B204F09CF92B2004F0B1F9C5F3F0
:10ECC000072004F095F9E8B204F092F9C7F30720A1
:10ECD00004F08EF9F8B204F08BF92C2004F0A0F9BE
:10ECE000BDE8F08110B5002409E00020074901F8D3
:10ECF0001400012101EB4401044A5054641C052C0A
:10ED0000F3DB1421014801F08DF910BD9AC40020F5
:10ED100070B504460D4603222946204600F008FF40
:10ED200070BD000038B506241B4890F8700018B17B
:10ED30001AA003F0DFFB02E01BA003F0DBFB4EF6A2
:10ED40005B7000F0F9FF4EF65B701A4908800020F6
:10ED5000194908800120194908700F4890F870007F
:10ED600040B117A010232246214600901F4804F00E
:10ED700090FE07E01EA010232246214600901B486B
:10ED800004F087FE0DF012FE184814210CC80A206A
:10ED900003F04CFF38BD0000601000204155544F77
:10EDA0002044455445435400D7D4B6AFBCECB2E23E
:10EDB00000000000C60E0020C40E0020950F0020A9
:10EDC0002020446574656374207468652045746808
:10EDD00065726E65742C496E746572666163652038
:10EDE0006973204172742D4E65742E00A80E0020A8
:10EDF0002020BCECB2E2B5BDD2D4CCABCDF8C1ACD6
:10EE0000BDD32CCAB9D3C34172742D4E6574BDD322
:10EE1000BFDAA1A30000000070B505460C46084803
:10EE20000560204600F00EF800BF05480068002885
:10EE3000FBD100214FF0804006F089FD70BD00003D
:10EE4000AC0F00203EB5044600214FF0804006F094
:10EE50007EFD00220121880706F096FD022C03D1D9
:10EE60000B20ADF8040005E0012C03D142F6DF6071
:10EE7000ADF804000520ADF800000020ADF8060054
:10EE8000ADF8020069464FF0804006F087FD012191
:10EE9000880706F059FD0121880706F049FD012287
:10EEA0001146900706F070FD0121880706F04FFD1E
:10EEB0003EBD0000F0B5ADB00546012701A82B907E
:10EEC00064202C9029461CA80CF057FC0646002E06
:10EED0004DD100BF25A91CA80CF06EFD064616B941
:10EEE0009DF89D0000B93DE09DF89D002E2800D1C1
:10EEF000F0E72B9C9DF89C0000F0100000B1E9E7C2
:10EF0000204601F000FF1BA001F0FDFE1AA12046E3
:10EF1000FEF7D8F828BB012221461B480CF064FB01
:10EF20000646042118480CF068FA1AAB04221BA903
:10EF300015480CF058FC1B9800F07F40B0F1006FB2
:10EF400000D0C7E7002110480CF057FA00270E4800
:10EF50000CF048FA01210D4880F82A1038462DB0EF
:10EF6000F0BDB7E700BF0221084880F82A103846F4
:10EF7000F5E700000D0A000066696C6D6765617257
:10EF80003030312E62696E00ECB10020601000203C
:10EF900000BFFEE72DE9F0418AB0022500226B4850
:10EFA00003C804F019FE002410E04EF65B700090D8
:10EFB000674800EBC40001680491406803460A46B4
:10EFC0000590624803C804F018FE641C032CECDBB7
:10EFD0004EF65B705F49088000205F4908805F48FB
:10EFE000806E00EB80005E4911F820105B4880F8CD
:10EFF000601090F8700050B1584890F8600064219B
:10F0000000FB01F257A106A8FDF7F2FD09E0534805
:10F0100090F86000642100FB01F254A106A8FDF7FE
:10F02000E7FD002006A910220192CDE902210490FB
:10F030006420009046484088284483B244480088B1
:10F04000103082B2414803C804F030FF002006901F
:10F05000079008900990414890F8700030B13F48FF
:10F0600045A1C26D06A8FDF7C3FD05E03B4844A1DC
:10F07000C26D06A8FDF7BCFD002006A91022019272
:10F08000CDE9022104906420009031484089284451
:10F0900083B22F480089103082B22C4803C804F094
:10F0A00005FF002006900790089009902B4890F8E3
:10F0B000700078B12949486E33490FF035FE80461B
:10F0C0000FF006FC064632460B4630A106A8FDF7B7
:10F0D0008FFD1DE02149486E0FF0FAFB0646002225
:10F0E0002D4B0FF0A9F80FD21C49486E26490FF09E
:10F0F0001BFE80460FF0ECFB064632460B4627A16E
:10F1000006A8FDF775FD03E028A106A8FDF770FD30
:10F11000002006A910220192CDE90221049064206A
:10F1200000900B48408A284483B20948008A103076
:10F1300082B2064803C804F0B9FE044814210CC882
:10F140000A2003F073FD0AB0BDE8F081A80E00208C
:10F1500018170020C60E0020C40E002060100020EA
:10F16000481C02084B766E3A25644B00C9ABCEC2F0
:10F170003A25644B0000000047726E3A2564000097
:10F18000C2CCC6AB3A2564000000C84244696D3A5F
:10F1900025302E31662525000000F03FC1C1B6C8DC
:10F1A0003A25302E3166252500000000C1C1B6C8C1
:10F1B0003A3130302525000010B50D4890F8700028
:10F1C00018B10CA003F096F902E00DA003F092F93B
:10F1D000074B5A6ED96D93F86800002304F052F87B
:10F1E000FFF7D8FE0021024880F8561010BD00003D
:10F1F00060100020434354204D4F44450000000060
:10F20000434354C4A3CABD002DE9FF5F7C48006896
:10F210007B49496808437A498968084300287DD0BA
:10F2200077480068C8B17748816E75480068091A48
:10F2300074488166816EC06E401E814203DD714854
:10F24000C16E491E81666F48806E002802DA002177
:10F250006C48816600206A49086069484068002857
:10F2600051D06949694800680FF02AFE2DD26848DC
:10F270000078401C66490870644800680FF028FB5D
:10F28000CDE900015E4948680EF0ABFF8046614A57
:10F29000614B0FF00DF80646DDE900230FF008F88A
:10F2A00004460D465749C86D0EF09BFF22462B467B
:10F2B000CDE902010FF022FA82460EF035FF5149E6
:10F2C000C86500205249087009E04E48C06D4C499D
:10F2D0004968411A4B48C16500204D4908704948AA
:10F2E000C06D642803DD64214648C16508E04548D7
:10F2F000C06D10F1640F03DA6FF063014148C1651E
:10F3000000203F4948603E48806800286BD0434950
:10F310003E4800680FF0D4FD30D200E06DE03C487C
:10F320000078401C3A49087000200870374800688F
:10F330000FF0CEFA06460F46314988680EF051FFAD
:10F340008046374A374B0EF0B3FF32463B46CDE995
:10F3500000010EF0ADFF04460D462A49486E0FF03D
:10F36000B7FA824622462B460FF0C8F9CDE90201D2
:10F370000EF058FC0146234841661CE00020244959
:10F3800008701F4988680EF02CFF8046244A264BDF
:10F390000EF08EFF04460D461A49486E0FF098FA9B
:10F3A000064622462B460FF0A9F982460EF03AFC9B
:10F3B0000146144841661349486E4FF07E510FF0E4
:10F3C0007FFD04D24FF07E510E48416608E00D49A2
:10F3D000486E00210FF074FC02D2002109484166FA
:10F3E000002007498860074B5A6ED96D93F8680072
:10F3F000002303F047FFFFF7CDFDBDE8FF9F0000AE
:10F4000044BC0020601000200000F041E00F00200C
:10F41000940F00209A9999999999A93F0000C841A1
:10F42000FCA9F1D24D62403F4D62503F2DE9F04FB3
:10F430008DB082460C469146BAF14C0F04D2642C32
:10F4400002DC14F1640F03DA01200DB0BDE8F08F87
:10F450000AEB8A005D4901EB8001D1E90301CDE9A6
:10F4600008010AEB8A00594901EB8001D1E9010149
:10F47000CDE906014FF0804006990FF055FC054696
:10F4800008990FF04FFD0A904FF0804007990FF058
:10F490004BFC054609990FF045FD0B90002C48DD0B
:10F4A00006980FF015FACDE9040120460FF0DCFBB9
:10F4B0000190069908980FF035FD009001990FF022
:10F4C00033FC83460FF004FA0022414BCDE90201E0
:10F4D0000EF096FC0546DDE904230EF0D5FB074649
:10F4E0000EF0A0FBC9F8000007980FF0F1F9CDE984
:10F4F000040120460FF0B8FB0190079909980FF01E
:10F5000011FD009001990FF00FFC83460FF0E0F918
:10F5100000222F4BCDE902010EF072FC0746DDE917
:10F5200004230EF0B1FB05460EF07CFBC9F8040085
:10F530004AE0644206980FF0CBF907468846204619
:10F540000FF092FB019006990A980FF0EBFC0090E7
:10F5500001990FF0E9FB83460FF0BAF900221D4B29
:10F56000CDE902010EF04CFC3A464346CDE90401D8
:10F570000EF08AFB05460EF055FBC9F8000007980F
:10F580000FF0A6F90746884620460FF06DFB019064
:10F5900007990B980FF0C6FC009001990FF0C4FB7F
:10F5A00083460FF095F900220A4BCDE902010EF0D7
:10F5B00027FC3A464346CDE904010EF065FB0546BB
:10F5C0000EF030FBC9F8040000203EE7481C02089A
:10F5D0000000594000C05C402DE9F04F89B004465E
:10F5E000E0880EF015FE074600223B4B0EF008FCAB
:10F5F00005460EF017FB8146218940F2671201FB98
:10F6000002F00EF0EEFD07460022334B0EF0F8FB41
:10F6100005460EF0B9FD80B2ADF8180060890EF015
:10F62000F7FD074600222C4B0EF0EAFB05460EF0D4
:10F63000F9FA079020880EF0EBFD07460022264BD2
:10F640000EF0DEFB05460EF0EDFA08902348C06E82
:10F65000618848434FF6FF7190FBF1F000F0FF0A1C
:10F66000A0880CF09DFD834602AA59465046FFF73C
:10F67000DDFE694606A802F0D1FD49464FF07E50F6
:10F680000FF050FC074602990FF04EFB0546484626
:10F6900000990FF049FB064629460FF045F9049002
:10F6A00049464FF07E500FF03DFC074603990FF09E
:10F6B0003BFB0546484601990FF036FB06462946B6
:10F6C0000FF032F90590002204A8089900F0C8FB59
:10F6D000002009B0BDE8F08FE0FFEF40601000208F
:10F6E0002DE9F04F89B00446E0780EF091FD074611
:10F6F00000223B4B0EF084FB05460EF093FA814648
:10F70000217940F2671201FB02F00EF06AFD074614
:10F710000022334B0EF074FB05460EF035FD80B22F
:10F72000ADF8180060790EF073FD074600222C4BEF
:10F730000EF066FB05460EF075FA079020780EF085
:10F7400067FD07460022264B0EF05AFB05460EF0D9
:10F7500069FA08902348C06E61784843FF2190FB06
:10F76000F1F000F0FF0AA0780CF067FD834602AAD2
:10F7700059465046FFF75AFE694606A802F04EFD6C
:10F7800049464FF07E500FF0CDFB074602990FF02F
:10F79000CBFA0546484600990FF0C6FA06462946B8
:10F7A0000FF0C2F8049049464FF07E500FF0BAFBBC
:10F7B000074603990FF0B8FA0546484601990FF03D
:10F7C000B3FA064629460FF0AFF80590002204A8C8
:10F7D000089900F045FB002009B0BDE8F08F00005B
:10F7E00000E06F40601000202DE9F05F04461148F2
:10F7F000C06E618848434FF6FF7190FBF1F000F056
:10F80000FF09A0880CF0CCFC834620880EF000FD98
:10F8100007460022084B0EF0F3FA05460EF002FAF6
:10F820008246002352465946484603F02BFD0020ED
:10F83000BDE8F09F60100020E0FFEF402DE9F05F91
:10F8400004461148C06E61784843FF2190FBF1F0F7
:10F8500000F0FF09A0780CF0F0FC834620780EF051
:10F86000D7FC07460022094B0EF0CAFA05460EF0F7
:10F87000D9F98246002352465946484603F002FD14
:10F880000020BDE8F09F00006010002000E06F4005
:10F890002DE9F04F93B00446E0880EF0B9FC07461E
:10F8A00000224D4B0EF0ACFA05460EF0BBF9814636
:10F8B0004A48C06E618848434FF6FF7190FBF1F0F3
:10F8C00000F0FF0AA0880CF06BFC059020890EF078
:10F8D0009FFC07460022404B0EF092FA05460EF0C0
:10F8E000A1F90C9060890EF093FC074600223A4B78
:10F8F0000EF086FA05460EF095F90D90A0890EF0EF
:10F9000087FC07460022344B0EF07AFA05460EF0CB
:10F9100089F90E90E0890EF07BFC074600222E4B01
:10F920000EF06EFA05460EF07DF91190208A0EF069
:10F930006FFC05460022284B0EF062FA07460EF0D7
:10F9400071F912900AA8039010A807C88DE8070063
:10F950000CA80FC804F03EFF08AA50460599FFF70F
:10F9600065FD49464FF07E500FF0DCFA07460899D6
:10F970000FF0DAF9054648460A990FF0D5F9064620
:10F9800029460EF0D1FF069049464FF07E500FF009
:10F99000C9FA074609990FF0C7F9054648460B9979
:10F9A0000FF0C2F9064629460EF0BEFF07902088E8
:10F9B0000EF02EFC05460022074B0EF021FA0746FA
:10F9C0000EF030F983460022594606A800F048FAA6
:10F9D000002013B0BDE8F08FE0FFEF406010002082
:10F9E0002DE9F04F93B00446E0780EF011FC074685
:10F9F00000224D4B0EF004FA05460EF013F9814635
:10FA00004A48C06E61784843FF2190FBF1F000F056
:10FA1000FF0AA0780CF011FC059020790EF0F8FB9D
:10FA200007460022404B0EF0EBF905460EF0FAF8BF
:10FA30000C9060790EF0ECFB074600223A4B0EF07A
:10FA4000DFF905460EF0EEF80D90A0790EF0E0FB20
:10FA500007460022344B0EF0D3F905460EF0E2F8CB
:10FA60000E90E0790EF0D4FB074600222E4B0EF0EC
:10FA7000C7F905460EF0D6F81190207A0EF0C8FBB3
:10FA800005460022284B0EF0BBF907460EF0CAF8D7
:10FA900012900AA8039010A807C88DE807000CA8C8
:10FAA0000FC804F097FE08AA50460599FFF7BEFC60
:10FAB00049464FF07E500FF035FA074608990FF08F
:10FAC00033F9054648460A990FF02EF906462946AD
:10FAD0000EF02AFF069049464FF07E500FF022FAB2
:10FAE000074609990FF020F9054648460B990FF093
:10FAF0001BF9064629460EF017FF079020780EF0F6
:10FB000087FB05460022084B0EF07AF907460EF0F7
:10FB100089F883460022594606A800F0A1F9002082
:10FB200013B0BDE8F08F000000E06F4060100020CF
:10FB30002DE9FF5F04460F4690464FF0000A02F0A1
:10FB40001BF803900FF0A8F883466B490EF05AFF9C
:10FB50006A49086038460EF0BBFE0022684BCDE9CA
:10FB600000010CF04FFFCDE902010EF05BF80746F3
:10FB70006448076002F000F802900FF08DF85E49CB
:10FB800003900EF03FFF83465C48016858460FF033
:10FB9000C9F95D490860D4E900010EF0C5FE029084
:10FBA000A1680EF0C1FE8346A1690EF0BDFE039070
:10FBB00061690EF0B9FE8146002148460EF0E4FF6F
:10FBC00008D0524938460FF0AFF8834649460EF048
:10FBD00019FF8146B8F1000F09D0B8F1010F07D025
:10FBE000B8F1020F32D0B8F1030F5ED12FE000BFA1
:10FBF0004946A0690FF098F883460FF015F844497C
:10FC00000880494660690FF08FF883460FF00CF8C2
:10FC10003F4948804946A0680FF086F883460FF0B8
:10FC200003F83B498880494660680FF07DF88346B9
:10FC30000EF0FAFF3649C880494620680FF074F884
:10FC400083460EF0F1FF324908812EE000BF49469D
:10FC5000A0690FF069F883460EF0E6FF2C49088092
:10FC6000494620680FF060F883460EF0DDFF284912
:10FC70004880494660680FF057F883460EF0D4FF7D
:10FC8000234988804946A0680FF04EF883460EF05D
:10FC9000CBFF1F49C880494660690FF045F883468D
:10FCA0000EF0C2FF1A49088100BF00BF194E00259F
:10FCB0000DE0174830F81500001206F8150014483A
:10FCC00010F81500012101EB450170546D1C052D44
:10FCD000EFDB002504E0705D504400F0FF0A6D1C6E
:10FCE0000A2DF8DB06F805A014210A48401E00F092
:10FCF00099F9BDE8FF9F000000247449F40F00202B
:10FD00000000F83FFC0F0020F80F002000FF7F47A5
:10FD100090BC00209BC4002004200149087070475B
:10FD2000A40E002010B50021024880F8701005F0E4
:10FD300061FB10BD6010002010B504462246024849
:10FD400003C803F049FF10BDA80E00202DE9FF47AE
:10FD500084B09A462A4904A802F060FA28B129A082
:10FD600000F0D1FF08B0BDE8F0875246244806995C
:10FD700000F076F800B1F5E727A000F0C4FF069880
:10FD80000EF0A6FD04460D4605980EF0A1FD0646B0
:10FD90000B46CDE90045BDF8101032461FA000F01B
:10FDA000B2FF174948680EF093FD04460D4614490A
:10FDB00008680EF08DFD064632460B461CA0CDE9C4
:10FDC000004500F0A0FF1F4988680EF081FD044641
:10FDD0000D461C4948680EF07BFD06460F46194942
:10FDE00008680EF075FD804642460B4616A0CDE928
:10FDF0000067CDE9024500F086FF00BFB2E70000D2
:10FE00008C0F0020B1A5BACDB6C8D7AABBBBBAF338
:10FE1000C8CEC8BBC3BBD3D00D0A00004853492885
:10FE200025642C252E32662C252E3266290D0A00DB
:10FE3000C9ABD7F8B1EA28252E34662C252E3466B6
:10FE4000290D0A00A0B7002052474228252E34660B
:10FE50002C252E34662C252E3466290D0A00000030
:10FE600070B505460E4614460A4AD5E900010AF067
:10FE700079F908B1012070BD24B931460548FEF773
:10FE800047FF05E0601EC2B23146024803F0F0F9B8
:10FE900000BFF0E7BCB7002010B545202649087028
:10FEA000264827490860002441E004EB840101EB67
:10FEB000C401224A02EB810001F0B6FB04EB84018D
:10FEC00001EBC4011D4A02EB8101086204EB8401CD
:10FED00001EBC40102EB810001F006FB04EB84019D
:10FEE00001EBC401154A02EB8101486204EB840175
:10FEF00001EBC40102EB810001F038FB04EB84014B
:10FF000001EBC4010D4A02EB8101C86204EB8401DC
:10FF100001EBC40102EB810001F0BAFB04EB8401A8
:10FF200001EBC401054A02EB81018862641C0248AE
:10FF300000788442B9DB10BD840000208C000020D2
:10FF4000880000202DE9FC5F4FF00009214800687F
:10FF500000F0020000283AD0002404E01E4830F8E7
:10FF600014008144641C642CF8DB6420B9FBF0F0BD
:10FF70001A490860084600680EF04AF90746184A10
:10FF8000184B0EF095F905460E46174800680EF01E
:10FF90003FF90746154A164B0EF08AF982462A4663
:10FFA00033460DF071FECDE900010EF0EDF80B497E
:10FFB0000860084600680C49086001F0F7FD0D492B
:10FFC00048620448406840F0020002494860BDE8C9
:10FFD000FC9F00000000024030B80020B00F00205D
:10FFE000AE47E17A14AEEF3FB40F00207B14AE476A
:10FFF000E17A843F601000200848006800F020008B
:020000040801F1
:1000000050B10020064908700448001D006840F007
:1000100020000249091D08607047000000040240EA
:10002000001000202DE9FF5F05468B4605F1010A0F
:10003000002426E06100491C1AF801101AF8142067
:1000400041EA02200EF010FE8146494624480EF097
:100050006BFE01900EF03CFC0022224BCDE9020128
:100060000DF0CEFE07460DF0DDFD814648460EF050
:100070002FFC07463A460B4621461BA000F043FEE4
:10008000641C052CD6DB04E0761CC82E01DDBDE81F
:10009000FF9F1948006A0028F6D11848406820F4EC
:1000A00040601649486000201549086015490880DD
:1000B00000BF144800886428FBDB01201049086059
:1000C0000C200AF0FBFC0D48406840F400600B492E
:1000D0004860594628460DF0D7FB00BFD7E700001F
:1000E00000006144E0FFEF40492564203D20252EBB
:1000F00032660D0A000000000000024000100140BE
:10010000A8012242240C004000B595B0CC4890F8DC
:1001100080000B287ED2DFE800F07D060A0E124D2B
:100120006DCDF2F0EF00C748FFF75AFC84E1C548F7
:10013000FFF784FB80E1C348FFF7D2FA7CE1C148B6
:100140000078C0EB0040FF2190FBF1F080B2ADF8E9
:100150000400BC484078C0EB004090FBF1F080B256
:10016000ADF80600B7488078C0EB004090FBF1F096
:1001700080B2ADF80800B348C078C0EB004090FBF7
:10018000F1F080B2ADF80A00AE480079C0EB004053
:1001900090FBF1F080B2ADF80C00AA484079C0EBBA
:1001A000004090FBF1F080B2ADF80E0001A804F021
:1001B000B5FA41E1A3480078C0EB0040FF2190FB75
:1001C000F1F080B2ADF818009E484078C0EB0040D6
:1001D00090FBF1F080B2ADF81A009A488078C0EB3D
:1001E000004090FBF1F080B2ADF81C0006A802F0D0
:1001F00097F821E19348008800129249097840EA73
:10020000012080B2ADF840008E48408800128D4930
:10021000897800E00FE140EA012080B2ADF84200A9
:100220008848808800128749097940EA012080B215
:10023000ADF844008348C08800128249897940EAB9
:10024000012080B2ADF846007E48008900127D4949
:10025000097A40EA012080B2ADF848007948408927
:1002600000127849897A40EA012080B2ADF84A004C
:100270007448808900127349097B40EA012080B2EA
:10028000ADF84C006F48C08900126E49897B40EA86
:10029000012080B2ADF84E006A48008A0012694918
:1002A000097C40EA012080B2ADF8500010A8FFF7A9
:1002B000EFFAC1E06348008800126249097840EA19
:1002C000012080B2ADF834005E48808800125D499C
:1002D000097940EA012080B2ADF8380059484088D9
:1002E00000125849897840EA012080B2ADF8360002
:1002F0000DA8FFF779FA9FE07BE040E0FFE7514867
:10030000008800124F49097840EA012080B2ADF818
:1003100024004C48408800124A49897840EA01206C
:1003200080B2ADF826004748808800124549097917
:1003300040EA012080B2ADF828004248C08800128F
:100340004049897940EA012080B2ADF82A003D4851
:10035000008900123B49097A40EA012080B2ADF8D9
:100360002C003848408900123649897A40EA012039
:1003700080B2ADF82E0009A8FFF72EF95CE03148F5
:10038000008800122F49097840EA01202E49088090
:100390002C48408800122B49897840EA01202A49DC
:1003A00048802848808800122649097940EA0120BF
:1003B000254988802348C08800122249897940EA6B
:1003C00001202149C8801F48008900121D49097A6F
:1003D00040EA01201C4908811A4840890012194945
:1003E000897A40EA012018494881084604F096F9C4
:1003F00022E01448008800121249097840EA0120DE
:1004000080B2ADF818000F48408800120D49897875
:1004100040EA012080B2ADF81A000A488088001234
:100420000849097940EA012080B2ADF81C0006A80D
:1004300001F076FF00E000BF00BF15B000BD000076
:100440006010002060AF00209CAF002038B506246B
:10045000002019490870194890F8700018B118A0C8
:1004600002F048F802E018A002F044F84EF65B7083
:10047000FFF762FC4EF65B701549088000201549B5
:1004800008800E4890F8700040B113A0102300229D
:1004900021460090154803F0FCFA07E014A0102351
:1004A000002221460090114803F0F3FA0CF07EFA86
:1004B00001F046F938BD0000950F002060100020C3
:1004C000444D5820494E0000444D58CAE4C8EB0042
:1004D000C60E0020C40E0020202053656C65637496
:1004E00020444D5820494E2E00000000A80E002048
:1004F0002020D1A1D4F1444D58CAE4C8EBA1A300F7
:1005000010B5204890F8200040B100201D4981F826
:100510002000FFF7F9FDC8201B4908701A48007831
:10052000002804DD18480078401E17490870164856
:100530000078A8B1134890F8210008BB01201149A8
:1005400081F8210081F82200084690F8560081F8D1
:10055000230000F0B5FB05210A4880F856100FE093
:10056000084890F8210001280AD10020054981F8A7
:100570002100084690F8231080F8561001F094FAF4
:1005800010BD000060100020E80E002070B592B091
:10059000044602260022504803C803F01DFB002534
:1005A00010E04EF65B7000904C4800EBC50001680F
:1005B0000391406803460A460490474803C803F085
:1005C0001CFB6D1C022DECDB4EF65B704449088071
:1005D000002044490880444890F8700000283DD02D
:1005E000414890F87E2041A105A8FCF701FB0020BE
:1005F00005A910220192CDE9022104906420009007
:1006000036484088304483B234480088103082B283
:10061000314803C803F04AFC334890F87E00204478
:10062000431E314890F87E2032A105A8FCF7E0FA7D
:10063000002005A910220192CDE902210490642036
:10064000009026484089304483B224480089103005
:1006500082B2214803C803F029FC38E0224890F810
:100660007E2027A105A8FCF7C3FA002005A91022C7
:100670000192CDE90221049064200090174840883F
:10068000304483B215480088103082B2124803C843
:1006900003F00CFC144890F87E002044431E1248DE
:1006A00090F87E2018A105A8FCF7A2FA05A8102151
:1006B0000122CDE900210290084881680391C068B9
:1006C00003460A460490044803C803F06FFC01F097
:1006D00037F812B070BD0000A80E002018170020D7
:1006E000C60E0020C40E0020601000204144445279
:1006F0003A25640043483A25642D25640000000033
:10070000B5D8D6B73A256400CDA8B5C03A25642D32
:10071000256400002DE9F04786B0344890F87F004A
:1007200010B94FF0050A01E04FF0090A304880681F
:10073000002857D02F49304800680EF0C1FB2AD25C
:100740002D4800680EF0C4F806460F462849886810
:100750000DF047FD8046294A294B0DF0A9FD324690
:100760003B46CDE900010DF0A3FD04460D461F49AF
:1007700091F87E000DF04CFD22462B46CDE902019A
:100780000DF0BCFFCDE904010DF0FEFCC1B217482D
:1007900080F87E1009E0154890F87E101448007A21
:1007A000081AC1B2114880F87E10104890F87E00F7
:1007B000FF2806D1CAF10000C1B20C4880F87E10B3
:1007C0000AE00A4890F87E00CAF58071884203DD8D
:1007D0000021064880F87E105046FFF7D7FE002023
:1007E0000349886006B0BDE8F08700006010002073
:1007F00044BC002000002042E00F00209A99999903
:100800009999A93F10B50D4890F87F0008B90524C3
:1008100000E00924094890F8700018B108A001F020
:1008200069FE02E00AA001F065FE00BF0B480078F7
:100830000028FBD12046FFF7A9FE10BD6010002064
:1008400053455420444D5820414444520000000078
:10085000C9E8D6C3444D58B5D8D6B700001000201B
:100860002DE9F04192B005460E4617464FF00208BA
:100870000022414803C803F0AFF9002410E04EF60F
:100880005B7000903D4800EBC40001680391406834
:1008900003460A460490384803C803F0AEF9641CC6
:1008A000032CECDB4CF218603549088000203549F8
:1008B00008802A4634A105A8FCF79AF93348007845
:1008C000401C32490870084600781E2811DD304867
:1008D0000078401C2E49087005A8FCF714FB2C4931
:1008E0000978884202D80020294908700020274949
:1008F000087005A801211023254ACDE900101F49E1
:100900001D4803F098FB32461FA105A8FCF770F9BB
:1009100005A810210122CDE9002102901748816825
:100920000391C06803460A460490134803C803F0C5
:100930003DFB184890F87E003844431E154890F857
:100940007E2015A105A8FCF753F905A81021012266
:10095000CDE90021029009480169039140690346ED
:100960000A460490044803C803F020FB00F0E8FEA8
:1009700012B0BDE8F0810000A80E0020181700207A
:10098000C60E0020C40E002025730000A70F002013
:10099000A60F00206010002043483A25642D2564EE
:1009A0000000000010B586488068F8B1844880686F
:1009B000002805DD83480078401E8249087004E065
:1009C00080480078401C7F4908707E4800780F28D6
:1009D00002DD0F207B4908707A480078012802DA8E
:1009E00001207849087000207549886076480068C1
:1009F000082806D104F0FEFC72480178734880F89C
:100A000080100022724803C803F0E6F86F4890F89F
:100A10007000002869D06B480078102863D2DFE8A6
:100A200000F062080E141A20262C32383E444A5038
:100A3000565C0C2267A169A0FFF712FF54E0072261
:100A400064A16AA0FFF70CFF4EE00A2261A169A031
:100A5000FFF706FF48E009225EA169A0FFF700FF4B
:100A600042E007225BA169A0FFF7FAFE3CE01222F8
:100A700068A16AA0FFF7F4FE36E00A2265A16BA028
:100A8000FFF7EEFE30E0102262A16AA0FFF7E8FE59
:100A90002AE00E226AA16CA0FFF7E2FE24E00A22FF
:100AA0005CA16CA0FFF7DCFE1EE012226BA16EA021
:100AB000FFF7D6FE18E0092268A16FA0FFF7D0FE6D
:100AC00012E00E2265A16EA0FFF7CAFE0CE00E2216
:100AD00062A16EA0FFF7C4FE06E00A225FA16EA02D
:100AE000FFF7BEFE00E000BF69E03648007810283E
:100AF00063D2DFE800F062080E141A20262C323888
:100B00003E444A50565C0C2265A134A0FFF7A8FE73
:100B100054E0072262A135A0FFF7A2FE4EE00A22B0
:100B20005FA134A0FFF79CFE48E009225CA134A03D
:100B3000FFF796FE42E0072259A134A0FFF790FE8E
:100B40003CE0122257A135A0FFF78AFE36E00A22C8
:100B500054A136A0FFF784FE30E0102251A135A049
:100B6000FFF77EFE2AE00E2250A137A0FFF778FEA5
:100B700024E00A224BA137A0FFF772FE1EE01222EA
:100B80004CA139A0FFF76CFE18E0092249A13AA058
:100B9000FFF766FE12E00E2246A139A0FFF760FEC5
:100BA0000CE00E2243A139A0FFF75AFE06E00A220C
:100BB00040A139A0FFF754FE00E000BF00BF10BD08
:100BC00044BC0020960F0020700000206010002020
:100BD000A80E002038424954530000004D313A43DA
:100BE0004354265247425757435700004D323A4329
:100BF000435400004D333A434354264853490000C0
:100C00004D343A5247425757435700004D353A4802
:100C10005349000031364249545300004D363A439F
:100C20004354265247425757435700004D373A43E3
:100C3000435400004D383A4343542648534900007A
:100C400031364269747300004D393A524742575762
:100C5000435700004D31303A48534900436F6172A9
:100C6000652F46696E6500004D31313A4343542685
:100C700052474257574357004D31323A434354008D
:100C80004D31333A43435426485349004D31343AA9
:100C900052474257574357004D31353A4853490060
:100CA00038CEBB003136CEBB00000000313642CE1C
:100CB000BB000000B4D6B5F72FCFB8B5F7000000E1
:100CC00010B5094890F8700018B108A001F012FCA6
:100CD00002E009A001F00EFC034890F880000849EA
:100CE0000870FFF75FFE10BD60100020444D5820D3
:100CF0004D4F444500000000444D58C4A3CABD00F8
:100D0000960F00207047704770B500F035FF06461B
:100D10000DF0C2FF05460C490DF074FE04460B4869
:100D2000816920460EF0FEF80849C8610BF0AEFA62
:100D300000F022FF05460DF0AFFF044602490DF01A
:100D400061FE0249886170BD00247449A0840020BE
:100D500070B500F011FF06460DF09EFF05460D49E7
:100D60000DF050FE04460C48016820460EF0DAF8FB
:100D70000949486009490A4806F048FC00F0FCFEB1
:100D800005460DF089FF044602490DF03BFE02497D
:100D9000086070BD00247449A084002094160020CF
:100DA000E810002070B515480068401C1349086021
:100DB000084600680A2800DA70BD00200F49086064
:100DC00000F0DAFE06460DF067FF05460C490DF00F
:100DD00019FE04460B48016A20460EF0A3F80949A3
:100DE000486200F0C9FE05460DF056FF044604496E
:100DF0000DF008FE0349086200BFDDE7B80E0020D1
:100E000000247449A084002070B500F0B5FE0646A9
:100E10000DF042FF05460D490DF0F4FD04460C4867
:100E2000816820460EF07EF80949C8600CF0E8FDA4
:100E3000FFF766FB00F0A0FE05460DF02DFF04460F
:100E400002490DF0DFFD0249886070BD002474493D
:100E5000A084002070B508F039FF00F08DFE054633
:100E60000DF01AFF044613490DF0CCFD12498862BB
:100E700002F011FB114850B11149086001F074FCF7
:100E800000BF104800780028FBD102F003FB00F0FF
:100E900073FE06460DF000FF054606490DF0B2FD53
:100EA00004460548816A20460EF03CF80249C862B3
:100EB00070BD000000247449A08400203017002079
:100EC000A80E00200010002070B500F055FE064668
:100ED0000DF0E2FE05460B490DF094FD04460A486C
:100EE000016920460EF01EF80749486100F044FEF3
:100EF00005460DF0D1FE044602490DF083FD02497E
:100F0000086170BD00247449A084002010B51E48FB
:100F10000078012836D1FFF71BFF1B48B0F9040009
:100F2000022804DB002018498880FFF76DFF16486F
:100F3000B0F90600052804DB00201349C880FFF73C
:100F4000C3FF1148B0F908000A2804DB00200E494D
:100F50000881FFF7D9FE0C48B0F90A00142804DB19
:100F6000002009494881FFF71DFF0748B0F90C0030
:100F7000322804DB002004498881FFF76BFF002042
:100F80000149087010BD00009084002010B522486F
:100F9000806800F4005058B31F48806800F4804017
:100FA00088B11E48007802281ED11D484068401EA6
:100FB0001B49486001201B4908701B484068401CC1
:100FC0001949486010E01548007801280CD11448F0
:100FD0004068401C124948600120124908701248BC
:100FE0004068401C1049486000200C4908700DE022
:100FF0000CF0AEFA0848806800F4804018B1012077
:101000000649087002E00220044908704FF40050BD
:101010000649086010BD000000100140F20F0020DA
:1010200044BC0020D80F002050BC00201404014014
:1010300010B52148006800F0020058B31E4800684F
:1010400000F0040088B11D48007802281ED11C4819
:101050000068401E1A49086001201A4908701A48A1
:101060000068401C1849086010E014480078012806
:101070000CD113480068401C114908600120114937
:10108000087011480068401C0F49086000200B4997
:1010900008700DE00CF05CFA0748006800F00400EE
:1010A00018B101200549087002E0022003490870C8
:1010B00002200649086010BD08180140F00F00200A
:1010C00044BC0020D80F002050BC00201404014074
:1010D00010B52148006800F0100058B31E480068A1
:1010E00000F0200088B11D48007802281ED11C485D
:1010F0008068401E1A49886001201A4908701A4801
:101100008068401C1849886010E014480078012865
:101110000CD113488068401C114988600120114996
:10112000087011488068401C0F49886000200B49F6
:1011300008700DE00CF00CFA0748006800F0200081
:1011400018B101200549087002E002200349087027
:1011500010200649086010BD08180140F10F00205A
:1011600044BC0020D80F002050BC002014040140D3
:1011700010B52348006800F04000B0B32148006873
:10118000C0EB00402049898C08442049086008468B
:10119000006858282FD3084600681D4988422AD87D
:1011A0000CF0C0F940F225511A4804F0B7FC10B118
:1011B000184804F06FFD18480078184909788842EB
:1011C00004D017480068401C15490860134800788F
:1011D000114908700020114908700C480088114915
:1011E000088000201049088005E0FFE7002005493D
:1011F00008600549888440200C49086010BD000043
:1012000008140140B80F002000100040BC0F00205F
:1012100040420F0000440040D40F0020C20F0020C5
:10122000C40F0020C80F0020C00F0020140401408C
:10123000002123498279002A3AD00A4612680368BD
:101240009A430B461A600A1D126803689A430B1DE5
:101250001A60027911440A6803681A430A60184A3E
:101260000832126803689A43154B08331A601A1D36
:10127000126803689A43124B0C331A604279102AA1
:101280000ED11A1F126803681A430D4B08331A60F7
:101290001A1D126803681A43094B0C331A600DE0DB
:1012A0000749427911440A6803681A430A6005E055
:1012B000027911440A6803689A430A607047000083
:1012C0000004014010B50121024880F8701004F0BC
:1012D00091F810BD6010002008B5194890F8700012
:1012E00018B118A001F006F902E019A001F002F906
:1012F0004EF65B70FEF720FD4EF65B7018490880D5
:10130000002018490880184908700D4890F87000AE
:1013100040B116A01023002219460090174802F091
:10132000B8FB07E016A010230022194600901348CE
:1013300002F0AFFB0BF03AFB00F002FA08BD000030
:101340006010002046414E204155544F00000000DF
:10135000B7E7C9C8D7D4B6AFBFD8D6C6000000001B
:10136000C60E0020C40E0020970F00205365742085
:1013700046414E204155544F00000000A80E002069
:10138000B7E7C9C8D7D4B6AFB5F7BDDA00000000DB
:1013900008B5194890F8700018B118A001F0AAF823
:1013A00002E018A001F0A6F84EF65B70FEF7C4FC50
:1013B0004EF65B701649088000201649088002200E
:1013C000154908700C4890F8700040B113A0102324
:1013D000002219460090174802F05BFB07E016A0B8
:1013E0001023002219460090124802F052FB0BF025
:1013F000DDFA00F0A5F908BD6010002046414E203E
:10140000444D5800444D5820BFD8D6C600000000B7
:10141000C60E0020C40E0020970F002046414E202B
:10142000697320636F6E74726F6C20627920444D13
:10143000582E0000A80E0020B7E7C9C8CDA8B9FDF6
:10144000444D58BFD8D6C6A1A300000008B519481E
:1014500090F8700018B118A001F04CF802E018A044
:1014600001F048F84EF65B70FEF766FC4EF65B70D6
:101470001649088000201649088001201549087087
:101480000C4890F8700040B10BA0102300221946C0
:101490000090114802F0FDFA07E010A0102300228E
:1014A000194600900C4802F0F4FA0BF07FFA00F0B5
:1014B00047F908BD6010002046414E204F464600C7
:1014C000B7E7C9C8B9D8B1D500000000C60E0020E2
:1014D000C40E0020970F0020A80E0020B9D8B1D567
:1014E000B7E7C9C80000000030B504460022052156
:1014F00000E0491E605C0028FBD0052901D10020D6
:1015000030BD28E000230CE002EB820000EBC200BB
:10151000144D05EB8000C05CE55CA84200D002E001
:101520005B1C8B42F0DD00BF02EB820000EBC200CF
:101530000C4D05EB8005481C285C01280AD1481C8D
:10154000834207D102EB820000EBC200054D05EBA0
:101550008000D5E7521C044800788242D2DB00208C
:10156000CEE700008C0000208400002030B5034648
:101570000022052100E0491E585C0028FBD0585C81
:10158000012801D1002030BD491C42E0012915D1BC
:1015900002EB820000EBC200214D05EB8005481EE6
:1015A0002D5C481E185C401E854231D102EB820042
:1015B00000EBC2001A4D05EB8000E4E700240CE0CC
:1015C00002EB820000EBC200154D05EB8000005DD0
:1015D0001D5DA84200D002E0641C8C42F0DB00BF1D
:1015E00002EB820000EBC2000D4D05EB8005481EAA
:1015F0002D5C185C401E85420AD1481EA04207D1CE
:1016000002EB820000EBC200054D05EB8000BAE75B
:10161000521C044800788242B8DB0020B3E7000087
:101620008C0000208400002030B5044600230521F2
:1016300000E0491E605C0028FBD009B9002030BDE5
:101640001CE000220CE003EB830000EBC3000E4D16
:1016500005EB8000805CA55CA84200D002E0521C33
:101660008A42F0DB00BF8A4207D103EB830000EB24
:10167000C300054D05EB8000E1E75B1C03480078E3
:101680008342DEDB0020DAE78C00002084000020AB
:1016900030B503460022052100E0491E585C0028B1
:1016A000FBD0491C42E0012915D102EB820000EB7E
:1016B000C200214D05EB8005481E2D5C481E185CBC
:1016C000401C854231D102EB820000EBC2001A4D72
:1016D00005EB800030BD00240CE002EB820000EB43
:1016E000C200154D05EB8000005D1D5DA84200D0D5
:1016F00002E0641C8C42F0DB00BF02EB820000EBD6
:10170000C2000D4D05EB8005481E2D5C185C401C89
:1017100085420AD1481EA04207D102EB820000EBAD
:10172000C200054D05EB8000D4E7521C0348007849
:101730008242B8DB0020CDE78C000020840000202E
:1017400010B5034814210CC80A2001F06FFA10BD2F
:10175000A80E002030B500228B071C0F0F2303FAC0
:1017600004F20B4B8C1053F824309343084C8D102B
:1017700044F8253023468C1053F824308C07240F6E
:1017800000FA04F42343024C8D1044F8253030BD98
:10179000080001402DE9F041024600250026002006
:1017A00000230024002791F803C00CF00F0591F8E6
:1017B00003C00CF0100CBCF1000F03D091F802C074
:1017C0004CEA050591F800C0BCF1000F31D0146857
:1017D00000202BE04FF0010C0CFA00F3B1F800C030
:1017E0000CEA03069E4220D183004FF00F0C0CFA46
:1017F00003F7BC4305FA03FC4CEA040491F803C068
:10180000BCF1280F06D14FF0010C0CFA00FCC2F815
:1018100014C00AE091F803C0BCF1480F05D14FF0A5
:10182000010C0CFA00FCC2F810C0401C0828D1D3EF
:101830001460B1F800C0BCF1FF0F34DD5468002023
:101840002EE000F1080C4FF0010808FA0CF3B1F893
:1018500000C00CEA03069E4221D183004FF00F0C1A
:101860000CFA03F7BC4305FA03FC4CEA040491F8B4
:1018700003C0BCF1280F05D100F1080C08FA0CF8E0
:10188000C2F8148091F803C0BCF1480F07D100F1F1
:10189000080C4FF0010808FA0CF8C2F81080401C40
:1018A0000828CED35460BDE8F0810000F0B50A46A8
:1018B000002300240021002500F00046B6F1004F6F
:1018C00002D11D4EF16901E01B4E7168C0F3034562
:1018D00083B200F44016B6F5401F08D121F07061C4
:1018E000154E766826F07066134F7E6012E000F4A5
:1018F0008016B6F5801F06D1032606FA05F4A1432B
:1019000041F0706106E0460D360103FA06F6B14378
:1019100041F0706122B1460D360103FA06F63143FB
:1019200000F00046B6F1004F02D1034EF16101E034
:10193000014E7160F0BD0000000001404161704740
:101940000161704708B50121FC2002F00FFC012164
:10195000084602F00BFC4FF4C050ADF80000182010
:101960008DF8030003208DF8020069464448FFF714
:1019700011FF4FF4C040ADF8000048208DF803007F
:1019800069464048FFF706FF4FF6FF70ADF80000CC
:1019900048208DF8030069463B48FFF7FBFE062010
:1019A000ADF8000004208DF8030069463748FFF7C2
:1019B000F1FE4FF46F40ADF8000010208DF80300E9
:1019C00003208DF8020069462F48FFF7E3FE01214E
:1019D0002F48FFF76BFF2820ADF8000018208DF886
:1019E000030003208DF8020069462A48FFF7D2FE63
:1019F0000720ADF8000010208DF8030003208DF8BB
:101A0000020069462448FFF7C5FE48F24000ADF8E1
:101A1000000010208DF8030003208DF802006946B5
:101A20001748FFF7B7FE00201C4908604FF400700C
:101A3000ADF8000014208DF8030003208DF802009B
:101A400069461448FFF7A6FE01201549C1F8A40114
:101A5000C020ADF8000014208DF8030003208DF89D
:101A6000020069460B48FFF795FE01200D4908600A
:101A70000B49C1F89C01642009F014F808BD00006E
:101A8000000801400010014000180140001C014006
:101A900000023000000C0140001401408881224205
:101AA000008021429881214210B54FF6E073052253
:101AB00008210A2001F056F8184890F8560030B175
:101AC000012807D0032808D0042824D108E0FDF716
:101AD00073FB21E000F010FA1EE002F0FFFC1BE0B7
:101AE0000E4890F85500012806D0022807D0032898
:101AF00008D0FF280CD108E003F0D4FC09E003F083
:101B000013FD06E003F04EFD03E000F049FD00E0A8
:101B100000BF00BF00BF00BF00BF10BD60100020AD
:101B200010B51348006810BB124890F856000628FC
:101B30001BD2DFE800F003061A090C17FDF764FB5F
:101B400014E000F005FA11E002F0F6FC0EE009489E
:101B500090F85500012802D103F07AFC00E000BFA4
:101B600000BF03E0FEF71EFF00E000BF00BF10BD96
:101B7000980E0020601000200B4A11684FF0E02200
:101B800052694FF0E0239B69D21A4FF47A735A439B
:101B90004FF0E0235B69B2FBF3F201EB4103C3EBCF
:101BA000C11302EBC3007047041000202DE9F04779
:101BB0001C48006800EB800040004FF47A714843F5
:101BC00018490968C1F58051B0FBF1F528460DF0C0
:101BD00063F88146144948460CF014FF0446204639
:101BE0000CF076FE07460AF0BBFB05460CF01AF82F
:101BF00004460E4920460CF005FF04460C492046D9
:101C00000CF092FE044621464FF07E500CF0FAFE96
:101C10000446084920460DF085F904462046BDE8F3
:101C2000F0870000B00F002000401C4600B0564571
:101C30000FCF5B3B3393884301464869806880B28D
:101C4000704708B50146D1F8CC00006800900098B4
:101C5000C0F3414008BD024602F29B30405C704731
:101C6000024602F5547050F82100704770B50446E2
:101C70000E4600250021C4F8101300BF0BE0002120
:101C800004F5457040F825103C3040F825103C30F4
:101C90004155681CC5B20F2DF1DB0821A4F8B21321
:101CA0003146204606F02CFD204606F033F920464A
:101CB00005F0F9FF0121204606F08AFD204606F0D6
:101CC00085F8204606F07FF9002070BD0146D1F866
:101CD0001003704710B50446204606F0F0FC0020C3
:101CE00010BD70B504460D46002104F29B304155ED
:101CF000113000EB451041612946204606F08EFB6D
:101D000070BD00002DE9F04192B0022500225F482D
:101D100003C801F061FF002410E04EF65B700090F4
:101D20005B4800EBC40001680391406803460A4623
:101D30000490564803C801F060FF641C032CECDBE0
:101D40004EF65B7053490880002053490880534881
:101D500090F8700030B15148828E51A105A8FAF771
:101D600047FF05E04D48828E4FA105A8FAF740FFD6
:101D7000002005A910220192CDE9022104906420DF
:101D8000009043484088284483B24148008810307E
:101D900082B23E4803C802F089F84049886B444942
:101DA0000CF0C2FF06460CF023FF04463B4890F8B7
:101DB000700028B122463FA105A8FAF719FF04E0F8
:101DC00022463FA105A8FAF713FF002005A910221B
:101DD0000192CDE902210490642000902C484089B2
:101DE000284483B22A480089103082B2274803C8A9
:101DF00002F05CF82949C86B2D490CF095FF80462C
:101E0000264890F8700050B140460CF061FD06463F
:101E100032460B462DA105A8FAF7EAFE17E0404628
:101E20000CF056FD064600222B4B0CF005FA0AD2A8
:101E300040460CF04DFD064632460B4627A105A84C
:101E4000FAF7D6FE03E029A105A8FAF7D1FE002093
:101E500005A910220192CDE902210490642000908E
:101E60000B48408A284483B20948008A103082B265
:101E7000064803C802F01AF8044814210CC80A20C6
:101E800000F0D4FE12B0BDE8F0810000A80E0020E2
:101E900018170020C60E0020C40E0020601000207D
:101EA0004875653A25640000C9ABB5F73A2564006A
:101EB0000000C8425361743A2564252500000000E3
:101EC000B1A5BACDB6C83A256425250044696D3A56
:101ED00025302E316625250000005940C1C1B6C805
:101EE0003A25302E3166252500000000C1C1B6C854
:101EF0003A3130302525000010B50E4890F87000BA
:101F000018B10DA000F0F6FA02E00EA000F0F2FA0F
:101F100000BF0E4800780028FBD1FFF7F3FE012137
:101F2000044880F856100023343007C8FDF70EFF30
:101F300010BD000060100020485349204D4F44451B
:101F400000000000485349C4A3CABD00001000208F
:101F50002DE9FF5FA4480068A34949680843A249E6
:101F60008968084300287DD09F480068002853D026
:101F70009E499F4800680CF0A3FF2FD29D4800782F
:101F8000401C9C4908709A4800680CF0A1FC064669
:101F90000F46954908680CF024F9974A974BCDE90C
:101FA00000010CF085F9804632463B460CF080F982
:101FB00004460D469249888E0CF02AF922462B469B
:101FC000CDE902010CF09AFB82460CF0DDF881B2FB
:101FD0008B4881860020874908700AE08848808EF7
:101FE00081490988401A81B285488186002081494B
:101FF00008708348808EB0F5B47F02DB00218048F2
:1020000081867F48808E002803DA40F267117C4881
:1020100081860020744908607348406800286BD0AE
:102020007249734800680CF04BFF31D27148007858
:10203000401C704908706E4800680CF049FC8246EC
:102040008B46694948680CF0CCF880466D4A6E4B67
:102050000CF02EF9064652465B460CF029F9044670
:102060000D4600E0BEE06649886B0CF031FC22466C
:102070002B46CDE900010CF041FBCDE902010BF04C
:10208000D1FD01465E48816300205A4908701CE07A
:10209000002058490870544948680CF0A2F882465C
:1020A0005A4A5B4B0CF004F9804689465449886BC8
:1020B0000CF00EFC064642464B460CF01FFB044655
:1020C0000BF0B0FD01464E4881634D49886B4FF0DF
:1020D0007E510CF0F5FE03D24FF07E5148488163EB
:1020E0004749886B00210CF0EBFD02D200214448E7
:1020F000816300203C4948603B488068002869D0E3
:1021000044493B4800680CF0DBFE2FD23948007888
:10211000401C38490870364800680CF0D9FB064668
:102120000F46314988680CF05CF88246354A364BD8
:102130000CF0BEF8804632463B460CF0B9F8044637
:102140000D462F49C86B0CF0C3FB22462B46CDE948
:1021500000010CF0D3FACDE902010BF063FD01465A
:102160002748C1630020234908701CE00020214952
:1021700008701D4988680CF034F88046214A264BC7
:102180000CF096F804460D461D49C86B0CF0A0FBF8
:10219000064622462B460CF0B1FA82460BF042FD71
:1021A00001461748C1631649C86B4FF07E510CF0C9
:1021B00087FE03D24FF07E511148C1631049C86BAE
:1021C00000210CF07DFD02D200210D48C1630020EA
:1021D00005498860FFF796FD00230948343007C899
:1021E000FDF7B4FDBDE8FF9F44BC00200000344271
:1021F000E00F0020940F00209A9999999999A93F8E
:1022000060100020FCA9F1D24D62403F7B14AE4724
:10221000E17A843F0000C8414D62503F2DE9F04310
:1022200087B081460C4699E8070004AB07C34FF01E
:102230007E50059006980CF04BFB05462B4A2C4B24
:102240000BF0FAFF05D8FCF74DFD012007B0BDE803
:10225000F08300BF274B04A807C800F09BF8254A6D
:102260000394103207CA8DE8070022480FC802F015
:10227000DFFC05980CF02CFB07461F4A1F4B0CF0A7
:102280003DFA05460BF0CEFC05901D4AD4E900014D
:1022900007F068FF20B1002105980CF011FED9D39A
:1022A000184905980CF040FD06460CF0BDFCC5B27F
:1022B000294615A0FEF727FDD9F8041005980CF063
:1022C00033FD05900B4B04A807C800F063F8094ADA
