:020000040800F2
:10C80000B0C60020E1CA0008914A0108313201088F
:10C810002145010849EF000811B00108000000009F
:10C82000000000000000000000000000C3660108D6
:10C83000A914010800000000294B010879710108C2
:10C84000FBCA0008FBCA0008FBCA0008FBCA0008B4
:10C85000FBCA0008FBCA0008FBCA0008F51801085B
:10C86000FBCA0008FBCA000895190108EDFF000883
:10C87000FBCA0008FBCA0008FBCA0008FBCA000884
:10C88000FBCA0008FBCA0008FBCA0008FBCA000874
:10C89000FBCA0008FBCA0008FBCA0008351A0108D9
:10C8A000FBCA0008FBCA0008FBCA0008FBCA000854
:10C8B0000D720108FBCA000845720108FBCA000896
:10C8C000FBCA0008FBCA0008FBCA0008FBCA000834
:10C8D000FBCA0008FBCA0008ED730108897401084F
:10C8E00051180108FBCA0008FBCA0008000000003C
:10C8F0000000000000000000000000000000000038
:10C9000000000000000000006D720108FBCA000872
:10C91000FBCA0008FBCA000895720108BD72010835
:10C92000FBCA0008A1000108FBCA0008FBCA0008F6
:10C93000FBCA0008FBCA0008FBCA0008FBCA0008C3
:10C94000FBCA0008FBCA0008FBCA0008194B010813
:10C9500000F002F800F0B4F80AA090E8000C82445D
:10C960008344AAF10107DA4501D100F0A9F8AFF23A
:10C97000090EBAE80F0013F0010F18BFFB1A43F0BD
:10C98000010318477C2802009C2802000A444FF04B
:10C99000000C10F8013B13F0070408BF10F8014B1E
:10C9A0001D1108BF10F8015B641E05D010F8016B63
:10C9B000641E01F8016BF9D113F0080F1EBF10F8C7
:10C9C000014BAD1C0C1B09D16D1E58BF01F801CBEA
:10C9D000FAD505E014F8016B01F8016B6D1EF9D56D
:10C9E0009142D6D370470000002300240025002682
:10C9F000103A28BF78C1FBD8520728BF30C148BFC2
:10CA00000B6070476E2900F06884702900F0CF87B2
:10CA1000662914F06080652914F05D80672914F0A0
:10CA20005A80612914F0598003681B0A28BF41F01D
:10CA30008001692900F01C81642900F019817529A1
:10CA400000F016816F2900F05C87782900F09B8741
:10CA5000E92900F0F786E42900F0F486F52900F0D2
:10CA6000F186EF2900F05987F82900F09A870368CA
:10CA7000DB0928BF41F08001632900F07886732923
:10CA800000F07D86E32901F00D82F32901F0128286
:10CA9000002070471FB59DE8030000F04BFB00F03D
:10CAA000D5FF04000020002112F00AFE401C606047
:10CAB0000020002112F0EEFDE0601FBD10B510BD9A
:10CAC00001F0E6FA1146FFF7E5FF11F035FB01F042
:10CAD00012FB03B4FFF7F2FF03BC01F043FB0000BD
:10CAE0000948804709480047FEE7FEE7FEE7FEE702
:10CAF000FEE7FEE7FEE7FEE7FEE7FEE7044805493E
:10CB0000054A064B70470000A171010851C9000891
:10CB1000B0BC0020B0C60020B0BE0020B0BE0020D7
:10CB200070B5064600F0E6FA056806F10B0020F045
:10CB30000704B4429CBF002070BD2B466A68BAB19E
:10CB40001068A04210D304F1080188423CBF50682D
:10CB5000586007D35168101941601168091B0160C2
:10CB600058601460101D70BD13465268002AE7D14A
:10CB70002146284600F0CAFA0028DED170BD70B503
:10CB80000446051F00F0B6FA0068002C14BF446884
:10CB900070BD002C18BFAC423CBF20466468F8D37F
:10CBA00001680A18AA4218BF456003D12A680546E1
:10CBB0001144016028684119A1421CBF6C6070BD1E
:10CBC0006168696021680844286070BD1CB50C4626
:10CBD000064B7B4469460090204600F0A6FD0446C3
:10CBE0000020694600F0B4FD20461CBD7B0B000010
:10CBF0000FB41CB5084B06AA7B4469460090059803
:10CC000000F093FD04460020694600F0A1FD204697
:10CC10001CBC5DF814FB0000550B000070B50C4601
:10CC20000546012A05D02878800600D5EA69002348
:10CC300002E0012305E05B1C934202D2E05C002885
:10CC4000F9D1A869E618C01AA861286A18442862B0
:10CC5000284600F0B0FA04E0D5E9012114F8010BF0
:10CC60009047B442F8D3284600F0BBFA70BD0000EC
:10CC70002DE9F0410646002410687529314616A5B5
:10CC800010D000F0BFFA002802DA404213A507E0F6
:10CC900031688A0701D512A502E0490704D511A51C
:10CCA000012401E000F0B7FA00210A2206F124076E
:10CCB00009E0B0FBF2FCB0FBF2F302FB1C003030E9
:10CCC00078541846491C0028F3D123462A4630469A
:10CCD000BDE8F04100F0A8BA000000002D000000FF
:10CCE0002B000000200000002DE9F05F894604467B
:10CCF0004FF0000ADFF874B1FB44C0F820A02046D2
:10CD0000E1688847002874D0252806D0D4E901219D
:10CD10009047206A401C2062F1E700265F462046CB
:10CD2000E16888472028054607DB312D05D27819B0
:10CD300010F8200C08B10643F1E7B00701D526F042
:10CD40000406C4F81CA00027C4F818A02A2D09D096
:10CD500028460EF0A3FC38B304EB8708303DC8F832
:10CD6000185019E059F8041B204604EB8702916122
:10CD7000E1688847012F054618D1E069002820DACC
:10CD800026F020061DE0D8F8180000EB800005EB27
:10CD900040003038C8F818002046E168884705464A
:10CDA0000EF07CFC0028EED1012F0AD02E2D08D1E8
:10CDB0002046E16888477F1C0546022F46F0200682
:10CDC000C4DBA069002803DA404246F00106A061F6
:10CDD000F00701D026F010066C2D0BD0682D09D07D
:10CDE0004C2D39D06A2D35D0742D35D07A2D33D0D5
:10CDF00016E038E0E1682F4620468847B8420546ED
:10CE000009D16C2F26D04FF48060E168064320469C
:10CE10008847054604E06C2F1AD04FF48070064313
:10CE20000DB3A5F14100192802D8203546F400665B
:10CE30004A462946204626604E46FFF7E3FD80B16C
:10CE400001280BD0F61D26F0070000F1080956E76F
:10CE50004020E4E78020D8E70020D6E706F1040967
:10CE60004DE7284652E7206ABDE8F09F56190200B8
:10CE700070B5064600F042F90468054630460A22BD
:10CE8000002100F09FFD2C6070BD30B505460B46BB
:10CE90002A4613F8014B12F8010B08B1A042F8D052
:10CEA0001CB1002802D06D1CF1E7284630BD10B53A
:10CEB000431C02E010F8011B71B18107FAD14FF059
:10CEC000013202C88C1A8C4314EAC211F9D0C01A7C
:10CED0000A0603D0C01E10BDC01A10BD0A0401D03E
:10CEE000801E10BD0902FCD0401E10BD032A40F276
:10CEF000308010F0030C00F0158011F8013BBCF1FC
:10CF0000020F624498BF11F801CB00F8013B38BF13
:10CF100011F8013BA2F1040298BF00F801CB38BF21
:10CF200000F8013B11F0030300F02580083AC0F03F
:10CF3000088051F8043B083A51F804CBA0E80810E7
:10CF4000F5E7121D5CBF51F8043B40F8043BAFF31A
:10CF50000080D20724BF11F8013B11F801CB48BF74
:10CF600011F8012B24BF00F8013B00F801CB48BFAA
:10CF700000F8012B704710B5203AC0F00B80B1E8E3
:10CF80001850203AA0E81850B1E81850A0E81850FE
:10CF9000BFF4F5AF5FEA027C24BFB1E81850A0E807
:10CFA000185044BF18C918C0BDE810405FEA827C21
:10CFB00024BF51F8043B40F8043B08BF7047D20738
:10CFC00028BF31F8023B48BF11F8012B28BF20F8D9
:10CFD000023B48BF00F8012B70474FF000020429C4
:10CFE000C0F0128010F0030C00F01B80CCF1040C98
:10CFF000BCF1020F18BF00F8012BA8BF20F8022BCC
:10D00000A1EB0C0100F00DB85FEAC17C24BF00F871
:10D01000012B00F8012B48BF00F8012B70474FF09F
:10D02000000200B5134694469646203922BFA0E878
:10D030000C50A0E80C50B1F12001BFF4F7AF090784
:10D0400028BFA0E80C5048BF0CC05DF804EB890075
:10D0500028BF40F8042B08BF704748BF20F8022BB8
:10D0600011F0804F18BF00F8012B70474FF0013CC2
:10D0700050F8042B51F8043B9A4221D1A2EB0C0347
:10D08000934313EACC1317D150F8042B51F8043B07
:10D090009A4215D1A2EB0C03934313EACC130BD1A4
:10D0A00050F8042B51F8043B9A4209D1A2EB0C032F
:10D0B000934313EACC13DBD04FF00000704700BF5E
:10D0C000D01A01BAB1FA81F101F0180122FA01F087
:10D0D000CB40C1F12001DBB2C0B2C01A2CFA01F37F
:10D0E000D11A914311EAC311E6D1704770477047D6
:10D0F000704700000048704754BC0020004870474B
:10D100004CBC0020704770477047704738B50446E4
:10D110000A4600206946AFF30080002808BF38BDEA
:10D1200002460099204600F095FC012038BD012000
:10D1300000F0A6BFF8B5AFF30080054600200C460E
:10D14000102000BF0646A819A0420DD932466946F4
:10D150000020AFF30080070008BF00F091FF0098A7
:10D16000A04218BF0546C419FFF7C4FF0560074673
:10D17000F01D20F007004619284600F00AF8B442D6
:10D1800008BFF8BDA21B31463868BDE8F84000F082
:10D1900061BC00210160C0E9011070471020704798
:10D1A00010B5FFF7ABFF006810BD10B50446FFF7E0
:10D1B000A5FF046010BD70B5044685690068C1060E
:10D1C00001D5302600E02026C00707D070BDD4E985
:10D1D000012130469047206A401C20626D1EF6D522
:10D1E00070BD70B5044685690078C00707D170BD71
:10D1F000D4E9012120209047206A401C20626D1E46
:10D20000F6D570BD09684A0501D540B27047C90519
:10D21000FCD500B2704709684A0501D5C0B2704715
:10D22000C905FCD580B270472DE9F0470D469946F7
:10D230009246044600F124080168880604D5E06996
:10D2400021F01001216000E00120A84201DD471B10
:10D2500000E00027A1697A1902EB0900081AA06111
:10D260002078C00602D42046FFF7A5FF002608E07C
:10D27000D4E901211AF806009047206A401C761C68
:10D2800020624E45F4DB2078C0060AD52046FFF721
:10D2900092FF06E0D4E9012130209047206A401C2B
:10D2A0002062381EA7F10107F4DC07E0D4E9012170
:10D2B00018F805009047206A401C2062281EA5F13E
:10D2C0000105F3DC2046FFF78CFF2078000602D52D
:10D2D0000220BDE8F0870120FBE711680268006AC0
:10D2E000530501D508700AE0D30501D5088006E092
:10D2F000130603D5C217C1E9000200E0086001204F
:10D30000704770472DE9FF4F0C461E464FF0FF3720
:10D310008BB0D2E90001DDF860800A908A46C1F343
:10D320000A5505B93D46002108464FF00000BAF104
:10D33000000F00F4400005DA00EB80004FF44001DC
:10D3400001EA50004FEA9059B9F1010F00DDB946EA
:10D350000A9850EA4A000ED044F61050A5F2FF3564
:10D3600045432F14B8F1000F1ED07542291E1EDD53
:10D37000C9F100021CE0B8F1010F4FF0000001D02C
:10D38000302103E0F24305E02154401CB042FBDBB6
:10D3900030460022002121540B99C1F80880C1E9D0
:10D3A00000200FB0BDE8F08FBD1B6D1CDEE74A46C4
:10D3B00000DA694206A800F0D1FD06AB93E8070049
:10D3C00003AB83E8070050460A9900F0F1FE8DE8B0
:10D3D0000700A0F500501F3800900398002D0ADDCB
:10D3E00042F21F014A460844002303A903906846FD
:10D3F00001F05AF909E0A0F500504A461F38002311
:10D4000003A90390684601F064F98DE80700000461
:10D41000000C03D04FF0FF30410800E01046B8F197
:10D42000000F03D00022009215461EE0751E05D4A1
:10D4300000F02AFB303262556D1EF9D5B346012249
:10D44000084302D000227F1C04E02078302801D15C
:10D4500000227F1E002A099784D01DE0112D07DAD3
:10D4600000F012FB303262556D1C50EA0102F5D11A
:10D47000084302D00098C8B10EE00021681E05E004
:10D48000235C625C63542254401E491C8142F7DBDA
:10D49000AB46A81B401E0990002004F80B000B9817
:10D4A000099AC0F80880C0E9002B7AE711264FF0EE
:10D4B000000857E72DE9F04F88460446D21D22F0B8
:10D4C000070191B0D1E90001CDE90A010DF0A2FDFB
:10D4D00002460B98C00F01D02D2007E0206881077D
:10D4E00001D52B2002E0202101EAC000032A099087
:10D4F00001D0072A05DB03464146204600F088FCA0
:10D500000BE12078800601D5E06900E00620B8F143
:10D51000650F814606D0B8F1660F18D0B8F1670FD5
:10D5200070D131E00020B9F1110F009001DB11231F
:10D5300001E009F101030AAA01A90CA8FFF7E2FE24
:10D54000DDE90C70002609F10105834647E0012062
:10D550004B4600904FF000470AAA01A90CA8FFF71C
:10D56000D1FEDDE90DB00C995D46002610B909F138
:10D5700001000D18B9EB050003D4C0F1FF3609F125
:10D580000105A5EB09002BE0B9F1010F01DA4FF01D
:10D5900001090020B9F1110F0090484601DD112367
:10D5A00000E003460AAA01A90CA8FFF7ABFEDDE9DB
:10D5B0000C704D4600268346207800070AD4AB4500
:10D5C00000DA5D4601A8012D04DD411911F8011CA6
:10D5D000302907D04F4502DA17F1040F04DA012091
:10D5E00082460FE06D1EEEE7002F02DCED1B3E448D
:10D5F00003E0781CA84200DD7D1CB81B00F1010A85
:10D600004FF000472078000703D4AA4501DB4FF014
:10D61000FF3A0021B7F1004F0DF143088DF8431098
:10D6200024D002202B23002F01DA7F422D230A2150
:10D63000021EA0F1010000DC5FB197FBF1FC97FB3B
:10D64000F1F201FB1C7C17460CF1300C08F801CDFF
:10D65000EEE7A8F1010003702188090501D54521F5
:10D6600000E06521A0F1010800F8011C09980FA94C
:10D67000A1EB0807FF1D00B10120411901EBEA7081
:10D68000A1693844081A401EA0612078C00602D45F
:10D690002046FFF790FD099828B1D4E90121904771
:10D6A000206A401C20622078C00622D52046FFF761
:10D6B00082FD1EE0002E04DBB34502DD01A8805D83
:10D6C00000E03020D4E901219047206A401C20620C
:10D6D000761CAAF101005FEA000A0AD100F0B6F94F
:10D6E000C0680168405CD4E901219047206A401C71
:10D6F0002062281EA5F10105DCDC07E0D4E9012148
:10D7000018F8010B9047206A401C2062381EA7F1D0
:10D710000107F3DC2046FFF764FD032011B041E66A
:10D7200001694A1C02610878704700B58FB0CDE9E5
:10D7300001310021059105497944CDE903101146D5
:10D740006846FFF7D1FA0FB000BD0000E5FFFFFF0C
:10D750000A6802F8010B0A60704710B5436913B1FB
:10D76000AFF3008001E0FFF759FA012010BD1278F5
:10D7700000F124010A7000224A700122EDE71168CD
:10D780004FF0FF32E9E700002DE9FF5F15468A46BA
:10D790000446DFF8AC80F8440027D8E900103E4684
:10D7A000CDE9001010E03AF816106A4602A800F021
:10D7B00047FC411C07D02178890603D5E269391856
:10D7C00091420DD80744761C2078800602D5E06986
:10D7D000B84205DDAE42E6DB3AF816000028E2D199
:10D7E000A069C01BA0612046FFF7E5FCD8E9001046
:10D7F000CDE90010002017E03AF818106A4602A898
:10D8000000F01EFCB0F1FF3F81460BD000250DF16A
:10D81000080B05E0D4E901211BF8050090476D1CB9
:10D820004D45F7D308F10100B0428046E4DB206AA1
:10D83000384420622046FFF7D4FCBDE8FF9F00007B
:10D840008E0F02002DE9F0418046D21D22F0070222
:10D850000025D2E90002F52915A614D0011E72F1A7
:10D86000000106DA0023D0EB030063EB020211A6ED
:10D8700008E0D8F800108B0701D50FA602E0490791
:10D8800001D50EA601251146002408F1240704E065
:10D8900000F0FAF830323A55641C50EA0102F7D130
:10D8A0002B46324621464046BDE8F041FFF7BCBC5E
:10D8B000000000002D0000002B00000020000000F0
:10D8C00030B4002100F1240408E002F00705D2087A
:10D8D000303542EA4372DB086554491C52EA0305BD
:10D8E000F3D10468002310A2250707D5A40600D4AD
:10D8F00021B1C46901230DA2641EC46130BCFFF7CD
:10D9000093BC10B5044621461068FFF784FC02461C
:10D910002046BDE810400023D2E7D21D22F00701C7
:10D92000D1E90023CCE70000000000003000000037
:10D93000F0B40D460188090502D5214C7C4402E073
:10D940001F4C7C440E34002100F1240608E002F054
:10D950000F071209E75D42EA03721B097754491C5D
:10D9600052EA0307F3D102780023120704D5702D81
:10D9700006D009B1022311342246F0BCFFF754BC93
:10D9800001231034F8E770B504460D4621461068AF
:10D99000FFF741FC024629462046BDE870400023BF
:10D9A000C6E7D21D22F00703D3E90023C0E70368CE
:10D9B000126843F0200303600823C3610023B7E724
:10D9C000F00D02002DE9F04791460F4680460446CF
:10D9D000002614F8015B2DB100F030F80068405DBE
:10D9E000C007F6D12B2D02D02D2D18D0641E4A462B
:10D9F0003946204600F062FA27B13968A14201D1C8
:10DA0000C7F800804FF0020471050BD54042002892
:10DA100003DDFFF773FB0460A007BDE8F08746F461
:10DA20008066E4E70028F8DAFFF768FB04606FF02F
:10DA30000040F2E7004870474CBC002010B500F0F1
:10DA400005F8001D10BD00BF791C0100004870479B
:10DA50006CBC0020034640688C46002818BF8842F2
:10DA60003CBF03464068F8D318681844884207D082
:10DA70000CF1030020F00700001D411A521A014664
:10DA8000081D0A60FFF77BB830B5B0F10A024FEA13
:10DA9000900E71F100034EEA817EB0EB0E0061EB57
:10DAA00091014FEA101E4EEA017E10EB0E0041EB91
:10DAB00011114FEA102E4EEA016E10EB0E0041EBF1
:10DAC00011214FEA104E4EEA014E10EB0E0041EBD1
:10DAD0001141401841F100014FEAD00040EA417085
:10DAE0004FEAD10110EB80054FEA810444EA9074BB
:10DAF00044EB01046D1944EB0404521BA3414FF0A5
:10DB0000000348BF0A3200D530BD401C41F100017E
:10DB100030BD00002DE9F04F04460D46D21D22F025
:10DB2000070089B0D0E90097484639460DF072FAEF
:10DB30000246F80F01D02D2307E02068810701D5A8
:10DB40002B2302E0202101EAC0038DF820300BB125
:10DB5000012000E00020032A824601D0072A04DBCE
:10DB60002946204600F054F93FE12078800601D490
:10DB70000D2500E0E569C7F30A560D2D49DA0021AD
:10DB80004FEA175B08464FF00000002F00F44000FA
:10DB900007DA00EB80004FF4400100EBD07001EA9F
:10DBA00060008115012901DD4FF0FF3100224FEAAD
:10DBB000850CBCF1180F06D31346ACF118004FF0DA
:10DBC0008052C24003E04FF4801323FA0CF30CF1AF
:10DBD0000C0CBCF1200F04D3ACF1200C09FA0CF0B2
:10DBE00001E007FA0CF000294FF0004801DD18B9F8
:10DBF0000FE00ED140450CD319EB02095F4121B96A
:10DC0000404502D19F4329EA0209BBEB175F00D0D0
:10DC1000761C2088000502D57B48784402E07A48CB
:10DC20007844193808AA302302F80A30037C0AF134
:10DC30000101002E0AF1020A53546A4602DC4FF039
:10DC4000300101E04FF031014FF001088DF8001074
:10DC500002D0A6F2FF3603E059EA470100D06B4E2E
:10DC6000002D02DC2178090704D54FF002082E218F
:10DC70008DF80110C44600210BE0C7F303433F01B8
:10DC8000C35C491C6D1E02F80830052908F1010823
:10DC900001DA002DF1DC00210CE000EB1973491CC6
:10DCA0001B786D1E082902F808304FEA091908F19F
:10DCB000010801DA002DF0DC21688B0602D516E0A0
:10DCC000A8F10108E04505DD02EB080313F8013C6B
:10DCD000302BF5D0B8F1000F09DD02EB080313F883
:10DCE000013C2E2B03D1090701D4A8F10108002D16
:10DCF00005DD3E2102F808106D1E08F10108407C88
:10DD0000002E02F8080008F1010804DA2D207642FE
:10DD100002F8080002E02B2002F808000A214FF464
:10DD20007A70864208F101080BDB96FBF0F3303382
:10DD300002F8083096FBF0F308F1010800FB1366C7
:10DD400001E0642E0CDB642096FBF0F3303302F824
:10DD5000083096FBF0F308F1010800FB136601E0C0
:10DD60000A2E06DB96FBF1F0303002F8080008F1CD
:10DD7000010896FBF1F001FB1060303002F808005A
:10DD8000A16908F1010808EB050202EB0A00081A74
:10DD9000A0612078C00602D42046FFF70CFA216A61
:10DDA00008AE01EB0A00206204E0D4E9012116F874
:10DDB000010B9047BAF1010AF7D22078C00602D5CC
:10DDC0002046FFF7F8F96E4609E016F8010B3E28E9
:10DDD0000FD0D4E901219047206A401C2062B8F19D
:10DDE0000108F2D22046FFF7FCF909B00320BDE894
:10DDF000F08F206A2844206203E0D4E9012130201A
:10DE000090476D1EEBD3F8E7750C020002FCFFFF94
:10DE10002DE9F0411F46044603260168072A01F454
:10DE2000006004DB08B116A505E016A503E008B103
:10DE300015A500E015A521F010002060A069C01E06
:10DE4000A0610FB1401EA0612046FFF7B4F94FB1A9
:10DE5000D4E9012138469047206A401C2062C01C4A
:10DE6000206206E0206AFAE7D4E9012115F8010BE7
:10DE70009047761EF8D22046FFF7B3F9BDE8F0814F
:10DE80004E414E006E616E00494E4600696E66005E
:10DE900010B5436913B1AFF3008001E0FFF774FCE4
:10DEA000012010BD128800F1240182840022C28466
:10DEB0000122EDE711684FF0FF32E9E72DE9F05F4D
:10DEC000824615468B4600270AF10104B9460078C0
:10DED000302801D09DB113E014F8010B01277828F8
:10DEE00003D0582801D045B10AE00DB1102D07D15B
:10DEF000002714F8010B102502E0082500E00A2590
:10DF00000026B0460EE005FB080005FB06F10127E0
:10DF10001FFA80F801EB1046B6F5803F00D3B946F2
:10DF200014F8010B294600F0D8F80028EBDABBF111
:10DF3000000F05D00FB1641E00E05446CBF800403E
:10DF4000B9F1000F06D0FFF7D9F802210160C81E11
:10DF5000BDE8F09F48EA0640FAE700002DE9F047E7
:10DF6000814616468AB0354878440DC88DE80D00C4
:10DF700032487844801C03AC0DC884E80D0041F69B
:10DF80009B300844372190FBF1F290FBF1F5A5F1AD
:10DF9000800501FB12041B3C02D56442012000E015
:10DFA0000020DFF898A080460027FA44AAF1BE0AB4
:10DFB0000EE0E0070AD03246684607EB470101232E
:10DFC0000AEB810100F085FB8DE8070064107F1CDF
:10DFD000002CEED1194F7F44AE3F19E0E80715D071
:10DFE00007EB04100DF1180A90E80E008AE80E0005
:10DFF000C068F04201D1981908903246012306A961
:10E0000003A800F066FB03AB83E807006D10641CF7
:10E01000002DE3D14FF0010332466946B8F1000FFD
:10E0200003A802D000F040FB01E000F052FBC9E978
:10E030000001C9F808200AB0BDE8F087B80902005D
:10E0400070B516460C460546FFF7F8FC036893F8D2
:10E050000101012806D0FF2C0FD8185D68B10120FE
:10E060002C7070BDD3F807013246214603F2071326
:10E0700003442846BDE8704018474FF0FF3070BD9C
:10E0800010B500F047F8BDE8104000F03DB870470B
:10E090007546FFF7CFFCAE4605006946534620F0B3
:10E0A0000700854618B020B5FEF728FDBDE82040E2
:10E0B0004FF000064FF000074FF000084FF0000B44
:10E0C00021F00701AC46ACE8C009ACE8C009ACE8F7
:10E0D000C009ACE8C0098D4670473A2800D23038F4
:10E0E00020F02002412A01D3A2F13700884201D357
:10E0F0004FF0FF30704710B50446AFF30080204664
:10E10000BDE81040FEF7E5BC002801D000F02AB8B9
:10E110007047000010B5012805D0002103A000F0D1
:10E1200027F8012010BD09A1F8E700005349475224
:10E13000544D454D3A204F7574206F6620686561D7
:10E1400070206D656D6F7279000000003A2048659F
:10E150006170206D656D6F727920636F727275707A
:10E160007465640001491820ABBEFEE7260002007A
:10E1700070B505460C460A2000E06D1C00F011F851
:10E1800035B128780028F8D102E0641C00F009F8C5
:10E1900014B120780028F8D1BDE870400A20AFF310
:10E1A000008008B569468DF800000320ABBE08BDAD
:10E1B0005FEA400C08BF91F0000F4FEA8C234FEA52
:10E1C000C12243EA51514FEA1C5018BF00F5F040FC
:10E1D0004FEA300018BF41F000415FEA6C5C00F08C
:10E1E0002980BCF1FF3F08BF40F080407047130C0E
:10E1F00006BF12044FF0100C4FF0000C130E04BFBA
:10E2000012020CF1080C130F04BF12010CF1040CE4
:10E21000930F04BF92000CF1020CD30F04BF520005
:10E220000CF1010C11464FF00002A0F11F00A0EB11
:10E230000C00704711F0004F08BF704731F00041EB
:10E240003FF4D5AF0B0C06BF09044FF0100C4FF094
:10E25000000C0B0E04BF09020CF1080C0B0F04BFDD
:10E2600009010CF1040C8B0F04BF89000CF1020CA6
:10E27000CB0F04BF49000CF1010CCCF12003A0EB43
:10E280000C0022FA03F302FA0CF241EA030100F156
:10E290000100704720F07F4C80EA030023F07F47A5
:10E2A000ACEB070303F57C5300F0004003F1FF03E0
:10E2B0002DE980494FEA154B09B44FEA144325EA8A
:10E2C0000B4E24EA03480FF2042606EB13274908F5
:10E2D0003E785FEA320203FB0667C7F5000707FBDB
:10E2E00006F64FEA54374FEAD64606F1020607FB18
:10E2F000066CCCF1005C4FEA1C472CEA074C07FB8C
:10E3000006F40CFB06F504EB15464FEA961634BFEF
:10E3100000204FF000404FEAD13706FB07FC4FEAE0
:10E320001C4C0CFB0BF7D21B03FB0CF761EB07013A
:10E330000CFB0EF7B0EB074072EB17420CFB08F733
:10E3400034BFA2EB0742B2EB074261EB17414FEA41
:10E350000C444FEA910706FB07FC4FEA1C4C0CFBF0
:10E360000BF7B0EBC74072EB573203FB0CF734BF2F
:10E37000A2EBC742B2EBC74261EB57310CFB0EF781
:10E38000B0EBC70072EB57720CFB08F734BFA2EB7F
:10E39000C702B2EBC70261EB5771039F4FEA81617D
:10E3A00041EA921104EBCC044FEAD1374FEA826282
:10E3B00006FB07FC42EA90124FEA80604FEA1C4CD1
:10E3C0000CFB0BF7D21B03FB0CF761EB07010CFBFB
:10E3D0000EF7B0EB074072EB17420CFB08F734BFA7
:10E3E000A2EB0742B2EB074261EB17414FEA8C55B3
:10E3F0004FEA910704EB9C2406FB07FC4FEA1C4CF8
:10E400000CFB0BF7B0EBC74072EB573203FB0CF77A
:10E4100034BFA2EBC742B2EBC74261EB57310CFBF2
:10E420000EF7B0EBC70072EB57720CFB08F734BF66
:10E43000A2EBC702B2EBC70261EB577115EB4C259B
:10E440004FEA816141EA92114FEA82624FEAD13785
:10E4500042EA901206FB07FC44F100044FEA806098
:10E460004FEA1C4C0CFB0BF7D21B03FB0CF761EBC8
:10E4700007010CFB0EF7B0EB074072EB17420CFBE9
:10E4800008F734BFA2EB0742B2EB074261EB17413A
:10E4900015EB1C154FEA813141EA92414FEA823275
:10E4A00042EA90424FEA80304FEA0C7644F1000491
:10E4B00048EA03434EEA0B484FF0000EB2EB080C5B
:10E4C00071EB030724BF624639464EEB0E0E4FF048
:10E4D000000B0018524149414BEB0B0BB2EB080CFF
:10E4E00071EB03077BF1000B24BF624639464EEB0C
:10E4F0000E0E4FF0000B0018524149414BEB0B0B35
:10E50000B2EB080C71EB03077BF1000B24BF6246F2
:10E5100039464EEB0E0E51EA020718BF46F00106CF
:10E5200016EB0E7655F1000254F1000103D5BDE85B
:10E530008901BDE80088BDE88901BDE80048B61939
:10E54000524141EB0101A3F10103704780807F7EBE
:10E550007D7C7B7A79787776767574737271717059
:10E560006F6E6E6D6C6C6B6A6A696868676666650B
:10E570006464636362616160605F5F5E5E5D5D5C99
:10E580005C5B5B5A5A59595858575756565555550A
:10E590005454535352525251515050504F4F4F4E6A
:10E5A0004E4D4D4D4C4C4C4B4B4B4A4A4A494949B8
:10E5B00048484847474747464646454545444444FA
:10E5C000444343434342424242414141002B9C4623
:10E5D00030D477002BD01CB54FEA370703B44FF087
:10E5E00010004FF01001BAF1000F06D0BCF1000F7F
:10E5F000DCBF40F0080040F008014FF000000FBC05
:10E60000BDE810400BF1010BBBF1010F08BF5FEA41
:10E61000170722BF12F1010211F101014FF0004171
:10E6200043F1000300F0004043EA00007047F9D3D3
:10E630005708D0E746EA064613F1400F4FEA164660
:10E640001FDD13F1200FDFBF16430A4600212033E0
:10E650005B42BED0C3F1200746EA064602FA07F73E
:10E660004FEA164646EA0706C3F1200722FA03F2EC
:10E6700001FA07F721FA03F14FF0000342EA07021B
:10E68000A7E746EA020646EA06464FEA164646EA83
:10E690000106BCBF46EA0646360C4FF000034FF0B9
:10E6A00000024FF0000194E72DE9804C9A46934612
:10E6B00070B491E8380007C831EA400C48BF34EA2A
:10E6C000430C03D5FFF7E6FDFFF780FFF0BCBDE884
:10E6D000008C2DE9804C9A46934670B491E838003E
:10E6E00007C810F0804F08BF13F0804F03D100F02F
:10E6F00005F8FFF76BFFF0BCBDE8008C20F07F470A
:10E7000080EA030023F07F4C07EB0C03A3F57C5356
:10E7100000F00040A3F1FE0392F0000F00F0B38080
:10E7200095F0000F00F077802DE901494FEA114084
:10E730004FEA144621EA004800FB06FC24EA06479B
:10E7400008FB06F607FB08F800FB07F718EB06487E
:10E750004CEB164C4FEA124B18EB07484FEA1546A4
:10E760004CEB174022EA0B4E0BFB06FC25EA064752
:10E770000EFB06F607FB0EFE0BFB07F71EEB064E25
:10E780004CEB164C4FF000061EEB074E4CEB174BB4
:10E7900018EB0B0840F1000018EB0E0B58EB0008CB
:10E7A00040F100008F1A4FF000013CBFC943661BC7
:10E7B00014BFB5EB040C00213CBFC943F61B4FEA64
:10E7C00017444EEA8E0E27EA04454FEA1C4704FB25
:10E7D00007622CEA074C05FB07F70CFB05F604FB68
:10E7E0000CFC16EB074642EB174216EB0C4642EBCD
:10E7F0001C421BEB060658EB0202414146EA9E060C
:10E8000001D5BDE80189B619524141EB0101A3F1DF
:10E810000103BDE801894FEA14454FEA114724EA94
:10E82000054621EA074C05FB07F406FB07F70CFB3E
:10E8300006F105FB0CFC11EB074144EB17444FEAD2
:10E84000124711EB0C4144EB1C4422EA074C05FB38
:10E8500007F206FB07F70CFB06F605FB0CFC16EBB4
:10E86000074642EB174216EB0C4642EB1C456A1872
:10E8700054F1000148BF7047B619524141EB010104
:10E88000A3F10103704795F0000F37D04FEA114212
:10E890004FEA144721EA024624EA074C02FB07F13B
:10E8A00006FB07F70CFB06F402FB0CFC14EB074419
:10E8B00041EB17414FEA154714EB0C4441EB1C4167
:10E8C00025EA074C02FB07F506FB07F70CFB06F6EB
:10E8D00002FB0CFC16EB074645EB174516EB0C4606
:10E8E00045EB1C42121951F1000148BF7047B6199F
:10E8F000524141EB0101A3F1010370474FEA144576
:10E900004FEA114724EA054621EA074C05FB07F1C7
:10E9100006FB07F70CFB06F24FF0000605FB0CFCAC
:10E9200012EB074241EB174112EB0C4251EB1C4139
:10E9300048BF7047921841EB0101A3F101037047F2
:10E9400000B587B00121480206F078FD0121084694
:10E9500006F044FD4FF4004006F034FD364800F068
:10E9600089F81020ADF8180000208DF81B00022057
:10E970008DF81A0006A9314803F0A0FD002001908F
:10E9800001208DF808008DF809004FF460200390F5
:10E990000020049001208DF8140001A9264800F001
:10E9A000ABF8072301220421234800F0CDF8012110
:10E9B000214800F054F801211F4800F045F81E4896
:10E9C00000F01EF900BF1C4800F08CF80028FAD1B6
:10E9D000194800F025F900BF174800F079F8002821
:10E9E000FAD10B208DF8000003208DF801000220E1
:10E9F0008DF8020001208DF80300684606F04AF801
:10EA00000D484C300E4908610E4848614FF4AD5036
:10EA100088606420C8600846806840F00100886013
:10EA20000846806840F0020088600121024800F03A
:10EA3000ECF807B000BD00000024014000080140D0
:10EA40000000024044A7002021B1826842F0010288
:10EA5000826003E0826822F001028260704721B187
:10EA6000826842F48072826003E0826822F48072DD
:10EA70008260704710B504461248844208D10121D3
:10EA8000401506F0EBFC0021601506F0E7FC17E0EE
:10EA90000D48844208D10121001506F0DFFC002159
:10EAA000201506F0DBFC0BE00848844208D1012168
:10EAB000C80306F0D3FC00214FF4004006F0CEFC62
:10EAC00010BD00000024014000280140003C01402E
:10EAD000014600208A6802F004020AB1012000E029
:10EAE00000207047014600208A6802F008020AB13F
:10EAF000012000E00020704730B5024600200023CE
:10EB000050680F4C20400D790C6844EA05242043DE
:10EB1000506090680B4C2040D1E902542C434D7951
:10EB200044EA450420439060D06A20F470000C7CD5
:10EB3000641EE4B2234340EA0350D06230BD0000BB
:10EB4000FFFEF0FFFDF7F1FFF0B504460D46002093
:10EB50000021092D11DDE068A5F10A0606EB460744
:10EB6000072606FA07F18843A5F10A0606EB4606D2
:10EB700003FA06F10843E0600CE0206905EB450765
:10EB8000072606FA07F1884305EB450603FA06F166
:10EB900008432061072A0FDA606B561E06EB8607D2
:10EBA0001F2606FA07F18843561E06EB860605FA6D
:10EBB00006F10843606322E00D2A0FDA206BD61FAE
:10EBC00006EB86071F2606FA07F18843D61F06EBD9
:10EBD000860605FA06F10843206310E0E06AA2F118
:10EBE0000D0606EB86071F2606FA07F18843A2F1F9
:10EBF0000D0606EB860605FA06F10843E062F0BD55
:10EC0000816841F008018160704721B1826842F457
:10EC1000A002826003E0826822F4A0028260704752
:10EC2000816841F00401816070472DE9F04104469C
:10EC30000D4616461F46641CAD1C761CBF1C2A20C0
:10EC400005F000FAC4F3072005F0E4F9E0B205F09E
:10EC5000E1F9C6F3072005F0DDF9F0B205F0DAF9C5
:10EC60002B2005F0EFF9C5F3072005F0D3F9E8B242
:10EC700005F0D0F9C7F3072005F0CCF9F8B205F09C
:10EC8000C9F92C2005F0DEF9BDE8F08110B50024AB
:10EC900004E00020064921F81400641C052CF8DB70
:10ECA000012001F041F8122001F03EF810BD0000F3
:10ECB000A4AB002070B504460D4603222946204629
:10ECC00000F038FF012001F02FF8122001F02CF89D
:10ECD00070BD000038B506241B4890F84C0218B1EE
:10ECE0001AA004F0A7FA02E01BA004F0A3FA4EF663
:10ECF0005B7001F071F84EF65B701A4908800020D5
:10ED0000194908800120194908700F4890F84C02F1
:10ED100040B117A010232246214600901F4805F05D
:10ED200004FF07E01EA010232246214600901B4846
:10ED300005F0FBFE0FF07CFB184814210CC80A20DC
:10ED400004F086FF38BD0000681200204155544F82
:10ED50002044455445435400D7D4B6AFBCECB2E28E
:10ED6000000000009E1000209C1000206D1100206B
:10ED70002020446574656374207468652045746858
:10ED800065726E65742C496E746572666163652088
:10ED90006973204172742D4E65742E00801000201E
:10EDA0002020BCECB2E2B5BDD2D4CCABCDF8C1AC26
:10EDB000BDD32CCAB9D3C34172742D4E6574BDD373
:10EDC000BFDAA1A30000000070B505460C46084854
:10EDD0000560204600F00EF800BF054800680028D6
:10EDE000FBD100214FF0804008F087FA70BD000091
:10EDF000B01100203EB5044600214FF0804008F0DD
:10EE00007CFA00220121880708F094FA022C03D131
:10EE10000B20ADF8040005E0012C03D142F6DF60C1
:10EE2000ADF804000520ADF800000020ADF80600A4
:10EE3000ADF8020069464FF0804008F085FA0121E4
:10EE4000880708F057FA0121880708F047FA0122DD
:10EE50001146900708F06EFA0121880708F04DFA74
:10EE60003EBD0000F0B5ADB00446012701A82B90CF
:10EE700064202C9021461CA80EF091F90546002D27
:10EE800052D100BF25A91CA80EF0A8FA05462B9E5A
:10EE90009DF89D002E2800D1F4E715B92B98007835
:10EEA00028B99DF89D0000B939E00DF19D069DF847
:10EEB0009C0000F0100000B1E4E7304602F0F5FAE3
:10EEC0001AA002F0F2FA1AA13046FEF7CFF828BBDA
:10EED000012231461A480EF099F8054604211848D7
:10EEE0000DF09DFF1AAB04221BA915480EF08DF9F9
:10EEF0001B9800F07F40B0F1006F00D0C2E7002106
:10EF00000F480DF08CFF00270D480DF07DFF01210B
:10EF10000C4880F82A1038462DB0F0BDB2E700BF8B
:10EF20000221084880F82A103846F5E70D0A00004B
:10EF300066696C6D676561723030312E62696E0092
:10EF40009CA000206812002000BFFEE72DE9F041E0
:10EF50008AB0022500226E4803C805F089FE00240D
:10EF600010E04EF65B7000906A4800EBC400016848
:10EF70000491406803460A460590654803C805F0B9
:10EF800088FE641C032CECDB4EF65B706249088043
:10EF90000020624908806248D0F8440200EB8000FB
:10EFA000604911F820105E4880F83C1290F84C023D
:10EFB00050B15B4890F83C02642100FB01F25AA179
:10EFC00006A8FDF715FE09E0554890F83C026421BB
:10EFD00000FB01F256A106A8FDF70AFE002006A9D3
:10EFE00010220192CDE9022104906420009049484A
:10EFF0004088284483B247480088103082B2444891
:10F0000003C805F09FFF0020069007900890099024
:10F01000434890F84C0238B1414848A1D0F8382212
:10F0200006A8FDF7E5FD06E03D4846A1D0F83822E8
:10F0300006A8FDF7DDFD002006A910220192CDE90A
:10F04000022104906420009032484089284483B211
:10F0500030480089103082B22D4803C805F072FF95
:10F06000002006900790089009902D4890F84C02D7
:10F0700080B12B49D1F84002344911F0B9FB8046E8
:10F0800011F08AF9064632460B4631A106A8FDF773
:10F09000AFFD1FE02249D1F8400211F07DF906468C
:10F0A00000222E4B10F02CFE10D21D49D1F8400248
:10F0B000264911F09DFB804611F06EF90646324656
:10F0C0000B4627A106A8FDF793FD03E028A106A89B
:10F0D000FDF78EFD002006A910220192CDE9022144
:10F0E0000490642000900B48408A284483B2094869
:10F0F000008A103082B2064803C805F023FF044896
:10F1000014210CC80A2004F0A3FD0AB0BDE8F08168
:10F1100080100020FC1A00209E1000209C1000206F
:10F1200068120020B83A02084B766E3A25644B000C
:10F13000C9ABCEC23A25644B0000000047726E3A5C
:10F1400025640000C2CCC6AB3A2564000000C8426A
:10F1500044696D3A25302E31662525000000F03FC8
:10F16000C1C1B6C83A25302E316625250000000001
:10F17000C1C1B6C83A3130302525000010B50E485F
:10F1800090F84C0218B10DA004F054F802E00EA063
:10F1900004F050F8084BD3F84022D3F8381293F813
:10F1A0004402002305F090F8FFF7D0FE002102484A
:10F1B00080F8301210BD0000681200204343542034
:10F1C0004D4F444500000000434354C4A3CABD0052
:10F1D0002DE9FF5F884800688749496808438649E8
:10F1E00089680843002874D08348006808B38348BE
:10F1F000D0F8441280480068091A8048C0F84412C8
:10F20000D0F84412D0F84802401E814205DD7B4808
:10F21000D0F84812491EC0F844127848D0F8440289
:10F22000002803DA00217548C0F844120020724912
:10F2300008607148406800285AD0714971480068D8
:10F2400011F0A2FB2FD270480078401C6E49087064
:10F250006C48006811F0A0F8CDE9000166494868E3
:10F2600010F023FD8046694A694B10F085FD064683
:10F27000DDE9002310F080FD04460D465F49D1F81A
:10F28000380210F012FD22462B46CDE9020110F0A3
:10F2900099FF824610F0ACFC5849C1F838020020B2
:10F2A000594908700BE05548D0F83802524949686E
:10F2B000411A5248C0F838120020534908704F488C
:10F2C000D0F83802642805DD64214C48C0F83812B3
:10F2D0000BE08FE04948D0F8380210F1640F04DAEF
:10F2E0006FF063014548C0F8381200204249486079
:10F2F00041488068002871D046494248006811F0B2
:10F3000043FB30D240480078401C3F490870002041
:10F3100008703C48006811F03FF806460F46364931
:10F32000886810F0C2FC80463B4A3C4B10F024FD3C
:10F3300032463B46CDE9000110F01EFD04460D4665
:10F340002E49D1F8400211F027F8824622462B467A
:10F3500010F038FFCDE9020110F0C8F90146274846
:10F36000C0F840121EE00020274908702249886832
:10F3700010F09BFC8046284A294B10F0FDFC044607
:10F380000D461E49D1F8400211F006F80646224605
:10F390002B4610F017FF824610F0A8F901461748D7
:10F3A000C0F840121549D1F840024FF07E5111F0DB
:10F3B000EBFA05D24FF07E511048C0F840120AE037
:10F3C0000E49D1F84002002111F0DEF903D20021EC
:10F3D0000A48C0F84012002007498860074BD3F85C
:10F3E0004022D3F8381293F84402002304F06CFF53
:10F3F000FFF7ACFDBDE8FF9F58AB0020681200206E
:10F400000000F041E41100206C1100209A999999B4
:10F410009999A93F0000C841FCA9F1D24D62403F33
:10F420004D62503F2DE9F04F8DB082460C4691461B
:10F43000BAF14C0F04D2642C02DC14F1640F03DA2D
:10F4400001200DB0BDE8F08F0AEB8A005D4901EBA9
:10F450008001D1E90301CDE908010AEB8A0059498D
:10F4600001EB8001D1E90101CDE906014FF08040B7
:10F47000069911F0BDF90546089911F0B7FA0A90FE
:10F480004FF08040079911F0B3F90546099911F042
:10F49000ADFA0B90002C48DD069810F07DFFCDE909
:10F4A0000401204611F044F901900699089811F0E2
:10F4B0009DFA0090019911F09BF9834610F06CFFC2
:10F4C0000022414BCDE9020110F0FEF90546DDE9CD
:10F4D000042310F03DF9074610F008F9C9F80000C0
:10F4E000079810F059FFCDE90401204611F020F9EA
:10F4F00001900799099811F079FA0090019911F09B
:10F5000077F9834610F048FF00222F4BCDE9020126
:10F5100010F0DAF90746DDE9042310F019F9054681
:10F5200010F0E4F8C9F804004AE06442069810F0CC
:10F5300033FF07468846204611F0FAF801900699F5
:10F540000A9811F053FA0090019911F051F983468D
:10F5500010F022FF00221D4BCDE9020110F0B4F99A
:10F560003A464346CDE9040110F0F2F8054610F0A2
:10F57000BDF8C9F80000079810F00EFF074688464E
:10F58000204611F0D5F8019007990B9811F02EFA4A
:10F590000090019911F02CF9834610F0FDFE002235
:10F5A0000A4BCDE9020110F08FF93A464346CDE906
:10F5B000040110F0CDF8054610F098F8C9F80400E1
:10F5C00000203EE7B83A02080000594000C05C4005
:10F5D0002DE9F04F89B00446E08810F07DFB074626
:10F5E00000223C4B10F070F9054610F07FF8814680
:10F5F000218940F2671201FB02F010F056FB07462A
:10F600000022344B10F060F9054610F021FB80B267
:10F61000ADF81800608910F05FFB074600222D4B03
:10F6200010F052F9054610F061F80790208810F0AC
:10F6300053FB07460022274B10F046F9054610F011
:10F6400055F808902448D0F84802618848434FF69E
:10F65000FF7190FBF1F000F0FF0AA0880EF0DEFAD7
:10F66000834602AA59465046FFF7DCFE694606A8C3
:10F6700003F074FC49464FF07E5011F0B7F907468D
:10F68000029911F0B5F805464846009911F0B0F816
:10F690000646294610F0ACFE049049464FF07E50D5
:10F6A00011F0A4F90746039911F0A2F8054648465F
:10F6B000019911F09DF80646294610F099FE059033
:10F6C000002204A8089900F01BFC002009B0BDE846
:10F6D000F08F0000E0FFEF40681200202DE9F04FAE
:10F6E00089B00446E07810F0F7FA074600223B4B59
:10F6F00010F0EAF805460FF0F9FF8146217940F253
:10F70000671201FB02F010F0D0FA07460022334BDB
:10F7100010F0DAF8054610F09BFA80B2ADF8180048
:10F72000607910F0D9FA074600222C4B10F0CCF883
:10F7300005460FF0DBFF0790207810F0CDFA074662
:10F740000022264B10F0C0F805460FF0CFFF0890BE
:10F750002348D0F8480261784843FF2190FBF1F03C
:10F7600000F0FF0AA0780EF0A6FA834602AA5946D6
:10F770005046FFF757FE694606A803F0EFFB4946DF
:10F780004FF07E5011F032F90746029911F030F82F
:10F7900005464846009911F02BF80646294610F018
:10F7A00027FE049049464FF07E5011F01FF907469E
:10F7B000039911F01DF805464846019911F018F813
:10F7C0000646294610F014FE0590002204A8089968
:10F7D00000F096FB002009B0BDE8F08F00E06F401C
:10F7E000681200202DE9F05F04461248D0F8480264
:10F7F000618848434FF6FF7190FBF1F000F0FF097C
:10F80000A0880EF00BFA8346208810F065FA0746B0
:10F810000022094B10F058F805460FF067FF8246AA
:10F82000002352465946484604F04EFD0020BDE8EC
:10F83000F09F000068120020E0FFEF402DE9F05F2C
:10F8400004461148D0F8480261784843FF2190FBF4
:10F85000F1F000F0FF09A0780EF02DFA8346207831
:10F8600010F03AFA07460022084B10F02DF8054632
:10F870000FF03CFF8246002352465946484604F0AA
:10F8800023FD0020BDE8F09F6812002000E06F40DB
:10F890002DE9F04F93B00446E08810F01DFA0746BA
:10F8A00000224E4B10F010F805460FF01FFF814666
:10F8B0004B48D0F84802618848434FF6FF7190FBEF
:10F8C000F1F000F0FF0AA0880EF0A8F90590208959
:10F8D00010F002FA07460022404B0FF0F5FF0546F4
:10F8E0000FF004FF0C90608910F0F6F90746002233
:10F8F0003A4B0FF0E9FF05460FF0F8FE0D90A08996
:10F9000010F0EAF907460022344B0FF0DDFF054600
:10F910000FF0ECFE0E90E08910F0DEF907460022B1
:10F920002E4B0FF0D1FF05460FF0E0FE1190208A1C
:10F9300010F0D2F905460022284B0FF0C5FF07460C
:10F940000FF0D4FE12900AA8039010A807C88DE803
:10F9500007000CA80FC806F0A5F808AA504605999C
:10F96000FFF760FD49464FF07E5011F03FF8074623
:10F97000089910F03DFF054648460A9910F038FFF7
:10F980000646294610F034FD069049464FF07E5059
:10F9900011F02CF80746099910F02AFF0546484651
:10F9A0000B9910F025FF0646294610F021FD07901F
:10F9B000208810F091F905460022084B0FF084FFD3
:10F9C00007460FF093FE83460022594606A800F032
:10F9D00097FA002013B0BDE8F08F0000E0FFEF4081
:10F9E000681200202DE9F04F93B00446E07810F043
:10F9F00073F9074600224D4B0FF066FF05460FF0E6
:10FA000075FE81464A48D0F8480261784843FF2194
:10FA100090FBF1F000F0FF0AA0780EF04CF9059091
:10FA2000207910F059F907460022404B0FF04CFFA7
:10FA300005460FF05BFE0C90607910F04DF907461B
:10FA400000223A4B0FF040FF05460FF04FFE0D909D
:10FA5000A07910F041F907460022344B0FF034FF33
:10FA600005460FF043FE0E90E07910F035F9074699
:10FA700000222E4B0FF028FF05460FF037FE1190A5
:10FA8000207A10F029F905460022284B0FF01CFFC0
:10FA900007460FF02BFE12900AA8039010A807C883
:10FAA0008DE807000CA80FC805F0FCFF08AA504617
:10FAB0000599FFF7B7FC49464FF07E5010F096FFCE
:10FAC0000746089910F094FE054648460A9910F03A
:10FAD0008FFE0646294610F08BFC069049464FF0F3
:10FAE0007E5010F083FF0746099910F081FE05460D
:10FAF00048460B9910F07CFE0646294610F078FC2B
:10FB00000790207810F0E8F805460022074B0FF028
:10FB1000DBFE07460FF0EAFD83460022594606A8A1
:10FB200000F0EEF9002013B0BDE8F08F00E06F4068
:10FB3000681200202DE9F84F0446894692460020BD
:10FB4000009002F0B9FE064610F00AFE05466F4925
:10FB500010F0BCFC6E490860484610F01DFC0746DA
:10FB600000226C4B0EF090FC05460FF0BFFD814665
:10FB70006948C0F8009002F09FFE074610F0F0FDC3
:10FB80000646624910F0A2FC054661480168284615
:10FB900010F02CFF61490860D4E9000110F028FC46
:10FBA0000746A16810F024FC0546A16910F020FC6E
:10FBB0000646616910F01CFC83460021584610F08F
:10FBC00047FD08D05649484610F012FE05465946F2
:10FBD00010F07CFC8346BAF1000F09D0BAF1010F96
:10FBE00007D0BAF1020F32D0BAF1030F2ED15CE088
:10FBF00000BF5946A06910F0FBFD054610F078FDE6
:10FC0000484908805946606910F0F2FD054610F039
:10FC10006FFD444948805946A06810F0E9FD05464B
:10FC200010F066FD3F4988805946606810F0E0FD9D
:10FC3000054610F05DFD3B49C8805946206810F02C
:10FC4000D7FD054610F054FD364908815BE0594662
:10FC5000606910F0CDFD054610F04AFD314908807D
:10FC60005946A06910F0C4FD054610F041FD2D492C
:10FC700048805946206810F0BBFD054610F038FD5D
:10FC8000284988805946606810F0B2FD054610F09A
:10FC90002FFD2449C8805946A06810F0A9FD0546EB
:10FCA00010F026FD1F4908812DE05946A06910F08B
:10FCB0009FFD054610F01CFD1A4908805946206832
:10FCC00010F096FD054610F013FD16494880594680
:10FCD000606810F08DFD054610F00AFD114988801E
:10FCE0005946A06810F084FD054610F001FD0D494D
:10FCF000C8805946606910F07BFD054610F0F8FC9D
:10FD00000849088100BF00BFBDE8F88F002474498E
:10FD1000FC1100200000F83F041200200012002017
:10FD200000FF7F47A4AB002030B50246124CA1185B
:10FD300000200DE0114C34F81040241201F810405E
:10FD40000E4C14F81040012505EB40054C55401CA5
:10FD50000528EFDB0A4C248824128C72084C247886
:10FD6000CC72002003E00C5C1C44E3B2401C102861
:10FD7000F9DB0B5430BD0000AEB30020A4AB002073
:10FD8000F81100200146302904DB392902DCA1F1F9
:10FD900030007047412904DB462902DCA1F137001D
:10FDA000F7E7612904DB662902DCA1F15700F0E7DF
:10FDB0004FF0FF30EDE70000042001490870704764
:10FDC0007C10002010B50021024880F84C1206F08B
:10FDD00079FC10BD6812002010B504462246024886
:10FDE00003C804F045FF10BD801000202DE9FF4737
:10FDF00084B09A462A4904A803F0B0F828B129A093
:10FE000001F053FB08B0BDE8F0875246244806993C
:10FE100000F076F800B1F5E727A001F046FB069860
:10FE200010F0BAFA04460D46059810F0B5FA0646E9
:10FE30000B46CDE90045BDF8101032461FA001F079
:10FE400034FB1749486810F0A7FA04460D461449D8
:10FE5000086810F0A1FA064632460B461CA0CDE910
:10FE6000004501F022FB1F49886810F095FA04460E
:10FE70000D461C49486810F08FFA06460F4619498E
:10FE8000086810F089FA804642460B4616A0CDE974
:10FE90000067CDE9024501F008FB00BFB2E70000B2
:10FEA00014110020B1A5BACDB6C8D7AABBBBBAF30E
:10FEB000C8CEC8BBC3BBD3D00D0A000048534928E5
:10FEC00025642C252E32662C252E3266290D0A003B
:10FED000C9ABD7F8B1EA28252E34662C252E346616
:10FEE000290D0A00C0A2002052474228252E346660
:10FEF0002C252E34662C252E3466290D0A00000090
:10FF00002DE9F04105460F4614460C4AD5E900019B
:10FF10000BF02CFE064616B13046BDE8F08124B940
:10FF200039460648FEF7C6FE05E0601EC2B23946F5
:10FF3000024804F0B7F90020EFE70000DCA200203F
:10FF400010B5452026490870264827490860002436
:10FF500041E004EB840101EBC401224A02EB810081
:10FF600001F0B8FF04EB840101EBC4011D4A02EB70
:10FF70008101086204EB840101EBC40102EB810002
:10FF800001F008FF04EB840101EBC401154A02EB08
:10FF90008101486204EB840101EBC40102EB8100A2
:10FFA00001F03AFF04EB840101EBC4010D4A02EBBE
:10FFB0008101C86204EB840101EBC40102EB810002
:10FFC00001F0BCFF04EB840101EBC401054A02EB24
:10FFD00081018862641C024800788442B9DB10BD4C
:10FFE0005C02002064020020600200202DE9FC5F1A
:10FFF0004FF000092148006800F0020000283AD0C4
:020000040801F1
:10000000002404E01E4830F814008144641C642C71
:10001000F8DB6420B9FBF0F01A4908600846006874
:100020000FF05AFE0746184A184B0FF0A5FE05467A
:100030000E46174800680FF04FFE0746154A164B4C
:100040000FF09AFE82462A4633460FF081FBCDE937
:1000500000010FF0FDFD0B490860084600680C49DF
:10006000086002F043FC0D4948620448406840F0D3
:10007000020002494860BDE8FC9F00000000024009
:1000800044A70020B4110020AE47E17A14AEEF3F40
:10009000B81100207B14AE47E17A843F681200203B
:1000A0000848006800F0200050B1002006490870A0
:1000B0000448001D006840F020000249091D086046
:1000C0007047000000040240081200202DE9F041B2
:1000D00004460E46671C04E06D1CC82D01DDBDE81A
:1000E000F0811148006A0028F6D11048406820F4D9
:1000F00040600E49486000200D490860BE200CF0A9
:10010000EFF901200B49C1F8A8010C200CF0E8F927
:100110000648406840F40060044948603146204683
:100120000FF016F900BFDAE70000024000100140AE
:10013000A80122420000224200B59BB0FE4890F880
:100140005C0210286FD2DFE800F06E080C10144E2D
:100150006FCDF7F5F4F3F2F1F0EFF848FFF742FC5A
:10016000AEE2F648FFF76AFBFAE7F448FFF7B6FAA3
:10017000F6E7F2480078C0EB0040FF2190FBF1F079
:10018000EF490880ED484078C0EB0040FF2190FB2C
:10019000F1F0EB494880E9488078C0EB0040FF214E
:1001A00090FBF1F0E6498880E448C078C0EB00405D
:1001B000FF2190FBF1F0E249C880E0480079C0EBF4
:1001C0000040FF2190FBF1F0DD490881DB484079D8
:1001D000C0EB0040FF2190FBF1F0D949488108466F
:1001E00005F004FCBCE7D5480078C0EB0040FF21D7
:1001F00090FBF1F080B2ADF82C00D0484078C0EB15
:10020000004090FBF1F080B2ADF82E00CB48807832
:10021000C0EB004090FBF1F080B2ADF830000BA8CD
:1002200002F01EFF9CE7FCE3C44800880012C349AB
:10023000097840EA012080B2ADF85400BF484088F8
:100240000012BE49897840EA012080B2ADF856001C
:10025000BA4880880012B949097940EA012080B281
:10026000ADF85800B548C0880012B449897940EA11
:10027000012080B2ADF85A00B04800890012AF49A1
:10028000097A40EA012080B2ADF85C00AB484089B1
:100290000012AA49897A40EA012080B2ADF85E00D6
:1002A000A64880890012A549097B40EA012080B256
:1002B000ADF86000A148C0890012A049897B40EADE
:1002C000012080B2ADF862009C48008A00129B4970
:1002D000097C40EA012080B2ADF8640015A8FFF760
:1002E000D7FA3DE79548008800129449097840EA1A
:1002F000012080B2ADF848009048808800128F49F4
:10030000097940EA012080B2ADF84C008B48408862
:1003100000128A49897840EA012080B2ADF84A008B
:1003200012A8FFF75FFA1BE7E5E3C7E21FE2C8E1A7
:100330009EE07BE040E0FFE78048008800127F49B4
:10034000097840EA012080B2ADF838007B48408847
:1003500000127A49897840EA012080B2ADF83A006B
:100360007648808800127549097940EA012080B2F8
:10037000ADF83C007148C08800127049897940EAA4
:10038000012080B2ADF83E006C48008900126B4934
:10039000097A40EA012080B2ADF840006748408900
:1003A00000126649897A40EA012080B2ADF8420025
:1003B0000EA8FFF70DF9D3E66048008800125F49E8
:1003C000097840EA01205F4908805C4840880012B3
:1003D0005A49897840EA01205A494880574880881C
:1003E00000125649097940EA01205649888053484D
:1003F000C08800125149897940EA01205149C880DA
:100400004E48008900124D49097A40EA01204D49C1
:1004100008814A48408900124849897A40EA012007
:1004200048494881084605F0E1FAF0E3434800886E
:1004300000124249097840EA012080B2ADF82C0050
:100440003E48408800123D49897840EA012080B248
:10045000ADF82E003948808800123849097940EA01
:10046000012080B2ADF830000BA802F0F9FDCEE318
:100470003248407801900FF02FFC334A334BCDE9DE
:1004800002010FF079FCCDE906012C4800780390B9
:100490000FF022FCCDE90401DDE906230FF058F945
:1004A000CDE908010FF0D4FB254908700846007813
:1004B00022490978884202DAFF20214908701F4842
:1004C000C07801900FF008FC1F4A204BCDE90201D3
:1004D0000FF052FCCDE906011848807803900FF028
:1004E000FBFBCDE90401DDE906230FF031F9CDE98D
:1004F00008010FF0ADFB12494870084640780F49DB
:100500008978884202DAFF200D4948700B4800794B
:100510000B49887009484079C8700848C079019033
:100520000FF0DAFB084A094BCDE902010FF024FC79
:10053000CDE9060101480BE068120020009E002072
:100540003C9E00204E9E00209A9999999999B93F16
:10055000807903900FF0C0FBCDE90401DDE90623AB
:100560000FF0F6F8CDE908010FF072FBFE490871B3
:1005700008460079FD498979884202DAFF20FA4964
:100580000871FA48407A01900FF0A6FBF84AF94B3F
:10059000CDE902010FF0F0FBCDE90601F348007A46
:1005A00003900FF099FBCDE90401DDE906230FF07C
:1005B000CFF8CDE908010FF04BFBEB494871084635
:1005C0004079EA49097A884202DAFF20E64948710F
:1005D000E648C07A01900FF07FFBE54AE54BCDE994
:1005E00002010FF0C9FBCDE90601E048807A0390D3
:1005F0000FF072FBCDE90401DDE906230FF0A8F846
:10060000CDE908010FF024FBD749887108468079AD
:10061000D649897A884202DAFF20D3498871D348C3
:10062000407B01900FF058FBD14AD24BCDE902013B
:100630000FF0A2FBCDE90601CC48007B03900FF040
:100640004BFBCDE90401DDE906230FF081F8CDE98C
:1006500008010FF0FDFAC449C8710846C079C349C2
:10066000097B884202DAFF20BF49C871BF48C07BBE
:1006700001900FF031FBBE4ABE4BCDE902010FF0F5
:100680007BFBCDE90601B948807B03900FF024FB8A
:10069000CDE90401DDE906230FF05AF8CDE90801A0
:1006A0000FF0D6FAB04908720846007AAF49897B44
:1006B000884202DAFF20AC490872AB48FFF792F992
:1006C000A5E2AA48407801900FF006FBA84AA94B82
:1006D000CDE902010FF050FBCDE90601A3480078F7
:1006E00003900FF0F9FACDE90401DDE906230FF0DC
:1006F0002FF8CDE908010FF0ABFA9B4908700846C6
:1007000000789A490978884202DAFF2096490870F1
:100710009648C07801900FF0DFFA954A954BCDE9E5
:1007200002010FF029FBCDE9060190488078039083
:100730000FF0D2FACDE90401DDE906230FF008F845
:10074000CDE908010FF084FA8749487008464078DF
:1007500086498978884202DAFF20834948708348B5
:100760000079814988700846FFF768F84FE27F48B2
:10077000407801900FF0B0FA7D4A7E4BCDE902013E
:100780000FF0FAFACDE906017848007803900FF0EF
:10079000A3FACDE90401DDE906230EF0D9FFCDE986
:1007A00008010FF055FA70490870084600786F4943
:1007B0000978884202DAFF206B4908706B48C078DC
:1007C00001900FF089FA6A4A6A4BCDE902010FF0F5
:1007D000D3FACDE906016548807803900FF07CFAE2
:1007E000CDE90401DDE906230EF0B2FFCDE90801F1
:1007F0000FF02EFA5C494870084640785B498978CA
:10080000884202DAFF205849487058480079564912
:10081000887056484079C8705448C07901900FF0EC
:100820005BFA534A534BCDE902010FF0A5FACDE92B
:1008300006014E48807903900FF04EFACDE904018D
:10084000DDE906230EF084FFCDE908010FF000FA80
:10085000454908710846007944498979884202DA95
:10086000FF20414908714148407A01900FF034FA65
:100870003F4A404BCDE902010FF07EFACDE9060177
:100880003A48007A03900FF027FACDE90401DDE938
:1008900006230EF05DFFCDE908010FF0D9F93249CA
:1008A0004871084640793149097A884202DAFF20C6
:1008B0002D4948712C48FEF711FFA8E12B484078DC
:1008C00000EB002001900FF0F0F9294A294BCDE907
:1008D00002010FF051FACDE906012448007800EB3F
:1008E000002003900FF0E1F9CDE90401DDE90623D2
:1008F0000EF02EFFCDE908010FF0AAF90A900A9830
:10090000B0F5803F04D34FF6FF701749088002E02E
:1009100015490A9808801548C07800EB002001901E
:100920000FF0C3F9124A134BCDE902010FF024FA7C
:10093000CDE906010D48807800EB002003900FF010
:10094000B4F9CDE90401DDE906230EF001FFCDE99C
:1009500008010FF07DF90A900A98B0F5803F0DD399
:100960004FF6FF70004907E03C9E0020009E0020EB
:100970009A9999999999B93F488002E0A5490A98AE
:100980004880A548407900EB002001900FF08DF9D8
:10099000A24AA34BCDE902010FF0EEF9CDE9060121
:1009A0009D48007900EB002003900FF07EF9CDE91F
:1009B0000401DDE906230EF0CBFECDE908010FF0BE
:1009C00047F90A900A98B0F5803F04D34FF6FF70BC
:1009D0009049888002E08F490A9888808E48C079C3
:1009E00000EB002001900FF060F98C4A8C4BCDE9B0
:1009F00002010FF0C1F9CDE906018748807900EBCB
:100A0000002003900FF051F9CDE90401DDE9062340
:100A10000EF09EFECDE908010FF01AF90A900A982F
:100A200000E0F3E0B0F5803F04D34FF6FF70794962
:100A3000C88002E077490A98C8807748407A00EB7E
:100A4000002001900FF031F9744A754BCDE9020195
:100A50000FF092F9CDE906016F48007A00EB002013
:100A600003900FF022F9CDE90401DDE906230EF031
:100A70006FFECDE908010FF0EBF80A900A98B0F587
:100A8000803F04D34FF6FF706249088102E061495C
:100A90000A9808816048C07A00EB002001900FF0AE
:100AA00004F95E4A5E4BCDE902010FF065F9CDE92C
:100AB00006015948807A00EB002003900FF0F5F80A
:100AC000CDE90401DDE906230EF042FECDE908017F
:100AD0000FF0BEF80A900A98B0F5803F04D34FF6A5
:100AE000FF704C49488102E04A490A9848814948C8
:100AF00004F07CFF8BE04848407800EB0020019038
:100B00000FF0D3F8454A464BCDE902010FF034F916
:100B1000CDE906014048007800EB002003900FF07B
:100B2000C4F8CDE90401DDE906230EF011FECDE99C
:100B300008010FF08DF80A900A98B0F5803F04D3B1
:100B40004FF6FF703349088002E032490A98088066
:100B50003148C07800EB002001900FF0A6F82F4A32
:100B60002F4BCDE902010FF007F9CDE906012A4824
:100B7000807800EB002003900FF097F8CDE9040196
:100B8000DDE906230EF0E4FDCDE908010FF060F881
:100B90000A900A98B0F5803F04D34FF6FF701D49C4
:100BA000488002E01B490A9848801B48407900EBC6
:100BB000002001900FF079F8184A194BCDE9020195
:100BC0000FF0DAF8CDE906011348007900EB0020B8
:100BD00003900FF06AF8CDE90401DDE906230EF079
:100BE000B7FDCDE908010FF033F80A900A98B0F587
:100BF000803F04D34FF6FF700649888002E0054924
:100C00000A988880034802F02BFA00E000BF00BF7A
:100C10001BB000BD3C9E0020009E00209A9999992F
:100C20009999B93F38B50624002019490870194828
:100C300090F84C0218B118A002F0FCFA02E018A0DB
:100C400002F0F8FA4EF65B70FFF7C6F84EF65B70EE
:100C5000154908800020154908800E4890F84C027C
:100C600040B113A01023002221460090154803F044
:100C70005CFF07E014A010230022214600901148D9
:100C800003F053FF0DF0D4FB01F0B0F938BD0000C4
:100C90006D11002068120020444D5820494E00007C
:100CA000444D58CAE4C8EB009E1000209C10002060
:100CB000202053656C65637420444D5820494E2EA6
:100CC00000000000801000202020D1A1D4F1444D6C
:100CD00058CAE4C8EBA1A30010B5204890F8200042
:100CE00040B100201D4981F82000FFF725FAC820F7
:100CF0001B4908701A480078002804DD184800785D
:100D0000401E1749087016480078A8B1134890F89B
:100D1000210008BB0120114981F8210081F822003F
:100D2000084690F8300281F8230000F09BFB052173
:100D30000A4880F830120FE0084890F82100012896
:100D40000AD10020054981F82100084690F82310B7
:100D500080F8301201F03CFD10BD00006812002048
:100D6000C010002070B592B0044602260022504800
:100D700003C803F07DFF002510E04EF65B70009085
:100D80004C4800EBC50001680391406803460A46E1
:100D90000490474803C803F07CFF6D1C022DECDB78
:100DA0004EF65B704449088000204449088044485E
:100DB00090F84C0200283DD0414890F85A2241A1B9
:100DC00005A8FBF715FF002005A910220192CDE927
:100DD000022104906420009036484088304483B259
:100DE00034480088103082B2314803C804F0AAF8B1
:100DF000334890F85A022044431E314890F85A2252
:100E000032A105A8FBF7F4FE002005A910220192EB
:100E1000CDE90221049064200090264840893044A6
:100E200083B224480089103082B2214803C804F0FC
:100E300089F838E0224890F85A2227A105A8FBF744
:100E4000D7FE002005A910220192CDE902210490CD
:100E50006420009017484088304483B215480088C9
:100E6000103082B2124803C804F06CF8144890F8AD
:100E70005A022044431E124890F85A2218A105A88D
:100E8000FBF7B6FE05A810210122CDE90021029052
:100E9000084881680391C06803460A4604900448E4
:100EA00003C804F0D7F801F0A1F812B070BD00003B
:100EB00080100020FC1A00209E1000209C100020B2
:100EC00068120020414444523A25640043483A25C0
:100ED000642D256400000000B5D8D6B73A2564001B
:100EE000CDA8B5C03A25642D256400002DE9F04752
:100EF00086B0344890F85B0210B94FF0050A01E063
:100F00004FF0090A30488068002857D02F493048F0
:100F100000680FF039FD2AD22D4800680FF03CFA26
:100F200006460F46284988680EF0BFFE8046294ACB
:100F3000294B0EF021FF32463B46CDE900010EF071
:100F40001BFF04460D461F4991F85A020EF0C4FEDD
:100F500022462B46CDE902010FF034F9CDE9040118
:100F60000EF076FEC1B2174880F85A1209E0154813
:100F700090F85A121448007A081AC1B2114880F841
:100F80005A12104890F85A02FF2806D1CAF1000000
:100F9000C1B20C4880F85A120AE00A4890F85A0286
:100FA000CAF58071884203DD0021064880F85A1294
:100FB0005046FFF7D7FE00200349886006B0BDE821
:100FC000F08700006812002058AB0020000020428B
:100FD000E41100209A9999999999A93F10B50D4863
:100FE00090F85B0208B9052400E00924094890F84C
:100FF0004C0218B108A002F01DF902E00AA002F0AC
:1010000019F900BF0B4800780028FBD12046FFF7F4
:10101000A9FE10BD6812002053455420444D5820AD
:101020004144445200000000C9E8D6C3444D58B5BD
:10103000D8D6B700081200202DE9F04192B005463D
:101040000E4617464FF002080022354803C803F049
:101050000FFE002410E04EF65B700090314800EB6C
:10106000C40001680391406803460A4604902C4876
:1010700003C803F00EFE641C032CECDB4CF218607A
:10108000294908800020294908802A4628A105A866
:10109000FBF7AEFD1E202749087005A8012110238B
:1010A000244ACDE900101F491D4804F021F83246BA
:1010B0001FA105A8FBF79CFD05A810210122CDE981
:1010C00000210290174881680391C06803460A46D0
:1010D0000490134803C803F0BDFF174890F85A0264
:1010E0003844431E144890F85A2214A105A8FBF76F
:1010F0007FFD05A810210122CDE9002102900948B9
:1011000001690391406903460A460490044803C8F4
:1011100003F0A0FF00F06AFF12B0BDE8F08100000C
:1011200080100020FC1A00209E1000209C1000203F
:10113000257300007E1100206812002043483A25E4
:10114000642D25640000000010B586488068F8B161
:1011500084488068002805DD83480078401E824965
:10116000087004E080480078401C7F4908707E4881
:1011700000780F2802DD0F207B4908707A4800783C
:10118000012802DA0120784908700020754988603A
:1011900076480068082806D105F094FA724801786C
:1011A000734880F85C120022724803C803F060FDA7
:1011B0006F4890F84C02002869D06B4800781028DE
:1011C00063D2DFE800F062080E141A20262C3238B1
:1011D0003E444A50565C0C2267A169A0FFF72CFFE1
:1011E00054E0072264A16AA0FFF726FF4EE00A221E
:1011F00061A169A0FFF720FF48E009225EA169A074
:10120000FFF71AFF42E007225BA169A0FFF714FF76
:101210003CE0122268A16AA0FFF70EFF36E00A2226
:1012200065A16BA0FFF708FF30E0102262A16AA061
:10123000FFF702FF2AE00E226AA16CA0FFF7FCFE76
:1012400024E00A225CA16CA0FFF7F6FE1EE0122249
:101250006BA16EA0FFF7F0FE18E0092268A16FA055
:10126000FFF7EAFE12E00E2265A16EA0FFF7E4FE92
:101270000CE00E2262A16EA0FFF7DEFE06E00A225D
:101280005FA16EA0FFF7D8FE00E000BF69E036481E
:101290000078102863D2DFE800F062080E141A20EC
:1012A000262C32383E444A50565C0C2265A134A0AC
:1012B000FFF7C2FE54E0072262A135A0FFF7BCFE93
:1012C0004EE00A225FA134A0FFF7B6FE48E00922F3
:1012D0005CA134A0FFF7B0FE42E0072259A134A080
:1012E000FFF7AAFE3CE0122257A135A0FFF7A4FEAB
:1012F00036E00A2254A136A0FFF79EFE30E010220D
:1013000051A135A0FFF798FE2AE00E2250A137A088
:10131000FFF792FE24E00A224BA137A0FFF78CFED4
:101320001EE012224CA139A0FFF786FE18E0092228
:1013300049A13AA0FFF780FE12E00E2246A139A093
:10134000FFF77AFE0CE00E2243A139A0FFF774FEEE
:1013500006E00A2240A139A0FFF76EFE00E000BFC0
:1013600000BF10BD58AB00206E11002048020020C5
:1013700068120020801000203842495453000000B9
:101380004D313A4343542652474257574357000082
:101390004D323A43435400004D333A4343542648B8
:1013A000534900004D343A524742575743570000C3
:1013B0004D353A48534900003136424954530000F4
:1013C0004D363A434354265247425757435700003D
:1013D0004D373A43435400004D383A43435426486E
:1013E0005349000031364269747300004D393A5256
:1013F00047425757435700004D31303A4853490050
:10140000436F6172652F46696E6500004D31313A58
:101410004343542652474257574357004D31323ABF
:10142000434354004D31333A434354264853490013
:101430004D31343A52474257574357004D31353AB0
:101440004853490038CEBB003136CEBB0000000007
:10145000313642CEBB000000B4D6B5F72FCFB8B5B9
:10146000F700000010B5094890F84C0218B108A028
:1014700001F0E0FE02E009A001F0DCFE034890F874
:101480005C0208490870FFF75FFE10BD681200207B
:10149000444D58204D4F444500000000444D58C471
:1014A000A3CABD006E11002070470FB438B53220BA
:1014B000FBF736FB044614B938BC5DF814FB05A8ED
:1014C00000902046009A0499FBF780FB00200090D2
:1014D000254628460DF04EFE2046FBF750FB00BF88
:1014E000EAE7000070B501F0E7F906460FF038F9B9
:1014F00005460C490EF0EAFF04460B488169204678
:101500000FF074FA0849C8610CF0FEFB01F0D4F941
:1015100005460FF025F9044602490EF0D7FF0249AF
:10152000886170BD002474498488002070B501F082
:10153000C3F906460FF014F905460D490EF0C6FF33
:1015400004460C48016820460FF050FA09494860EB
:1015500009490A4807F036FD01F0AEF905460FF0DB
:10156000FFF8044602490EF0B1FF0249086070BD61
:101570000024744984880020781A0020CC140020AC
:1015800070B515480068401C13490860084600689B
:101590000A2800DA70BD00200F49086001F08CF9BC
:1015A00006460FF0DDF805460C490EF08FFF0446A5
:1015B0000B48016A20460FF019FA0949486201F008
:1015C0007BF905460FF0CCF8044604490EF07EFF87
:1015D0000349086200BFDDE7901000200024744931
:1015E0008488002070B501F067F906460FF0B8F85E
:1015F00005460D490EF06AFF04460C4881682046F6
:101600000FF0F4F90949C8600DF05EFFFFF764FBC5
:1016100001F052F905460FF0A3F8044602490EF016
:1016200055FF0249886070BD0024744984880020F9
:1016300070B502F02FFE01F03FF905460FF090F86B
:10164000044613490EF042FF1249886202F06BFF14
:10165000114850B11149086002F0B8F800BF1048B5
:1016600000780028FBD102F05DFF01F025F9064665
:101670000FF076F8054606490EF028FF04460548A7
:10168000816A20460FF0B2F90249C86270BD0000BD
:101690000024744984880020141B0020801000203E
:1016A0000812002070B501F007F906460FF058F84F
:1016B00005460B490EF00AFF04460A480169204618
:1016C0000FF094F90749486101F0F6F805460FF06C
:1016D00047F8044602490EF0F9FE0249086170BD60
:1016E000002474498488002010B51E480078012821
:1016F00036D1FFF71BFF1B48B0F90400022804DBBA
:10170000002018498880FFF76DFF1648B0F90600E1
:10171000052804DB00201349C880FFF7C3FF1148E8
:10172000B0F908000A2804DB00200E490881FFF701
:10173000D9FE0C48B0F90A00142804DB002009493E
:101740004881FFF71DFF0748B0F90C00322804DB81
:10175000002004498881FFF76BFF002001490870D1
:1017600010BD0000748800202DE9F04FABB0074693
:101770008B46164600202A900024CDF8A0D0642085
:101780002990394619A80BF00AFD8046B8F1000FE0
:1017900053D100BF22A919A80BF020FE8046DDF826
:1017A000A0909DF891002E2800D1F3E7B8F1000F2A
:1017B00002D12898007828B99DF8910000B938E046
:1017C0000DF191094846FFF770FE1EA0FFF76DFE70
:1017D0009DF8900000F0100000B1DBE75946484644
:1017E000FBF753FB20B918A14846FBF74EFBF8B1B5
:1017F00004EB840106EB81001421FBF7EEFB484665
:10180000FBF755FB0546142D02DDA5F1140A01E096
:101810004FF0000AA5EB0A0209EB0A0104EB84036E
:1018200006EB8300FBF762FB641C0A2C00DB00E084
:10183000B0E700BF0CB904202A902A982BB0BDE86D
:10184000F08F00000D0A00002E43535600000000E8
:1018500010B52248806800F4005058B31F488068D3
:1018600000F4804088B11E48007802281ED11D482F
:101870004068401E1B49486001201B4908701B48F6
:101880004068401C1949486010E01548007801285C
:101890000CD114484068401C12494860012012498C
:1018A000087012484068401C1049486000200C49EC
:1018B00008700DE00DF08EFB0848806800F4804051
:1018C00018B101200649087002E00220044908709E
:1018D0004FF400500649086010BD000000100140A0
:1018E000F611002058AB0020DC11002064AB002072
:1018F0001404014010B52148006800F0020058B3FC
:101900001E48006800F0040088B11D4800780228D5
:101910001ED11C480068401E1A49086001201A495F
:1019200008701A480068401C1849086010E0144804
:10193000007801280CD113480068401C1149086048
:1019400001201149087011480068401C0F490860C7
:1019500000200B4908700DE00DF03CFB07480068C3
:1019600000F0040018B101200549087002E00220CF
:101970000349087002200649086010BD081801409C
:10198000F411002058AB0020DC11002064AB0020D3
:101990001404014010B52148006800F0100058B34D
:1019A0001E48006800F0200088B11D480078022819
:1019B0001ED11C488068401E1A49886001201A49BF
:1019C00008701A488068401C1849886010E0144864
:1019D000007801280CD113488068401C11498860A8
:1019E00001201149087011488068401C0F49886027
:1019F00000200B4908700DE00DF0ECFA0748006874
:101A000000F0200018B101200549087002E0022012
:101A10000349087010200649086010BD08180140ED
:101A2000F511002058AB0020DC11002064AB002031
:101A30001404014010B51E48006800F0400068B36F
:101A40001C480068C0EB00401B49898C08441B49B6
:101A5000086008460068582825D3084600681849D9
:101A6000884220D80DF0A0FA164800781649097867
:101A7000884204D015480068401C14490860124888
:101A800000781049087000200F4908700B48008842
:101A90000F49088000200F49088004E00020054914
:101AA00008600549888440200B49086010BD00008B
:101AB00008140140BC11002000100040C01100209B
:101AC00040420F00D8110020C6110020C81100208C
:101AD000CC110020C411002014040140002123492E
:101AE0008279002A3AD00A46126803689A430B4664
:101AF0001A600A1D126803689A430B1D1A60027966
:101B000011440A6803681A430A60184A08321268C6
:101B100003689A43154B08331A601A1D126803684C
:101B20009A43124B0C331A604279102A0ED11A1FB5
:101B3000126803681A430D4B08331A601A1D1268A5
:101B400003681A43094B0C331A600DE007494279C8
:101B500011440A6803681A430A6005E002791144D7
:101B60000A6803689A430A60704700000004014055
:101B700010B50121024880F84C1204F0A3FD10BDFD
:101B80006812002008B5194890F84C0218B118A046
:101B900001F050FB02E019A001F04CFB4EF65B7027
:101BA000FEF71AF94EF65B701849088000201849B4
:101BB0000880184908700D4890F84C0240B116A0F2
:101BC0001023002219460090174802F0AEFF07E0EC
:101BD00016A01023002219460090134802F0A5FF1A
:101BE0000CF026FC00F002FA08BD0000681200208C
:101BF00046414E204155544F00000000B7E7C9C888
:101C0000D7D4B6AFBFD8D6C6000000009E100020C3
:101C10009C1000206F1100205365742046414E2017
:101C20004155544F0000000080100020B7E7C9C89C
:101C3000D7D4B6AFB5F7BDDA0000000008B5194833
:101C400090F84C0218B118A001F0F4FA02E018A0C4
:101C500001F0F0FA4EF65B70FEF7BEF84EF65B70E0
:101C6000164908800020164908800220154908708E
:101C70000C4890F84C0240B113A0102300221946E2
:101C80000090174802F051FF07E016A01023002231
:101C900019460090124802F048FF0CF0C9FB00F012
:101CA000A5F908BD6812002046414E20444D580059
:101CB000444D5820BFD8D6C6000000009E1000201A
:101CC0009C1000206F11002046414E206973206354
:101CD0006F6E74726F6C20627920444D582E000034
:101CE00080100020B7E7C9C8CDA8B9FD444D58BF42
:101CF000D8D6C6A1A300000008B5194890F84C0238
:101D000018B118A001F096FA02E018A001F092FABA
:101D10004EF65B70FEF760F84EF65B701649088071
:101D20000020164908800120154908700C4890F8D9
:101D30004C0240B10BA0102300221946009011481C
:101D400002F0F3FE07E010A01023002219460090D5
:101D50000C4802F0EAFE0CF06BFB00F047F908BDFE
:101D60006812002046414E204F464600B7E7C9C8DA
:101D7000B9D8B1D5000000009E1000209C100020B2
:101D80006F11002080100020B9D8B1D5B7E7C9C8BD
:101D90000000000030B504460022052100E0491E85
:101DA000605C0028FBD0052901D1002030BD28E06F
:101DB00000230CE002EB820000EBC200144D05EBA7
:101DC0008000C05CE55CA84200D002E05B1C8B4256
:101DD000F0DD00BF02EB820000EBC2000C4D05EB12
:101DE0008005481C285C01280AD1481C834207D181
:101DF00002EB820000EBC200054D05EB8000D5E749
:101E0000521C044800788242D2DB0020CEE700005A
:101E1000640200205C02002030B503460022052148
:101E200000E0491E585C0028FBD0585C012801D115
:101E3000002030BD491C42E0012915D102EB82008F
:101E400000EBC200214D05EB8005481E2D5C481EAD
:101E5000185C401E854231D102EB820000EBC200CB
:101E60001A4D05EB8000E4E700240CE002EB820051
:101E700000EBC200154D05EB8000005D1D5DA84222
:101E800000D002E0641C8C42F0DB00BF02EB820059
:101E900000EBC2000D4D05EB8005481E2D5C185C63
:101EA000401E85420AD1481EA04207D102EB8200A3
:101EB00000EBC200054D05EB8000BAE7521C044858
:101EC00000788242B8DB0020B3E700006402002003
:101ED0005C02002030B504460023052100E0491EC5
:101EE000605C0028FBD009B9002030BD1CE0002256
:101EF0000CE003EB830000EBC3000E4D05EB80000C
:101F0000805CA55CA84200D002E0521C8A42F0DB53
:101F100000BF8A4207D103EB830000EBC300054DED
:101F200005EB8000E1E75B1C034800788342DEDBC1
:101F30000020DAE7640200205C02002030B503468E
:101F40000022052100E0491E585C0028FBD0491CF6
:101F500042E0012915D102EB820000EBC200214DC5
:101F600005EB8005481E2D5C481E185C401C854210
:101F700031D102EB820000EBC2001A4D05EB80006C
:101F800030BD00240CE002EB820000EBC200154DD6
:101F900005EB8000005D1D5DA84200D002E0641CDE
:101FA0008C42F0DB00BF02EB820000EBC2000D4D63
:101FB00005EB8005481E2D5C185C401C85420AD14B
:101FC000481EA04207D102EB820000EBC200054D83
:101FD00005EB8000D4E7521C034800788242B8DB4E
:101FE0000020CDE7640200205C02002010B5034809
:101FF00014210CC80A2001F02BFE10BD8010002017
:10200000F0B599B00022874803C802F031FE4EF6C1
:102010005B70854908800020844908801822844923
:1020200006A8FAF7A8FF00240CE04EF65B700090BB
:1020300006A800EBC4057B48D5E9002303C802F0DD
:1020400028FE641C032CF0DB7A4890F84C02002830
:1020500070D0784890F8580060B177A01021002225
:10206000CDE9002102906F48DDE9062303C802F0A4
:10207000F1FF0BE075A010210022CDE900210290B4
:102080006848DDE9062303C802F0E4FF694890F8D8
:10209000590000EB4000714951F8302070A10CA8A4
:1020A000FAF7A6FD00200CA910220192CDE9022129
:1020B00004908C200090BDF82200401C83B2BDF833
:1020C0002000103082B2574803C802F03BFF594845
:1020D00090F8590000EB4000604901EBC0004068F7
:1020E0000090BDF82200113082B2BDF82000401CE3
:1020F00081B210234B4802F018FD4E49C86D5A4971
:102100000EF076FB07460EF047F905462A460B46C9
:1021100056A10CA8FAF76CFD0CA810210022CDE9FD
:10212000002102903F48DDE90A2303C802F092FF34
:102130006FE0FFE73F4890F8580060B14EA01021D3
:102140000022CDE9002102903648DDE9062303C8CC
:1021500002F080FF0BE04BA010210022CDE900210E
:1021600002903048DDE9062303C802F073FF3148CE
:1021700090F8590000EB4000384951F8302038A160
:102180000CA8FAF735FD00200CA910220192CDE928
:10219000022104908C200090BDF82200401C83B2E4
:1021A000BDF82000103082B21E4803C802F0CAFEFB
:1021B000204890F8590000EB4000284901EBC0008E
:1021C00040680090BDF82200113082B2BDF82000B6
:1021D000401C81B21023134802F0A7FC1549C86DBA
:1021E00021490EF005FB07460EF0D6F805462A46B3
:1021F0000B4627A10CA8FAF7FBFC0CA81021002223
:10220000CDE9002102900748DDE90A2303C802F066
:1022100021FF044814210CC80A2001F019FD19B04F
:10222000F0BD0000801000209E1000209C100020B7
:10223000A8E0020868120020534F555243453A4423
:102240004159204C4947485400000000534F555213
:1022500043453A54554E475354454E0010370208F3
:1022600047454C3A257300000000C84244494D3AA6
:1022700025302E3166252500B9E2D4B43AC8D5B947
:10228000E2B5C600B9E2D4B43ACED9CBBFB5C600E8
:10229000C1C1B6C83A25302E3166252500000000A0
:1022A00010B50B4890F84C0218B10AA000F0C2FF1C
:1022B00002E00BA000F0BEFF00210548583002F0FC
:1022C0005FF8FFF79DFE0221014880F8301210BD33
