:020000040800F2
:10C8000030C30020E1CA0008DD4C01087133010883
:10C810007146010849EE000811B10108000000004E
:10C820000000000000000000000000001F69010877
:10C830001115010800000000754D0108797201080A
:10C84000FBCA0008FBCA0008FBCA0008FBCA0008B4
:10C85000FBCA0008FBCA0008FBCA0008F51901085A
:10C86000FBCA0008FBCA0008951A0108410001082C
:10C87000FBCA0008FBCA0008FBCA0008FBCA000884
:10C88000FBCA0008FBCA0008FBCA0008FBCA000874
:10C89000FBCA0008FBCA0008FBCA0008351B0108D8
:10C8A000FBCA0008FBCA0008FBCA0008FBCA000854
:10C8B0000D730108FBCA000845730108FBCA000894
:10C8C000FBCA0008FBCA0008FBCA0008FBCA000834
:10C8D000FBCA0008FBCA0008ED740108897501084D
:10C8E00051190108FBCA0008FBCA0008000000003B
:10C8F0000000000000000000000000000000000038
:10C9000000000000000000006D730108FBCA000871
:10C91000FBCA0008FBCA000895730108BD73010833
:10C92000FBCA0008F5000108FBCA0008FBCA0008A2
:10C93000FBCA0008FBCA0008FBCA0008FBCA0008C3
:10C94000FBCA0008FBCA0008FBCA0008654D0108C5
:10C9500000F002F800F0B4F80AA090E8000C82445D
:10C960008344AAF10107DA4501D100F0A9F8AFF23A
:10C97000090EBAE80F0013F0010F18BFFB1A43F0BD
:10C980000103184770290200902902000A444FF061
:10C99000000C10F8013B13F0070408BF10F8014B1E
:10C9A0001D1108BF10F8015B641E05D010F8016B63
:10C9B000641E01F8016BF9D113F0080F1EBF10F8C7
:10C9C000014BAD1C0C1B09D16D1E58BF01F801CBEA
:10C9D000FAD505E014F8016B01F8016B6D1EF9D56D
:10C9E0009142D6D370470000002300240025002682
:10C9F000103A28BF78C1FBD8520728BF30C148BFC2
:10CA00000B6070476E2900F06884702900F0CF87B2
:10CA1000662914F0CA80652914F0C780672914F0CC
:10CA2000C480612914F0C38003681B0A28BF41F049
:10CA30008001692900F01C81642900F019817529A1
:10CA400000F016816F2900F05C87782900F09B8741
:10CA5000E92900F0F786E42900F0F486F52900F0D2
:10CA6000F186EF2900F05987F82900F09A870368CA
:10CA7000DB0928BF41F08001632900F07886732923
:10CA800000F07D86E32901F00D82F32901F0128286
:10CA9000002070471FB59DE8030000F04BFB00F03D
:10CAA000D5FF04000020002112F074FE401C6060DD
:10CAB0000020002112F058FEE0601FBD10B510BD2F
:10CAC00001F0E6FA1146FFF7E5FF11F0BDFB01F0BA
:10CAD00012FB03B4FFF7F2FF03BC01F043FB0000BD
:10CAE0000948804709480047FEE7FEE7FEE7FEE702
:10CAF000FEE7FEE7FEE7FEE7FEE7FEE7044805493E
:10CB0000054A064B70470000A172010851C9000890
:10CB100030B9002030C3002030BB002030BB0020E3
:10CB200070B5064600F0E6FA056806F10B0020F045
:10CB30000704B4429CBF002070BD2B466A68BAB19E
:10CB40001068A04210D304F1080188423CBF50682D
:10CB5000586007D35168101941601168091B0160C2
:10CB600058601460101D70BD13465268002AE7D14A
:10CB70002146284600F0CAFA0028DED170BD70B503
:10CB80000446051F00F0B6FA0068002C14BF446884
:10CB900070BD002C18BFAC423CBF20466468F8D37F
:10CBA00001680A18AA4218BF456003D12A680546E1
:10CBB0001144016028684119A1421CBF6C6070BD1E
:10CBC0006168696021680844286070BD1CB50C4626
:10CBD000064B7B4469460090204600F0A6FD0446C3
:10CBE0000020694600F0B4FD20461CBD7B0B000010
:10CBF0000FB41CB5084B06AA7B4469460090059803
:10CC000000F093FD04460020694600F0A1FD204697
:10CC10001CBC5DF814FB0000550B000070B50C4601
:10CC20000546012A05D02878800600D5EA69002348
:10CC300002E0012305E05B1C934202D2E05C002885
:10CC4000F9D1A869E618C01AA861286A18442862B0
:10CC5000284600F0B0FA04E0D5E9012114F8010BF0
:10CC60009047B442F8D3284600F0BBFA70BD0000EC
:10CC70002DE9F0410646002410687529314616A5B5
:10CC800010D000F0BFFA002802DA404213A507E0F6
:10CC900031688A0701D512A502E0490704D511A51C
:10CCA000012401E000F0B7FA00210A2206F124076E
:10CCB00009E0B0FBF2FCB0FBF2F302FB1C003030E9
:10CCC00078541846491C0028F3D123462A4630469A
:10CCD000BDE8F04100F0A8BA000000002D000000FF
:10CCE0002B000000200000002DE9F05F894604467B
:10CCF0004FF0000ADFF874B1FB44C0F820A02046D2
:10CD0000E1688847002874D0252806D0D4E901219D
:10CD10009047206A401C2062F1E700265F462046CB
:10CD2000E16888472028054607DB312D05D27819B0
:10CD300010F8200C08B10643F1E7B00701D526F042
:10CD40000406C4F81CA00027C4F818A02A2D09D096
:10CD500028460EF023FD38B304EB8708303DC8F8B1
:10CD6000185019E059F8041B204604EB8702916122
:10CD7000E1688847012F054618D1E069002820DACC
:10CD800026F020061DE0D8F8180000EB800005EB27
:10CD900040003038C8F818002046E168884705464A
:10CDA0000EF0FCFC0028EED1012F0AD02E2D08D168
:10CDB0002046E16888477F1C0546022F46F0200682
:10CDC000C4DBA069002803DA404246F00106A061F6
:10CDD000F00701D026F010066C2D0BD0682D09D07D
:10CDE0004C2D39D06A2D35D0742D35D07A2D33D0D5
:10CDF00016E038E0E1682F4620468847B8420546ED
:10CE000009D16C2F26D04FF48060E168064320469C
:10CE10008847054604E06C2F1AD04FF48070064313
:10CE20000DB3A5F14100192802D8203546F400665B
:10CE30004A462946204626604E46FFF7E3FD80B16C
:10CE400001280BD0F61D26F0070000F1080956E76F
:10CE50004020E4E78020D8E70020D6E706F1040967
:10CE60004DE7284652E7206ABDE8F09F921B02007A
:10CE700070B5064600F042F90468054630460A22BD
:10CE8000002100F09FFD2C6070BD30B505460B46BB
:10CE90002A4613F8014B12F8010B08B1A042F8D052
:10CEA0001CB1002802D06D1CF1E7284630BD10B53A
:10CEB000431C02E010F8011B71B18107FAD14FF059
:10CEC000013202C88C1A8C4314EAC211F9D0C01A7C
:10CED0000A0603D0C01E10BDC01A10BD0A0401D03E
:10CEE000801E10BD0902FCD0401E10BD032A40F276
:10CEF000308010F0030C00F0158011F8013BBCF1FC
:10CF0000020F624498BF11F801CB00F8013B38BF13
:10CF100011F8013BA2F1040298BF00F801CB38BF21
:10CF200000F8013B11F0030300F02580083AC0F03F
:10CF3000088051F8043B083A51F804CBA0E80810E7
:10CF4000F5E7121D5CBF51F8043B40F8043BAFF31A
:10CF50000080D20724BF11F8013B11F801CB48BF74
:10CF600011F8012B24BF00F8013B00F801CB48BFAA
:10CF700000F8012B704710B5203AC0F00B80B1E8E3
:10CF80001850203AA0E81850B1E81850A0E81850FE
:10CF9000BFF4F5AF5FEA027C24BFB1E81850A0E807
:10CFA000185044BF18C918C0BDE810405FEA827C21
:10CFB00024BF51F8043B40F8043B08BF7047D20738
:10CFC00028BF31F8023B48BF11F8012B28BF20F8D9
:10CFD000023B48BF00F8012B70474FF000020429C4
:10CFE000C0F0128010F0030C00F01B80CCF1040C98
:10CFF000BCF1020F18BF00F8012BA8BF20F8022BCC
:10D00000A1EB0C0100F00DB85FEAC17C24BF00F871
:10D01000012B00F8012B48BF00F8012B70474FF09F
:10D02000000200B5134694469646203922BFA0E878
:10D030000C50A0E80C50B1F12001BFF4F7AF090784
:10D0400028BFA0E80C5048BF0CC05DF804EB890075
:10D0500028BF40F8042B08BF704748BF20F8022BB8
:10D0600011F0804F18BF00F8012B70474FF0013CC2
:10D0700050F8042B51F8043B9A4221D1A2EB0C0347
:10D08000934313EACC1317D150F8042B51F8043B07
:10D090009A4215D1A2EB0C03934313EACC130BD1A4
:10D0A00050F8042B51F8043B9A4209D1A2EB0C032F
:10D0B000934313EACC13DBD04FF00000704700BF5E
:10D0C000D01A01BAB1FA81F101F0180122FA01F087
:10D0D000CB40C1F12001DBB2C0B2C01A2CFA01F37F
:10D0E000D11A914311EAC311E6D1704770477047D6
:10D0F0007047000000487047D4B8002000487047CF
:10D10000CCB80020704770477047704738B5044668
:10D110000A4600206946AFF30080002808BF38BDEA
:10D1200002460099204600F095FC012038BD012000
:10D1300000F0A6BFF8B5AFF30080054600200C460E
:10D14000102000BF0646A819A0420DD932466946F4
:10D150000020AFF30080070008BF00F091FF0098A7
:10D16000A04218BF0546C419FFF7C4FF0560074673
:10D17000F01D20F007004619284600F00AF8B442D6
:10D1800008BFF8BDA21B31463868BDE8F84000F082
:10D1900061BC00210160C0E9011070471020704798
:10D1A00010B5FFF7ABFF006810BD10B50446FFF7E0
:10D1B000A5FF046010BD70B5044685690068C1060E
:10D1C00001D5302600E02026C00707D070BDD4E985
:10D1D000012130469047206A401C20626D1EF6D522
:10D1E00070BD70B5044685690078C00707D170BD71
:10D1F000D4E9012120209047206A401C20626D1E46
:10D20000F6D570BD09684A0501D540B27047C90519
:10D21000FCD500B2704709684A0501D5C0B2704715
:10D22000C905FCD580B270472DE9F0470D469946F7
:10D230009246044600F124080168880604D5E06996
:10D2400021F01001216000E00120A84201DD471B10
:10D2500000E00027A1697A1902EB0900081AA06111
:10D260002078C00602D42046FFF7A5FF002608E07C
:10D27000D4E901211AF806009047206A401C761C68
:10D2800020624E45F4DB2078C0060AD52046FFF721
:10D2900092FF06E0D4E9012130209047206A401C2B
:10D2A0002062381EA7F10107F4DC07E0D4E9012170
:10D2B00018F805009047206A401C2062281EA5F13E
:10D2C0000105F3DC2046FFF78CFF2078000602D52D
:10D2D0000220BDE8F0870120FBE711680268006AC0
:10D2E000530501D508700AE0D30501D5088006E092
:10D2F000130603D5C217C1E9000200E0086001204F
:10D30000704770472DE9FF4F0C461E464FF0FF3720
:10D310008BB0D2E90001DDF860800A908A46C1F343
:10D320000A5505B93D46002108464FF00000BAF104
:10D33000000F00F4400005DA00EB80004FF44001DC
:10D3400001EA50004FEA9059B9F1010F00DDB946EA
:10D350000A9850EA4A000ED044F61050A5F2FF3564
:10D3600045432F14B8F1000F1ED07542291E1EDD53
:10D37000C9F100021CE0B8F1010F4FF0000001D02C
:10D38000302103E0F24305E02154401CB042FBDBB6
:10D3900030460022002121540B99C1F80880C1E9D0
:10D3A00000200FB0BDE8F08FBD1B6D1CDEE74A46C4
:10D3B00000DA694206A800F0D1FD06AB93E8070049
:10D3C00003AB83E8070050460A9900F0F1FE8DE8B0
:10D3D0000700A0F500501F3800900398002D0ADDCB
:10D3E00042F21F014A460844002303A903906846FD
:10D3F00001F05AF909E0A0F500504A461F38002311
:10D4000003A90390684601F064F98DE80700000461
:10D41000000C03D04FF0FF30410800E01046B8F197
:10D42000000F03D00022009215461EE0751E05D4A1
:10D4300000F02AFB303262556D1EF9D5B346012249
:10D44000084302D000227F1C04E02078302801D15C
:10D4500000227F1E002A099784D01DE0112D07DAD3
:10D4600000F012FB303262556D1C50EA0102F5D11A
:10D47000084302D00098C8B10EE00021681E05E004
:10D48000235C625C63542254401E491C8142F7DBDA
:10D49000AB46A81B401E0990002004F80B000B9817
:10D4A000099AC0F80880C0E9002B7AE711264FF0EE
:10D4B000000857E72DE9F04F88460446D21D22F0B8
:10D4C000070191B0D1E90001CDE90A010DF022FE7A
:10D4D00002460B98C00F01D02D2007E0206881077D
:10D4E00001D52B2002E0202101EAC000032A099087
:10D4F00001D0072A05DB03464146204600F088FCA0
:10D500000BE12078800601D5E06900E00620B8F143
:10D51000650F814606D0B8F1660F18D0B8F1670FD5
:10D5200070D131E00020B9F1110F009001DB11231F
:10D5300001E009F101030AAA01A90CA8FFF7E2FE24
:10D54000DDE90C70002609F10105834647E0012062
:10D550004B4600904FF000470AAA01A90CA8FFF71C
:10D56000D1FEDDE90DB00C995D46002610B909F138
:10D5700001000D18B9EB050003D4C0F1FF3609F125
:10D580000105A5EB09002BE0B9F1010F01DA4FF01D
:10D5900001090020B9F1110F0090484601DD112367
:10D5A00000E003460AAA01A90CA8FFF7ABFEDDE9DB
:10D5B0000C704D4600268346207800070AD4AB4500
:10D5C00000DA5D4601A8012D04DD411911F8011CA6
:10D5D000302907D04F4502DA17F1040F04DA012091
:10D5E00082460FE06D1EEEE7002F02DCED1B3E448D
:10D5F00003E0781CA84200DD7D1CB81B00F1010A85
:10D600004FF000472078000703D4AA4501DB4FF014
:10D61000FF3A0021B7F1004F0DF143088DF8431098
:10D6200024D002202B23002F01DA7F422D230A2150
:10D63000021EA0F1010000DC5FB197FBF1FC97FB3B
:10D64000F1F201FB1C7C17460CF1300C08F801CDFF
:10D65000EEE7A8F1010003702188090501D54521F5
:10D6600000E06521A0F1010800F8011C09980FA94C
:10D67000A1EB0807FF1D00B10120411901EBEA7081
:10D68000A1693844081A401EA0612078C00602D45F
:10D690002046FFF790FD099828B1D4E90121904771
:10D6A000206A401C20622078C00622D52046FFF761
:10D6B00082FD1EE0002E04DBB34502DD01A8805D83
:10D6C00000E03020D4E901219047206A401C20620C
:10D6D000761CAAF101005FEA000A0AD100F0B6F94F
:10D6E000C0680168405CD4E901219047206A401C71
:10D6F0002062281EA5F10105DCDC07E0D4E9012148
:10D7000018F8010B9047206A401C2062381EA7F1D0
:10D710000107F3DC2046FFF764FD032011B041E66A
:10D7200001694A1C02610878704700B58FB0CDE9E5
:10D7300001310021059105497944CDE903101146D5
:10D740006846FFF7D1FA0FB000BD0000E5FFFFFF0C
:10D750000A6802F8010B0A60704710B5436913B1FB
:10D76000AFF3008001E0FFF759FA012010BD1278F5
:10D7700000F124010A7000224A700122EDE71168CD
:10D780004FF0FF32E9E700002DE9FF5F15468A46BA
:10D790000446DFF8AC80F8440027D8E900103E4684
:10D7A000CDE9001010E03AF816106A4602A800F021
:10D7B00047FC411C07D02178890603D5E269391856
:10D7C00091420DD80744761C2078800602D5E06986
:10D7D000B84205DDAE42E6DB3AF816000028E2D199
:10D7E000A069C01BA0612046FFF7E5FCD8E9001046
:10D7F000CDE90010002017E03AF818106A4602A898
:10D8000000F01EFCB0F1FF3F81460BD000250DF16A
:10D81000080B05E0D4E901211BF8050090476D1CB9
:10D820004D45F7D308F10100B0428046E4DB206AA1
:10D83000384420622046FFF7D4FCBDE8FF9F00007B
:10D84000C61102002DE9F0418046D21D22F00702E8
:10D850000025D2E90002F52915A614D0011E72F1A7
:10D86000000106DA0023D0EB030063EB020211A6ED
:10D8700008E0D8F800108B0701D50FA602E0490791
:10D8800001D50EA601251146002408F1240704E065
:10D8900000F0FAF830323A55641C50EA0102F7D130
:10D8A0002B46324621464046BDE8F041FFF7BCBC5E
:10D8B000000000002D0000002B00000020000000F0
:10D8C00030B4002100F1240408E002F00705D2087A
:10D8D000303542EA4372DB086554491C52EA0305BD
:10D8E000F3D10468002310A2250707D5A40600D4AD
:10D8F00021B1C46901230DA2641EC46130BCFFF7CD
:10D9000093BC10B5044621461068FFF784FC02461C
:10D910002046BDE810400023D2E7D21D22F00701C7
:10D92000D1E90023CCE70000000000003000000037
:10D93000F0B40D460188090502D5214C7C4402E073
:10D940001F4C7C440E34002100F1240608E002F054
:10D950000F071209E75D42EA03721B097754491C5D
:10D9600052EA0307F3D102780023120704D5702D81
:10D9700006D009B1022311342246F0BCFFF754BC93
:10D9800001231034F8E770B504460D4621461068AF
:10D99000FFF741FC024629462046BDE870400023BF
:10D9A000C6E7D21D22F00703D3E90023C0E70368CE
:10D9B000126843F0200303600823C3610023B7E724
:10D9C000281002002DE9F04791460F468046044694
:10D9D000002614F8015B2DB100F030F80068405DBE
:10D9E000C007F6D12B2D02D02D2D18D0641E4A462B
:10D9F0003946204600F062FA27B13968A14201D1C8
:10DA0000C7F800804FF0020471050BD54042002892
:10DA100003DDFFF773FB0460A007BDE8F08746F461
:10DA20008066E4E70028F8DAFFF768FB04606FF02F
:10DA30000040F2E700487047CCB8002010B500F075
:10DA400005F8001D10BD00BF4D1D010000487047C6
:10DA5000ECB80020034640688C46002818BF884276
:10DA60003CBF03464068F8D318681844884207D082
:10DA70000CF1030020F00700001D411A521A014664
:10DA8000081D0A60FFF77BB830B5B0F10A024FEA13
:10DA9000900E71F100034EEA817EB0EB0E0061EB57
:10DAA00091014FEA101E4EEA017E10EB0E0041EB91
:10DAB00011114FEA102E4EEA016E10EB0E0041EBF1
:10DAC00011214FEA104E4EEA014E10EB0E0041EBD1
:10DAD0001141401841F100014FEAD00040EA417085
:10DAE0004FEAD10110EB80054FEA810444EA9074BB
:10DAF00044EB01046D1944EB0404521BA3414FF0A5
:10DB0000000348BF0A3200D530BD401C41F100017E
:10DB100030BD00002DE9F04F04460D46D21D22F025
:10DB2000070089B0D0E90097484639460DF0F2FA6F
:10DB30000246F80F01D02D2307E02068810701D5A8
:10DB40002B2302E0202101EAC0038DF820300BB125
:10DB5000012000E00020032A824601D0072A04DBCE
:10DB60002946204600F054F93FE12078800601D490
:10DB70000D2500E0E569C7F30A560D2D49DA0021AD
:10DB80004FEA175B08464FF00000002F00F44000FA
:10DB900007DA00EB80004FF4400100EBD07001EA9F
:10DBA00060008115012901DD4FF0FF3100224FEAAD
:10DBB000850CBCF1180F06D31346ACF118004FF0DA
:10DBC0008052C24003E04FF4801323FA0CF30CF1AF
:10DBD0000C0CBCF1200F04D3ACF1200C09FA0CF0B2
:10DBE00001E007FA0CF000294FF0004801DD18B9F8
:10DBF0000FE00ED140450CD319EB02095F4121B96A
:10DC0000404502D19F4329EA0209BBEB175F00D0D0
:10DC1000761C2088000502D57B48784402E07A48CB
:10DC20007844193808AA302302F80A30037C0AF134
:10DC30000101002E0AF1020A53546A4602DC4FF039
:10DC4000300101E04FF031014FF001088DF8001074
:10DC500002D0A6F2FF3603E059EA470100D06B4E2E
:10DC6000002D02DC2178090704D54FF002082E218F
:10DC70008DF80110C44600210BE0C7F303433F01B8
:10DC8000C35C491C6D1E02F80830052908F1010823
:10DC900001DA002DF1DC00210CE000EB1973491CC6
:10DCA0001B786D1E082902F808304FEA091908F19F
:10DCB000010801DA002DF0DC21688B0602D516E0A0
:10DCC000A8F10108E04505DD02EB080313F8013C6B
:10DCD000302BF5D0B8F1000F09DD02EB080313F883
:10DCE000013C2E2B03D1090701D4A8F10108002D16
:10DCF00005DD3E2102F808106D1E08F10108407C88
:10DD0000002E02F8080008F1010804DA2D207642FE
:10DD100002F8080002E02B2002F808000A214FF464
:10DD20007A70864208F101080BDB96FBF0F3303382
:10DD300002F8083096FBF0F308F1010800FB1366C7
:10DD400001E0642E0CDB642096FBF0F3303302F824
:10DD5000083096FBF0F308F1010800FB136601E0C0
:10DD60000A2E06DB96FBF1F0303002F8080008F1CD
:10DD7000010896FBF1F001FB1060303002F808005A
:10DD8000A16908F1010808EB050202EB0A00081A74
:10DD9000A0612078C00602D42046FFF70CFA216A61
:10DDA00008AE01EB0A00206204E0D4E9012116F874
:10DDB000010B9047BAF1010AF7D22078C00602D5CC
:10DDC0002046FFF7F8F96E4609E016F8010B3E28E9
:10DDD0000FD0D4E901219047206A401C2062B8F19D
:10DDE0000108F2D22046FFF7FCF909B00320BDE894
:10DDF000F08F206A2844206203E0D4E9012130201A
:10DE000090476D1EEBD3F8E7AD0E020002FCFFFF5A
:10DE10002DE9F0411F46044603260168072A01F454
:10DE2000006004DB08B116A505E016A503E008B103
:10DE300015A500E015A521F010002060A069C01E06
:10DE4000A0610FB1401EA0612046FFF7B4F94FB1A9
:10DE5000D4E9012138469047206A401C2062C01C4A
:10DE6000206206E0206AFAE7D4E9012115F8010BE7
:10DE70009047761EF8D22046FFF7B3F9BDE8F0814F
:10DE80004E414E006E616E00494E4600696E66005E
:10DE900010B5436913B1AFF3008001E0FFF774FCE4
:10DEA000012010BD128800F1240182840022C28466
:10DEB0000122EDE711684FF0FF32E9E72DE9F05F4D
:10DEC000824615468B4600270AF10104B9460078C0
:10DED000302801D09DB113E014F8010B01277828F8
:10DEE00003D0582801D045B10AE00DB1102D07D15B
:10DEF000002714F8010B102502E0082500E00A2590
:10DF00000026B0460EE005FB080005FB06F10127E0
:10DF10001FFA80F801EB1046B6F5803F00D3B946F2
:10DF200014F8010B294600F0D8F80028EBDABBF111
:10DF3000000F05D00FB1641E00E05446CBF800403E
:10DF4000B9F1000F06D0FFF7D9F802210160C81E11
:10DF5000BDE8F09F48EA0640FAE700002DE9F047E7
:10DF6000814616468AB0354878440DC88DE80D00C4
:10DF700032487844801C03AC0DC884E80D0041F69B
:10DF80009B300844372190FBF1F290FBF1F5A5F1AD
:10DF9000800501FB12041B3C02D56442012000E015
:10DFA0000020DFF898A080460027FA44AAF1BE0AB4
:10DFB0000EE0E0070AD03246684607EB470101232E
:10DFC0000AEB810100F085FB8DE8070064107F1CDF
:10DFD000002CEED1194F7F44AE3F19E0E80715D071
:10DFE00007EB04100DF1180A90E80E008AE80E0005
:10DFF000C068F04201D1981908903246012306A961
:10E0000003A800F066FB03AB83E807006D10641CF7
:10E01000002DE3D14FF0010332466946B8F1000FFD
:10E0200003A802D000F040FB01E000F052FBC9E978
:10E030000001C9F808200AB0BDE8F087F00B020023
:10E0400070B516460C460546FFF7F8FC036893F8D2
:10E050000101012806D0FF2C0FD8185D68B10120FE
:10E060002C7070BDD3F807013246214603F2071326
:10E0700003442846BDE8704018474FF0FF3070BD9C
:10E0800010B500F047F8BDE8104000F03DB870470B
:10E090007546FFF7CFFCAE4605006946534620F0B3
:10E0A0000700854618B020B5FEF728FDBDE82040E2
:10E0B0004FF000064FF000074FF000084FF0000B44
:10E0C00021F00701AC46ACE8C009ACE8C009ACE8F7
:10E0D000C009ACE8C0098D4670473A2800D23038F4
:10E0E00020F02002412A01D3A2F13700884201D357
:10E0F0004FF0FF30704710B50446AFF30080204664
:10E10000BDE81040FEF7E5BC002801D000F02AB8B9
:10E110007047000010B5012805D0002103A000F0D1
:10E1200027F8012010BD09A1F8E700005349475224
:10E13000544D454D3A204F7574206F6620686561D7
:10E1400070206D656D6F7279000000003A2048659F
:10E150006170206D656D6F727920636F727275707A
:10E160007465640001491820ABBEFEE7260002007A
:10E1700070B505460C460A2000E06D1C00F011F851
:10E1800035B128780028F8D102E0641C00F009F8C5
:10E1900014B120780028F8D1BDE870400A20AFF310
:10E1A000008008B569468DF800000320ABBE08BDAD
:10E1B0005FEA400C08BF91F0000F4FEA8C234FEA52
:10E1C000C12243EA51514FEA1C5018BF00F5F040FC
:10E1D0004FEA300018BF41F000415FEA6C5C00F08C
:10E1E0002980BCF1FF3F08BF40F080407047130C0E
:10E1F00006BF12044FF0100C4FF0000C130E04BFBA
:10E2000012020CF1080C130F04BF12010CF1040CE4
:10E21000930F04BF92000CF1020CD30F04BF520005
:10E220000CF1010C11464FF00002A0F11F00A0EB11
:10E230000C00704711F0004F08BF704731F00041EB
:10E240003FF4D5AF0B0C06BF09044FF0100C4FF094
:10E25000000C0B0E04BF09020CF1080C0B0F04BFDD
:10E2600009010CF1040C8B0F04BF89000CF1020CA6
:10E27000CB0F04BF49000CF1010CCCF12003A0EB43
:10E280000C0022FA03F302FA0CF241EA030100F156
:10E290000100704720F07F4C80EA030023F07F47A5
:10E2A000ACEB070303F57C5300F0004003F1FF03E0
:10E2B0002DE980494FEA154B09B44FEA144325EA8A
:10E2C0000B4E24EA03480FF2042606EB13274908F5
:10E2D0003E785FEA320203FB0667C7F5000707FBDB
:10E2E00006F64FEA54374FEAD64606F1020607FB18
:10E2F000066CCCF1005C4FEA1C472CEA074C07FB8C
:10E3000006F40CFB06F504EB15464FEA961634BFEF
:10E3100000204FF000404FEAD13706FB07FC4FEAE0
:10E320001C4C0CFB0BF7D21B03FB0CF761EB07013A
:10E330000CFB0EF7B0EB074072EB17420CFB08F733
:10E3400034BFA2EB0742B2EB074261EB17414FEA41
:10E350000C444FEA910706FB07FC4FEA1C4C0CFBF0
:10E360000BF7B0EBC74072EB573203FB0CF734BF2F
:10E37000A2EBC742B2EBC74261EB57310CFB0EF781
:10E38000B0EBC70072EB57720CFB08F734BFA2EB7F
:10E39000C702B2EBC70261EB5771039F4FEA81617D
:10E3A00041EA921104EBCC044FEAD1374FEA826282
:10E3B00006FB07FC42EA90124FEA80604FEA1C4CD1
:10E3C0000CFB0BF7D21B03FB0CF761EB07010CFBFB
:10E3D0000EF7B0EB074072EB17420CFB08F734BFA7
:10E3E000A2EB0742B2EB074261EB17414FEA8C55B3
:10E3F0004FEA910704EB9C2406FB07FC4FEA1C4CF8
:10E400000CFB0BF7B0EBC74072EB573203FB0CF77A
:10E4100034BFA2EBC742B2EBC74261EB57310CFBF2
:10E420000EF7B0EBC70072EB57720CFB08F734BF66
:10E43000A2EBC702B2EBC70261EB577115EB4C259B
:10E440004FEA816141EA92114FEA82624FEAD13785
:10E4500042EA901206FB07FC44F100044FEA806098
:10E460004FEA1C4C0CFB0BF7D21B03FB0CF761EBC8
:10E4700007010CFB0EF7B0EB074072EB17420CFBE9
:10E4800008F734BFA2EB0742B2EB074261EB17413A
:10E4900015EB1C154FEA813141EA92414FEA823275
:10E4A00042EA90424FEA80304FEA0C7644F1000491
:10E4B00048EA03434EEA0B484FF0000EB2EB080C5B
:10E4C00071EB030724BF624639464EEB0E0E4FF048
:10E4D000000B0018524149414BEB0B0BB2EB080CFF
:10E4E00071EB03077BF1000B24BF624639464EEB0C
:10E4F0000E0E4FF0000B0018524149414BEB0B0B35
:10E50000B2EB080C71EB03077BF1000B24BF6246F2
:10E5100039464EEB0E0E51EA020718BF46F00106CF
:10E5200016EB0E7655F1000254F1000103D5BDE85B
:10E530008901BDE80088BDE88901BDE80048B61939
:10E54000524141EB0101A3F10103704780807F7EBE
:10E550007D7C7B7A79787776767574737271717059
:10E560006F6E6E6D6C6C6B6A6A696868676666650B
:10E570006464636362616160605F5F5E5E5D5D5C99
:10E580005C5B5B5A5A59595858575756565555550A
:10E590005454535352525251515050504F4F4F4E6A
:10E5A0004E4D4D4D4C4C4C4B4B4B4A4A4A494949B8
:10E5B00048484847474747464646454545444444FA
:10E5C000444343434342424242414141002B9C4623
:10E5D00030D477002BD01CB54FEA370703B44FF087
:10E5E00010004FF01001BAF1000F06D0BCF1000F7F
:10E5F000DCBF40F0080040F008014FF000000FBC05
:10E60000BDE810400BF1010BBBF1010F08BF5FEA41
:10E61000170722BF12F1010211F101014FF0004171
:10E6200043F1000300F0004043EA00007047F9D3D3
:10E630005708D0E746EA064613F1400F4FEA164660
:10E640001FDD13F1200FDFBF16430A4600212033E0
:10E650005B42BED0C3F1200746EA064602FA07F73E
:10E660004FEA164646EA0706C3F1200722FA03F2EC
:10E6700001FA07F721FA03F14FF0000342EA07021B
:10E68000A7E746EA020646EA06464FEA164646EA83
:10E690000106BCBF46EA0646360C4FF000034FF0B9
:10E6A00000024FF0000194E72DE9804C9A46934612
:10E6B00070B491E8380007C831EA400C48BF34EA2A
:10E6C000430C03D5FFF7E6FDFFF780FFF0BCBDE884
:10E6D000008C2DE9804C9A46934670B491E838003E
:10E6E00007C810F0804F08BF13F0804F03D100F02F
:10E6F00005F8FFF76BFFF0BCBDE8008C20F07F470A
:10E7000080EA030023F07F4C07EB0C03A3F57C5356
:10E7100000F00040A3F1FE0392F0000F00F0B38080
:10E7200095F0000F00F077802DE901494FEA114084
:10E730004FEA144621EA004800FB06FC24EA06479B
:10E7400008FB06F607FB08F800FB07F718EB06487E
:10E750004CEB164C4FEA124B18EB07484FEA1546A4
:10E760004CEB174022EA0B4E0BFB06FC25EA064752
:10E770000EFB06F607FB0EFE0BFB07F71EEB064E25
:10E780004CEB164C4FF000061EEB074E4CEB174BB4
:10E7900018EB0B0840F1000018EB0E0B58EB0008CB
:10E7A00040F100008F1A4FF000013CBFC943661BC7
:10E7B00014BFB5EB040C00213CBFC943F61B4FEA64
:10E7C00017444EEA8E0E27EA04454FEA1C4704FB25
:10E7D00007622CEA074C05FB07F70CFB05F604FB68
:10E7E0000CFC16EB074642EB174216EB0C4642EBCD
:10E7F0001C421BEB060658EB0202414146EA9E060C
:10E8000001D5BDE80189B619524141EB0101A3F1DF
:10E810000103BDE801894FEA14454FEA114724EA94
:10E82000054621EA074C05FB07F406FB07F70CFB3E
:10E8300006F105FB0CFC11EB074144EB17444FEAD2
:10E84000124711EB0C4144EB1C4422EA074C05FB38
:10E8500007F206FB07F70CFB06F605FB0CFC16EBB4
:10E86000074642EB174216EB0C4642EB1C456A1872
:10E8700054F1000148BF7047B619524141EB010104
:10E88000A3F10103704795F0000F37D04FEA114212
:10E890004FEA144721EA024624EA074C02FB07F13B
:10E8A00006FB07F70CFB06F402FB0CFC14EB074419
:10E8B00041EB17414FEA154714EB0C4441EB1C4167
:10E8C00025EA074C02FB07F506FB07F70CFB06F6EB
:10E8D00002FB0CFC16EB074645EB174516EB0C4606
:10E8E00045EB1C42121951F1000148BF7047B6199F
:10E8F000524141EB0101A3F1010370474FEA144576
:10E900004FEA114724EA054621EA074C05FB07F1C7
:10E9100006FB07F70CFB06F24FF0000605FB0CFCAC
:10E9200012EB074241EB174112EB0C4251EB1C4139
:10E9300048BF7047921841EB0101A3F101037047F2
:10E9400000B587B00121480206F09EFE012108466D
:10E9500006F06AFE4FF4004006F05AFE364800F01A
:10E9600089F81020ADF8180000208DF81B00022057
:10E970008DF81A0006A9314803F038FE00200190F6
:10E9800001208DF808008DF809004FF460200390F5
:10E990000020049001208DF8140001A9264800F001
:10E9A000ABF8072301220421234800F0CDF8012110
:10E9B000214800F054F801211F4800F045F81E4896
:10E9C00000F01EF900BF1C4800F08CF80028FAD1B6
:10E9D000194800F025F900BF174800F079F8002821
:10E9E000FAD10B208DF8000003208DF801000220E1
:10E9F0008DF8020001208DF80300684606F070F9DA
:10EA00000D484C300E4908610E4848614FF4AD5036
:10EA100088606420C8600846806840F00100886013
:10EA20000846806840F0020088600121024800F03A
:10EA3000ECF807B000BD00000024014000080140D0
:10EA400000000240C4A3002021B1826842F001020C
:10EA5000826003E0826822F001028260704721B187
:10EA6000826842F48072826003E0826822F48072DD
:10EA70008260704710B504461248844208D10121D3
:10EA8000401506F011FE0021601506F00DFE17E09E
:10EA90000D48844208D10121001506F005FE002131
:10EAA000201506F001FE0BE00848844208D1012140
:10EAB000C80306F0F9FD00214FF4004006F0F4FD14
:10EAC00010BD00000024014000280140003C01402E
:10EAD000014600208A6802F004020AB1012000E029
:10EAE00000207047014600208A6802F008020AB13F
:10EAF000012000E00020704730B5024600200023CE
:10EB000050680F4C20400D790C6844EA05242043DE
:10EB1000506090680B4C2040D1E902542C434D7951
:10EB200044EA450420439060D06A20F470000C7CD5
:10EB3000641EE4B2234340EA0350D06230BD0000BB
:10EB4000FFFEF0FFFDF7F1FFF0B504460D46002093
:10EB50000021092D11DDE068A5F10A0606EB460744
:10EB6000072606FA07F18843A5F10A0606EB4606D2
:10EB700003FA06F10843E0600CE0206905EB450765
:10EB8000072606FA07F1884305EB450603FA06F166
:10EB900008432061072A0FDA606B561E06EB8607D2
:10EBA0001F2606FA07F18843561E06EB860605FA6D
:10EBB00006F10843606322E00D2A0FDA206BD61FAE
:10EBC00006EB86071F2606FA07F18843D61F06EBD9
:10EBD000860605FA06F10843206310E0E06AA2F118
:10EBE0000D0606EB86071F2606FA07F18843A2F1F9
:10EBF0000D0606EB860605FA06F10843E062F0BD55
:10EC0000816841F008018160704721B1826842F457
:10EC1000A002826003E0826822F4A0028260704752
:10EC2000816841F00401816070472DE9F04104469C
:10EC30000D4616461F46641CAD1C761CBF1C2A20C0
:10EC400005F0B0FAC4F3072005F094FAE0B205F03D
:10EC500091FAC6F3072005F08DFAF0B205F08AFAB2
:10EC60002B2005F09FFAC5F3072005F083FAE8B2E0
:10EC700005F080FAC7F3072005F07CFAF8B205F03A
:10EC800079FA2C2005F08EFABDE8F08110B5002449
:10EC900004E00020064921F81400641C052CF8DB70
:10ECA000012001F027F8122001F024F810BD000027
:10ECB00024A8002070B504460D46002229462046AF
:10ECC00000F0C0FE70BD000070B505460C46084857
:10ECD0000560204600F00EF800BF054800680028D7
:10ECE000FBD100214FF0804008F087FB70BD000091
:10ECF000380E00203EB5044600214FF0804008F059
:10ED00007CFB00220121880708F094FB022C03D130
:10ED10000B20ADF8040005E0012C03D142F6DF60C2
:10ED2000ADF804000520ADF800000020ADF80600A5
:10ED3000ADF8020069464FF0804008F085FB0121E4
:10ED4000880708F057FB0121880708F047FB0122DC
:10ED50001146900708F06EFB0121880708F04DFB73
:10ED60003EBD0000F0B5ADB00446012701A82B90D0
:10ED700064202C9021461CA80EF091FA0546002D27
:10ED800052D100BF25A91CA80EF0A8FB05462B9E5A
:10ED90009DF89D002E2800D1F4E715B92B98007836
:10EDA00028B99DF89D0000B939E00DF19D069DF848
:10EDB0009C0000F0100000B1E4E7304602F0A9FB2F
:10EDC0001AA002F0A6FB1AA13046FEF74FF928BBA5
:10EDD000012231461A480EF099F9054604211848D7
:10EDE0000EF09DF81AAB04221BA915480EF08DFAFF
:10EDF0001B9800F07F40B0F1006F00D0C2E7002107
:10EE00000F480EF08CF800270D480EF07DF8012118
:10EE10000C4880F82A1038462DB0F0BDB2E700BF8C
:10EE20000221084880F82A103846F5E70D0A00004C
:10EE300066696C6D676561723030312E62696E0093
:10EE40001C9D0020F00E002000BFFEE72DE9F041E0
:10EE50008AB0022500226E4803C806F02FF800246D
:10EE600010E04EF65B7000906A4800EBC400016849
:10EE70000491406803460A460590654803C806F0B9
:10EE80002EF8641C032CECDB4EF65B7062490880A4
:10EE90000020624908806248D0F8440200EB8000FC
:10EEA000604911F820105E4880F83C1290F84C023E
:10EEB00050B15B4890F83C02642100FB01F25AA17A
:10EEC00006A8FDF795FE09E0554890F83C0264213C
:10EED00000FB01F256A106A8FDF78AFE002006A954
:10EEE00010220192CDE9022104906420009049484B
:10EEF0004088284483B247480088103082B2444892
:10EF000003C806F045F90020069007900890099084
:10EF1000434890F84C0238B1414848A1D0F8382213
:10EF200006A8FDF765FE06E03D4846A1D0F8382268
:10EF300006A8FDF75DFE002006A910220192CDE98A
:10EF4000022104906420009032484089284483B212
:10EF500030480089103082B22D4803C806F018F9F5
:10EF6000002006900790089009902D4890F84C02D8
:10EF700080B12B49D1F84002344911F0A3FC8046FE
:10EF800011F074FA064632460B4631A106A8FDF789
:10EF90002FFE1FE02249D1F8400211F067FA064621
:10EFA00000222E4B10F016FF10D21D49D1F840025E
:10EFB000264911F087FC804611F058FA0646324681
:10EFC0000B4627A106A8FDF713FE03E028A106A81B
:10EFD000FDF70EFE002006A910220192CDE90221C4
:10EFE0000490642000900B48408A284483B209486A
:10EFF000008A103082B2064803C806F0C9F80448F7
:10F0000014210CC80A2004F0CBFE0AB0BDE8F08140
:10F010000C0D0020841700202A0D0020280D002050
:10F02000F00E0020F43C02084B766E3A25644B004B
:10F03000C9ABCEC23A25644B0000000047726E3A5D
:10F0400025640000C2CCC6AB3A2564000000C8426B
:10F0500044696D3A25302E31662525000000F03FC9
:10F06000C1C1B6C83A25302E316625250000000002
:10F07000C1C1B6C83A3130302525000010B50E4860
:10F0800090F84C0218B10DA004F074F902E00EA043
:10F0900004F070F9084BD3F84022D3F8381293F8F3
:10F0A0004402002305F0B8F9FFF7D0FE0021024822
:10F0B00080F8301210BD0000F00E002043435420B1
:10F0C0004D4F444500000000434354C4A3CABD0053
:10F0D0002DE9FF5F8B4800688A49496808438949E0
:10F0E00089680843002874D08648006808B38648B9
:10F0F000D0F8441283480068091A8348C0F84412C3
:10F10000D0F84412D0F84802401E814205DD7E4806
:10F11000D0F84812491EC0F844127B48D0F8440287
:10F12000002803DA00217848C0F84412002075490D
:10F1300008607448406800285AD0744974480068D0
:10F1400011F08CFC2FD273480078401C7149087074
:10F150006F48006811F08AF9CDE9000169494868F3
:10F1600010F00DFE80466C4A6C4B10F06FFE0646A8
:10F17000DDE9002310F06AFE04460D466249D1F82D
:10F18000380210F0FCFD22462B46CDE9020111F0B9
:10F1900083F8824610F096FD5B49C1F838020020E2
:10F1A0005C4908700BE05848D0F838025549496866
:10F1B000411A5548C0F83812002056490870524884
:10F1C000D0F83802642805DD64214F48C0F83812B1
:10F1D0000BE08FE04C48D0F8380210F1640F04DAED
:10F1E0006FF063014848C0F8381200204549486074
:10F1F00044488068002871D049494548006811F0AA
:10F200002DFC30D243480078401C42490870002051
:10F2100008703F48006811F029F906460F46394941
:10F22000886810F0ACFD80463E4A3F4B10F00EFE61
:10F2300032463B46CDE9000110F008FE04460D467B
:10F240003149D1F8400211F011F9824622462B468D
:10F2500011F022F8CDE9020110F0B2FA01462A4875
:10F26000C0F840121EE000202A490870254988682D
:10F2700010F085FD80462B4A2C4B10F0E7FD04462C
:10F280000D462149D1F8400211F0F0F80646224619
:10F290002B4611F001F8824610F092FA01461A4806
:10F2A000C0F840121849D1F840024FF07E5111F0D9
:10F2B000D5FB05D24FF07E511348C0F840120AE04A
:10F2C0001149D1F84002002111F0C8FA03D20021FF
:10F2D0000D48C0F8401200200A4988600A4BD3F854
:10F2E0004022D3F8381293F84402002305F094F832
:10F2F000FFF7ACFD0E480068082801D105F00BFCB3
:10F30000BDE8FF9FD8A70020F00E00200000F041CC
:10F310006C0E0020F80D00209A9999999999A93FAF
:10F320000000C841FCA9F1D24D62403F4D62503F00
:10F33000480200202DE9F04F8DB082460C469146E0
:10F34000BAF14C0F04D2642C02DC14F1640F03DA1E
:10F3500001200DB0BDE8F08F0AEB8A005D4901EB9A
:10F360008001D1E90301CDE908010AEB8A0059497E
:10F3700001EB8001D1E90101CDE906014FF08040A8
:10F38000069911F09FFA0546089911F099FB0A9029
:10F390004FF08040079911F095FA0546099911F050
:10F3A0008FFB0B90002C48DD069811F05FF8CDE93B
:10F3B0000401204611F026FA01900699089811F0F0
:10F3C0007FFB0090019911F07DFA834611F04EF811
:10F3D0000022414BCDE9020110F0E0FA0546DDE9DB
:10F3E000042310F01FFA074610F0EAF9C9F80000EC
:10F3F000079811F03BF8CDE90401204611F002FA1C
:10F4000001900799099811F05BFB0090019911F0A8
:10F4100059FA834611F02AF800222F4BCDE9020158
:10F4200010F0BCFA0746DDE9042310F0FBF90546AD
:10F4300010F0C6F9C9F804004AE06442069811F0D9
:10F4400015F807468846204611F0DCF90190069928
:10F450000A9811F035FB0090019911F033FA8346B8
:10F4600011F004F800221D4BCDE9020110F096FACC
:10F470003A464346CDE9040110F0D4F9054610F0B0
:10F480009FF9C9F80000079810F0F0FF074688467A
:10F49000204611F0B7F9019007990B9811F010FB75
:10F4A0000090019911F00EFA834610F0DFFF002260
:10F4B0000A4BCDE9020110F071FA3A464346CDE914
:10F4C000040110F0AFF9054610F07AF9C9F804000C
:10F4D00000203EE7F43C02080000594000C05C40B8
:10F4E0002DE9F04F89B00446E08810F05FFC074634
:10F4F00000223C4B10F052FA054610F061F98146AB
:10F50000218940F2671201FB02F010F038FC074637
:10F510000022344B10F042FA054610F003FC80B292
:10F52000ADF81800608910F041FC074600222D4B11
:10F5300010F034FA054610F043F90790208810F0D7
:10F5400035FC07460022274B10F028FA054610F03C
:10F5500037F908902448D0F84802618848434FF6AC
:10F56000FF7190FBF1F000F0FF0AA0880EF0DEFBC7
:10F57000834602AA59465046FFF7DCFE694606A8B4
:10F5800003F08CFD49464FF07E5011F099FA074682
:10F59000029911F097F905464846009911F092F941
:10F5A0000646294610F08EFF049049464FF07E50E3
:10F5B00011F086FA0746039911F084F9054648468A
:10F5C000019911F07FF90646294610F07BFF05905E
:10F5D000002204A8089900F0BDFC002009B0BDE895
:10F5E000F08F0000E0FFEF40F00E00202DE9F04F1B
:10F5F00089B00446E07810F0D9FB074600223B4B67
:10F6000010F0CCF9054610F0DBF88146217940F284
:10F61000671201FB02F010F0B2FB07460022334BE9
:10F6200010F0BCF9054610F07DFB80B2ADF8180073
:10F63000607910F0BBFB074600222C4B10F0AEF9AE
:10F64000054610F0BDF80790207810F0AFFB074694
:10F650000022264B10F0A2F9054610F0B1F80890F0
:10F660002348D0F8480261784843FF2190FBF1F02D
:10F6700000F0FF0AA0780EF0A6FB834602AA5946C6
:10F680005046FFF757FE694606A803F007FD4946B6
:10F690004FF07E5011F014FA0746029911F012F95A
:10F6A00005464846009911F00DF90646294610F026
:10F6B00009FF049049464FF07E5011F001FA0746C9
:10F6C000039911F0FFF805464846019911F0FAF840
:10F6D0000646294610F0F6FE0590002204A8089977
:10F6E00000F038FC002009B0BDE8F08F00E06F406A
:10F6F000F00E00202DE9F05F04461248D0F84802D1
:10F70000618848434FF6FF7190FBF1F000F0FF096C
:10F71000A0880EF00BFB8346208810F047FB0746BD
:10F720000022094B10F03AF9054610F049F88246DC
:10F73000002352465946484604F06EFE0020BDE8BC
:10F74000F09F0000F00E0020E0FFEF402DE9F05F99
:10F7500004461148D0F8480261784843FF2190FBE5
:10F76000F1F000F0FF09A0780EF02DFB8346207821
:10F7700010F01CFB07460022084B10F00FF905465D
:10F7800010F01EF88246002352465946484604F0BF
:10F7900043FE0020BDE8F09FF00E002000E06F4027
:10F7A0002DE9F04F93B00446E08810F0FFFA0746C9
:10F7B00000224E4B10F0F2F8054610F001F8814699
:10F7C0004B48D0F84802618848434FF6FF7190FBE0
:10F7D000F1F000F0FF0AA0880EF0A8FA0590208949
:10F7E00010F0E4FA07460022404B10F0D7F8054627
:10F7F0000FF0E6FF0C90608910F0D8FA074600225F
:10F800003A4B10F0CBF805460FF0DAFF0D90A089C7
:10F8100010F0CCFA07460022344B10F0BFF8054632
:10F820000FF0CEFF0E90E08910F0C0FA07460022DC
:10F830002E4B10F0B3F805460FF0C2FF1190208A4E
:10F8400010F0B4FA05460022284B10F0A7F807463E
:10F850000FF0B6FF12900AA8039010A807C88DE811
:10F8600007000CA80FC806F04BFA08AA50460599E5
:10F87000FFF760FD49464FF07E5011F021F9074631
:10F88000089911F01FF8054648460A9911F01AF830
:10F890000646294610F016FE069049464FF07E5067
:10F8A00011F00EF90746099911F00CF80546484683
:10F8B0000B9911F007F80646294610F003FE079051
:10F8C000208810F073FA05460022084B10F066F805
:10F8D00007460FF075FF83460022594606A800F040
:10F8E00039FB002013B0BDE8F08F0000E0FFEF40CF
:10F8F000F00E00202DE9F04F93B00446E07810F0B0
:10F9000055FA074600224D4B10F048F805460FF017
:10F9100057FF81464A48D0F8480261784843FF21A2
:10F9200090FBF1F000F0FF0AA0780EF04CFA059081
:10F93000207910F03BFA07460022404B10F02EF8D9
:10F9400005460FF03DFF0C90607910F02FFA074646
:10F9500000223A4B10F022F805460FF031FF0D90CF
:10F96000A07910F023FA07460022344B10F016F865
:10F9700005460FF025FF0E90E07910F017FA0746C4
:10F9800000222E4B10F00AF805460FF019FF1190D7
:10F99000207A10F00BFA05460022284B0FF0FEFFEC
:10F9A00007460FF00DFF12900AA8039010A807C891
:10F9B0008DE807000CA80FC806F0A2F908AA504667
:10F9C0000599FFF7B7FC49464FF07E5011F078F8E3
:10F9D0000746089910F076FF054648460A9910F048
:10F9E00071FF0646294610F06DFD069049464FF01E
:10F9F0007E5011F065F80746099910F063FF05463F
:10FA000048460B9910F05EFF0646294610F05AFD55
:10FA10000790207810F0CAF905460022074B0FF036
:10FA2000BDFF07460FF0CCFE83460022594606A8CC
:10FA300000F090FA002013B0BDE8F08F00E06F40B6
:10FA4000F00E00202DE9F84F044689469346002029
:10FA5000009002F0C9FF064610F0ECFE05469D49F5
:10FA600010F09EFD9C490860484610F0FFFC0746D8
:10FA700000229A4B0EF094FD05460FF0A1FE814640
:10FA80009748C0F8009002F0AFFF074610F0D2FE92
:10FA90000646904910F084FD05468F4801682846C7
:10FAA00011F00EF88F4908608F4890F8300290B935
:10FAB0004FF08041206810F005FF20604FF080413A
:10FAC000606810F0FFFE60604FF08041A06810F0A9
:10FAD000F9FEA0600BE04FF08041606910F060FD1E
:10FAE00060614FF08041A06910F05AFDA061D4E937
:10FAF000000110F0E7FC0746A16810F0E3FC0546A2
:10FB0000A16910F0DFFC0646616910F0DBFC82465B
:10FB10000021504610F006FE08D07449484610F007
:10FB2000D1FE0546514610F03BFD8246BBF1000F69
:10FB300006D0BBF1010F64D0BBF1020F7ED193E080
:10FB40005146A06910F0BEFE054610F03BFE684924
:10FB500008805146206810F0B5FE054610F032FED0
:10FB6000634948805146606810F0ACFE054610F0CD
:10FB700029FE5F4988805146A06810F0A3FE054623
:10FB800010F020FE5A49C8805146606910F09AFE74
:10FB9000054610F017FE56490881012000F0AAF82A
:10FBA0005146606910F08EFE054610F00BFE50497C
:10FBB00008805146A06810F085FE054610F002FE50
:10FBC0004B4948805146606810F07CFE054610F0B5
:10FBD000F9FD474988805146206810F073FE0546BC
:10FBE00010F0F0FD4249C8805146A06910F06AFE4D
:10FBF000054610F0E7FD3E490881122000F07AF832
:10FC000000BF5146A06910F05DFE054610F0DAFD18
:10FC1000374908805146206810F054FE054610F020
:10FC2000D1FD334948805146606810F04BFE0546CF
:10FC300010F0C8FD2E498880514600E045E0A068DC
:10FC400010F040FE054610F0BDFD2949C880514620
:10FC5000606910F037FE054610F0B4FD24490881B4
:10FC6000012000F047F831E05146606910F02AFEAB
:10FC7000054610F0A7FD1E4908805146A06810F007
:10FC800021FE054610F09EFD1949488051466068E6
:10FC900010F018FE054610F095FD15498880514674
:10FCA000206810F00FFE054610F08CFD1049C8804A
:10FCB0005146A06910F006FE054610F083FD0C4980
:10FCC0000881122000F016F800E000BF00BFBDE878
:10FCD000F88F000000247449840E00200000F83FD3
:10FCE0008C0E0020880E0020F00E002000FF7F47C1
:10FCF00024A8002030B502460023124CA118002091
:10FD00000DE0114C34F81040241201F810400E4C54
:10FD100014F81040012505EB40054C55401C052802
:10FD2000EFDB0A4C248824128C72084C2478CC72A5
:10FD3000002003E00C5C1C44E3B2401C1028F9DBFB
:10FD40000B5430BD2EB0002024A80020800E0020CF
:10FD50000146302904DB392902DCA1F1300070476B
:10FD6000412904DB462902DCA1F13700F7E76129CC
:10FD700004DB662902DCA1F15700F0E74FF0FF3009
:10FD8000EDE700000420014908707047080D0020CD
:10FD900010B50021024880F84C1206F0C1FD10BDDC
:10FDA000F00E002010B504462246024803C805F0B4
:10FDB00085F810BD0C0D00202DE9FF478EB09A4646
:10FDC00042490EA803F06AF928B141A001F0A1FB55
:10FDD00012B0BDE8F08752463C48109900F0BAF8DE
:10FDE00000B1F5E70CA8404A0390D2E904109269EB
:10FDF000CDE9010200913C480FC805F081FF39A010
:10FE000001F087FB109810F031FB04460D460F9867
:10FE100010F02CFB06460B46CDE90045BDF8381026
:10FE2000324632A001F075FB2849486810F01EFBED
:10FE300004460D462549086810F018FB0646324670
:10FE40000B462FA0CDE9004501F063FB0D9810F0A3
:10FE50000DFB04460D460C9810F008FB0646324692
:10FE60000B462DA0CDE9004501F053FB1E498869E2
:10FE700010F0FCFA04460D461B49486910F0F6FAEA
:10FE800006460F461849886810F0F0FA8046894601
:10FE90001549486810F0EAFACDE90A0112490868E4
:10FEA00010F0E4FACDE90289CDE90467CDE9064511
:10FEB000CDE90801DDE90A01CDE900011CA0DDE979
:10FEC000082301F026FB00BF82E70000A00D002000
:10FED000B1A5BACDB6C8D7AABBBBBAF3C8CEC8BB0A
:10FEE000C3BBD3D00D0A00005C9F002048534928B3
:10FEF00025642C252E32662C252E3266290D0A000B
:10FF0000BCC6CBE3C9ABD7F8B1EA28252E34662CA2
:10FF1000252E3466290D0A00B7B4C0A1C9ABD7F8A5
:10FF2000B1EA28252E34662C252E3466290D0A00C8
:10FF30005247425757435728252E34662C252E34D6
:10FF4000662C252E34662C252E34662C252E346600
:10FF5000290D0A002DE9F04105460F4614460C4ACA
:10FF6000D5E900010BF082FE064616B13046BDE829
:10FF7000F08124B939460648FEF79CFE05E0601E74
:10FF8000C2B23946024804F03DFA0020EFE7000013
:10FF90005C9F002010B53420264908702648274968
:10FFA0000860002441E004EB840101EBC401224A13
:10FFB00002EB810002F01EF804EB840101EBC401A6
:10FFC0001D4A02EB8101086204EB840101EBC401CC
:10FFD00002EB810001F06EFF04EB840101EBC40130
:10FFE000154A02EB8101486204EB840101EBC40174
:10FFF00002EB810001F0A0FF04EB840101EBC401DE
:020000040801F1
:100000000D4A02EB8101C86204EB840101EBC401DB
:1000100002EB810002F022F804EB840101EBC40141
:10002000054A02EB81018862641C02480078844220
:10003000B9DB10BD5C0200206402002060020020D9
:100040002DE9FC5F4FF000092148006800F0020034
:1000500000283AD0002404E01E4830F814008144FF
:10006000641C642CF8DB6420B9FBF0F01A490860CA
:10007000084600680FF09AFE0746184A184B0FF022
:10008000E5FE05460E46174800680FF08FFE07464E
:10009000154A164B0FF0DAFE82462A4633460FF019
:1000A000C1FBCDE900010FF03DFE0B490860084699
:1000B00000680C49086002F0B1FC0D494862044830
:1000C000406840F0020002494860BDE8FC9F000023
:1000D00000000240C4A300203C0E0020AE47E17A9D
:1000E00014AEEF3F400E00207B14AE47E17A843F10
:1000F000F00E00200848006800F0200050B10020F9
:10010000064908700448001D006840F020000249BC
:10011000091D08607047000000040240900E002096
:100120002DE9F04104460E46671C04E06D1CC82D05
:1001300001DDBDE8F0811148006A0028F6D11048C1
:10014000406820F440600E49486000200D49086076
:10015000BE200CF045FA01200B49C1F8A8010C2083
:100160000CF03EFA0648406840F4006004494860DC
:10017000314620460FF056F900BFDAE70000024092
:1001800000100140A80122420000224200B59BB0AD
:10019000FE4890F85C0210286FD2DFE800F06E088D
:1001A0000C10144E6FCDF7F5F4F3F2F1F0EFF848C0
:1001B000FFF7A0FBAEE2F648FFF7C8FAFAE7F4480B
:1001C000FFF714FAF6E7F2480078C0EB0040FF2191
:1001D00090FBF1F0EF490880ED484078C0EB00401B
:1001E000FF2190FBF1F0EB494880E9488078C0EBB3
:1001F0000040FF2190FBF1F0E6498880E448C07898
:10020000C0EB0040FF2190FBF1F0E249C880E048DC
:100210000079C0EB0040FF2190FBF1F0DD4908813F
:10022000DB484079C0EB0040FF2190FBF1F0D94959
:100230004881084605F008FDBCE7D5480078C0EBCA
:100240000040FF2190FBF1F080B2ADF82C00D048C7
:100250004078C0EB004090FBF1F080B2ADF82E008A
:10026000CB488078C0EB004090FBF1F080B2ADF855
:1002700030000BA802F094FF9CE7FCE3C448008820
:100280000012C349097840EA012080B2ADF8540059
:10029000BF4840880012BE49897840EA012080B2F8
:1002A000ADF85600BA4880880012B949097940EA89
:1002B000012080B2ADF85800B548C0880012B4499A
:1002C000897940EA012080B2ADF85A00B04800892F
:1002D0000012AF49097A40EA012080B2ADF85C0013
:1002E000AB4840890012AA49897A40EA012080B2CD
:1002F000ADF85E00A64880890012A549097B40EA56
:10030000012080B2ADF86000A148C0890012A04968
:10031000897B40EA012080B2ADF862009C48008AE7
:1003200000129B49097C40EA012080B2ADF86400CC
:1003300015A8FFF735FA3DE7954800880012944963
:10034000097840EA012080B2ADF8480090488088E2
:1003500000128F49097940EA012080B2ADF84C00C3
:100360008B48408800128A49897840EA012080B28F
:10037000ADF84A0012A8FFF7BDF91BE7E5E3C7E2B5
:100380001FE2C8E19EE07BE040E0FFE78048008894
:1003900000127F49097840EA012080B2ADF83800A8
:1003A0007B48408800127A49897840EA012080B26F
:1003B000ADF83A007648808800127549097940EA1C
:1003C000012080B2ADF83C007148C088001270492D
:1003D000897940EA012080B2ADF83E006C4800897E
:1003E00000126B49097A40EA012080B2ADF8400062
:1003F0006748408900126649897A40EA012080B244
:10040000ADF842000EA8FFF76BF8D3E6604800880D
:1004100000125F49097840EA01205F4908805C4882
:10042000408800125A49897840EA01205A49488098
:100430005748808800125649097940EA01205649F8
:1004400088805348C08800125149897940EA0120C8
:100450005149C8804E48008900124D49097A40EA46
:1004600001204D4908814A48408900124849897A4B
:1004700040EA012048494881084605F0E5FBF0E3E1
:100480004348008800124249097840EA012080B2BE
:10049000ADF82C003E48408800123D49897840EA7A
:1004A000012080B2ADF82E0039488088001238490A
:1004B000097940EA012080B2ADF830000BA802F0C3
:1004C0006FFECEE33248407801900FF06FFC334A64
:1004D000334BCDE902010FF0B9FCCDE906012C4800
:1004E000007803900FF062FCCDE90401DDE90623FA
:1004F0000FF098F9CDE908010FF014FC25490870B8
:100500000846007822490978884202DAFF2021490A
:1005100008701F48C07801900FF048FC1F4A204B1C
:10052000CDE902010FF092FCCDE906011848807870
:1005300003900FF03BFCCDE90401DDE906230FF049
:1005400071F9CDE908010FF0EDFB1249487008463A
:1005500040780F498978884202DAFF200D494870B7
:100560000B4800790B49887009484079C8700848E1
:10057000C07901900FF01AFC084A094BCDE902013D
:100580000FF064FCCDE9060101480BE0F00E0020FD
:10059000809A0020BC9A0020CE9A00209A999999BE
:1005A0009999B93F807903900FF000FCCDE90401DF
:1005B000DDE906230FF036F9CDE908010FF0B2FBB3
:1005C000FE49087108460079FD498979884202DAB6
:1005D000FF20FA490871FA48407A01900FF0E6FBD3
:1005E000F84AF94BCDE902010FF030FCCDE90601E4
:1005F000F348007A03900FF0D9FBCDE90401DDE95F
:1006000006230FF00FF9CDE908010FF08BFBEB4942
:10061000487108464079EA49097A884202DAFF209F
:10062000E6494871E648C07A01900FF0BFFBE54A01
:10063000E54BCDE902010FF009FCCDE90601E048E8
:10064000807A03900FF0B2FBCDE90401DDE90623C7
:100650000FF0E8F8CDE908010FF064FBD749887185
:1006600008468079D649897A884202DAFF20D34940
:100670008871D348407B01900FF098FBD14AD24B50
:10068000CDE902010FF0E2FBCDE90601CC48007B89
:1006900003900FF08BFBCDE90401DDE906230FF099
:1006A000C1F8CDE908010FF03DFBC449C871084607
:1006B000C079C349097B884202DAFF20BF49C8716B
:1006C000BF48C07B01900FF071FBBE4ABE4BCDE925
:1006D00002010FF0BBFBCDE90601B948807B039016
:1006E0000FF064FBCDE90401DDE906230FF09AF871
:1006F000CDE908010FF016FBB04908720846007AF0
:10070000AF49897B884202DAFF20AC490872AB48C6
:10071000FFF7F0F8A5E2AA48407801900FF046FBF9
:10072000A84AA94BCDE902010FF090FBCDE90601E3
:10073000A348007803900FF039FBCDE90401DDE90F
:1007400006230FF06FF8CDE908010FF0EBFA9B4993
:100750000870084600789A490978884202DAFF2032
:10076000964908709648C07801900FF01FFB954A93
:10077000954BCDE902010FF069FBCDE906019048E8
:10078000807803900FF012FBCDE90401DDE9062328
:100790000FF048F8CDE908010FF0C4FA8749487016
:1007A0000846407886498978884202DAFF208349E2
:1007B000487083480079814988700846FEF7C6FF73
:1007C0004FE27F48407801900FF0F0FA7D4A7E4B6F
:1007D000CDE902010FF03AFBCDE906017848007837
:1007E00003900FF0E3FACDE90401DDE906230FF0F1
:1007F00019F8CDE908010FF095FA7049087008461C
:1008000000786F490978884202DAFF206B49087046
:100810006B48C07801900FF0C9FA6A4A6A4BCDE97B
:1008200002010FF013FBCDE90601654880780390C3
:100830000FF0BCFACDE90401DDE906230EF0F2FF6A
:10084000CDE908010FF06EFA5C494870084640781F
:100850005B498978884202DAFF2058494870584835
:1008600000795649887056484079C8705448C07914
:1008700001900FF09BFA534A534BCDE902010FF060
:10088000E5FACDE906014E48807903900FF08EFA23
:10089000CDE90401DDE906230EF0C4FFCDE908012E
:1008A0000FF040FA454908710846007944498979B2
:1008B000884202DAFF20414908714148407A01909C
:1008C0000FF074FA3F4A404BCDE902010FF0BEFA37
:1008D000CDE906013A48007A03900FF067FACDE9B6
:1008E0000401DDE906230EF09DFFCDE908010FF0BC
:1008F00019FA32494871084640793149097A8842E3
:1009000002DAFF202D4948712C48FEF76FFEA8E15E
:100910002B48407800EB002001900FF030FA294A74
:10092000294BCDE902010FF091FACDE906012448E7
:10093000007800EB002003900FF021FACDE90401CC
:10094000DDE906230EF06EFFCDE908010FF0EAF9AC
:100950000A900A98B0F5803F04D34FF6FF7017490C
:10096000088002E015490A9808801548C07800EB15
:10097000002001900FF003FA124A134BCDE9020157
:100980000FF064FACDE906010D48807800EB0020F5
:1009900003900FF0F4F9CDE90401DDE906230EF030
:1009A00041FFCDE908010FF0BDF90A900A98B0F5B2
:1009B000803F0DD34FF6FF70004907E0BC9A00203E
:1009C000809A00209A9999999999B93F488002E0B4
:1009D000A5490A984880A548407900EB002001907D
:1009E0000FF0CDF9A24AA34BCDE902010FF02EFA88
:1009F000CDE906019D48007900EB002003900FF03F
:100A0000BEF9CDE90401DDE906230EF00BFFCDE9C7
:100A100008010FF087F90A900A98B0F5803F04D3D7
:100A20004FF6FF709049888002E08F490A988880CD
:100A30008E48C07900EB002001900FF0A0F98C4A9D
:100A40008C4BCDE902010FF001FACDE90601874890
:100A5000807900EB002003900FF091F9CDE90401BB
:100A6000DDE906230EF0DEFECDE908010FF05AF9AC
:100A70000A900A9800E0F3E0B0F5803F04D34FF607
:100A8000FF707949C88002E077490A98C8807748A2
:100A9000407A00EB002001900FF071F9744A754B19
:100AA000CDE902010FF0D2F9CDE906016F48007AD5
:100AB00000EB002003900FF062F9CDE90401DDE9BD
:100AC00006230EF0AFFECDE908010FF02BF90A90D6
:100AD0000A98B0F5803F04D34FF6FF706249088151
:100AE00002E061490A9808816048C07A00EB002062
:100AF00001900FF044F95E4A5E4BCDE902010FF020
:100B0000A5F9CDE906015948807A00EB0020039051
:100B10000FF035F9CDE90401DDE906230EF082FE80
:100B2000CDE908010FF0FEF80A900A98B0F5803F71
:100B300004D34FF6FF704C49488102E04A490A98B5
:100B40004881494805F080F88BE04848407800EB40
:100B5000002001900FF013F9454A464BCDE9020100
:100B60000FF074F9CDE906014048007800EB002051
:100B700003900FF004F9CDE90401DDE906230EF03E
:100B800051FECDE908010FF0CDF80A900A98B0F5B2
:100B9000803F04D34FF6FF703349088002E03249AA
:100BA0000A9808803148C07800EB002001900FF0CF
:100BB000E6F82F4A2F4BCDE902010FF047F9CDE9B6
:100BC00006012A48807800EB002003900FF0D7F848
:100BD000CDE90401DDE906230EF024FECDE908018C
:100BE0000FF0A0F80A900A98B0F5803F04D34FF6B2
:100BF000FF701D49488002E01B490A9848801B4845
:100C0000407900EB002001900FF0B9F8184A194B19
:100C1000CDE902010FF01AF9CDE906011348007978
:100C200000EB002003900FF0AAF8CDE90401DDE904
:100C300006230EF0F7FDCDE908010FF073F80A90D6
:100C40000A98B0F5803F04D34FF6FF7006498880BC
:100C500002E005490A988880034802F0A1FA00E002
:100C600000BF00BF1BB000BDBC9A0020809A0020CE
:100C70009A9999999999B93F10B5204890F8200010
:100C800040B100201D4981F82000FFF77FFAC820FD
:100C90001B4908701A480078002804DD18480078BD
:100CA000401E1749087016480078A8B1134890F8FC
:100CB000210008BB0120114981F8210081F82200A0
:100CC000084690F8300281F8230000F0FFFB052170
:100CD0000A4880F830120FE0084890F821000128F7
:100CE0000AD10020054981F82100084690F8231018
:100CF00080F8301201F004FE10BD0000F00E00205C
:100D00004C0D002070B592B00446022600224D48DA
:100D100003C804F0D3F8002510E04EF65B70009095
:100D2000494800EBC50001680391406803460A4644
:100D30000490444803C804F0D2F86D1C022DECDB8B
:100D40004EF65B70414908800020414908804148C7
:100D500090F84C0200283AD03F4802783FA105A8FD
:100D6000FBF746FF002005A910220192CDE90221E0
:100D700004906420009034484088304483B2324864
:100D80000088103082B22F4803C804F001FA3248BC
:100D900000782044431E3048027832A105A8FBF7B2
:100DA00027FF002005A910220192CDE9022104901D
:100DB0006420009024484089304483B2224800894E
:100DC000103082B21F4803C804F0E2F935E022482F
:100DD000027827A105A8FBF70BFF002005A9102228
:100DE0000192CDE9022104906420009016484088C9
:100DF000304483B214480088103082B2114803C8CE
:100E000004F0C6F9144800782044431E12480278C2
:100E100019A105A8FBF7ECFE05A810210122CDE9D8
:100E200000210290084881680391C06803460A4681
:100E30000490044803C804F033FA01F067F912B0D3
:100E400070BD00000C0D0020841700202A0D00202A
:100E5000280D0020F00E0020FB0D002041444452DC
:100E60003A25640043483A25642D256400000000BB
:100E7000B5D8D6B73A256400CDA8B5C03A25642DBB
:100E8000256400002DE9F04786B04E4890F85C02DA
:100E9000102836D2DFE800F035080B0E1114171AAF
:100EA0001D202326292C2F324FF00C0A2AE04FF068
:100EB000070A27E04FF00A0A24E04FF0090A21E070
:100EC0004FF0070A1EE04FF0120A1BE04FF00A0A2B
:100ED00018E04FF0100A15E04FF00E0A12E04FF044
:100EE0000A0A0FE04FF0120A0CE04FF0090A09E07D
:100EF0004FF00E0A06E04FF00E0A03E04FF00A0A28
:100F000000E000BF00BF3048806800284CD02F4967
:100F10002F4800680FF0A2FD27D22D4800680FF07F
:100F2000A5FA06460F46284988680EF028FF804635
:100F3000284A294B0EF08AFF32463B46CDE9000194
:100F40000EF084FF04460D46244800780EF02EFF74
:100F500022462B46CDE902010FF09EF9CDE90401AE
:100F60000EF0E0FE1D49087006E01748007A1B49A4
:100F70000978081A1949087018480078FF2804D120
:100F8000CAF100001549087008E0CAF580701349DD
:100F90000978884202DA0020104908705046FFF7AD
:100FA000B1FE0020084988600D480068082806D175
:100FB0000A480178034880F85A1203F0ACFD06B0E5
:100FC000BDE8F087F00E0020D8A7002000002042E6
:100FD0006C0E00209A9999999999A93FFB0D0020D0
:100FE0004802002010B5244890F85C02102827D24F
:100FF000DFE800F026080A0C0E10121416181A1C4E
:101000001E2022240C241CE007241AE00A2418E0E5
:10101000092416E0072414E0122412E00A2410E048
:1010200010240EE00E240CE00A240AE0122408E04A
:10103000092406E00E2404E00E2402E00A2400E065
:1010400000BF00BF0C4890F84C0218B10BA002F092
:1010500091F902E00DA002F08DF900BF0E48007872
:101060000028FBD1044890F85A020C490870204629
:10107000FFF748FE10BD0000F00E0020534554203D
:10108000444D58204144445200000000C9E8D6C3F2
:10109000444D58B5D8D6B700900E0020FB0D002067
:1010A0002DE9F04192B005460E4617464FF0020872
:1010B0000022354803C803F001FF002410E04EF67B
:1010C0005B700090314800EBC400016803914068F8
:1010D00003460A4604902C4803C803F000FF641C32
:1010E000032CECDB4CF218602949088000202949C8
:1010F00008802A4628A105A8FBF77AFD1E2027496B
:10110000087005A801211023244ACDE900101F49C9
:101110001D4804F013F932461FA105A8FBF768FD2E
:1011200005A810210122CDE900210290174881680D
:101130000391C06803460A460490134803C804F0AC
:10114000AFF8174890F85A023844431E144890F8F4
:101150005A2214A105A8FBF74BFD05A81021012276
:10116000CDE90021029009480169039140690346D5
:101170000A460490044803C804F092F800F0C6FF41
:1011800012B0BDE8F08100000C0D00208417002093
:101190002A0D0020280D002025730000060E0020D7
:1011A000F00E002043483A25642D2564000000001D
:1011B00010B586488068F8B184488068002805DD4D
:1011C00083480078401E8249087004E08048007817
:1011D000401C7F4908707E4800780F2802DD0F20F0
:1011E0007B4908707A480078012802DA01207849A2
:1011F00008700020754988600022764803C803F013
:101200005DFE754890F84C02002869D0704800785F
:10121000102863D2DFE800F062080E141A20262C92
:1012200032383E444A50565C0C226CA16DA0FFF748
:1012300037FF54E0072269A16EA0FFF731FF4EE0AF
:101240000A2266A16DA0FFF72BFF48E0092263A1E7
:101250006DA0FFF725FF42E0072260A16DA0FFF718
:101260001FFF3CE012226DA16EA0FFF719FF36E0D0
:101270000A226AA16FA0FFF713FF30E0102267A1D6
:101280006EA0FFF70DFF2AE00E226FA170A0FFF7FE
:1012900007FF24E00A2261A170A0FFF701FF1EE012
:1012A000122270A172A0FFF7FBFE18E009226DA1C7
:1012B00073A0FFF7F5FE12E00E226AA172A0FFF7FD
:1012C000EFFE0CE00E2267A172A0FFF7E9FE06E038
:1012D0000A2264A172A0FFF7E3FE00E000BF69E00C
:1012E0003B480078102863D2DFE800F062080E1453
:1012F0001A20262C32383E444A50565C0C226AA1F1
:1013000038A0FFF7CDFE54E0072267A139A0FFF710
:10131000C7FE4EE00A2264A138A0FFF7C1FE48E0F4
:10132000092261A138A0FFF7BBFE42E007225EA1BF
:1013300038A0FFF7B5FE3CE012225CA139A0FFF710
:10134000AFFE36E00A2259A13AA0FFF7A9FE30E02D
:10135000102256A139A0FFF7A3FE2AE00E2255A1C4
:101360003BA0FFF79DFE24E00A2250A13BA0FFF71F
:1013700097FE1EE0122251A13DA0FFF791FE18E05A
:1013800009224EA13EA0FFF78BFE12E00E224BA1D8
:101390003DA0FFF785FE0CE00E2248A13DA0FFF71F
:1013A0007FFE06E00A2245A13DA0FFF779FE00E09E
:1013B00000BF00BF44480068082806D104480178EF
:1013C000054880F85C1203F0A6FB10BDD8A70020EA
:1013D000FA0D00200C0D0020F00E00203842495478
:1013E000530000004D313A43435426524742575769
:1013F000435700004D323A43435400004D333A43C3
:1014000043542648534900004D343A5247425757F7
:10141000435700004D353A485349000031364249A0
:10142000545300004D363A434354265247425757CF
:10143000435700004D373A43435400004D383A4378
:101440004354264853490000313642697473000002
:101450004D393A5247425757435700004D31303AC1
:1014600048534900436F6172652F46696E650000FD
:101470004D31313A43435426524742575743570060
:101480004D31323A434354004D31333A43435426AD
:10149000485349004D31343A524742575743570059
:1014A0004D31353A4853490038CEBB003136CEBBBA
:1014B00000000000313642CEBB000000B4D6B5F7C4
:1014C0002FCFB8B5F70000004802002010B509483A
:1014D00090F84C0218B108A001F04CFF02E009A0FE
:1014E00001F048FF034890F85C0208490870FFF7D4
:1014F0005FFE10BDF00E0020444D58204D4F444576
:1015000000000000444D58C4A3CABD00FA0D0020DD
:101510007047704710B5094890F84C0218B108A000
:1015200001F028FF02E008A001F024FF4EF65B70F6
:10153000FEF738FC00F0EAFD10BD0000F00E0020C0
:1015400044454641554C5400B3F6B3A7C9E8D6C349
:101550000000000008B54EF65B70FEF723FC4EF667
:101560005B700E49088000200D4908800DA01023F3
:10157000002219460090164803F0FDFB154800684C
:10158000082805D14FF40C7213491448FBF7F3FCFB
:101590000CF0DAFF00F0BAFD08BD00002A0D0020B3
:1015A000280D002041726520796F75207375726572
:1015B00020746F20726573746F7265206465666154
:1015C000756C7420706172616D65746572733F0033
:1015D0000C0D00204802002000000020240F0020F5
:1015E00070B501F001FA06460FF024F905460C49E2
:1015F0000EF0D6FF04460B48816920460FF060FAD2
:101600000849C8610CF008FC01F0EEF905460FF03E
:1016100011F9044602490EF0C3FF0249886170BD0A
:10162000002474490C85002070B501F0DDF90646F0
:101630000FF000F905460E490EF0B2FF04460D48C2
:10164000016820460FF03CFA0A4948600A490B48F5
:1016500007F038FD01F0E4FE01F0C6F905460FF091
:10166000E9F8044602490EF09BFF0249086070BD8C
:10167000002474490C85002000170020541100201C
:1016800070B515480068401C13490860084600689A
:101690000A2800DA70BD00200F49086001F0A4F9A3
:1016A00006460FF0C7F805460C490EF079FF0446D0
:1016B0000B48016A20460FF003FA0949486201F01D
:1016C00093F905460FF0B6F8044604490EF068FF9A
:1016D0000349086200BFDDE71C0D002000247449A7
:1016E0000C85002070B501F07FF906460FF0A2F8D6
:1016F00005460D490EF054FF04460C48816820460B
:101700000FF0DEF90949C8600DF048FFFFF7B4FAA1
:1017100001F06AF905460FF08DF8044602490EF013
:101720003FFF0249886070BD002474490C85002089
:1017300070B502F05FFE01F057F905460FF07AF838
:10174000044613490EF02CFF1249886202F093FF01
:10175000114850B11149086002F0D8F800BF104894
:1017600000780028FBD102F085FF01F03DF9064624
:101770000FF060F8054606490EF012FF04460548D2
:10178000816A20460FF09CF90249C86270BD0000D2
:10179000002474490C8500209C1700200C0D0020AB
:1017A000900E002070B501F01FF906460FF042F8C8
:1017B00005460B490EF0F4FE04460A48016920462E
:1017C0000FF07EF90749486101F00EF905460FF068
:1017D00031F8044602490EF0E3FE0249086170BD8B
:1017E000002474490C85002010B51E48007801289B
:1017F00036D1FFF719FF1B48B0F90400022804DBBB
:10180000002018498880FFF76DFF1648B0F90600E0
:10181000052804DB00201349C880FFF7C3FF1148E7
:10182000B0F908000A2804DB00200E490881FFF700
:10183000D7FE0C48B0F90A00142804DB002009493F
:101840004881FFF71DFF0748B0F90C00322804DB80
:10185000002004498881FFF76BFF002001490870D0
:1018600010BD0000FC8400202DE9F04FABB007460E
:101870008B46164600202A900024CDF8A0D0642084
:101880002990394619A80BF00AFD8046B8F1000FDF
:1018900053D100BF22A919A80BF020FE8046DDF825
:1018A000A0909DF891002E2800D1F3E7B8F1000F29
:1018B00002D12898007828B99DF8910000B938E045
:1018C0000DF191094846FFF724FE1EA0FFF721FE07
:1018D0009DF8900000F0100000B1DBE75946484643
:1018E000FBF7D3FA20B918A14846FBF7CEFAF8B1B6
:1018F00004EB840106EB81001421FBF76EFB4846E4
:10190000FBF7D5FA0546142D02DDA5F1140A01E016
:101910004FF0000AA5EB0A0209EB0A0104EB84036D
:1019200006EB8300FBF7E2FA641C0A2C00DB00E004
:10193000B0E700BF0CB904202A902A982BB0BDE86C
:10194000F08F00000D0A00002E43535600000000E7
:1019500010B52248806800F4005058B31F488068D2
:1019600000F4804088B11E48007802281ED11D482E
:101970004068401E1B49486001201B4908701B48F5
:101980004068401C1949486010E01548007801285B
:101990000CD114484068401C12494860012012498B
:1019A000087012484068401C1049486000200C49EB
:1019B00008700DE00DF09AFB0848806800F4804044
:1019C00018B101200649087002E00220044908709D
:1019D0004FF400500649086010BD0000001001409F
:1019E0007E0E0020D8A70020640E0020E4A700206F
:1019F0001404014010B52148006800F0020058B3FB
:101A00001E48006800F0040088B11D4800780228D4
:101A10001ED11C480068401E1A49086001201A495E
:101A200008701A480068401C1849086010E0144803
:101A3000007801280CD113480068401C1149086047
:101A400001201149087011480068401C0F490860C6
:101A500000200B4908700DE00DF048FB07480068B6
:101A600000F0040018B101200549087002E00220CE
:101A70000349087002200649086010BD081801409B
:101A80007C0E0020D8A70020640E0020E4A70020D0
:101A90001404014010B52148006800F0100058B34C
:101AA0001E48006800F0200088B11D480078022818
:101AB0001ED11C488068401E1A49886001201A49BE
:101AC00008701A488068401C1849886010E0144863
:101AD000007801280CD113488068401C11498860A7
:101AE00001201149087011488068401C0F49886026
:101AF00000200B4908700DE00DF0F8FA0748006867
:101B000000F0200018B101200549087002E0022011
:101B10000349087010200649086010BD08180140EC
:101B20007D0E0020D8A70020640E0020E4A700202E
:101B30001404014010B51E48006800F0400068B36E
:101B40001C480068C0EB00401B49898C08441B49B5
:101B5000086008460068582825D3084600681849D8
:101B6000884220D80DF0ACFA16480078164909785A
:101B7000884204D015480068401C14490860124887
:101B800000781049087000200F4908700B48008841
:101B90000F49088000200F49088004E00020054913
:101BA00008600549888440200B49086010BD00008A
:101BB00008140140440E002000100040480E002090
:101BC00040420F00600E00204E0E0020500E0020FC
:101BD000540E00204C0E0020140401400021234923
:101BE0008279002A3AD00A46126803689A430B4663
:101BF0001A600A1D126803689A430B1D1A60027965
:101C000011440A6803681A430A60184A08321268C5
:101C100003689A43154B08331A601A1D126803684B
:101C20009A43124B0C331A604279102A0ED11A1FB4
:101C3000126803681A430D4B08331A601A1D1268A4
:101C400003681A43094B0C331A600DE007494279C7
:101C500011440A6803681A430A6005E002791144D6
:101C60000A6803689A430A60704700000004014054
:101C700010B50121024880F84C1204F051FE10BD4D
:101C8000F00E002008B5184890F84C0218B117A0C3
:101C900001F070FB02E018A001F06CFB4EF65B70E7
:101CA000FEF780F84EF65B70174908800020174950
:101CB0000880174908700C4890F84C0240B115A0F4
:101CC0001023002219460090164803F054F807E04C
:101CD00015A01023002219460090124803F04BF87B
:101CE00000F014FA08BD0000F00E002046414E201E
:101CF0004155544F00000000B7E7C9C8D7D4B6AF6C
:101D0000BFD8D6C6000000002A0D0020280D0020F4
:101D1000FC0D00205365742046414E204155544F20
:101D2000000000000C0D0020B7E7C9C8D7D4B6AF3B
:101D3000B5F7BDDA0000000008B51B4890F84C026A
:101D400018B11AA001F016FB02E01AA001F012FB74
:101D50004EF65B70FEF726F84EF65B701849088069
:101D60000020184908800220174908700E4890F892
:101D70004C0240B115A010230022194600901948CA
:101D800002F0F9FF07E018A0102300221946009086
:101D9000144802F0F0FF00F0B9F91848006808286C
:101DA00001D102F0B8FE08BDF00E002046414E20E1
:101DB000444D5800444D5820BFD8D6C600000000FE
:101DC0002A0D0020280D0020FC0D002046414E2049
:101DD000697320636F6E74726F6C20627920444D5A
:101DE000582E00000C0D0020B7E7C9C8CDA8B9FDDA
:101DF000444D58BFD8D6C6A1A30000004802002019
:101E000008B5184890F84C0218B117A001F0B2FAC2
:101E100002E017A001F0AEFA4EF65B70FDF7C2FFCC
:101E20004EF65B7015490880002015490880012096
:101E3000144908700B4890F84C0240B10AA01023D6
:101E4000002219460090104802F095FF07E00FA00D
:101E500010230022194600900B4802F08CFF00F07E
:101E600055F908BDF00E002046414E204F46460071
:101E7000B7E7C9C8B9D8B1D5000000002A0D0020C5
:101E8000280D0020FC0D00200C0D0020B9D8B1D584
:101E9000B7E7C9C80000000010B504460448048034
:101EA0000120FDF727FF1220FDF724FF10BD0000E1
:101EB000800E002030B504460022052100E0491EB6
:101EC000605C0028FBD0052901D1002030BD28E04E
:101ED00000230CE002EB820000EBC200144D05EB86
:101EE0008000C05CE55CA84200D002E05B1C8B4235
:101EF000F0DD00BF02EB820000EBC2000C4D05EBF1
:101F00008005481C285C01280AD1481C834207D15F
:101F100002EB820000EBC200054D05EB8000D5E727
:101F2000521C044800788242D2DB0020CEE7000039
:101F3000640200205C02002030B503460022052127
:101F400000E0491E585C0028FBD0585C012801D1F4
:101F5000002030BD491C42E0012915D102EB82006E
:101F600000EBC200214D05EB8005481E2D5C481E8C
:101F7000185C401E854231D102EB820000EBC200AA
:101F80001A4D05EB8000E4E700240CE002EB820030
:101F900000EBC200154D05EB8000005D1D5DA84201
:101FA00000D002E0641C8C42F0DB00BF02EB820038
:101FB00000EBC2000D4D05EB8005481E2D5C185C42
:101FC000401E85420AD1481EA04207D102EB820082
:101FD00000EBC200054D05EB8000BAE7521C044837
:101FE00000788242B8DB0020B3E7000064020020E2
:101FF0005C02002030B504460023052100E0491EA4
:10200000605C0028FBD009B9002030BD1CE0002234
:102010000CE003EB830000EBC3000E4D05EB8000EA
:10202000805CA55CA84200D002E0521C8A42F0DB32
:1020300000BF8A4207D103EB830000EBC300054DCC
:1020400005EB8000E1E75B1C034800788342DEDBA0
:102050000020DAE7640200205C02002030B503466D
:102060000022052100E0491E585C0028FBD0491CD5
:1020700042E0012915D102EB820000EBC200214DA4
:1020800005EB8005481E2D5C481E185C401C8542EF
:1020900031D102EB820000EBC2001A4D05EB80004B
:1020A00030BD00240CE002EB820000EBC200154DB5
:1020B00005EB8000005D1D5DA84200D002E0641CBD
:1020C0008C42F0DB00BF02EB820000EBC2000D4D42
:1020D00005EB8005481E2D5C185C401C85420AD12A
:1020E000481EA04207D102EB820000EBC200054D62
:1020F00005EB8000D4E7521C034800788242B8DB2D
:102100000020CDE7640200205C02002010B50348E7
:1021100014210CC80A2001F043FE10BD0C0D002054
:10212000F0B599B00022874803C802F0C7FE4EF60A
:102130005B70854908800020844908801822844902
:1021400006A8FAF718FF00240CE04EF65B7000902A
:1021500006A800EBC4057B48D5E9002303C802F0BC
:10216000BEFE641C032CF0DB7A4890F84C02002879
:1021700070D0784890F8580060B177A01021002204
:10218000CDE9002102906F48DDE9062303C803F082
:1021900087F80BE075A010210022CDE90021029004
:1021A0006848DDE9062303C803F07AF8694890F827
:1021B000590000EB4000714951F8302070A10CA883
:1021C000FAF716FD00200CA910220192CDE9022198
:1021D00004908C200090BDF82200401C83B2BDF812
:1021E0002000103082B2574803C802F0D1FF59488E
:1021F00090F8590000EB4000604901EBC0004068D6
:102200000090BDF82200113082B2BDF82000401CC1
:1022100081B210234B4802F0AEFD4E49C86D5A49B9
:102220000EF050FB07460EF021F905462A460B46F4
:1022300056A10CA8FAF7DCFC0CA810210022CDE96D
:10224000002102903F48DDE90A2303C803F028F883
:102250006FE0FFE73F4890F8580060B14EA01021B2
:102260000022CDE9002102903648DDE9062303C8AB
:1022700003F016F80BE04BA010210022CDE900215D
:1022800002903048DDE9062303C803F009F831481D
:1022900090F8590000EB4000384951F8302038A13F
:1022A0000CA8FAF7A5FC00200CA910220192CDE998
:1022B000022104908C200090BDF82200401C83B2C3
:1022C000BDF82000103082B21E4803C802F060FF43
