:020000040800F2
:10C8000060C50020E1CA0008014E0108FD3301089F
:10C8100095470108A1EE000835B2010800000000AC
:10C82000000000000000000000000000436A010852
:10C830009D15010800000000994E01089D73010834
:10C84000FBCA0008FBCA0008FBCA0008FBCA0008B4
:10C85000FBCA0008FBCA0008FBCA0008811A0108CD
:10C86000FBCA0008FBCA0008211B0108C50001081B
:10C87000FBCA0008FBCA0008FBCA0008FBCA000884
:10C88000FBCA0008FBCA0008FBCA0008FBCA000874
:10C89000FBCA0008FBCA0008FBCA0008C11B01084C
:10C8A000FBCA0008FBCA0008FBCA0008FBCA000854
:10C8B00031740108FBCA000869740108FBCA00084A
:10C8C000FBCA0008FBCA0008FBCA0008FBCA000834
:10C8D000FBCA0008FBCA0008117601082D76010882
:10C8E000DD190108FBCA0008FBCA000800000000AF
:10C8F0000000000000000000000000000000000038
:10C90000000000000000000091740108FBCA00084C
:10C91000FBCA0008FBCA0008B9740108E1740108E9
:10C92000FBCA000879010108FBCA0008FBCA00081D
:10C93000FBCA0008FBCA0008FBCA0008FBCA0008C3
:10C94000FBCA0008FBCA0008FBCA0008894E0108A0
:10C9500000F002F800F0B4F80AA090E8000C82445D
:10C960008344AAF10107DA4501D100F0A9F8AFF23A
:10C97000090EBAE80F0013F0010F18BFFB1A43F0BD
:10C9800001031847D82A0200F82A02000A444FF08F
:10C99000000C10F8013B13F0070408BF10F8014B1E
:10C9A0001D1108BF10F8015B641E05D010F8016B63
:10C9B000641E01F8016BF9D113F0080F1EBF10F8C7
:10C9C000014BAD1C0C1B09D16D1E58BF01F801CBEA
:10C9D000FAD505E014F8016B01F8016B6D1EF9D56D
:10C9E0009142D6D370470000002300240025002682
:10C9F000103A28BF78C1FBD8520728BF30C148BFC2
:10CA00000B6070476E2900F09484702900F0FB875A
:10CA1000662914F07C81652914F07981672914F066
:10CA20007681612914F0758103681B0A28BF41F0E3
:10CA30008001692900F01C81642900F019817529A1
:10CA400000F016816F2900F08887782900F0C787E9
:10CA5000E92900F02387E42900F02087F52900F078
:10CA60001D87EF2900F08587F82900F0C687036845
:10CA7000DB0928BF41F08001632900F0A4867329F7
:10CA800000F0A986E32901F03982F32901F03E8202
:10CA9000002070471FB59DE8030000F077FB01F010
:10CAA00001F804000020002112F026FF401C606005
:10CAB0000020002112F00AFFE0601FBD10B510BD7C
:10CAC00001F012FB1146FFF7E5FF11F057FC01F0F2
:10CAD0003EFB03B4FFF7F2FF03BC01F06FFB000065
:10CAE0000948804709480047FEE7FEE7FEE7FEE702
:10CAF000FEE7FEE7FEE7FEE7FEE7FEE7044805493E
:10CB0000054A064B70470000C573010851C900086B
:10CB100060BB002060C5002060BD002060BD00201B
:10CB200070B5064600F012FB056806F10B0020F018
:10CB30000704B4429CBF002070BD2B466A68BAB19E
:10CB40001068A04210D304F1080188423CBF50682D
:10CB5000586007D35168101941601168091B0160C2
:10CB600058601460101D70BD13465268002AE7D14A
:10CB70002146284600F0F6FA0028DED170BD70B5D7
:10CB80000446051F00F0E2FA0068002C14BF446858
:10CB900070BD002C18BFAC423CBF20466468F8D37F
:10CBA00001680A18AA4218BF456003D12A680546E1
:10CBB0001144016028684119A1421CBF6C6070BD1E
:10CBC0006168696021680844286070BD1CB50C4626
:10CBD000064B7B4469460090204600F0D2FD044697
:10CBE0000020694600F0E0FD20461CBDD30B00008C
:10CBF0000FB41CB5084B06AA7B4469460090059803
:10CC000000F0BFFD04460020694600F0CDFD20463F
:10CC10001CBC5DF814FB0000AD0B000070B50C46A9
:10CC20000546012A05D02878800600D5EA69002348
:10CC300002E0012305E05B1C934202D2E05C002885
:10CC4000F9D1A869E618C01AA861286A18442862B0
:10CC5000284600F0DCFA04E0D5E9012114F8010BC4
:10CC60009047B442F8D3284600F0E7FA70BD0000C0
:10CC70002DE9F0410646002410687529314616A5B5
:10CC800010D000F0EBFA002802DA404213A507E0CA
:10CC900031688A0701D512A502E0490704D511A51C
:10CCA000012401E000F0E3FA00210A2206F1240742
:10CCB00009E0B0FBF2FCB0FBF2F302FB1C003030E9
:10CCC00078541846491C0028F3D123462A4630469A
:10CCD000BDE8F04100F0D4BA000000002D000000D3
:10CCE0002B000000200000002DE9F05F894604467B
:10CCF0004FF0000ADFF874B1FB44C0F820A02046D2
:10CD0000E1688847002874D0252806D0D4E901219D
:10CD10009047206A401C2062F1E700265F462046CB
:10CD2000E16888472028054607DB312D05D27819B0
:10CD300010F8200C08B10643F1E7B00701D526F042
:10CD40000406C4F81CA00027C4F818A02A2D09D096
:10CD500028460EF0B5FD38B304EB8708303DC8F81F
:10CD6000185019E059F8041B204604EB8702916122
:10CD7000E1688847012F054618D1E069002820DACC
:10CD800026F020061DE0D8F8180000EB800005EB27
:10CD900040003038C8F818002046E168884705464A
:10CDA0000EF08EFD0028EED1012F0AD02E2D08D1D5
:10CDB0002046E16888477F1C0546022F46F0200682
:10CDC000C4DBA069002803DA404246F00106A061F6
:10CDD000F00701D026F010066C2D0BD0682D09D07D
:10CDE0004C2D39D06A2D35D0742D35D07A2D33D0D5
:10CDF00016E038E0E1682F4620468847B8420546ED
:10CE000009D16C2F26D04FF48060E168064320469C
:10CE10008847054604E06C2F1AD04FF48070064313
:10CE20000DB3A5F14100192802D8203546F400665B
:10CE30004A462946204626604E46FFF7E3FD80B16C
:10CE400001280BD0F61D26F0070000F1080956E76F
:10CE50004020E4E78020D8E70020D6E706F1040967
:10CE60004DE7284652E7206ABDE8F09FF61C020015
:10CE700070B5064600F06EF90468054630460A2291
:10CE8000002100F0CBFD2C6070BD30B505460B468F
:10CE90002A4613F8014B12F8010B08B1A042F8D052
:10CEA0001CB1002802D06D1CF1E7284630BD40EAD5
:10CEB000010310B59B070FD1042A0DD310C808C970
:10CEC000121F9C42F8D020BA19BA884201D9012019
:10CED00010BD4FF0FF3010BD1AB1D30703D0521C64
:10CEE00007E0002010BD10F8013B11F8014B1B1B9F
:10CEF00007D110F8013B11F8014B1B1B01D1921E09
:10CF0000F1D1184610BD10B5431C02E010F8011B0A
:10CF100071B18107FAD14FF0013202C88C1A8C43EB
:10CF200014EAC211F9D0C01A0A0603D0C01E10BDFF
:10CF3000C01A10BD0A0401D0801E10BD0902FCD029
:10CF4000401E10BD032A40F2308010F0030C00F0A8
:10CF5000158011F8013BBCF1020F624498BF11F833
:10CF600001CB00F8013B38BF11F8013BA2F10402EC
:10CF700098BF00F801CB38BF00F8013B11F0030364
:10CF800000F02580083AC0F0088051F8043B083AC8
:10CF900051F804CBA0E80810F5E7121D5CBF51F86A
:10CFA000043B40F8043BAFF30080D20724BF11F8E4
:10CFB000013B11F801CB48BF11F8012B24BF00F849
:10CFC000013B00F801CB48BF00F8012B704710B5BA
:10CFD000203AC0F00B80B1E81850203AA0E8185071
:10CFE000B1E81850A0E81850BFF4F5AF5FEA027C32
:10CFF00024BFB1E81850A0E8185044BF18C918C0A1
:10D00000BDE810405FEA827C24BF51F8043B40F841
:10D01000043B08BF7047D20728BF31F8023B48BF26
:10D0200011F8012B28BF20F8023B48BF00F8012B64
:10D0300070474FF000020429C0F0128010F0030C7A
:10D0400000F01B80CCF1040CBCF1020F18BF00F8FB
:10D05000012BA8BF20F8022BA1EB0C0100F00DB8AA
:10D060005FEAC17C24BF00F8012B00F8012B48BF08
:10D0700000F8012B70474FF0000200B513469446AC
:10D080009646203922BFA0E80C50A0E80C50B1F120
:10D090002001BFF4F7AF090728BFA0E80C5048BF34
:10D0A0000CC05DF804EB890028BF40F8042B08BFD2
:10D0B000704748BF20F8022B11F0804F18BF00F8CE
:10D0C000012B70474FF0013C50F8042B51F8043B02
:10D0D0009A4221D1A2EB0C03934313EACC1317D14C
:10D0E00050F8042B51F8043B9A4215D1A2EB0C03E3
:10D0F000934313EACC130BD150F8042B51F8043BA3
:10D100009A4209D1A2EB0C03934313EACC13DBD070
:10D110004FF00000704700BFD01A01BAB1FA81F198
:10D1200001F0180122FA01F0CB40C1F12001DBB27D
:10D13000C0B2C01A2CFA01F3D11A914311EAC311FB
:10D14000E6D170477047704770470000004870474D
:10D1500004BB002000487047FCBA002070477047AD
:10D160007047704738B504460A4600206946AFF359
:10D170000080002808BF38BD02460099204600F014
:10D1800095FC012038BD012000F0A6BFF8B5AFF333
:10D190000080054600200C46102000BF0646A81956
:10D1A000A0420DD9324669460020AFF30080070047
:10D1B00008BF00F091FF0098A04218BF0546C419AF
:10D1C000FFF7C4FF05600746F01D20F00700461971
:10D1D000284600F00AF8B44208BFF8BDA21B314649
:10D1E0003868BDE8F84000F061BC00210160C0E98A
:10D1F000011070471020704710B5FFF7ABFF0068B3
:10D2000010BD10B50446FFF7A5FF046010BD70B552
:10D21000044685690068C10601D5302600E0202655
:10D22000C00707D070BDD4E9012130469047206A7D
:10D23000401C20626D1EF6D570BD70B50446856930
:10D240000078C00707D170BDD4E9012120209047A4
:10D25000206A401C20626D1EF6D570BD09684A0523
:10D2600001D540B27047C905FCD500B270470968C6
:10D270004A0501D5C0B27047C905FCD580B27047D8
:10D280002DE9F0470D4699469246044600F12408E0
:10D290000168880604D5E06921F01001216000E0F2
:10D2A0000120A84201DD471B00E00027A1697A198F
:10D2B00002EB0900081AA0612078C00602D42046BB
:10D2C000FFF7A5FF002608E0D4E901211AF80600BF
:10D2D0009047206A401C761C20624E45F4DB207883
:10D2E000C0060AD52046FFF792FF06E0D4E90121E7
:10D2F00030209047206A401C2062381EA7F10107A9
:10D30000F4DC07E0D4E9012118F805009047206A11
:10D31000401C2062281EA5F10105F3DC2046FFF722
:10D320008CFF2078000602D50220BDE8F08701209E
:10D33000FBE711680268006A530501D508700AE02E
:10D34000D30501D5088006E0130603D5C217C1E94D
:10D35000000200E008600120704770472DE9FF4F90
:10D360000C461E464FF0FF378BB0D2E90001DDF8C6
:10D3700060800A908A46C1F30A5505B93D460021EE
:10D3800008464FF00000BAF1000F00F4400005DA43
:10D3900000EB80004FF4400101EA50004FEA905941
:10D3A000B9F1010F00DDB9460A9850EA4A000ED0E3
:10D3B00044F61050A5F2FF3545432F14B8F1000F85
:10D3C0001ED07542291E1EDDC9F100021CE0B8F115
:10D3D000010F4FF0000001D0302103E0F24305E0DF
:10D3E0002154401CB042FBDB304600220021215476
:10D3F0000B99C1F80880C1E900200FB0BDE8F08F9B
:10D40000BD1B6D1CDEE74A4600DA694206A800F043
:10D41000D1FD06AB93E8070003AB83E80700504655
:10D420000A9900F0F1FE8DE80700A0F500501F38C2
:10D4300000900398002D0ADD42F21F014A4608447D
:10D44000002303A90390684601F05AF909E0A0F50A
:10D4500000504A461F38002303A90390684601F094
:10D4600064F98DE807000004000C03D04FF0FF3092
:10D47000410800E01046B8F1000F03D000220092EE
:10D4800015461EE0751E05D400F02AFB30326255A9
:10D490006D1EF9D5B3460122084302D000227F1C3D
:10D4A00004E02078302801D100227F1E002A09974D
:10D4B00084D01DE0112D07DA00F012FB30326255E6
:10D4C0006D1C50EA0102F5D1084302D00098C8B1A2
:10D4D0000EE00021681E05E0235C625C6354225468
:10D4E000401E491C8142F7DBAB46A81B401E099039
:10D4F000002004F80B000B98099AC0F80880C0E9D6
:10D50000002B7AE711264FF0000857E72DE9F04F7E
:10D5100088460446D21D22F0070191B0D1E90001EE
:10D52000CDE90A010DF088FE02460B98C00F01D02C
:10D530002D2007E02068810701D52B2002E0202163
:10D5400001EAC000032A099001D0072A05DB03463F
:10D550004146204600F088FC0BE12078800601D58A
:10D56000E06900E00620B8F1650F814606D0B8F109
:10D57000660F18D0B8F1670F70D131E00020B9F113
:10D58000110F009001DB112301E009F101030AAA48
:10D5900001A90CA8FFF7E2FEDDE90C70002609F1F5
:10D5A0000105834647E001204B4600904FF00047BD
:10D5B0000AAA01A90CA8FFF7D1FEDDE90DB00C996C
:10D5C0005D46002610B909F101000D18B9EB050000
:10D5D00003D4C0F1FF3609F10105A5EB09002BE0EA
:10D5E000B9F1010F01DA4FF001090020B9F1110F73
:10D5F0000090484601DD112300E003460AAA01A974
:10D600000CA8FFF7ABFEDDE90C704D460026834603
:10D61000207800070AD4AB4500DA5D4601A8012D49
:10D6200004DD411911F8011C302907D04F4502DAF9
:10D6300017F1040F04DA012082460FE06D1EEEE7B9
:10D64000002F02DCED1B3E4403E0781CA84200DD05
:10D650007D1CB81B00F1010A4FF00047207800073D
:10D6600003D4AA4501DB4FF0FF3A0021B7F1004F88
:10D670000DF143088DF8431024D002202B23002FF6
:10D6800001DA7F422D230A21021EA0F1010000DCF5
:10D690005FB197FBF1FC97FBF1F201FB1C7C174695
:10D6A0000CF1300C08F801CDEEE7A8F10100037091
:10D6B0002188090501D5452100E06521A0F1010877
:10D6C00000F8011C09980FA9A1EB0807FF1D00B184
:10D6D0000120411901EBEA70A1693844081A401E83
:10D6E000A0612078C00602D42046FFF790FD09987B
:10D6F00028B1D4E901219047206A401C206220789B
:10D70000C00622D52046FFF782FD1EE0002E04DB76
:10D71000B34502DD01A8805D00E03020D4E901219D
:10D720009047206A401C2062761CAAF101005FEA43
:10D73000000A0AD100F0B6F9C0680168405CD4E97B
:10D7400001219047206A401C2062281EA5F1010596
:10D75000DCDC07E0D4E9012118F8010B9047206ACE
:10D76000401C2062381EA7F10107F3DC2046FFF7BA
:10D7700064FD032011B041E601694A1C026108788A
:10D78000704700B58FB0CDE9013100210591054901
:10D790007944CDE9031011466846FFF7A5FA0FB0AA
:10D7A00000BD0000E5FFFFFF0A6802F8010B0A60F8
:10D7B000704710B5436913B1AFF3008001E0FFF784
:10D7C0002DFA012010BD127800F124010A70002208
:10D7D0004A700122EDE711684FF0FF32E9E70000DF
:10D7E0002DE9FF5F15468A460446DFF8AC80F84411
:10D7F0000027D8E900103E46CDE9001010E03AF8C5
:10D8000016106A4602A800F047FC411C07D0217898
:10D81000890603D5E269391891420DD80744761C70
:10D820002078800602D5E069B84205DDAE42E6DB2D
:10D830003AF816000028E2D1A069C01BA06120467A
:10D84000FFF7E5FCD8E90010CDE90010002017E053
:10D850003AF818106A4602A800F01EFCB0F1FF3F2B
:10D8600081460BD000250DF1080B05E0D4E901211C
:10D870001BF8050090476D1C4D45F7D308F10100DA
:10D88000B0428046E4DB206A384420622046FFF73D
:10D89000D4FCBDE8FF9F0000D61202002DE9F04144
:10D8A0008046D21D22F007020025D2E90002F529A8
:10D8B00015A614D0011E72F1000106DA0023D0EB88
:10D8C000030063EB020211A608E0D8F800108B07F2
:10D8D00001D50FA602E0490701D50EA60125114684
:10D8E000002408F1240704E000F0FAF830323A5539
:10D8F000641C50EA0102F7D12B46324621464046CD
:10D90000BDE8F041FFF7BCBC000000002D000000A6
:10D910002B0000002000000030B4002100F124049E
:10D9200008E002F00705D208303542EA4372DB080E
:10D930006554491C52EA0305F3D10468002310A280
:10D94000250707D5A40600D421B1C46901230DA27F
:10D95000641EC46130BCFFF793BC10B50446214679
:10D960001068FFF784FC02462046BDE81040002303
:10D97000D2E7D21D22F00701D1E90023CCE7000055
:10D980000000000030000000F0B40D4601880905D9
:10D9900002D5214C7C4402E01F4C7C440E34002113
:10D9A00000F1240608E002F00F071209E75D42EAE1
:10D9B00003721B097754491C52EA0307F3D102781A
:10D9C0000023120704D5702D06D009B102231134AB
:10D9D0002246F0BCFFF754BC01231034F8E770B5C1
:10D9E00004460D4621461068FFF741FC02462946D1
:10D9F0002046BDE870400023C6E7D21D22F0070391
:10DA0000D3E90023C0E70368126843F020030360F2
:10DA10000823C3610023B7E7381102002DE9F0475E
:10DA200091460F4680460446002614F8015B2DB14E
:10DA300000F030F80068405DC007F6D12B2D02D011
:10DA40002D2D18D0641E4A463946204600F062FA51
:10DA500027B13968A14201D1C7F800804FF0020414
:10DA600071050BD54042002803DDFFF773FB04600E
:10DA7000A007BDE8F08746F48066E4E70028F8DAFE
:10DA8000FFF768FB04606FF00040F2E70048704762
:10DA9000FCBA002010B500F005F8001D10BD00BF55
:10DAA000591E0100004870471CBB00200346406817
:10DAB0008C46002818BF88423CBF03464068F8D314
:10DAC00018681844884207D00CF1030020F00700C2
:10DAD000001D411A521A0146081D0A60FFF74FB88F
:10DAE00030B5B0F10A024FEA900E71F100034EEA30
:10DAF000817EB0EB0E0061EB91014FEA101E4EEA01
:10DB0000017E10EB0E0041EB11114FEA102E4EEA90
:10DB1000016E10EB0E0041EB11214FEA104E4EEA60
:10DB2000014E10EB0E0041EB1141401841F1000194
:10DB30004FEAD00040EA41704FEAD10110EB800576
:10DB40004FEA810444EA907444EB01046D1944EBFC
:10DB50000404521BA3414FF0000348BF0A3200D512
:10DB600030BD401C41F1000130BD00002DE9F04FF7
:10DB700004460D46D21D22F0070089B0D0E9009777
:10DB8000484639460DF058FB0246F80F01D02D23C8
:10DB900007E02068810701D52B2302E0202101EA5C
:10DBA000C0038DF820300BB1012000E00020032AD3
:10DBB000824601D0072A04DB2946204600F054F9AA
:10DBC0003FE12078800601D40D2500E0E569C7F328
:10DBD0000A560D2D49DA00214FEA175B08464FF02F
:10DBE0000000002F00F4400007DA00EB80004FF443
:10DBF000400100EBD07001EA60008115012901DDD0
:10DC00004FF0FF3100224FEA850CBCF1180F06D30C
:10DC10001346ACF118004FF08052C24003E04FF4BD
:10DC2000801323FA0CF30CF10C0CBCF1200F04D37D
:10DC3000ACF1200C09FA0CF001E007FA0CF0002915
:10DC40004FF0004801DD18B90FE00ED140450CD36C
:10DC500019EB02095F4121B9404502D19F4329EAEE
:10DC60000209BBEB175F00D0761C2088000502D5A7
:10DC70007B48784402E07A487844193808AA30236F
:10DC800002F80A30037C0AF10101002E0AF1020AAF
:10DC900053546A4602DC4FF0300101E04FF031018D
:10DCA0004FF001088DF8001002D0A6F2FF3603E015
:10DCB00059EA470100D06B4E002D02DC217809079C
:10DCC00004D54FF002082E218DF80110C446002122
:10DCD0000BE0C7F303433F01C35C491C6D1E02F810
:10DCE0000830052908F1010801DA002DF1DC0021D6
:10DCF0000CE000EB1973491C1B786D1E082902F813
:10DD000008304FEA091908F1010801DA002DF0DCAA
:10DD100021688B0602D516E0A8F10108E04505DD73
:10DD200002EB080313F8013C302BF5D0B8F1000FDB
:10DD300009DD02EB080313F8013C2E2B03D1090780
:10DD400001D4A8F10108002D05DD3E2102F80810DC
:10DD50006D1E08F10108407C002E02F8080008F151
:10DD6000010804DA2D20764202F8080002E02B2098
:10DD700002F808000A214FF47A70864208F101087F
:10DD80000BDB96FBF0F3303302F8083096FBF0F330
:10DD900008F1010800FB136601E0642E0CDB64202F
:10DDA00096FBF0F3303302F8083096FBF0F308F1FD
:10DDB000010800FB136601E00A2E06DB96FBF1F07A
:10DDC000303002F8080008F1010896FBF1F001FB81
:10DDD0001060303002F80800A16908F1010808EB72
:10DDE000050202EB0A00081AA0612078C00602D4DE
:10DDF0002046FFF70CFA216A08AE01EB0A00206208
:10DE000004E0D4E9012116F8010B9047BAF1010AA8
:10DE1000F7D22078C00602D52046FFF7F8F96E4603
:10DE200009E016F8010B3E280FD0D4E901219047F4
:10DE3000206A401C2062B8F10108F2D22046FFF7A8
:10DE4000FCF909B00320BDE8F08F206A2844206265
:10DE500003E0D4E90121302090476D1EEBD3F8E7B1
:10DE6000BD0F020002FCFFFF2DE9F0411F460446F2
:10DE700003260168072A01F4006004DB08B116A537
:10DE800005E016A503E008B115A500E015A521F0F1
:10DE900010002060A069C01EA0610FB1401EA061EB
:10DEA0002046FFF7B4F94FB1D4E901213846904735
:10DEB000206A401C2062C01C206206E0206AFAE74B
:10DEC000D4E9012115F8010B9047761EF8D22046BF
:10DED000FFF7B3F9BDE8F0814E414E006E616E0070
:10DEE000494E4600696E660010B5436913B1AFF341
:10DEF000008001E0FFF774FC012010BD128800F1E2
:10DF0000240182840022C2840122EDE711684FF0CF
:10DF1000FF32E9E72DE9F05F824615468B46002780
:10DF20000AF10104B9460078302801D09DB113E010
:10DF300014F8010B0127782803D0582801D045B1E7
:10DF40000AE00DB1102D07D1002714F8010B1025A0
:10DF500002E0082500E00A250026B0460EE005FB99
:10DF6000080005FB06F101271FFA80F801EB1046B7
:10DF7000B6F5803F00D3B94614F8010B294600F0EE
:10DF8000D8F80028EBDABBF1000F05D00FB1641E02
:10DF900000E05446CBF80040B9F1000F06D0FFF77F
:10DFA000D9F802210160C81EBDE8F09F48EA06408A
:10DFB000FAE700002DE9F047814616468AB0354859
:10DFC00078440DC88DE80D0032487844801C03ACBD
:10DFD0000DC884E80D0041F69B300844372190FBC2
:10DFE000F1F290FBF1F5A5F1800501FB12041B3C59
:10DFF00002D56442012000E00020DFF898A08046AE
:10E000000027FA44AAF1BE0A0EE0E0070AD0324621
:10E01000684607EB470101230AEB810100F085FB0D
:10E020008DE8070064107F1C002CEED1194F7F444F
:10E03000AE3F19E0E80715D007EB04100DF1180A00
:10E0400090E80E008AE80E00C068F04201D19819ED
:10E0500008903246012306A903A800F066FB03AB33
:10E0600083E807006D10641C002DE3D14FF001031D
:10E0700032466946B8F1000F03A802D000F040FB19
:10E0800001E000F052FBC9E90001C9F808200AB01C
:10E09000BDE8F087000D020070B516460C46054637
:10E0A000FFF7F8FC036893F80101012806D0FF2C64
:10E0B0000FD8185D68B101202C7070BDD3F807012E
:10E0C0003246214603F2071303442846BDE8704058
:10E0D00018474FF0FF3070BD10B500F047F8BDE8AD
:10E0E000104000F03DB870477546FFF7CFFCAE46D4
:10E0F00005006946534620F00700854618B020B554
:10E10000FEF7FCFCBDE820404FF000064FF0000792
:10E110004FF000084FF0000B21F00701AC46ACE8CF
:10E12000C009ACE8C009ACE8C009ACE8C0098D463C
:10E1300070473A2800D2303820F02002412A01D31B
:10E14000A2F13700884201D34FF0FF30704710B57D
:10E150000446AFF300802046BDE81040FEF7B9BC8E
:10E16000002801D000F02AB87047000010B501283F
:10E1700005D0002103A000F027F8012010BD09A15F
:10E18000F8E7000053494752544D454D3A204F752A
:10E1900074206F662068656170206D656D6F72799F
:10E1A000000000003A2048656170206D656D6F7257
:10E1B0007920636F7272757074656400014918206C
:10E1C000ABBEFEE72600020070B505460C460A20ED
:10E1D00000E06D1C00F011F835B128780028F8D166
:10E1E00002E0641C00F009F814B120780028F8D18E
:10E1F000BDE870400A20AFF3008008B569468DF88D
:10E2000000000320ABBE08BD5FEA400C08BF91F0E0
:10E21000000F4FEA8C234FEAC12243EA51514FEAE3
:10E220001C5018BF00F5F0404FEA300018BF41F015
:10E2300000415FEA6C5C00F02980BCF1FF3F08BF41
:10E2400040F080407047130C06BF12044FF0100CD2
:10E250004FF0000C130E04BF12020CF1080C130F48
:10E2600004BF12010CF1040C930F04BF92000CF1D7
:10E27000020CD30F04BF52000CF1010C11464FF0F9
:10E280000002A0F11F00A0EB0C00704711F0004F3E
:10E2900008BF704731F000413FF4D5AF0B0C06BF0B
:10E2A00009044FF0100C4FF0000C0B0E04BF0902D4
:10E2B0000CF1080C0B0F04BF09010CF1040C8B0FBF
:10E2C00004BF89000CF1020CCB0F04BF49000CF114
:10E2D000010CCCF12003A0EB0C0022FA03F302FAAC
:10E2E0000CF241EA030100F10100704720F07F4C7D
:10E2F00080EA030023F07F47ACEB070303F57C5370
:10E3000000F0004003F1FF032DE980494FEA154B6F
:10E3100009B44FEA144325EA0B4E24EA03480FF2EE
:10E32000042606EB132749083E785FEA320203FB16
:10E330000667C7F5000707FB06F64FEA54374FEAB2
:10E34000D64606F1020607FB066CCCF1005C4FEAEC
:10E350001C472CEA074C07FB06F40CFB06F504EB04
:10E3600015464FEA961634BF00204FF000404FEAA2
:10E37000D13706FB07FC4FEA1C4C0CFB0BF7D21BFA
:10E3800003FB0CF761EB07010CFB0EF7B0EB07404A
:10E3900072EB17420CFB08F734BFA2EB0742B2EB5B
:10E3A000074261EB17414FEA0C444FEA910706FB25
:10E3B00007FC4FEA1C4C0CFB0BF7B0EBC74072EBB1
:10E3C000573203FB0CF734BFA2EBC742B2EBC74294
:10E3D00061EB57310CFB0EF7B0EBC70072EB5772D5
:10E3E0000CFB08F734BFA2EBC702B2EBC70261EB2C
:10E3F0005771039F4FEA816141EA921104EBCC040B
:10E400004FEAD1374FEA826206FB07FC42EA9012DC
:10E410004FEA80604FEA1C4C0CFB0BF7D21B03FB4E
:10E420000CF761EB07010CFB0EF7B0EB074072EB4A
:10E4300017420CFB08F734BFA2EB0742B2EB0742CE
:10E4400061EB17414FEA8C554FEA910704EB9C248E
:10E4500006FB07FC4FEA1C4C0CFB0BF7B0EBC7406C
:10E4600072EB573203FB0CF734BFA2EBC742B2EB9F
:10E47000C74261EB57310CFB0EF7B0EBC70072EBF4
:10E4800057720CFB08F734BFA2EBC702B2EBC7020E
:10E4900061EB577115EB4C254FEA816141EA92110E
:10E4A0004FEA82624FEAD13742EA901206FB07FC3C
:10E4B00044F100044FEA80604FEA1C4C0CFB0BF760
:10E4C000D21B03FB0CF761EB07010CFB0EF7B0EB63
:10E4D000074072EB17420CFB08F734BFA2EB074270
:10E4E000B2EB074261EB174115EB1C154FEA813186
:10E4F00041EA92414FEA823242EA90424FEA80304A
:10E500004FEA0C7644F1000448EA03434EEA0B4814
:10E510004FF0000EB2EB080C71EB030724BF62460C
:10E5200039464EEB0E0E4FF0000B00185241494198
:10E530004BEB0B0BB2EB080C71EB03077BF1000B01
:10E5400024BF624639464EEB0E0E4FF0000B00180A
:10E55000524149414BEB0B0BB2EB080C71EB03073B
:10E560007BF1000B24BF624639464EEB0E0E51EA9A
:10E57000020718BF46F0010616EB0E7655F10002B1
:10E5800054F1000103D5BDE88901BDE80088BDE86C
:10E590008901BDE80048B619524141EB0101A3F1E0
:10E5A0000103704780807F7E7D7C7B7A79787776E7
:10E5B00076757473727171706F6E6E6D6C6C6B6A60
:10E5C0006A696868676666656464636362616160FE
:10E5D000605F5F5E5E5D5D5C5C5B5B5A5A5959587B
:10E5E00058575756565555555454535352525251E5
:10E5F000515050504F4F4F4E4E4D4D4D4C4C4C4B3B
:10E600004B4B4A4A4A494949484848474747474681
:10E6100046464545454444444443434343424242BD
:10E6200042414141002B9C4630D477002BD01CB591
:10E630004FEA370703B44FF010004FF01001BAF162
:10E64000000F06D0BCF1000FDCBF40F0080040F026
:10E6500008014FF000000FBCBDE810400BF1010BAA
:10E66000BBF1010F08BF5FEA170722BF12F10102D9
:10E6700011F101014FF0004143F1000300F00040AF
:10E6800043EA00007047F9D35708D0E746EA064648
:10E6900013F1400F4FEA16461FDD13F1200FDFBFC5
:10E6A00016430A46002120335B42BED0C3F1200747
:10E6B00046EA064602FA07F74FEA164646EA070612
:10E6C000C3F1200722FA03F201FA07F721FA03F156
:10E6D0004FF0000342EA0702A7E746EA020646EACD
:10E6E00006464FEA164646EA0106BCBF46EA06461B
:10E6F000360C4FF000034FF000024FF0000194E79A
:10E700002DE9804C9A46934670B491E8380007C8CA
:10E7100031EA400C48BF34EA430C03D5FFF7E6FD6D
:10E72000FFF780FFF0BCBDE8008C2DE9804C9A46D5
:10E73000934670B491E8380007C810F0804F08BFC6
:10E7400013F0804F03D100F005F8FFF76BFFF0BC2A
:10E75000BDE8008C20F07F4780EA030023F07F4C67
:10E7600007EB0C03A3F57C5300F00040A3F1FE037C
:10E7700092F0000F00F0B38095F0000F00F077806A
:10E780002DE901494FEA11404FEA144621EA0048B9
:10E7900000FB06FC24EA064708FB06F607FB08F820
:10E7A00000FB07F718EB06484CEB164C4FEA124BF0
:10E7B00018EB07484FEA15464CEB174022EA0B4E80
:10E7C0000BFB06FC25EA06470EFB06F607FB0EFED2
:10E7D0000BFB07F71EEB064E4CEB164C4FF00006FA
:10E7E0001EEB074E4CEB174B18EB0B0840F10000EB
:10E7F00018EB0E0B58EB000840F100008F1A4FF099
:10E8000000013CBFC943661B14BFB5EB040C0021DB
:10E810003CBFC943F61B4FEA17444EEA8E0E27EA67
:10E8200004454FEA1C4704FB07622CEA074C05FB32
:10E8300007F70CFB05F604FB0CFC16EB074642EB56
:10E84000174216EB0C4642EB1C421BEB060658EB3C
:10E850000202414146EA9E0601D5BDE80189B6198A
:10E86000524141EB0101A3F10103BDE801894FEAE7
:10E8700014454FEA114724EA054621EA074C05FBF7
:10E8800007F406FB07F70CFB06F105FB0CFC11EB8C
:10E89000074144EB17444FEA124711EB0C4144EB9C
:10E8A0001C4422EA074C05FB07F206FB07F70CFBAA
:10E8B00006F605FB0CFC16EB074642EB174216EB7F
:10E8C0000C4642EB1C456A1854F1000148BF7047E2
:10E8D000B619524141EB0101A3F10103704795F0D4
:10E8E000000F37D04FEA11424FEA144721EA02469F
:10E8F00024EA074C02FB07F106FB07F70CFB06F4C2
:10E9000002FB0CFC14EB074441EB17414FEA15479F
:10E9100014EB0C4441EB1C4125EA074C02FB07F5C4
:10E9200006FB07F70CFB06F602FB0CFC16EB074692
:10E9300045EB174516EB0C4645EB1C42121951F1FD
:10E94000000148BF7047B619524141EB0101A3F1E4
:10E95000010370474FEA14454FEA114724EA054680
:10E9600021EA074C05FB07F106FB07F70CFB06F253
:10E970004FF0000605FB0CFC12EB074241EB174180
:10E9800012EB0C4251EB1C4148BF7047921841EB0F
:10E990000101A3F10103704700B587B001214802CE
:10E9A00006F004FF0121084606F0D0FE4FF40040B7
:10E9B00006F0C0FE364800F089F81020ADF81800C7
:10E9C00000208DF81B0002208DF81A0006A931489E
:10E9D00003F052FE0020019001208DF808008DF810
:10E9E00009004FF4602003900020049001208DF86E
:10E9F000140001A9264800F0ABF8072301220421E6
:10EA0000234800F0CDF80121214800F054F80121FD
:10EA10001F4800F045F81E4800F01EF900BF1C48D2
:10EA200000F08CF80028FAD1194800F025F900BF51
:10EA3000174800F079F80028FAD10B208DF8000073
:10EA400003208DF8010002208DF8020001208DF8CE
:10EA50000300684606F0D6F90D484C300E490861AF
:10EA60000E4848614FF4AD5088606420C860084685
:10EA7000806840F0010088600846806840F002002D
:10EA800088600121024800F0ECF807B000BD0000EA
:10EA9000002401400008014000000240F4A50020CD
:10EAA00021B1826842F00102826003E0826822F0B4
:10EAB00001028260704721B1826842F480728260F4
:10EAC00003E0826822F480728260704710B50446C9
:10EAD0001248844208D10121401506F077FE00213A
:10EAE000601506F073FE17E00D48844208D101213D
:10EAF000001506F06BFE0021201506F067FE0BE006
:10EB00000848844208D10121C80306F05FFE0021B5
:10EB10004FF4004006F05AFE10BD000000240140F2
:10EB200000280140003C0140014600208A6802F0B4
:10EB300004020AB1012000E00020704701460020D5
:10EB40008A6802F008020AB1012000E00020704744
:10EB500030B502460020002350680F4C20400D794C
:10EB60000C6844EA05242043506090680B4C204018
:10EB7000D1E902542C434D7944EA45042043906086
:10EB8000D06A20F470000C7C641EE4B2234340EA97
:10EB90000350D06230BD0000FFFEF0FFFDF7F1FF33
:10EBA000F0B504460D4600200021092D11DDE06876
:10EBB000A5F10A0606EB4607072606FA07F1884381
:10EBC000A5F10A0606EB460603FA06F10843E060E3
:10EBD0000CE0206905EB4507072606FA07F1884394
:10EBE00005EB450603FA06F108432061072A0FDA10
:10EBF000606B561E06EB86071F2606FA07F1884350
:10EC0000561E06EB860605FA06F10843606322E00D
:10EC10000D2A0FDA206BD61F06EB86071F2606FA91
:10EC200007F18843D61F06EB860605FA06F108436E
:10EC3000206310E0E06AA2F10D0606EB86071F26AE
:10EC400006FA07F18843A2F10D0606EB860605FADF
:10EC500006F10843E062F0BD816841F0080181607F
:10EC6000704721B1826842F4A002826003E08268AA
:10EC700022F4A00282607047816841F00401816043
:10EC800070472DE9F04104460D4616461F46641CA8
:10EC9000AD1C761CBF1C2A2005F016FBC4F3072010
:10ECA00005F0FAFAE0B205F0F7FAC6F3072005F02E
:10ECB000F3FAF0B205F0F0FA2B2005F005FBC5F3EE
:10ECC000072005F0E9FAE8B205F0E6FAC7F30720F5
:10ECD00005F0E2FAF8B205F0DFFA2C2005F0F4FABC
:10ECE000BDE8F08110B5002404E00020064921F8B9
:10ECF0001400641C052CF8DB012001F03DF8122003
:10ED000001F03AF810BD000054AA002070B5044686
:10ED10000D4600222946204600F0C0FE70BD0000CE
:10ED200070B505460C4608480560204600F00EF810
:10ED300000BF054800680028FBD100214FF080404B
:10ED400008F0EDFB70BD0000400E00203EB504460B
:10ED500000214FF0804008F0E2FB002201218807EB
:10ED600008F0FAFB022C03D10B20ADF8040005E0FB
:10ED7000012C03D142F6DF60ADF804000520ADF8A8
:10ED800000000020ADF80600ADF8020069464FF023
:10ED9000804008F0EBFB0121880708F0BDFB012152
:10EDA000880708F0ADFB01221146900708F0D4FB5C
:10EDB0000121880708F0B3FB3EBD0000F0B5ADB0FF
:10EDC0000446012701A82B9064202C9021461CA802
:10EDD0000EF0FFFA0546002D52D100BF25A91CA850
:10EDE0000EF016FC05462B9E9DF89D002E2800D1A6
:10EDF000F4E715B92B98007828B99DF89D0000B963
:10EE000039E00DF19D069DF89C0000F0100000B166
:10EE1000E4E7304602F0C3FB1AA002F0C0FB1AA1DF
:10EE20003046FEF74FF928BB012231461A480EF052
:10EE300007FA0546042118480EF00BF91AAB042214
:10EE40001BA915480EF0FBFA1B9800F07F40B0F1AB
:10EE5000006F00D0C2E700210F480EF0FAF800273B
:10EE60000D480EF0EBF801210C4880F82A103846C6
:10EE70002DB0F0BDB2E700BF0221084880F82A108B
:10EE80003846F5E70D0A000066696C6D67656172CA
:10EE90003030312E62696E001C9D0020F00E002083
:10EEA00000BFFEE72DE9F0418AB0022500226E483E
:10EEB00003C806F095F8002410E04EF65B70009051
:10EEC0006A4800EBC40001680491406803460A46A2
:10EED0000590654803C806F094F8641C032CECDB2D
:10EEE0004EF65B70624908800020624908806248E3
:10EEF000D0F8440200EB8000604911F820105E4811
:10EF000080F83C1290F84C0250B15B4890F83C02FB
:10EF1000642100FB01F25AA106A8FDF769FE09E091
:10EF2000554890F83C02642100FB01F256A106A866
:10EF3000FDF75EFE002006A910220192CDE9022114
:10EF400004906420009049484088284483B2474890
:10EF50000088103082B2444803C806F0ABF90020A4
:10EF60000690079008900990434890F84C0238B1F9
:10EF7000414848A1D0F8382206A8FDF739FE06E03E
:10EF80003D4846A1D0F8382206A8FDF731FE002002
:10EF900006A910220192CDE902210490642000907C
:10EFA00032484089284483B230480089103082B208
:10EFB0002D4803C806F07EF90020069007900890BF
:10EFC00009902D4890F84C0280B12B49D1F84002AD
:10EFD000344911F029FD804611F0FAFA064632460E
:10EFE0000B4631A106A8FDF703FE1FE02249D1F828
:10EFF000400211F0EDFA064600222E4B10F09CFF65
:10F0000010D21D49D1F84002264911F00DFD80466D
:10F0100011F0DEFA064632460B4627A106A8FDF798
:10F02000E7FD03E028A106A8FDF7E2FD002006A900
:10F0300010220192CDE902210490642000900B4837
:10F04000408A284483B20948008A103082B20648B8
:10F0500003C806F02FF9044814210CC80A2004F054
:10F0600031FF0AB0BDE8F0810C0D002084170020AC
:10F070002A0D0020280D0020F00E0020583E020826
:10F080004B766E3A25644B00C9ABCEC23A25644B31
:10F090000000000047726E3A25640000C2CCC6AB87
:10F0A0003A2564000000C84244696D3A25302E318B
:10F0B000662525000000F03FC1C1B6C83A25302EB4
:10F0C0003166252500000000C1C1B6C83A31303094
:10F0D0002525000010B50E4890F84C0218B10DA07F
:10F0E00004F08EF902E00EA004F08AF9084BD3F880
:10F0F0004022D3F8381293F84402002305F01EFA98
:10F10000FFF7D0FE0021024880F8301210BD000049
:10F11000F00E0020434354204D4F444500000000B2
:10F12000434354C4A3CABD002DE9FF5F8B48006868
:10F130008A4949680843894989680843002874D086
:10F140008648006808B38648D0F8441283480068AF
:10F15000091A8348C0F84412D0F84412D0F8480283
:10F16000401E814205DD7E48D0F84812491EC0F895
:10F1700044127B48D0F84402002803DA0021784882
:10F18000C0F844120020754908607448406800289F
:10F190005AD074497448006811F012FD2FD2734898
:10F1A0000078401C714908706F48006811F010FA2F
:10F1B000CDE900016949486810F093FE80466C4A29
:10F1C0006C4B10F0F5FE0646DDE9002310F0F0FE72
:10F1D00004460D466249D1F8380210F082FE2246FC
:10F1E0002B46CDE9020111F009F9824610F01CFE10
:10F1F0005B49C1F8380200205C4908700BE05848B0
:10F20000D0F8380255494968411A5548C0F83812B3
:10F210000020564908705248D0F83802642805DDAD
:10F2200064214F48C0F838120BE08FE04C48D0F80A
:10F23000380210F1640F04DA6FF063014848C0F837
:10F24000381200204549486044488068002871D041
:10F2500049494548006811F0B3FC30D24348007872
:10F26000401C42490870002008703F48006811F0B7
:10F27000AFF906460F463949886810F032FE8046DD
:10F280003E4A3F4B10F094FE32463B46CDE900012A
:10F2900010F08EFE04460D463149D1F8400211F0BF
:10F2A00097F9824622462B4611F0A8F8CDE90201D3
:10F2B00010F038FB01462A48C0F840121EE000203A
:10F2C0002A4908702549886810F00BFE80462B4AB1
:10F2D0002C4B10F06DFE04460D462149D1F840023A
:10F2E00011F076F9064622462B4611F087F8824641
:10F2F00010F018FB01461A48C0F840121849D1F81E
:10F3000040024FF07E5111F05BFC05D24FF07E5170
:10F310001348C0F840120AE01149D1F84002002118
:10F3200011F04EFB03D200210D48C0F8401200201E
:10F330000A4988600A4BD3F84022D3F8381293F870
:10F340004402002305F0FAF8FFF7ACFD0E48006810
:10F35000082801D105F071FCBDE8FF9F08AA002034
:10F36000F00E00200000F0416C0E0020F80D00208F
:10F370009A9999999999A93F0000C841FCA9F1D29D
:10F380004D62403F4D62503F480200202DE9F04F52
:10F390008DB082460C469146BAF14C0F04D2642CD3
:10F3A00002DC14F1640F03DA01200DB0BDE8F08F28
:10F3B0000AEB8A005D4901EB8001D1E90301CDE947
:10F3C00008010AEB8A00594901EB8001D1E90101EA
:10F3D000CDE906014FF08040069911F025FB054666
:10F3E000089911F01FFC0A904FF08040079911F026
:10F3F0001BFB0546099911F015FC0B90002C48DD0C
:10F40000069811F0E5F8CDE90401204611F0ACFAB8
:10F4100001900699089811F005FC0090019911F0EF
:10F4200003FB834611F0D4F80022414BCDE90201E1
:10F4300010F066FB0546DDE9042310F0A5FA074647
:10F4400010F070FAC9F80000079811F0C1F8CDE982
:10F450000401204611F088FA01900799099811F0EB
:10F46000E1FB0090019911F0DFFA834611F0B0F84A
:10F4700000222F4BCDE9020110F042FB0746DDE9E7
:10F48000042310F081FA054610F04CFAC9F8040084
:10F490004AE06442069811F09BF8074688462046E9
:10F4A00011F062FA019006990A9811F0BBFB0090E6
:10F4B000019911F0B9FA834611F08AF800221D4B28
:10F4C000CDE9020110F01CFB3A464346CDE90401A8
:10F4D00010F05AFA054610F025FAC9F8000007980E
:10F4E00011F076F807468846204611F03DFA019063
:10F4F00007990B9811F096FB0090019911F094FA7E
:10F50000834611F065F800220A4BCDE9020110F0A4
:10F51000F7FA3A464346CDE9040110F035FA0546BC
:10F5200010F000FAC9F8040000203EE7583E020837
:10F530000000594000C05C402DE9F04F89B00446FE
:10F54000E08810F0E5FC074600223C4B10F0D8FAAA
:10F55000054610F0E7F98146218940F2671201FB68
:10F5600002F010F0BEFC07460022344B10F0C8FA3F
:10F57000054610F089FC80B2ADF81800608910F0E3
:10F58000C7FC074600222D4B10F0BAFA054610F0D2
:10F59000C9F90790208810F0BBFC07460022274BD2
:10F5A00010F0AEFA054610F0BDF908902448D0F8E6
:10F5B0004802618848434FF6FF7190FBF1F000F07C
:10F5C000FF0AA0880EF04CFC834602AA594650461A
:10F5D000FFF7DCFE694606A803F0A6FD49464FF09A
:10F5E0007E5011F01FFB0746029911F01DFA0546E7
:10F5F0004846009911F018FA0646294611F014F809
:10F60000049049464FF07E5011F00CFB07460399D9
:10F6100011F00AFA05464846019911F005FA064626
:10F62000294611F001F80590002204A8089900F07D
:10F63000D3FC002009B0BDE8F08F0000E0FFEF40F0
:10F64000F00E00202DE9F04F89B00446E07810F06C
:10F650005FFC074600223B4B10F052FA054610F0C3
:10F6600061F98146217940F2671201FB02F010F046
:10F6700038FC07460022334B10F042FA054610F0E2
:10F6800003FC80B2ADF81800607910F041FC074629
:10F6900000222C4B10F034FA054610F043F9079085
:10F6A000207810F035FC07460022264B10F028FA8F
:10F6B000054610F037F908902348D0F848026178E1
:10F6C0004843FF2190FBF1F000F0FF0AA0780EF014
:10F6D00014FC834602AA59465046FFF757FE694676
:10F6E00006A803F021FD49464FF07E5011F09AFA2A
:10F6F0000746029911F098F905464846009911F01D
:10F7000093F90646294610F08FFF049049464FF0C2
:10F710007E5011F087FA0746039911F085F90546E6
:10F720004846019911F080F90646294610F07CFF01
:10F730000590002204A8089900F04EFC002009B0B2
:10F74000BDE8F08F00E06F40F00E00202DE9F05F83
:10F7500004461248D0F84802618848434FF6FF71CA
:10F7600090FBF1F000F0FF09A0880EF079FB8346D2
:10F77000208810F0CDFB07460022094B10F0C0F99D
:10F78000054610F0CFF882460023524659464846B7
:10F7900004F0D4FE0020BDE8F09F0000F00E002031
:10F7A000E0FFEF402DE9F05F04461148D0F8480231
:10F7B00061784843FF2190FBF1F000F0FF09A07849
:10F7C0000EF09BFB8346207810F0A2FB0746002238
:10F7D000084B10F095F9054610F0A4F88246002376
:10F7E00052465946484604F0A9FE0020BDE8F09F65
:10F7F000F00E002000E06F402DE9F04F93B004467A
:10F80000E08810F085FB074600224E4B10F078F997
:10F81000054610F087F881464B48D0F848026188C9
:10F8200048434FF6FF7190FBF1F000F0FF0AA0880B
:10F830000EF016FB0590208910F06AFB07460022A7
:10F84000404B10F05DF9054610F06CF80C906089A3
:10F8500010F05EFB074600223A4B10F051F90546C6
:10F8600010F060F80D90A08910F052FB07460022BE
:10F87000344B10F045F9054610F054F80E90E0892D
:10F8800010F046FB074600222E4B10F039F90546D2
:10F8900010F048F81190208A10F03AFB054600223B
:10F8A000284B10F02DF9074610F03CF812900AA8EA
:10F8B000039010A807C88DE807000CA80FC806F031
:10F8C000B1FA08AA50460599FFF760FD49464FF086
:10F8D0007E5011F0A7F90746089911F0A5F80546E2
:10F8E00048460A9911F0A0F80646294610F09CFEF9
:10F8F000069049464FF07E5011F094F90746099959
:10F9000011F092F8054648460B9911F08DF806461D
:10F91000294610F089FE0790208810F0F9FA054674
:10F920000022084B10F0ECF807460FF0FBFF83466F
:10F930000022594606A800F04FFB002013B0BDE896
:10F94000F08F0000E0FFEF40F00E00202DE9F04FB7
:10F9500093B00446E07810F0DBFA074600224D4BE6
:10F9600010F0CEF805460FF0DDFF81464A48D0F88A
:10F97000480261784843FF2190FBF1F000F0FF0A54
:10F98000A0780EF0BAFA0590207910F0C1FA074677
:10F990000022404B10F0B4F805460FF0C3FF0C9066
:10F9A000607910F0B5FA074600223A4B10F0A8F83B
:10F9B00005460FF0B7FF0D90A07910F0A9FA0746A1
:10F9C0000022344B10F09CF805460FF0ABFF0E9070
:10F9D000E07910F09DFA074600222E4B10F090F8C7
:10F9E00005460FF09FFF1190207A10F091FA05461E
:10F9F0000022284B10F084F807460FF093FF129076
:10FA00000AA8039010A807C88DE807000CA80FC823
:10FA100006F008FA08AA50460599FFF7B7FC4946D0
:10FA20004FF07E5011F0FEF80746089910F0FCFFE9
:10FA3000054648460A9910F0F7FF0646294610F099
:10FA4000F3FD069049464FF07E5011F0EBF8074663
:10FA5000099910F0E9FF054648460B9910F0E4FFBC
:10FA60000646294610F0E0FD0790207810F050FA85
:10FA700005460022074B10F043F807460FF052FFEF
:10FA800083460022594606A800F0A6FA002013B0CB
:10FA9000BDE8F08F00E06F40F00E00202DE9F84F38
:10FAA00004460D4691460020009002F0E3FF804698
:10FAB00010F072FF0746A54910F024FEA449086023
:10FAC000284610F085FD82460022A24B0EF002FE71
:10FAD00007460FF027FF0546284610F079FD074638
:10FAE0009D4A9E4B10F028FA03D800209C490880BC
:10FAF00003E04FF6FF709A4908809A48056002F0CB
:10FB0000B9FF824610F048FF8046904910F0FAFD98
:10FB100007468F480168384611F084F8924908601A
:10FB2000924890F8300290B94FF08041206810F070
:10FB30007BFF20604FF08041606810F075FF6060CF
:10FB40004FF08041A06810F06FFFA0600BE04FF015
:10FB50008041606910F0D6FD60614FF08041A0697E
:10FB600010F0D0FDA061D4E9000110F05DFD8246E7
:10FB7000A16810F059FD0746A16910F055FD8046B7
:10FB8000616910F051FD06460021304610F07CFE00
:10FB900008D07749284610F047FF0746314610F055
:10FBA000B1FD0646B9F1000F06D0B9F1010F64D0DE
:10FBB000B9F1020F7ED193E03146A06910F034FF15
:10FBC000074610F0B1FE6B4908803146206810F0FE
:10FBD0002BFF074610F0A8FE664948803146606852
:10FBE00010F022FF074610F09FFE624988803146E0
:10FBF000A06810F019FF074610F096FE5D49C88016
:10FC00003146606910F010FF074610F08DFE59492B
:10FC10000881012000F0B0F83146606910F004FF5F
:10FC2000074610F081FE534908803146A06810F065
:10FC3000FBFE074610F078FE4E494880314660686A
:10FC400010F0F2FE074610F06FFE4A4988803146F8
:10FC5000206810F0E9FE074610F066FE4549C880AE
:10FC60003146A06910F0E0FE074610F05DFE414904
:10FC70000881122000F080F800BF3146A06910F022
:10FC8000D3FE074610F050FE3A49088031462068FE
:10FC900010F0CAFE074610F047FE3649488031464C
:10FCA000606810F0C1FE074610F03EFE31498880C2
:10FCB000314600E045E0A06810F0B6FE074610F0BF
:10FCC00033FE2C49C8803146606910F0ADFE07460E
:10FCD00010F02AFE27490881012000F04DF831E09C
:10FCE0003146606910F0A0FE074610F01DFE214964
:10FCF00008803146A06810F097FE074610F014FE09
:10FD00001C4948803146606810F08EFE074610F0AE
:10FD10000BFE184988803146206810F085FE0746A2
:10FD200010F002FE1349C8803146A06910F07CFE35
:10FD3000074610F0F9FD0F490881122000F01CF869
:10FD400000E000BF00BFBDE8F88F00000024744948
:10FD5000840E00200000F83F9A9999999999B93F2B
:10FD6000800E00208C0E0020880E0020F00E002057
:10FD700000FF7F4754AA002030B502460023124CF2
:10FD8000A11800200DE0114C34F81040241201F8A5
:10FD900010400E4C14F81040012505EB40054C5561
:10FDA000401C0528EFDB0A4C248824128C72084C76
:10FDB0002478CC72002003E00C5C1C44E3B2401CAD
:10FDC0001028F9DB0B5430BD5EB2002054AA00208D
:10FDD000800E00200146302904DB392902DCA1F124
:10FDE00030007047412904DB462902DCA1F13700CD
:10FDF000F7E7612904DB662902DCA1F15700F0E78F
:10FE00004FF0FF30EDE70000042001490870704713
:10FE1000080D002010B50021024880F84C1206F0B1
:10FE200011FE10BDF00E002010B504462246024817
:10FE300003C805F0D5F810BD0C0D00202DE9FF47D3
:10FE40008EB09A4642490EA803F06EF928B141A03F
:10FE500001F0A5FB12B0BDE8F08752463C4810996E
:10FE600000F0BAF800B1F5E70CA8404A0390D2E9D7
:10FE700004109269CDE9010200913C480FC805F0D9
:10FE8000D1FF39A001F08BFB109810F0A1FB0446C4
:10FE90000D460F9810F09CFB06460B46CDE9004539
:10FEA000BDF83810324632A001F079FB2849486885
:10FEB00010F08EFB04460D462549086810F088FBBB
:10FEC000064632460B462FA0CDE9004501F067FB00
:10FED0000D9810F07DFB04460D460C9810F078FB51
:10FEE000064632460B462DA0CDE9004501F057FBF2
:10FEF0001E49886910F06CFB04460D461B49486991
:10FF000010F066FB06460F461849886810F060FB43
:10FF1000804689461549486810F05AFBCDE90A0128
:10FF20001249086810F054FBCDE90289CDE9046755
:10FF3000CDE90645CDE90801DDE90A01CDE9000179
:10FF40001CA0DDE9082301F02AFB00BF82E70000C6
:10FF5000A00D0020B1A5BACDB6C8D7AABBBBBAF3D5
:10FF6000C8CEC8BBC3BBD3D00D0A00005C9F002025
:10FF70004853492825642C252E32662C252E3266BE
:10FF8000290D0A00BCC6CBE3C9ABD7F8B1EA2825D6
:10FF90002E34662C252E3466290D0A00B7B4C0A174
:10FFA000C9ABD7F8B1EA28252E34662C252E346645
:10FFB000290D0A005247425757435728252E3466C9
:10FFC0002C252E34662C252E34662C252E34662CBA
:10FFD000252E3466290D0A002DE9F04105460F460D
:10FFE00014460C4AD5E900010BF0D2FE064616B1C4
:10FFF0003046BDE8F08124B939460648FEF786FE52
:020000040801F1
:1000000005E0601EC2B23946024804F08DFA0020B5
:10001000EFE700005C9F002010B5342026490870EF
:10002000264827490860002441E004EB840101EBE5
:10003000C401224A02EB810002F022F804EB8401A1
:1000400001EBC4011D4A02EB8101086204EB84014B
:1000500001EBC40102EB810001F072FF04EB8401AB
:1000600001EBC401154A02EB8101486204EB8401F3
:1000700001EBC40102EB810001F0A4FF04EB840159
:1000800001EBC4010D4A02EB8101C86204EB84015B
:1000900001EBC40102EB810002F026F804EB8401BD
:1000A00001EBC401054A02EB81018862641C02482D
:1000B00000788442B9DB10BD5C020020640200209D
:1000C000600200202DE9FC5F4FF000092148006824
:1000D00000F0020000283AD0002404E01E4830F866
:1000E00014008144641C642CF8DB6420B9FBF0F03C
:1000F0001A490860084600680FF00AFF0746184AC8
:10010000184B0FF055FF05460E46174800680FF0D4
:10011000FFFE0746154A164B0FF04AFF82462A4655
:1001200033460FF031FCCDE900010FF0ADFE0B4975
:100130000860084600680C49086002F0B5FC0D49EB
:1001400048620448406840F0020002494860BDE847
:10015000FC9F000000000240F4A50020440E002097
:10016000AE47E17A14AEEF3F480E00207B14AE4755
:10017000E17A843FF00E00200848006800F020007B
:1001800050B10020064908700448001D006840F086
:1001900020000249091D0860704700000004024069
:1001A000900E00202DE9F04104460E46671C04E045
:1001B0006D1CC82D01DDBDE8F0811348006A0028E0
:1001C000F6D10120114908601148006820F4401060
:1001D0000F49086000200F49C1F89401BE200CF0BF
:1001E00091FA01200949091D08600C200CF08AFAD7
:1001F0000748006840F40010054908603146204671
:100200000FF0AAF900BFD6E7000002409081224219
:10021000001401400080224200B59BB0FE4890F8D7
:100220005C0210286FD2DFE800F06E080C10144E4C
:100230006FCDF7F5F4F3F2F1F0EFF848FFF786FB36
:10024000AEE2F648FFF7AEFAFAE7F448FFF7FAF93C
:10025000F6E7F2480078C0EB0040FF2190FBF1F098
:10026000EF490880ED484078C0EB0040FF2190FB4B
:10027000F1F0EB494880E9488078C0EB0040FF216D
:1002800090FBF1F0E6498880E448C078C0EB00407C
:10029000FF2190FBF1F0E249C880E0480079C0EB13
:1002A0000040FF2190FBF1F0DD490881DB484079F7
:1002B000C0EB0040FF2190FBF1F0D949488108468E
:1002C00005F054FDBCE7D5480078C0EB0040FF21A5
:1002D00090FBF1F080B2ADF82C00D0484078C0EB34
:1002E000004090FBF1F080B2ADF82E00CB48807852
:1002F000C0EB004090FBF1F080B2ADF830000BA8ED
:1003000002F094FF9CE7FCE3C44800880012C34954
:10031000097840EA012080B2ADF85400BF48408817
:100320000012BE49897840EA012080B2ADF856003B
:10033000BA4880880012B949097940EA012080B2A0
:10034000ADF85800B548C0880012B449897940EA30
:10035000012080B2ADF85A00B04800890012AF49C0
:10036000097A40EA012080B2ADF85C00AB484089D0
:100370000012AA49897A40EA012080B2ADF85E00F5
:10038000A64880890012A549097B40EA012080B275
:10039000ADF86000A148C0890012A049897B40EAFD
:1003A000012080B2ADF862009C48008A00129B498F
:1003B000097C40EA012080B2ADF8640015A8FFF77F
:1003C0001BFA3DE79548008800129449097840EAF5
:1003D000012080B2ADF848009048808800128F4913
:1003E000097940EA012080B2ADF84C008B48408882
:1003F00000128A49897840EA012080B2ADF84A00AB
:1004000012A8FFF7A3F91BE7E5E3C7E21FE2C8E183
:100410009EE07BE040E0FFE78048008800127F49D3
:10042000097840EA012080B2ADF838007B48408866
:1004300000127A49897840EA012080B2ADF83A008A
:100440007648808800127549097940EA012080B217
:10045000ADF83C007148C08800127049897940EAC3
:10046000012080B2ADF83E006C48008900126B4953
:10047000097A40EA012080B2ADF84000674840891F
:1004800000126649897A40EA012080B2ADF8420044
:100490000EA8FFF751F8D3E66048008800125F49C4
:1004A000097840EA01205F4908805C4840880012D2
:1004B0005A49897840EA01205A494880574880883B
:1004C00000125649097940EA01205649888053486C
:1004D000C08800125149897940EA01205149C880F9
:1004E0004E48008900124D49097A40EA01204D49E1
:1004F00008814A48408900124849897A40EA012027
:1005000048494881084605F031FCF0E3434800883B
:1005100000124249097840EA012080B2ADF82C006F
:100520003E48408800123D49897840EA012080B267
:10053000ADF82E003948808800123849097940EA20
:10054000012080B2ADF830000BA802F06FFECEE3C0
:100550003248407801900FF0DBFC334A334BCDE951
:1005600002010FF025FDCDE906012C48007803902B
:100570000FF0CEFCCDE90401DDE906230FF004FA0B
:10058000CDE908010FF080FC254908700846007885
:1005900022490978884202DAFF20214908701F4861
:1005A000C07801900FF0B4FC1F4A204BCDE9020146
:1005B0000FF0FEFCCDE906011848807803900FF09B
:1005C000A7FCCDE90401DDE906230FF0DDF9CDE953
:1005D00008010FF059FC12494870084640780F494D
:1005E0008978884202DAFF200D4948700B4800796B
:1005F0000B49887009484079C8700848C079019053
:100600000FF086FC084A094BCDE902010FF0D0FC3F
:10061000CDE9060101480BE0F00E0020809A002091
:10062000BC9A0020CE9A00209A9999999999B93F3D
:10063000807903900FF06CFCCDE90401DDE906231D
:100640000FF0A2F9CDE908010FF01EFCFE49087178
:1006500008460079FD498979884202DAFF20FA4983
:100660000871FA48407A01900FF052FCF84AF94BB1
:10067000CDE902010FF09CFCCDE90601F348007AB8
:1006800003900FF045FCCDE90401DDE906230FF0EE
:100690007BF9CDE908010FF0F7FBEB4948710846FB
:1006A0004079EA49097A884202DAFF20E64948712E
:1006B000E648C07A01900FF02BFCE54AE54BCDE906
:1006C00002010FF075FCCDE90601E048807A039045
:1006D0000FF01EFCCDE90401DDE906230FF054F90B
:1006E000CDE908010FF0D0FBD74988710846807921
:1006F000D649897A884202DAFF20D3498871D348E3
:10070000407B01900FF004FCD14AD24BCDE90201AD
:100710000FF04EFCCDE90601CC48007B03900FF0B2
:10072000F7FBCDE90401DDE906230FF02DF9CDE952
:1007300008010FF0A9FBC449C8710846C079C34934
:10074000097B884202DAFF20BF49C871BF48C07BDD
:1007500001900FF0DDFBBE4ABE4BCDE902010FF068
:1007600027FCCDE90601B948807B03900FF0D0FB50
:10077000CDE90401DDE906230FF006F9CDE9080112
:100780000FF082FBB04908720846007AAF49897BB6
:10079000884202DAFF20AC490872AB48FFF7D6F86E
:1007A000A5E2AA48407801900FF0B2FBA84AA94BF5
:1007B000CDE902010FF0FCFBCDE90601A34800786A
:1007C00003900FF0A5FBCDE90401DDE906230FF04E
:1007D000DBF8CDE908010FF057FB9B49087008468C
:1007E00000789A490978884202DAFF209649087011
:1007F0009648C07801900FF08BFB954A954BCDE958
:1008000002010FF0D5FBCDE90601904880780390F6
:100810000FF07EFBCDE90401DDE906230FF0B4F80B
:10082000CDE908010FF030FB874948700846407851
:1008300086498978884202DAFF20834948708348D4
:100840000079814988700846FEF7ACFF4FE27F4887
:10085000407801900FF05CFB7D4A7E4BCDE90201B0
:100860000FF0A6FBCDE906017848007803900FF061
:100870004FFBCDE90401DDE906230FF085F8CDE952
:1008800008010FF001FB70490870084600786F49B5
:100890000978884202DAFF206B4908706B48C078FB
:1008A00001900FF035FB6A4A6A4BCDE902010FF067
:1008B0007FFBCDE906016548807803900FF028FBA7
:1008C000CDE90401DDE906230FF05EF8CDE908016A
:1008D0000FF0DAFA5C494870084640785B4989783D
:1008E000884202DAFF205849487058480079564932
:1008F000887056484079C8705448C07901900FF00C
:1009000007FB534A534BCDE902010FF051FBCDE9F0
:1009100006014E48807903900FF0FAFACDE9040100
:10092000DDE906230FF030F8CDE908010FF0ACFA4D
:10093000454908710846007944498979884202DAB4
:10094000FF20414908714148407A01900FF0E0FAD8
:100950003F4A404BCDE902010FF02AFBCDE90601E9
:100960003A48007A03900FF0D3FACDE90401DDE9AB
:1009700006230FF009F8CDE908010FF085FA324996
:100980004871084640793149097A884202DAFF20E5
:100990002D4948712C48FEF755FEA8E12B484078B8
:1009A00000EB002001900FF09CFA294A294BCDE979
:1009B00002010FF0FDFACDE906012448007800EBB2
:1009C000002003900FF08DFACDE90401DDE9062344
:1009D0000EF0DAFFCDE908010FF056FA0A900A98F6
:1009E000B0F5803F04D34FF6FF701749088002E04E
:1009F00015490A9808801548C07800EB002001903E
:100A00000FF06FFA124A134BCDE902010FF0D0FA42
:100A1000CDE906010D48807800EB002003900FF02F
:100A200060FACDE90401DDE906230EF0ADFFCDE962
:100A300008010FF029FA0A900A98B0F5803F0DD30B
:100A40004FF6FF70004907E0BC9A0020809A002012
:100A50009A9999999999B93F488002E0A5490A98CD
:100A60004880A548407900EB002001900FF039FA4A
:100A7000A24AA34BCDE902010FF09AFACDE9060193
:100A80009D48007900EB002003900FF02AFACDE991
:100A90000401DDE906230EF077FFCDE908010FF030
:100AA000F3F90A900A98B0F5803F04D34FF6FF702F
:100AB0009049888002E08F490A9888808E48C079E2
:100AC00000EB002001900FF00CFA8C4A8C4BCDE922
:100AD00002010FF06DFACDE906018748807900EB3D
:100AE000002003900FF0FDF9CDE90401DDE90623B4
:100AF0000EF04AFFCDE908010FF0C6F90A900A98F6
:100B000000E0F3E0B0F5803F04D34FF6FF70794981
:100B1000C88002E077490A98C8807748407A00EB9D
:100B2000002001900FF0DDF9744A754BCDE9020108
:100B30000FF03EFACDE906016F48007A00EB002085
:100B400003900FF0CEF9CDE90401DDE906230EF0A4
:100B50001BFFCDE908010FF097F90A900A98B0F54C
:100B6000803F04D34FF6FF706249088102E061497B
:100B70000A9808816048C07A00EB002001900FF0CD
:100B8000B0F95E4A5E4BCDE902010FF011FACDE9F2
:100B900006015948807A00EB002003900FF0A1F97C
:100BA000CDE90401DDE906230EF0EEFECDE90801F2
:100BB0000FF06AF90A900A98B0F5803F04D34FF617
:100BC000FF704C49488102E04A490A9848814948E7
:100BD00005F0CCF88BE04848407800EB002001900D
:100BE0000FF07FF9454A464BCDE902010FF0E0F9DD
:100BF000CDE906014048007800EB002003900FF09B
:100C000070F9CDE90401DDE906230EF0BDFECDE962
:100C100008010FF039F90A900A98B0F5803F04D323
:100C20004FF6FF703349088002E032490A98088085
:100C30003148C07800EB002001900FF052F92F4AA4
:100C40002F4BCDE902010FF0B3F9CDE906012A4897
:100C5000807800EB002003900FF043F9CDE9040108
:100C6000DDE906230EF090FECDE908010FF00CF946
:100C70000A900A98B0F5803F04D34FF6FF701D49E3
:100C8000488002E01B490A9848801B48407900EBE5
:100C9000002001900FF025F9184A194BCDE9020107
:100CA0000FF086F9CDE906011348007900EB00202A
:100CB00003900FF016F9CDE90401DDE906230EF0EB
:100CC00063FECDE908010FF0DFF80A900A98B0F54D
:100CD000803F04D34FF6FF700649888002E0054943
:100CE0000A988880034802F0A1FA00E000BF00BF24
:100CF0001BB000BDBC9A0020809A00209A99999957
:100D00009999B93F10B5204890F8200040B10020D3
:100D10001D4981F82000FFF77FFAC8201B490870A1
:100D20001A480078002804DD18480078401E17494A
:100D3000087016480078A8B1134890F8210008BB45
:100D40000120114981F8210081F82200084690F81D
:100D5000300281F8230000F0FFFB05210A4880F8EB
:100D600030120FE0084890F8210001280AD1002035
:100D7000054981F82100084690F8231080F83012C8
:100D800001F004FE10BD0000F00E00204C0D00200C
:100D900070B592B00446022600224D4803C804F004
:100DA0001FF9002510E04EF65B700090494800EBFB
:100DB000C50001680391406803460A460490444810
:100DC00003C804F01EF96D1C022DECDB4EF65B70BF
:100DD00041490880002041490880414890F84C0270
:100DE00000283AD03F4802783FA105A8FBF700FF52
:100DF000002005A910220192CDE90221049064206F
:100E0000009034484088304483B232480088103023
:100E100082B22F4803C804F04DFA324800782044CB
:100E2000431E3048027832A105A8FBF7E1FE0020FE
:100E300005A910220192CDE90221049064200090BE
:100E400024484089304483B222480089103082B25D
:100E50001F4803C804F02EFA35E02248027827A183
:100E600005A8FBF7C5FE002005A910220192CDE9D7
:100E7000022104906420009016484088304483B2D8
:100E800014480088103082B2114803C804F012FAE6
:100E9000144800782044431E1248027819A105A87E
:100EA000FBF7A6FE05A810210122CDE90021029042
:100EB000084881680391C06803460A4604900448C4
:100EC00003C804F07FFA01F067F912B070BD0000AA
:100ED0000C0D0020841700202A0D0020280D002072
:100EE000F00E0020FB0D0020414444523A256400DE
:100EF00043483A25642D256400000000B5D8D6B7D4
:100F00003A256400CDA8B5C03A25642D25640000BB
:100F10002DE9F04786B04E4890F85C02102836D292
:100F2000DFE800F035080B0E1114171A1D202326D8
:100F3000292C2F324FF00C0A2AE04FF0070A27E045
:100F40004FF00A0A24E04FF0090A21E04FF0070AA7
:100F50001EE04FF0120A1BE04FF00A0A18E04FF0B3
:100F6000100A15E04FF00E0A12E04FF00A0A0FE0E7
:100F70004FF0120A0CE04FF0090A09E04FF00E0A98
:100F800006E04FF00E0A03E04FF00A0A00E000BF4F
:100F900000BF3048806800284CD02F492F48006897
:100FA0000FF00EFE27D22D4800680FF011FB064609
:100FB0000F46284988680EF094FF8046284A294B3E
:100FC0000EF0F6FF32463B46CDE900010EF0F0FF91
:100FD00004460D46244800780EF09AFF22462B4620
:100FE000CDE902010FF00AFACDE904010EF04CFF41
:100FF0001D49087006E01748007A1B490978081A4D
:101000001949087018480078FF2804D1CAF1000077
:101010001549087008E0CAF58070134909788842BC
:1010200002DA0020104908705046FFF7B1FE002098
:10103000084988600D480068082806D10A480178E8
:10104000034880F85A1203F0F8FD06B0BDE8F087B7
:10105000F00E002008AA0020000020426C0E0020A4
:101060009A9999999999A93FFB0D0020480200206F
:1010700010B5244890F85C02102827D2DFE800F071
:1010800026080A0C0E10121416181A1C1E202224F0
:101090000C241CE007241AE00A2418E0092416E0B6
:1010A000072414E0122412E00A2410E010240EE0B9
:1010B0000E240CE00A240AE0122408E0092406E0C9
:1010C0000E2404E00E2402E00A2400E000BF00BF6A
:1010D0000C4890F84C0218B10BA002F091F902E014
:1010E0000DA002F08DF900BF0E4800780028FBD15A
:1010F000044890F85A020C4908702046FFF748FE51
:1011000010BD0000F00E002053455420444D5820DF
:101110004144445200000000C9E8D6C3444D58B5CC
:10112000D8D6B700900E0020FB0D00202DE9F0412D
:1011300092B005460E4617464FF002080022354889
:1011400003C803F04DFF002410E04EF65B700090E2
:10115000314800EBC40001680391406803460A4629
:1011600004902C4803C803F04CFF641C032CECDBF8
:101170004CF21860294908800020294908802A4635
:1011800028A105A8FBF734FD1E202749087005A8F3
:1011900001211023244ACDE900101F491D4804F005
:1011A0005FF932461FA105A8FBF722FD05A8102113
:1011B0000122CDE900210290174881680391C0689F
:1011C00003460A460490134803C804F0FBF8174886
:1011D00090F85A023844431E144890F85A2214A139
:1011E00005A8FBF705FD05A810210122CDE9002186
:1011F0000290094801690391406903460A46049038
:10120000044803C804F0DEF800F0C6FF12B0BDE8E1
:10121000F08100000C0D0020841700202A0D002012
:10122000280D002025730000060E0020F00E00207F
:1012300043483A25642D25640000000010B5864817
:101240008068F8B184488068002805DD834800780C
:10125000401E8249087004E080480078401C7F49A5
:1012600008707E4800780F2802DD0F207B49087047
:101270007A480078012802DA0120784908700020B5
:10128000754988600022764803C803F0A9FE7548B6
:1012900090F84C02002869D070480078102863D27A
:1012A000DFE800F062080E141A20262C32383E4483
:1012B0004A50565C0C226CA16DA0FFF737FF54E03A
:1012C000072269A16EA0FFF731FF4EE00A2266A156
:1012D0006DA0FFF72BFF48E0092263A16DA0FFF787
:1012E00025FF42E0072260A16DA0FFF71FFF3CE051
:1012F00012226DA16EA0FFF719FF36E00A226AA143
:101300006FA0FFF713FF30E0102267A16EA0FFF778
:101310000DFF2AE00E226FA170A0FFF707FF24E067
:101320000A2261A170A0FFF701FF1EE0122270A146
:1013300072A0FFF7FBFE18E009226DA173A0FFF772
:10134000F5FE12E00E226AA172A0FFF7EFFE0CE09C
:101350000E2267A172A0FFF7E9FE06E00A2264A14F
:1013600072A0FFF7E3FE00E000BF69E03B480078B1
:10137000102863D2DFE800F062080E141A20262C31
:1013800032383E444A50565C0C226AA138A0FFF71E
:10139000CDFE54E0072267A139A0FFF7C7FE4EE05B
:1013A0000A2264A138A0FFF7C1FE48E0092261A12A
:1013B00038A0FFF7BBFE42E007225EA138A0FFF78E
:1013C000B5FE3CE012225CA139A0FFF7AFFE36E08B
:1013D0000A2259A13AA0FFF7A9FE30E0102256A137
:1013E00039A0FFF7A3FE2AE00E2255A13BA0FFF78C
:1013F0009DFE24E00A2250A13BA0FFF797FE1EE0CD
:10140000122251A13DA0FFF791FE18E009224EA142
:101410003EA0FFF78BFE12E00E224BA13DA0FFF78E
:1014200085FE0CE00E2248A13DA0FFF77FFE06E0FE
:101430000A2245A13DA0FFF779FE00E000BF00BFF2
:1014400044480068082806D104480178054880F817
:101450005C1203F0F2FB10BD08AA0020FA0D002078
:101460000C0D0020F00E00203842495453000000BB
:101470004D313A4343542652474257574357000091
:101480004D323A43435400004D333A4343542648C7
:10149000534900004D343A524742575743570000D2
:1014A0004D353A4853490000313642495453000003
:1014B0004D363A434354265247425757435700004C
:1014C0004D373A43435400004D383A43435426487D
:1014D0005349000031364269747300004D393A5265
:1014E00047425757435700004D31303A485349005F
:1014F000436F6172652F46696E6500004D31313A68
:101500004343542652474257574357004D31323ACE
:10151000434354004D31333A434354264853490022
:101520004D31343A52474257574357004D31353ABF
:101530004853490038CEBB003136CEBB0000000016
:10154000313642CEBB000000B4D6B5F72FCFB8B5C8
:10155000F70000004802002010B5094890F84C023E
:1015600018B108A001F04CFF02E009A001F048FF0B
:10157000034890F85C0208490870FFF75FFE10BD51
:10158000F00E0020444D58204D4F4445000000000F
:10159000444D58C4A3CABD00FA0D002070477047DF
:1015A00010B5094890F84C0218B108A001F028FFC6
:1015B00002E008A001F024FF4EF65B70FEF734FC59
:1015C00000F0EAFD10BD0000F00E00204445464149
:1015D000554C5400B3F6B3A7C9E8D6C300000000C9
:1015E00008B54EF65B70FEF71FFC4EF65B700E49B9
:1015F000088000200D4908800DA010230022194604
:101600000090164803F049FC15480068082805D1E9
:101610004FF40C7213491448FBF7D9FC0DF02EF867
:1016200000F0BAFD08BD00002A0D0020280D0020A2
:1016300041726520796F75207375726520746F2013
:10164000726573746F72652064656661756C742071
:10165000706172616D65746572733F000C0D0020DE
:101660004802002000000020240F002070B501F087
:1016700001FA06460FF090F905460C490FF042F8C2
:1016800004460B48816920460FF0CCFA0849C8612E
:101690000CF05CFC01F0EEF905460FF07DF9044614
:1016A00002490FF02FF80249886170BD0024744987
:1016B0000C85002070B501F0DDF906460FF06CF9DD
:1016C00005460E490FF01EF804460D4801682046F5
:1016D0000FF0A8FA0A4948600A490B4807F084FD50
:1016E00001F0E4FE01F0C6F905460FF055F9044695
:1016F00002490FF007F80249086070BD00247449E0
:101700000C850020001700205411002070B51548EA
:101710000068401C13490860084600680A2800DA7F
:1017200070BD00200F49086001F0A4F906460FF0D3
:1017300033F905460C490EF0E5FF04460B48016AF3
:1017400020460FF06FFA0949486201F093F9054607
:101750000FF022F9044604490EF0D4FF0349086251
:1017600000BFDDE71C0D0020002474490C8500201B
:1017700070B501F07FF906460FF00EF905460D49E8
:101780000EF0C0FF04460C48816820460FF04AFA6C
:101790000949C8600DF0B4FFFFF7B4FA01F06AF927
:1017A00005460FF0F9F8044602490EF0ABFF024976
:1017B000886070BD002474490C85002070B502F06B
:1017C000ABFE01F057F905460FF0E6F80446134961
:1017D0000EF098FF1249886202F0DFFF114850B105
:1017E0001149086002F0D8F800BF104800780028BE
:1017F000FBD102F0D1FF01F03DF906460FF0CCF825
:10180000054606490EF07EFF04460548816A2046DB
:101810000FF008FA0249C86270BD00000024744944
:101820000C8500209C1700200C0D0020900E00203D
:1018300070B501F01FF906460FF0AEF805460B49EA
:101840000EF060FF04460A48016920460FF0EAF9ED
:101850000749486101F00EF905460FF09DF804466E
:1018600002490EF04FFF0249086170BD002474491F
:101870000C85002010B51E480078012836D1FFF7EE
:1018800019FF1B48B0F90400022804DB00201849A6
:101890008880FFF76DFF1648B0F90600052804DBC5
:1018A00000201349C880FFF7C3FF1148B0F90800B2
:1018B0000A2804DB00200E490881FFF7D7FE0C48F8
:1018C000B0F90A00142804DB002009494881FFF719
:1018D0001DFF0748B0F90C00322804DB0020044942
:1018E0008881FFF76BFF00200149087010BD0000E0
:1018F000FC8400202DE9F04FABB007468B4616461E
:1019000000202A900024CDF8A0D0642029903946E8
:1019100019A80BF05EFD8046B8F1000F53D100BF4F
:1019200022A919A80BF074FE8046DDF8A0909DF85E
:1019300091002E2800D1F3E7B8F1000F02D12898CA
:10194000007828B99DF8910000B938E00DF19109AF
:101950004846FFF724FE1EA0FFF721FE9DF89000E9
:1019600000F0100000B1DBE759464846FBF78DFA5E
:1019700020B918A14846FBF788FAF8B104EB8401B6
:1019800006EB81001421FBF754FB4846FBF7BBFA3A
:101990000546142D02DDA5F1140A01E04FF0000AFE
:1019A000A5EB0A0209EB0A0104EB840306EB8300B2
:1019B000FBF7C8FA641C0A2C00DB00E0B0E700BFAC
:1019C0000CB904202A902A982BB0BDE8F08F0000B3
:1019D0000D0A00002E4353560000000010B52248A7
:1019E000806800F4005058B31F48806800F48040BD
:1019F00088B11E48007802281ED11D484068401E4C
:101A00001B49486001201B4908701B484068401C66
:101A10001949486010E01548007801280CD1144895
:101A20004068401C12494860012012490870124861
:101A30004068401C1049486000200C4908700DE0C7
:101A40000DF0EEFB0848806800F4804018B10120DA
:101A50000649087002E00220044908704FF4005063
:101A60000649086010BD0000001001407E0E0020F5
:101A700008AA0020640E002014AA002014040140CB
:101A800010B52148006800F0020058B31E480068F5
:101A900000F0040088B11D48007802281ED11C48BF
:101AA0000068401E1A49086001201A4908701A4847
:101AB0000068401C1849086010E0144800780128AC
:101AC0000CD113480068401C1149086001201149DD
:101AD000087011480068401C0F49086000200B493D
:101AE00008700DE00DF09CFB0748006800F0040052
:101AF00018B101200549087002E00220034908706E
:101B000002200649086010BD081801407C0E002024
:101B100008AA0020640E002014AA0020140401402A
:101B200010B52148006800F0100058B31E48006846
:101B300000F0200088B11D48007802281ED11C4802
:101B40008068401E1A49886001201A4908701A48A6
:101B50008068401C1849886010E01448007801280B
:101B60000CD113488068401C11498860012011493C
:101B7000087011488068401C0F49886000200B499C
:101B800008700DE00DF04CFB0748006800F02000E5
:101B900018B101200549087002E0022003490870CD
:101BA00010200649086010BD081801407D0E002075
:101BB00008AA0020640E002014AA0020140401408A
:101BC00010B51E48006800F4007068B31C48006837
:101BD000C0EB00401B49898C08441B49086008463B
:101BE0000068582825D3084600681849884220D83C
:101BF0000DF000FB1648007816490978884204D099
:101C000015480068401C14490860124800781049C3
:101C1000087000200F4908700B4800880F490880A1
:101C200000200F49088004E00020054908600549AC
:101C300088844FF400700B49086010BD08140140FF
:101C40004C0E002000100040500E002040420F00BB
:101C5000600E0020560E0020580E00205C0E002062
:101C6000540E002014040140002123498279002AE7
:101C70003AD00A46126803689A430B461A600A1D56
:101C8000126803689A430B1D1A60027911440A68AE
:101C900003681A430A60184A0832126803689A43B4
:101CA000154B08331A601A1D126803689A43124BC9
:101CB0000C331A604279102A0ED11A1F1268036879
:101CC0001A430D4B08331A601A1D126803681A4331
:101CD000094B0C331A600DE00749427911440A6838
:101CE00003681A430A6005E0027911440A68036830
:101CF0009A430A60704700000004014010B50121BA
:101D0000024880F84C1204F09DFE10BDF00E002039
:101D100008B5184890F84C0218B117A001F070FBF4
:101D200002E018A001F06CFB4EF65B70FEF77CF849
:101D30004EF65B7017490880002017490880174944
:101D400008700C4890F84C0240B115A010230022F6
:101D500019460090164803F0A0F807E015A01023DC
:101D6000002219460090124803F097F800F014FA88
:101D700008BD0000F00E002046414E204155544F52
:101D800000000000B7E7C9C8D7D4B6AFBFD8D6C6E1
:101D9000000000002A0D0020280D0020FC0D00206E
:101DA0005365742046414E204155544F00000000B9
:101DB0000C0D0020B7E7C9C8D7D4B6AFB5F7BDDA68
:101DC0000000000008B51B4890F84C0218B11AA09A
:101DD00001F016FB02E01AA001F012FB4EF65B7058
:101DE000FEF722F84EF65B7018490880002018496B
:101DF00008800220174908700E4890F84C0240B144
:101E000015A01023002219460090194803F045F848
:101E100007E018A01023002219460090144803F090
:101E20003CF800F0B9F918480068082801D102F020
:101E300004FF08BDF00E002046414E20444D5800DE
:101E4000444D5820BFD8D6C6000000002A0D0020FF
:101E5000280D0020FC0D002046414E2069732063B0
:101E60006F6E74726F6C20627920444D582E0000A2
:101E70000C0D0020B7E7C9C8CDA8B9FD444D58BF27
:101E8000D8D6C6A1A30000004802002008B5184813
:101E900090F84C0218B117A001F0B2FA02E017A0B6
:101EA00001F0AEFA4EF65B70FDF7BEFF4EF65B70CA
:101EB0001549088000201549088001201449087040
:101EC0000B4890F84C0240B10AA01023002219469A
:101ED0000090104802F0E1FF07E00FA0102300225D
:101EE000194600900B4802F0D8FF00F055F908BDE4
:101EF000F00E002046414E204F464600B7E7C9C8C5
:101F0000B9D8B1D5000000002A0D0020280D00200E
:101F1000FC0D00200C0D0020B9D8B1D5B7E7C9C819
:101F20000000000010B50446044804800120FDF7BD
:101F300023FF1220FDF720FF10BD0000800E0020BF
:101F400030B504460022052100E0491E605C0028EF
:101F5000FBD0052901D1002030BD28E000230CE092
:101F600002EB820000EBC200144D05EB8000C05C68
:101F7000E55CA84200D002E05B1C8B42F0DD00BFB4
:101F800002EB820000EBC2000C4D05EB8005481C03
:101F9000285C01280AD1481C834207D102EB820049
:101FA00000EBC200054D05EB8000D5E7521C04484C
:101FB00000788242D2DB0020CEE7000064020020DD
:101FC0005C02002030B503460022052100E0491ED6
:101FD000585C0028FBD0585C012801D1002030BD9E
:101FE000491C42E0012915D102EB820000EBC2003E
:101FF000214D05EB8005481E2D5C481E185C401ED7
:10200000854231D102EB820000EBC2001A4D05EB94
:102010008000E4E700240CE002EB820000EBC20049
:10202000154D05EB8000005D1D5DA84200D002E06B
:10203000641C8C42F0DB00BF02EB820000EBC200AC
:102040000D4D05EB8005481E2D5C185C401E854239
:102050000AD1481EA04207D102EB820000EBC20069
:10206000054D05EB8000BAE7521C04480078824217
:10207000B8DB0020B3E70000640200205C0200200F
:1020800030B504460023052100E0491E605C0028AD
:10209000FBD009B9002030BD1CE000220CE003EBAE
:1020A000830000EBC3000E4D05EB8000805CA55C57
:1020B000A84200D002E0521C8A42F0DB00BF8A42F4
:1020C00007D103EB830000EBC300054D05EB800057
:1020D000E1E75B1C034800788342DEDB0020DAE79F
:1020E000640200205C02002030B503460022052176
:1020F00000E0491E585C0028FBD0491C42E0012941
:1021000015D102EB820000EBC200214D05EB8005EA
:10211000481E2D5C481E185C401C854231D102EBE4
:10212000820000EBC2001A4D05EB800030BD002498
:102130000CE002EB820000EBC200154D05EB8000C5
:10214000005D1D5DA84200D002E0641C8C42F0DB03
:1021500000BF02EB820000EBC2000D4D05EB8005D5
:10216000481E2D5C185C401C85420AD1481EA042C6
:1021700007D102EB820000EBC200054D05EB8000A9
:10218000D4E7521C034800788242B8DB0020CDE738
:10219000640200205C02002010B5034814210CC822
:1021A0000A2001F08FFE10BD0C0D0020F0B599B093
:1021B0000022874803C802F013FF4EF65B70854982
:1021C00008800020844908801822844906A8FAF76C
:1021D000FEFE00240CE04EF65B70009006A800EBBB
:1021E000C4057B48D5E9002303C802F00AFF641C3C
:1021F000032CF0DB7A4890F84C02002870D0784825
:1022000090F8580060B177A010210022CDE900219C
:1022100002906F48DDE9062303C803F0D3F80BE012
:1022200075A010210022CDE9002102906848DDE967
:10223000062303C803F0C6F8694890F8590000EB7C
:102240004000714951F8302070A10CA8FAF7D0FC79
:1022500000200CA910220192CDE9022104908C20CB
:102260000090BDF82200401C83B2BDF82000103061
:1022700082B2574803C803F01DF8594890F8590036
:1022800000EB4000604901EBC00040680090BDF8E1
:102290002200113082B2BDF82000401C81B2102310
:1022A0004B4802F0FAFD4E49C86D5A490EF0BCFB8E
:1022B00007460EF08DF905462A460B4656A10CA896
:1022C000FAF796FC0CA810210022CDE9002102901B
